:100000000C9449000C947D000C947D000C947D00B0
:100010000C947D000C947D000C947D000C947D006C
:100020000C947D000C94141D0C94BD1B0C94E31CCB
:100030000C94501C0C94811C0C948C1B0C941F1C55
:100040000C9486180C947D000C9479020C9408038F
:100050000C947D000C947D000C947D000C947D002C
:100060000C94B21C0C94D81D0C94451D0C94761D58
:100070000C94A71D0C94EE1B0C944A020C94C10224
:100080000C947D000C947D000C947D003004770569
:10009000700511241FBECFEFD0E1DEBFCDBF88E4D5
:1000A00083BF84E00E94021A12BE87B7816087BFB7
:1000B000789413E0A0E0B1E0E8E6F7E400E00BBFDD
:1000C00002C007900D92AC33B107D9F715E0ACE34D
:1000D000B3E001C01D92AE30B107E1F710E0C0E916
:1000E000D0E004C02297FE010E949122CC38D107B3
:1000F000C9F70E94091E0C94A7230C940000FB0171
:10010000EE0FFF1FE75FFC4F808160E070E00E9410
:10011000D51A08950F931F93CF93DF93EB018A01B4
:10012000CC0FDD1F57FD0CC0FE01EF5FFC4F80813F
:1001300061E00E947819C75FDC4F8881B8010EC06A
:10014000FE01EF5FFC4F808160E00E947819C75F7D
:10015000DC4F66277727601B710B88810E94D51AB8
:10016000DF91CF911F910F9108951F93CF93DF934C
:10017000C0E0D0E0FE01EF5FFC4F1081812F61E015
:100180000E942F19812F61E00E947819FE01E75F1C
:10019000FC4F808160E070E00E94D51A2296C83042
:1001A000D10541F7DF91CF911F910895FC01108295
:1001B0008AE090E0938382830895CF93DF93EC01EC
:1001C0008A8160E00E9478198D8160E00E94A81900
:1001D0008D8160E00E94CA198B8161E00E947819CC
:1001E0008C8161E00E9478190000000010C08C81B1
:1001F00060E00E94781900000000000000008C817F
:1002000061E00E94781900000000000000008D816C
:100210000E94BF1987FDEBCF8C8160E00E947819A6
:10022000DF91CF910895FF920F931F938C01F62ECB
:100230000E94DD00F801828161E00E947819F801D6
:10024000838160E00E947819F801848161E00E9456
:100250007819F801858161E00E94A819F80185816B
:100260006F2D0E94CA190000000000000000F80174
:10027000848160E00E947819F801858160E00E9425
:10028000A819F80185816FEF0E94CA191F910F917B
:10029000FF900895EF92FF920F931F93CF93DF93F8
:1002A0007C01042F6115710551F0EB0110E005C0D0
:1002B000C70169910E9413011F5F1017C8F3DF91F6
:1002C000CF911F910F91FF90EF900895DF93CF93FF
:1002D0000F92CDB7DEB76983BE016F5F7F4F41E0FC
:1002E0000E944A010F90CF91DF910895FF920F93E2
:1002F0001F938C01F62E0E94DD00F801828160E0E0
:100300000E947819F801838160E00E947819F80151
:10031000848161E00E947819F801858161E00E9482
:10032000A819F80185816F2D0E94CA1900000000EC
:1003300000000000F801848160E00E947819F80153
:10034000858160E00E94A819F80185816FEF0E9405
:10035000CA191F910F91FF900895423031F0433038
:1003600031F0413029F4605C03C06C5E01C06C5A0E
:1003700060680E947601089562E00E947601089507
:1003800061E00E94760108950F931F938C01FC0198
:10039000828160E00E947819F801838160E00E9408
:1003A0007819F801848160E00E947819F80182814F
:1003B00061E00E942F19F801838161E00E942F19EA
:1003C000F801848161E00E942F19F801858160E0C5
:1003D0000E94A819F80185816FEF0E94CA191F9128
:1003E0000F9108950F931F938C010E94C401C801BF
:1003F00068E30E947601C80161E00E947601C801AD
:1004000066E00E947601C8016CE00E947601C80196
:1004100062E00E947601C80160E80E9476011F91A7
:100420000F9108950F93FC0185E193E09183808300
:100430006283438324830583CF010E94F2010F91DD
:100440000895FC0124813581C9010895DC01FC0176
:1004500082819381809714F080E00895FD0182816C
:10046000938101969383828384819581E80FF91F9C
:1004700060870196FD01958384832D913C911197AE
:100480008217930714F481E00895FD011582148208
:1004900081E008951F920F920FB60F920BB60F9244
:1004A00011242F933F934F935F936F937F938F9379
:1004B0009F93AF93BF93EF93FF93E091D203F0919B
:1004C000D30360818AE893E00E942602FF91EF91B6
:1004D000BF91AF919F918F917F916F915F914F915C
:1004E0003F912F910F900BBE0F900FBE0F901F905A
:1004F00018951F920F920FB60F920BB60F92112400
:100500002F933F934F935F936F937F938F939F931B
:10051000AF93BF93EF93FF93E0918603F09187032E
:1005200060818EE393E00E942602FF91EF91BF91DC
:10053000AF919F918F917F916F915F914F913F917B
:100540002F910F900BBE0F900FBE0F901F9018951C
:10055000DC01FC01828193810197938382838681F0
:100560009781E80FF91F40850196FD0197838683E7
:100570002D913C918217930714F017821682842FD5
:1005800008951F920F920FB60F920BB60F9211247F
:100590000F931F932F933F934F935F936F937F938B
:1005A0008F939F93AF93BF93EF93FF938091B40387
:1005B0009091B5031816190654F40091D2031091C6
:1005C000D30382EB93E00E94A802F801808380911C
:1005D000B4039091B503892B31F4E091D003F091ED
:1005E000D10388E98083FF91EF91BF91AF919F91F3
:1005F0008F917F916F915F914F913F912F911F91BB
:100600000F910F900BBE0F900FBE0F901F9018957B
:100610001F920F920FB60F920BB60F9211240F93E9
:100620001F932F933F934F935F936F937F938F937A
:100630009F93AF93BF93EF93FF9380916803909143
:1006400069031816190654F4009186031091870364
:1006500086E693E00E94A802F801808380916803F7
:1006600090916903892B31F4E0918403F091850323
:1006700088E98083FF91EF91BF91AF919F918F9116
:100680007F916F915F914F913F912F911F910F91AA
:100690000F900BBE0F900FBE0F901F901895DC01AE
:1006A000FC01828193810197938382838681978164
:1006B000E80FF91F40850196FD01978386832D91F0
:1006C0003C918217930714F017821682842F0895A5
:1006D000FC0184819581892B19F42FEF3FEF06C02F
:1006E000CF0102960E944F03282F30E0C9010895E0
:1006F000CF93DF93EC01EE81FF81E80FF91F808536
:10070000DF91CF910895FC0184819581892B19F4A3
:100710002FEF3FEF06C0CF0102960E947803282FEB
:1007200030E0C9010895FC01138212828281938115
:100730009783868395838483089502960E9493030A
:100740000895FC0180E290E091838083CF010E94B4
:1007500093030895DC01FC0182819381409714F09A
:1007600080E00895FD0182819381019693838283C5
:1007700084819581E80FF91F60870196FD019583BB
:1007800084832D913C9111978217930714F481E093
:100790000895FD011582148281E00895CF93DF93BF
:1007A000EC018CA59DA54097E4F7F894CE018A96BC
:1007B0000E94AA03C85BDF4FE881F98180818062D3
:1007C00080837894DF91CF910895FC011382128287
:1007D0008281938197838683958384830895FC0126
:1007E00080E190E091838083CF010E94E50308952A
:1007F0006F927F928F929F92AF92BF92CF92DF9231
:10080000EF92FF920F931F936C015B014A01390134
:10081000FC018BE193E081939193CF010E94A103AE
:10082000C6018A960E94EF0382E490E0C80ED91EAA
:10083000F601A192B192819291926192719201938B
:100840001193F182E0821F910F91FF90EF90DF9062
:10085000CF90BF90AF909F908F907F906F900895B2
:10086000EF92FF920F931F938CE393E060E970E0A7
:1008700049E250E02BE230E00AE210E0FCE2EF2E29
:10088000F12C0E94F80388E893E068E970E049E9F8
:1008900050E02BE930E00AE910E0ECE9EE2EF12C13
:1008A0000E94F8031F910F91FF90EF90089588E741
:1008B00090E090934202809341022CE330E0309329
:1008C00044022093430281EE90E09093460280938D
:1008D000450290934802809347021092E9031092D8
:1008E000E80330934A022093490230934C0220934C
:1008F0004B0282EC91E090934E0280934D0286E28F
:1009000092E09093500280934F028AEF90E0909390
:1009100052028093510280ED97E0909354028093AD
:1009200053021092EB031092EA031092FF0310920D
:10093000FE0384E893E0909356028093550284E08E
:1009400090E0909358028093570288EC90E0909347
:100950005A028093590284E195E090935C0280935F
:100960005B0208951092B7041092B604089581E0D6
:1009700090E09093D0028093CF0280ED97E0A0E0CA
:10098000B0E08093D1029093D202A093D302B093AF
:10099000D40208959093CF048093CE0408950F93CA
:1009A000CF93DF938130910509F083C06F5F7F4F54
:1009B00009F092C084ED93E06AE14BE12CE102E0A2
:1009C0000E9412028AED93E00E94B5008CED93E044
:1009D0000E94D60080EE93E00E94D60084EE93E061
:1009E0000E94D6008AE294E060E071E00E946F1FEE
:1009F00082E394E063E071E00E946F1F8AE394E079
:100A000066E071E00E946F1F82E494E06DE071E0A7
:100A10000E946F1F8AE494E063E171E00E946F1FFF
:100A200082E594E069E171E00E946F1F8AE594E03D
:100A300062E271E00E946F1F82E694E067E271E07B
:100A40000E946F1F8AE694E06CE271E00E946F1FC3
:100A500082E794E064E371E00E946F1F8AE794E00C
:100A60006CE371E00E946F1F82E894E062E471E041
:100A70000E946F1F8AE894E06CE471E00E946F1F8F
:100A800082E994E066E571E00E946F1F8AE994E0D4
:100A90006CE571E00E946F1F82EA94E065E671E008
:100AA0000E946F1F8AEA94E06BE671E00E946F1F5C
:100AB00013C0892B89F46F5F7F4F71F4CAEAD4E0C9
:100AC000E881F9810190F081E02DCE010995289708
:100AD00084E0C232D807A1F7DF91CF910F9108953A
:100AE00080E090E06FEF7FEF0E94CF04089581E0F7
:100AF00090E06FEF7FEF0E94CF040895CF93DF93D4
:100B000081E00E94DE19EC0182E00E94DE19AC0156
:100B100020914502309146022817390744F42C17DA
:100B20003D078CF41092CD041092CC040CC08217B7
:100B300093074CF42C173D0734F481E090E0909338
:100B4000CD048093CC04C217D3074CF42417350787
:100B500034F48FEF9FEF9093CD048093CC04421731
:100B60005307E4F4C217D307CCF48091CE049091DC
:100B7000CF042091CD023091CE0297FF05C0882787
:100B80009927821B930B06C08091E8039091E9039B
:100B9000820F931F9093CD048093CC048091CE0458
:100BA0009091CF042091CC043091CD04821793070B
:100BB000B1F09093D1048093D0043093CF0420936C
:100BC000CE048091D8049091D9049093DB04809353
:100BD000DA0481E090E09093D9048093D804809166
:100BE000D8049091D90401969093D9048093D804A5
:100BF000DF91CF9108956F927F928F929F92AF92E3
:100C0000BF92CF92DF92EF92FF920F931F93CF93F9
:100C1000DF9381E00E94DE196C0182E00E94DE1900
:100C2000EC010E94CE186093DC047093DD04809385
:100C3000DE049093DF0428E5622E22E0722E98EA0B
:100C4000892E9DEF992E84EFE82E81E0F82E012D5C
:100C5000112DAA24AA94BA2C6DC081E00E94DE193D
:100C60006C0182E00E94DE19EC010E94CE182091F6
:100C7000DC043091DD044091DE045091DF04621BFE
:100C8000730B840B950B2091D1023091D2024091CD
:100C9000D3025091D402261737074807590708F0A6
:100CA00049C08091CF029091D0028130910529F402
:100CB000B092D002A092CF0209C08F5F9F4F71F413
:100CC00081E090E09093D0028093CF02E092D10235
:100CD000F092D2020093D3021093D4020E94CE1855
:100CE0006093DC047093DD048093DE049093DF0452
:100CF0008091CF029091D002869DA001879D500DDA
:100D0000969D500D11248AED93E060E070E00E9402
:100D10008A008091CF029091D002889DA001899D88
:100D2000500D989D500D11248AED93E061E070E024
:100D30000E948A008091450290914602C816D90609
:100D400024F4C817D9070CF488CFDF91CF911F91F5
:100D50000F91FF90EF90DF90CF90BF90AF909F905A
:100D60008F907F906F9008958F929F92AF92BF92D5
:100D7000CF92DF92EF92FF920F931F93CF93DF9367
:100D80005C014B01EA017901680181E00E94DE19F2
:100D90008C0182E00E94DE199C01C817D90744F437
:100DA000C017D1078CF41092CD041092CC040CC063
:100DB0008C179D074CF4C017D10734F481E090E004
:100DC0009093CD048093CC040C171D074CF4C217EC
:100DD000D30734F48FEF9FEF9093CD048093CC042E
:100DE0002C173D070CF50C171D07F4F42091CE04C9
:100DF0003091CF0437FF0BC08091CD029091CE028D
:100E0000909581959F4F9093CD048093CC041216BA
:100E1000130654F48091CD029091CE028C0D9D1D4D
:100E20009093CD048093CC048091CE049091CF0414
:100E30004091CC045091CD0484179507B1F0909364
:100E4000D1048093D0045093CF044093CE0480917A
:100E5000D8049091D9049093DB048093DA0481E064
:100E600090E09093D9048093D804A49E9001A59E0D
:100E7000300DB49E300D11243093D3042093D2044E
:100E80008091D0049091D104481B590B6091D804F3
:100E90007091D9048091DA049091DB04680F791F76
:100EA000849EC001859E900D949E900D11240E94F9
:100EB0004622CB017093D5046093D404820F931F14
:100EC0009093D7048093D6042CEF33E02E193F097A
:100ED00044275527421B530B841795072CF4509336
:100EE000D7044093D60407C02817390724F4309359
:100EF000D7042093D6044091D6045091D7044E0DC8
:100F00005F1D8AED93E060E070E00E948A008091AE
:100F1000D6049091D704E81AF90A8AED93E061E0CB
:100F200070E0A7010E948A008091D8049091D904B2
:100F300001969093D9048093D804DF91CF911F91AB
:100F40000F91FF90EF90DF90CF90BF90AF909F9068
:100F50008F900895EF92FF920F931F93CF93DF939B
:100F60008C017B0144275527481B590B8AED93E0E0
:100F700060E070E00E948A008AED93E061E070E03A
:100F8000A8010E948A0064EF71E080E090E00E9476
:100F9000091981E00E94DE19EC0182E00E94DE194D
:100FA000CE15DF05B4F38E159F059CF3DF91CF912D
:100FB0001F910F91FF90EF90089581E30E945F19B8
:100FC00020E030E0882311F421E030E0C9010895E9
:100FD0000E94DD07892B19F420E030E00EC062E3A7
:100FE00070E080E090E00E9409190E94DD0720E097
:100FF00030E0892B11F021E030E0C901089582E34F
:101000000E945F1920E030E0882311F421E030E0F5
:10101000C90108950E94FF07892B19F420E030E0F0
:101020000EC062E370E080E090E00E9409190E9427
:10103000FF0720E030E0892B11F021E030E0C9010A
:1010400008951F93182F61E00E947819812F0E9444
:101050005F19813019F020E030E013C06AE070E0E1
:1010600080E090E00E940919812F61E00E947819C8
:10107000812F0E945F1920E030E0813011F421E0DF
:1010800030E0C9011F9108950F931F930AED13E0FB
:10109000C80162E070E048E552E00E948A0064E620
:1010A00070E080E090E00E940919C80162E070E001
:1010B0000E947F001F910F9108956F927F928F92EF
:1010C0009F92AF92BF92CF92DF92EF92FF920F93D7
:1010D0001F93CF93DF936C013B014A015901E80153
:1010E000CB01BA01A901980187010E94B4060E94B0
:1010F000CE186093C8047093C9048093CA04909377
:10110000CB04C301B401A5019E010E94B4068AED7F
:1011100093E062E070E0A6010E948A00C301B4017E
:10112000A5019E010E94B406C301B401A5019E0160
:1011300087010E94B40680E090E00E942108892B7C
:10114000C9F4C301B401A5019E010E94B4060E9426
:10115000CE182091C8043091C9044091CA0450911E
:10116000CB04621B730B840B950B60527E44804052
:101170009040A0F28AED93E062E070E00E947F0070
:10118000DF91CF911F910F91FF90EF90DF90CF9063
:10119000BF90AF909F908F907F906F9008956F92C7
:1011A0007F928F929F92AF92BF92CF92DF92EF92F7
:1011B000FF920F931F93CF93DF936C013B014A0182
:1011C0005901E8010E94CE186093C8047093C904C5
:1011D0008093CA049093CB04D094C194D108D39443
:1011E0008AED93E062E070E0A6010E948A0068EC5C
:1011F00070E080E090E00E940919C301B401A501EC
:10120000980187010E94B406C301B401A5019E01A3
:1012100087010E94B40683E090E00E942108892B98
:10122000F1F4C301B401A5019E010E94B4060E941D
:10123000CE182091C8043091C9044091CA0450913D
:10124000CB04621B730B840B950B60527E44804071
:10125000904028F4C301B401A5019E01D3CF8AEDCB
:1012600093E062E070E00E947F00DF91CF911F91D8
:101270000F91FF90EF90DF90CF90BF90AF909F9035
:101280008F907F906F9008952F923F924F925F9230
:101290006F927F928F929F92AF92BF92CF92DF9286
:1012A000EF92FF920F931F931C016B015A014901AA
:1012B00038012701CB01BA01A901980187010E94D9
:1012C000B406C101B601A501940183010E94CF08B3
:1012D000C601B501A401930182010E94B406C101B7
:1012E000B601A501940183010E945D08C601B50104
:1012F000A401930182010E94B4061F910F91FF90F7
:10130000EF90DF90CF90BF90AF909F908F907F90A5
:101310006F905F904F903F902F9008950F931F9381
:101320008C010E94CE186093C8047093C904809306
:10133000CA049093CB048AED93E062E070E0A801C8
:101340000E948A0080E090E00E942108892B99F495
:101350000E94CE182091C8043091C9044091CA045B
:101360005091CB04621B730B840B950B60527E442F
:101370008040904038F38AED93E062E070E00E9494
:101380007F001F910F9108950F931F938C010E946E
:10139000CE186093C8047093C9048093CA049093D4
:1013A000CB04109501951F4F8AED93E062E070E049
:1013B000A8010E948A0083E090E00E942108892B06
:1013C00099F40E94CE182091C8043091C90440912C
:1013D000CA045091CB04621B730B840B950B6052B3
:1013E0007E448040904038F38AED93E062E070E004
:1013F0000E947F001F910F9108952F923F924F926C
:101400005F926F927F928F929F92AF92BF92CF9294
:10141000DF92EF92FF920F931F93DF93CF9300D051
:10142000CDB7DEB79A8389834B015A013901680130
:101430000E94CE186093C8047093C9048093CA04B4
:101440009093CB0449815A81509541955F4F8AED25
:1014500093E062E070E00E948A0068EC70E080E057
:1014600090E00E9409190E94CE181B012C01C401B2
:10147000B501A301980187012AC0C401B501A301E8
:10148000960187010E94B40683E090E00E94210843
:10149000892B51F5C401B501A30196010E94B40640
:1014A0000E94CE182091C8043091C9044091CA040A
:1014B0005091CB04621B730B840B950B60527E44DE
:1014C0008040904088F4C401B501A30196010E94B8
:1014D000B4060E94CE1862197309840995096C5DDF
:1014E00075408040904048F20E94CE1862197309FE
:1014F000840995096D5D75408040904040F08824D6
:101500009924AA24BB24CC24DD24EE24FF24C40186
:10151000B501A301960187010E94B40683E090E023
:101520000E942108892B01F5C401B501A301960190
:101530000E94B4060E94CE182091C8043091C904BC
:101540004091CA045091CB04621B730B840B950B22
:1015500060527E448040904038F4C401B501A3013C
:1015600096010E94B406D3CF8AED93E062E070E06A
:101570000E947F00C401B501A301960187010E946A
:10158000B4060E94CE186093C8047093C904809377
:10159000CA049093CB04C401B501A30196010E9433
:1015A000B4068AED93E062E070E049815A810E94BE
:1015B0008A0026C0C401B501A301960187010E94DB
:1015C000B40680E090E00E942108892B51F5C40107
:1015D000B501A30196010E94B4060E94CE18209185
:1015E000C8043091C9044091CA045091CB04621BD5
:1015F000730B840B950B60527E448040904088F4BE
:10160000C401B501A30196010E94B4060E94CE1840
:1016100062197309840995096C5D7540804090409A
:1016200048F20E94CE1862197309840995096D5D0C
:1016300075408040904040F088249924AA24BB241F
:10164000CC24DD24EE24FF24C401B501A3019601BE
:1016500087010E94B40680E090E00E942108892B57
:1016600001F5C401B501A30196010E94B4060E94D0
:10167000CE182091C8043091C9044091CA045091F9
:10168000CB04621B730B840B950B60527E4480402D
:10169000904038F4C401B501A30196010E94B4063C
:1016A000D3CF8AED93E062E070E00E947F000F905C
:1016B0000F90CF91DF911F910F91FF90EF90DF90EE
:1016C000CF90BF90AF909F908F907F906F905F90E2
:1016D0004F903F902F9008950F931F9304ED13E0C8
:1016E000C80168E771E00E94221E68EE73E080E0A6
:1016F00090E00E940919C8010E94C0011092FF03E6
:101700001092FE031092EB031092EA031092ED0385
:101710001092EC031092F8031092F9031092FA035E
:101720001092FB031092F4031092F5031092F6034B
:101730001092F70310920004109201041092020418
:10174000109203041092EF031092EE031092100413
:1017500010921104109212041092130410921404A7
:1017600010921504109216041092170410921D0482
:1017700010921C04109218041092190410921A046A
:1017800010921B04809122049091230490930504ED
:10179000809304048091240490912504909307047D
:1017A0008093060480912604909127049093090465
:1017B00080930804809128049091290490930B044D
:1017C00080930A041F910F910895EF92FF920F9357
:1017D0001F93CF93DF930F2EF0E0EF2EF0E0FF2E5C
:1017E000F0E00F2FF0E01F2FF02DC0E0D0E084E0FC
:1017F0000E94DE19AA2797FDA095BA2FBC01CD0142
:101800000E9497209B01AC01C801B7010E94941F60
:101810007B018C012196C530D10549F720E030E0ED
:1018200040EA50E40E94FC1F0E94D2200E946420E3
:10183000CB01DF91CF911F910F91FF90EF90089511
:10184000EF92FF920F931F93CF93DF930F2EF0E051
:10185000EF2EF0E0FF2EF0E00F2FF0E01F2FF02D25
:10186000C0E0D0E083E00E94DE19AA2797FDA09592
:10187000BA2FBC01CD010E9497209B01AC01C80189
:10188000B7010E94941F7B018C012196C530D105C0
:1018900049F720E030E040EA50E40E94FC1F0E943B
:1018A000D2200E946420CB01DF91CF911F910F9134
:1018B000FF90EF9008950F931F93CF93DF938C01C8
:1018C000EB0144275527481B590B8AED93E060E054
:1018D00070E00E948A008AED93E061E070E0A80168
:1018E0000E948A0084ED93E00E94C00184ED93E0A1
:1018F0000E94BC0184ED93E062E871E00E94221E28
:1019000016C08AED93E060E070E044EF51E00E9481
:101910008A008AED93E061E070E044EF51E00E94BC
:101920008A0064EF71E080E090E00E9409190E9453
:10193000CE186093C4047093C5048093C60490933A
:10194000C7040E94200C8C179D072CF00E94E50B09
:101950008C179D07A4F40E94CE182091C4043091E6
:10196000C5044091C6045091C704621B730B840BDD
:10197000950B615177428040904018F3C2CF84EDBF
:1019800093E00E94C001DF91CF911F910F910895C4
:101990002F923F924F925F926F927F928F929F927F
:1019A000AF92BF92CF92DF92EF92FF920F931F936D
:1019B000DF93CF9300D000D0CDB7DEB72C017A8370
:1019C00069831A01590168010E94200C8C010F5093
:1019D00010400E94E50B7C018A159B050CF08EC01F
:1019E0000A151B050CF056C08091B6049091B704FF
:1019F0000091C9021091CA02181619063CF1662717
:101A000077276C197D09882777FD8095982F0E948C
:101A100097206093B2047093B3048093B4049093BE
:101A2000B504095E13400CF41AC11092CA02109258
:101A3000C90284ED93E00E94C00184ED93E00E940E
:101A4000BC0184ED93E06FE871E055C0B6018827D2
:101A500077FD8095982F0E9497206093B204709331
:101A6000B3048093B4049093B504095E13400CF45E
:101A7000F6C01092CA021092C90284ED93E00E944F
:101A8000C00184ED93E00E94BC0184ED93E067E91E
:101A900071E031C0A016B1060CF067C0B60188270E
:101AA00077FD8095982F0E94972020E030E040E05D
:101AB0005FE30E949A216093B2047093B304809311
:101AC000B4049093B5048091C9029091CA02895ED2
:101AD00093400CF4C4C01092CA021092C90284ED63
:101AE00093E00E94C00184ED93E00E94BC0184ED6C
:101AF00093E06FE971E00E94221EB1C00A151B0538
:101B0000A4F5A816B9068CF5662777276C197D0908
:101B1000882777FD8095982F0E94972020E030E05D
:101B200040E05FE30E949A216093B2047093B30493
:101B30008093B4049093B5048091C9029091CA0235
:101B4000895E93400CF48BC01092CA021092C902B5
:101B500084ED93E00E94C00184ED93E00E94BC01FB
:101B600084ED93E069EA71E0C6CFC8018E199F0940
:101B70009C838B839C0197FF03C0309521953F4F39
:101B80008091CB029091CC02281739072CF580E088
:101B900090E0A0E0B0E08093B2049093B304A093EF
:101BA000B404B093B5048091C9029091CA02895ED1
:101BB00093400CF454C01092CA021092C90284EDF2
:101BC00093E00E94C00184ED93E00E94BC0184ED8B
:101BD00093E063EB71E08FCF60E070E08AE793E41D
:101BE0000E9401223B014C015801AE0CBF1C2B810D
:101BF0003C811216130634F4B601882777FD8095D0
:101C0000982F08C0662777276C197D09882777FDEC
:101C10008095982F0E94972020E030E040E85EE316
:101C20000E949A217B018C01B501882777FD809560
:101C3000982F0E9497200E940122A40193010E94E4
:101C4000FC1F9B01AC01C801B7010E94FC1F6093FF
:101C5000B2047093B3048093B4049093B504C0901D
:101C6000B604D090B704E090B204F090B3040091B1
:101C7000B4041091B504B601882777FD8095982F9C
:101C80000E949720A80197010E94F81F8823D1F095
:101C9000D092B904C092B804C801B7010E94642070
:101CA0007093B7046093B6048091C0049091C1040E
:101CB0009093C3048093C20481E090E09093C104A8
:101CC0008093C004B101882777FD8095982F0E94EA
:101CD0009720A80197010E949A210E9464204B013D
:101CE0007093BB046093BA046091C2047091C30402
:101CF000882777FD8095982F0E9497205B016C01C3
:101D00006091B8047091B904882777FD8095982F69
:101D10000E9497209B01AC01C801B7010E94931F4C
:101D20000E94642049815A81FB014E9FB0014F9F60
:101D3000700D5E9F700D1124882777FD8095982F78
:101D40000E9497207B018C016091C0047091C104B6
:101D5000882777FD8095982F0E9497209B01AC01E2
:101D6000C601B5010E94941F9B01AC01C801B701D7
:101D70000E94FC1F0E946420CB017093BD046093FD
:101D8000BC04880D991D9093BF048093BE042CEF72
:101D900033E024193509281739072CF43093BF0490
:101DA0002093BE040BC044275527421B530B8417B6
:101DB000950724F45093BF044093BE040091BE04E1
:101DC0001091BF04A201400F511F8AED93E060E023
:101DD00070E00E948A00401A510A8AED93E061E0A7
:101DE00070E0A2010E948A008091C0049091C10419
:101DF00001969093C1048093C0040F900F900F90B0
:101E00000F90CF91DF911F910F91FF90EF90DF9096
:101E1000CF90BF90AF909F908F907F906F905F908A
:101E20004F903F902F9008952F923F924F925F9244
:101E30006F927F928F929F92AF92BF92CF92DF92DA
:101E4000EF92FF920F931F93DF93CF9300D000D0B8
:101E5000CDB7DEB73C017A8369835C834B8319017C
:101E600028010E94CE186093C8047093C90480931F
:101E7000CA049093CB048AED93E062E070E0A30182
:101E80000E948A002DC089819A816B817C81A10189
:101E9000920187010E94B40680E090E00E94210830
:101EA000892BD9F489819A816B817C81A10192016E
:101EB0000E94B4060E94CE182091C8043091C90433
:101EC0004091CA045091CB04621B730B840B950B99
:101ED00060527E448040904018F001E010E048C01D
:101EE00089819A816B817C81A101920187010E9485
:101EF000B4060E94E50B2D8D3E8D821793070CF4DE
:101F0000C2CFC601B501A401298D3A8D0B8D1C8D60
:101F10000E94C80C80E090E00E942108892B31F5D6
:101F2000C601B501A401298D3A8D0B8D1C8D0E942F
:101F3000C80C0E94CE182091C8043091C904409169
:101F4000CA045091CB04621B730B840B950B605237
:101F50007E448040904050F4C601B501A401298D13
:101F60003A8D0B8D1C8D0E94C80CCBCF00E010E089
:101F70008AED93E062E070E00E947F0020E030E0B4
:101F8000012B11F421E030E0C9010F900F900F9068
:101F90000F90CF91DF911F910F91FF90EF90DF9005
:101FA000CF90BF90AF909F908F907F906F905F90F9
:101FB0004F903F902F9008952F923F924F925F92B3
:101FC0006F927F928F929F92AF92BF92CF92DF9249
:101FD000EF92FF920F931F93DF93CF9300D000D027
:101FE000CDB7DEB73C017A8369835C834B831901EB
:101FF00028010E94CE186093C8047093C90480938E
:10200000CA049093CB0470946194710873948AED20
:1020100093E062E070E0A3010E948A0068EC70E047
:1020200080E090E00E9409192DC089819A816B811E
:102030007C81A101920187010E94B40683E090E0B7
:102040000E942108892BD9F489819A816B817C8136
:10205000A10192010E94B4060E94CE182091C804EA
:102060003091C9044091CA045091CB04621B730B98
:10207000840B950B60527E448040904018F001E044
:1020800010E048C089819A816B817C81A101920115
:1020900087010E94B4060E94E50B2D8D3E8D8217AC
:1020A00093070CF4C2CFC601B501A401298D3A8D66
:1020B0000B8D1C8D0E94C80C83E090E00E942108CB
:1020C000892B31F5C601B501A401298D3A8D0B8DFF
:1020D0001C8D0E94C80C0E94CE182091C80430911B
:1020E000C9044091CA045091CB04621B730B840B4A
:1020F000950B60527E448040904050F4C601B5017B
:10210000A401298D3A8D0B8D1C8D0E94C80CCBCF5C
:1021100000E010E08AED93E062E070E00E947F0052
:1021200020E030E0012B11F421E030E0C9010F90F4
:102130000F900F900F90CF91DF911F910F91FF9013
:10214000EF90DF90CF90BF90AF909F908F907F9057
:102150006F905F904F903F902F900895AF92BF92F5
:10216000CF92DF92EF92FF920F931F93CF93DF9363
:10217000EC0166E0C62ED12CC80ED91E51E0A52E6A
:10218000B12C44E0E42EF12CE80EF91E8C010E5F18
:102190001F4F4BC184ED93E00E94BC0184ED93E09E
:1021A00060E040E00E94AD0184ED93E06AEB71E0F5
:1021B0000E94221E86E00E94DE19AA2797FDA095A4
:1021C000BA2FBC01CD010E94972020E030EC4FE7F0
:1021D00054E40E94FC1F20E030E040E850E40E94FC
:1021E0009A210E94D2200E9464207093FD03609384
:1021F000FC0384ED93E00E94BC0184ED93E060E079
:1022000041E00E94AD018091FC039091FD03009795
:1022100009F03FC084ED93E068EC71E00E94221E5B
:102220008881998181309105B9F484ED93E06FE064
:1022300040E00E94AD0184ED93E067ED71E00E9403
:10224000221E0E94DD07892BF9F00E94DD07892BF1
:10225000E1F71982188218C0892BB1F484ED93E05C
:102260006FE040E00E94AD0184ED93E069ED71E024
:102270000E94221E0E94DD07892B31F00E94DD079B
:10228000892BE1F7B982A8826CE271E080E090E0EE
:10229000C6C081309105E9F584ED93E06BED71E006
:1022A0000E94221EF8018081918181309105B9F44C
:1022B00084ED93E06FE040E00E94AD0184ED93E097
:1022C00067ED71E00E94221E0E94DD07892B09F450
:1022D00060C00E94DD07892BE1F7F8013EC0892B21
:1022E00009F057C084ED93E06FE040E00E94AD013B
:1022F00084ED93E069ED71E00E94221E0E94DD07EB
:10230000892B09F446C00E94DD07892BE1F7F8010B
:102310003EC0029709F042C084ED93E068EE71E0A0
:102320000E94221EF7018081918181309105C1F4C4
:1023300084ED93E06FE040E00E94AD0184ED93E016
:1023400067ED71E00E94221E0E94DD07892B09F1D2
:102350000E94DD07892BE1F7F7011182108219C075
:10236000892BB9F484ED93E06FE040E00E94AD0169
:1023700084ED93E069ED71E00E94221E0E94DD076A
:10238000892B39F00E94DD07892BE1F7F701B18233
:10239000A08264E670E080E090E041C084ED93E0CC
:1023A00062EF71E00E94221EF601808191818130EE
:1023B0009105C1F484ED93E06FE040E00E94AD012F
:1023C00084ED93E067ED71E00E94221E0E94DD071C
:1023D000892B09F10E94DD07892BE1F7F6011182B3
:1023E000108219C0892BB9F484ED93E06FE040E0CE
:1023F0000E94AD0184ED93E069ED71E00E94221E20
:102400000E94DD07892B39F00E94DD07892BE1F757
:10241000F601B182A0826AE070E080E090E00E9464
:10242000091984ED93E00E94C0010E94FF07892BE7
:1024300009F4B0CE06C062E370E080E090E00E9454
:1024400009190E94FF07892BB1F7DF91CF911F91E6
:102450000F91FF90EF90DF90CF90BF90AF900895D5
:10246000CF92DF92EF92FF920F931F93CF93DF9360
:10247000EC01BAC086E00E94DE19AA2797FDA0955C
:10248000BA2FBC01CD010E94972020E030EC4FE72D
:1024900054E40E94FC1F20E030E048E851E40E9430
:1024A0009A210E94D2200E9464208B0184ED93E047
:1024B0000E94BC0184ED93E060E040E00E94AD0129
:1024C0006801F3E0CC0CDD1CFA95E1F78AE294E0B8
:1024D000C80ED91E84ED93E0B6010E94EE1E84ED75
:1024E00093E060E041E00E94AD017801EE0CFF1C3A
:1024F000EC0EFD1EF7016081718184ED93E00E9476
:10250000E61E62E370E080E090E00E94091984ED2D
:1025100093E00E94C0010E94DD07892B09F464C08A
:1025200006C062E370E080E090E00E9409190E941A
:10253000DD07892BB1F742C087E00E94DE19AA2788
:1025400097FDA095BA2FBC01CD010E94972020E0F5
:1025500030EC4FE754E40E94FC1FF80120813181E8
:10256000428153810E949A210E94D2200E946420BD
:10257000F7017183608384ED93E060E040E00E94A6
:10258000AD0184ED93E0B6010E94EE1E84ED93E070
:1025900060E041E00E94AD01F7016081718184ED4E
:1025A00093E00E94E61E62E370E080E090E00E940B
:1025B000091984ED93E00E94C00106C0000F111FAD
:1025C000000F111F0B571D4F0E94FF07892B09F4A5
:1025D000B3CF06C062E370E080E090E00E9409198A
:1025E0000E94FF07892BB1F70E94FF07892B09F48E
:1025F00041CF06C062E370E080E090E00E940919DC
:102600000E94FF07892BB1F788819981909342023C
:10261000809341028A819B8190934402809343027C
:102620008C819D8190934602809345028E819F818B
:102630009093480280934702888599859093E90397
:102640008093E8038A859B859093500280934F0284
:102650008C859D8590934A02809349028E859F8543
:1026600090934C0280934B028889998990934E02F3
:1026700080934D028A899B899093520280935102E4
:102680008C899D8990935402809353028E899F89EF
:102690009093560280935502888D998D909358029D
:1026A000809357028A8D9B8D90935A028093590292
:1026B0008C8D9D8D90935C0280935B028E8D9F8D9F
:1026C00090935E0280935D0288A199A1909360022D
:1026D00080935F02DF91CF911F910F91FF90EF9058
:1026E000DF90CF9008952F923F924F925F926F921A
:1026F0007F928F929F92AF92BF92CF92DF92EF9292
:10270000FF920F931F93DF93CF9300D000D0CDB7EC
:10271000DEB78091610290916202019709F06DC06D
:1027200082E294E00E94AE108091220490912304F2
:1027300090930504809304048091240490912504CF
:1027400090930704809306048091260490912704B7
:10275000909309048093080480912804909129049F
:1027600090930B0480930A040E94570483E692E03E
:102770000E94301242C00E94200C9093F10380937B
:10278000F0030E94E50B9093F3038093F20384ED32
:1027900093E00E94BC0184ED93E060E040E00E9481
:1027A000AD0184ED93E06AEF71E00E94221E60911A
:1027B000F0037091F10384ED93E00E94E61E84ED36
:1027C00093E068E040E00E94AD0184ED93E06EEF9D
:1027D00071E00E94221E6091F2037091F30384ED78
:1027E00093E00E94E61E62E370E080E090E00E94C9
:1027F000091984ED93E00E94C0010E940A08892B08
:1028000009F4B9CF06C062E370E080E090E00E9476
:1028100009190E94FF07892BB1F752C081E00E947D
:10282000DE1990930D0480930C0482E00E94DE195F
:1028300090930F0480930E0484ED93E00E94C001F6
:1028400084ED93E00E94BC0184ED93E06AEF71E0B7
:102850000E94221E60910C0470910D0484ED93E09F
:102860000E94E61E84ED93E068E040E00E94AD0126
:1028700084ED93E06EEF71E00E94221E60910E04E1
:1028800070910F0484ED93E00E94E61E84ED93E0C6
:1028900060E041E00E94AD0184ED93E062E072E00F
:1028A0000E94221E609145027091460284ED93E0E1
:1028B0000E94E61E62E370E080E090E00E94091949
:1028C0000E940A08892B09F4A9CF80914F029091A8
:1028D00050020E948E09B4E62B2E312CA4EF4A2E12
:1028E000A1E05A2E612C712C77C380910404909141
:1028F00005040197E1F46091430270914402409114
:102900004502509146022091EA033091EB038091F9
:10291000470290914802280F391F0091E803109157
:10292000E90380914102909142020E94B4068FB760
:10293000F894969A8FBF80910604909107040197AE
:1029400009F016C286E00E945F19813009F010C2BA
:102950008091FE039091FF030397A9F480914D02AB
:1029600090914E024CE95FEF481B590B8AED93E0C2
:1029700060E070E00E948A0080914D0290914E02CA
:102980004CE95FEF18C04091EA035091EB0380914E
:10299000470290914802481B590B8AED93E060E092
:1029A00070E00E948A004091EA035091EB0380910D
:1029B000470290914802481B590B8AED93E061E071
:1029C00070E00E948A000E94CE1860930004709309
:1029D000010480930204909303040E947E05809179
:1029E000FE039091FF03039779F484E690E0A0E062
:1029F000B0E080931E0490931F04A0932004B09332
:102A000021040E94CE1826C040921E0450921F043A
:102A1000609220047092210402C00E947E050E94F0
:102A2000CE1820910004309101044091020450918D
:102A30000304621B730B840B950B20911E043091D1
:102A40001F044091200450912104621773078407EA
:102A5000950718F38AED93E060E070E00E947F0034
:102A60008AED93E061E070E00E947F00A091FE0398
:102A7000B091FF032091570230915802C90101978C
:102A8000A817B90749F480914F02909150020E9413
:102A9000C4090E944408E5C0A230B10509F0BAC0DB
:102AA0002430310509F0B6C000D000D000D0ADB759
:102AB000BEB71196E0914F02F0915002FC83EB8378
:102AC0006091410270914202409143025091440250
:102AD00020914502309146020091EA031091EB03E8
:102AE000E0914702F09148020E0F1F1FE090E803AB
:102AF000F090E903C0904D02D0904E02A0904902A0
:102B0000B0904A0280904B0290904C0280915D02FE
:102B100090915E02EDB7FEB79283818380915F0250
:102B200090916002FD019383828380915102909184
:102B30005202958384838B819C810E94DC0FADB708
:102B4000BEB71196E0914F02F0915002FC83EB83E7
:102B500060914102709142024091430250914402BF
:102B600020914502309146020091EA031091EB0357
:102B7000E0914702F09148020E0F1F1FE090E8031A
:102B8000F090E903C0904D02D0904E02A09049020F
:102B9000B0904A0280904B0290904C0280915D026E
:102BA00090915E02EDB7FEB79283818380915F02C0
:102BB00090916002FD0193838283809151029091F4
:102BC0005202958384838B819C810E94140F8C0117
:102BD000ADB7BEB716960FB6F894BEBF0FBEADBF69
:102BE00081309105F1F584ED93E00E94C00184ED00
:102BF00093E00E94BC0184ED93E06BE072E00E94E0
:102C0000221E10920504109204041093EF03009307
:102C1000EE0327C0209145023091460280914F0279
:102C200090915002609141027091420240914302A2
:102C3000509144020091EA031091EB03E0914702A6
:102C4000F0914802E090E803F090E903AB2B29F4FF
:102C50000E0F1F1F0E94FD0904C00E0F1F1F0E94B0
:102C600044098091FE039091FF0301969093FF0326
:102C70008093FE03019709F055C084ED93E00E9414
:102C8000C00184ED93E00E94BC0184ED93E068E113
:102C900072E00E94221E0E94CE187B018C018AEDF8
:102CA00093E060E070E044E853E00E948A008AED1F
:102CB00093E061E070E044ED5EEF0E948A000E94C4
:102CC000CE186E197F09800B910B6C5D75408040AA
:102CD0009040A8F384ED93E00E94C00185E090E06D
:102CE0000E94CA04609143027091440240914502DF
:102CF000509146022091EA033091EB038091470204
:102D000090914802280F391F0091E8031091E903C0
:102D100080914102909142020E94B4063092EB03EE
:102D20002092EA038091FE039091FF03029751F4F1
:102D30000E94CE186093F4037093F5038093F6031A
:102D40009093F7038091FE039091FF03039781F422
:102D50008091570290915802049751F40E94CE1826
:102D6000609318047093190480931A0490931B04C1
:102D70008091FE039091FF030297F1F48091EA03A2
:102D80009091EB0318161906BCF40E94CE182091FE
:102D9000F4033091F5034091F6035091F703621B61
:102DA000730B840B950B605D77408040904020F062
:102DB0001092EB031092EA038091FE039091FF03BF
:102DC000039789F58091570290915802049759F51D
:102DD00080911C0490911D04892B29F50E94CE1826
:102DE000209118043091190440911A0450911B0449
:102DF000621B730B840B950B635E744080409040A4
:102E000090F0109205041092040481E090E09093F9
:102E10001D0480931C04109218041092190410923F
:102E20001A0410921B0480910804909109040197E0
:102E300041F50E94200C20915102309152028217DC
:102E400093074CF40E94E50B2091510230915202FD
:102E500082179307B4F08091FE039091FF030397CC
:102E600084F08091EE039091EF03892B51F410923E
:102E700005041092040481E090E09093EF038093A6
:102E8000EE038091080490910904019711F5809157
:102E9000EE039091EF03019731F080911C04909123
:102EA0001D040197B1F46091490270914A0240916A
:102EB0004B0250914C0220915D0230915E020091D4
:102EC0005F021091600280914D0290914E020E942B
:102ED000C80C00910A0410910B040130110599F5FA
:102EE0002091FE033091FF03809157029091580288
:102EF0002817390741F510920704109206048091B3
:102F0000550290915602243031053CF460914502FF
:102F1000709146020E94AA070AC0609159027091FE
:102F20005A020E945B0C1093ED030093EC03809116
:102F3000590290915A02909352028093510210923A
:102F40000B0410920A048091EC039091ED03019719
:102F500009F042C00E94200C20915B0230915C027B
:102F6000281739074CF00E94E50B20915B02309145
:102F70005C022817390784F510920904109208049E
:102F800081E090E0909305048093040480E090E059
:102F90000E94CA040E94FB056091430270914402A2
:102FA00040914502509146022091EA033091EB0393
:102FB0008091470290914802280F391F0091E80341
:102FC0001091E90380914102909142020E94B4065F
:102FD0001092ED031092EC030E94E807892B09F48C
:102FE00084CC12C08AED93E060E070E00E947F0024
:102FF0008AED93E061E070E00E947F0062E370E0A0
:1030000080E090E00E9409190E94DD07892B51F7AA
:1030100084ED93E00E94BC0184ED93E060E040E029
:103020000E94AD0184ED93E06EE172E00E94221EE9
:1030300084ED93E060E041E00E94AD0184ED93E017
:103040006DE272E00E94221E6AE070E080E090E093
:103050000E94091984ED93E00E94C0010E94FF07BD
:10306000892B29F010926202109261020AC00E941C
:10307000DD07892B69F281E090E0909362028093F2
:1030800061020E94FF07892B21F40E94DD07892B32
:1030900039F062E370E080E090E00E940919F1CF1E
:1030A0000E946C0B0E94B20480E090E00E94CA046F
:1030B0000E94B7040F900F900F900F90CF91DF9167
:1030C0001F910F91FF90EF90DF90CF90BF90AF9046
:1030D0009F908F907F906F905F904F903F902F9038
:1030E000089580E060E00E94A81981E060E00E94FD
:1030F000A81980E060E00E942F1983E060E00E9440
:103100002F1986E060E00E942F1908951F920F92F8
:103110000FB60F9211242F933F938F939F93AF93EA
:10312000BF938091E4049091E504A091E604B091EE
:10313000E7043091E8040196A11DB11D232F2D5FF6
:103140002D3720F02D570196A11DB11D2093E804C5
:103150008093E4049093E504A093E604B093E7041D
:103160008091E0049091E104A091E204B091E30425
:103170000196A11DB11D8093E0049093E104A093FA
:10318000E204B093E304BF91AF919F918F913F917F
:103190002F910F900FBE0F901F9018958FB7F89436
:1031A0002091E4043091E5044091E6045091E70455
:1031B0008FBFB901CA0108956FB7F8942091E00458
:1031C0003091E1044091E2045091E30482B790E031
:1031D000A0E0B0E006B600FE09C08F3F9105A10552
:1031E000B10521F02F5F3F4F4F4F5F4F6FBF542FFF
:1031F000432F322F2227280F391F4A1F5B1F82E0DF
:10320000220F331F441F551F8A95D1F7B901CA01F8
:103210000895EF92FF920F931F93CF93DF937B015B
:103220008C010E94DC18EB010EC00E94DC186C1BA4
:103230007D0B685E7340C8F30894E108F10801094A
:103240001109C851DC4FE114F1040105110569F7BA
:10325000DF91CF911F910F91FF90EF900895E82F8C
:10326000E695E695E695A82FB0E0613099F42FB782
:10327000F894F0E0EE0FFF1FED51FD4F0190F0814B
:10328000E02D9081A770B070AB5DBC4F8C91982BF6
:10329000908313C02FB7F894F0E0EE0FFF1FED51AD
:1032A000FD4F0190F081E02D9081A770B070AB5D73
:1032B000BC4F8C918095892380832FBF0895A82FC0
:1032C000E82FE695E695E695F0E0EE0FFF1FEF504C
:1032D000FD4F0190F081E02DE081B0E0A770B0706B
:1032E000AB5DBC4F8C91E82309F0E1E08E2F08958F
:1032F000E82FE695E695E695A82FB0E0613099F4C1
:103300002FB7F894F0E0EE0FFF1FEB52FD4F019046
:10331000F081E02D9081A770B070AB5DBC4F8C91B7
:10332000982B908313C02FB7F894F0E0EE0FFF1F97
:10333000EB52FD4F0190F081E02D9081A770B070AD
:10334000AB5DBC4F8C918095892380832FBF0895FE
:10335000E82FF0E0613051F4EE0FFF1FED51FD4F0B
:103360000190F081E02D8FEF80830895EE0FFF1F15
:10337000ED51FD4F0190F081E02D10820895E82F6E
:10338000F0E0EE0FFF1FEF50FD4F0190F081E02DB8
:1033900080810895E82FF0E0EE0FFF1FEB52FD4F04
:1033A0000190F081E02D60830895109261001092E9
:1033B000620080E487B987EE86B908951F93182FBD
:1033C0008091FF02813021F40E94D5191092FF02F2
:1033D00080910003181721F4349A349BFECF0DC05E
:1033E0001093000387B11770807E812B87B9349AC0
:1033F000349BFECF349A349BFECF24B135B1C90142
:103400001F91089593B7987F982B93BF08959EB509
:10341000987F982B9EBD089583E00E94071A1DBCDB
:103420001CBC87B7846087BF0895EAE8F0E090810C
:10343000987F982B9083089583E00E94151A10922C
:10344000890010928800EDE7F0E08081846080833D
:103450000895893031F48FB582608FBD8FB58E7F2E
:103460000AC08A3019F48FB5826002C08FB58D7F93
:103470008FBD8FB581608FBD1BBC1ABC19BC18BC39
:10348000109279001092780008958FB580688FBDF2
:103490008FB58F7B8FBD08958FB580628FBD8FB53F
:1034A0008F7E8FBD08958FB588608FBD8FB58B7F60
:1034B0008FBD08959BBD8ABD089599BD88BD0895AF
:1034C00090937900809378000895893049F4809131
:1034D0008B00826080938B0080918B008E7F0EC06A
:1034E0008A3021F480918B00826003C080918B0030
:1034F0008D7F80938B0080918B00816080938B0007
:10350000109287001092860010928500109284001D
:1035100010928300109282000895EBE8F0E0808121
:103520008068808380818F7B80830895EBE8F0E062
:1035300080818062808380818F7E80830895EBE824
:10354000F0E080818860808380818B7F8083089514
:10355000853019F40E94451A0895843019F40E94A8
:103560004C1A0895833019F40E94531A089582303A
:1035700019F40E948D1A0895813019F40E94961A48
:103580000895882311F40E949F1A0895909387004C
:103590008093860008959093850080938400089519
:1035A00090938300809382000895EF92FF921F937F
:1035B000CF93DF93182F7B018D31B0F08F3111F451
:1035C00013E014C08E3111F414E010C08D3109F4F1
:1035D0009BC0853211F410E03DC0843211F411E03B
:1035E00039C0833219F48EC08330A0F18091E90490
:1035F00086FD0BC00E940C1A78948AE00E94291A5A
:103600008091E90480648093E9048091E904C12FEA
:10361000D0E090E0012E02C0959587950A94E2F7DC
:1036200080FD4CC087B3FE01E35DFC4F9081892B88
:1036300087BB812F0E94A81A2091E90481E090E0C5
:10364000012E02C0880F991F0A94E2F7282B2093BD
:10365000E90434C08091E90487FD0BC00E941C1A64
:1036600078948AE00E94651A8091E90480688093CA
:10367000E9048091E904C12FD0E090E0012E02C05E
:10368000959587950A94E2F780FD24C082B1FE01EA
:10369000E35DFC4F9081892B82B9812F0E94A81A8B
:1036A0002091E90481E090E0012E02C0880F991F6B
:1036B0000A94E2F7282B2093E9040CC0153021F47A
:1036C000C7010E945A1A22C0143021F4C7010E9477
:1036D0005D1A1CC0133021F4C7010E94601A16C085
:1036E000123021F4C7010E94C61A10C0113021F413
:1036F000C7010E94CB1A0AC0112341F4C7010E94DE
:10370000D01A04C012E0A6CF15E070CFDF91CF91A0
:103710001F91FF90EF9008951F920F920FB60F9296
:103720000BB60F9211242F933F934F935F936F9398
:103730007F938F939F93AF93BF93EF93FF9380916A
:10374000F0049091F104892B29F0E091F004F091BC
:10375000F1040995FF91EF91BF91AF919F918F91E6
:103760007F916F915F914F913F912F910F900BBE81
:103770000F900FBE0F901F9018951F920F920FB6CB
:103780000F920BB60F9211242F933F934F935F9399
:103790006F937F938F939F93AF93BF93EF93FF9319
:1037A0008091FA049091FB04892B29F0E091FA04AE
:1037B000F091FB040995FF91EF91BF91AF919F911B
:1037C0008F917F916F915F914F913F912F910F90CA
:1037D0000BBE0F900FBE0F901F9018951F920F9267
:1037E0000FB60F920BB60F9211242F933F934F9366
:1037F0005F936F937F938F939F93AF93BF93EF9359
:10380000FF938091000590910105892B29F0E091AB
:103810000005F09101050995FF91EF91BF91AF91DE
:103820009F918F917F916F915F914F913F912F91D8
:103830000F900BBE0F900FBE0F901F9018951F9208
:103840000F920FB60F920BB60F9211242F933F9346
:103850004F935F936F937F938F939F93AF93BF9398
:10386000EF93FF938091EC049091ED04892B29F064
:10387000E091EC04F091ED040995FF91EF91BF9177
:10388000AF919F918F917F916F915F914F913F91F8
:103890002F910F900BBE0F900FBE0F901F90189599
:1038A0001F920F920FB60F920BB60F9211242F9307
:1038B0003F934F935F936F937F938F939F93AF93B8
:1038C000BF93EF93FF938091F2049091F304892BBF
:1038D00029F0E091F204F091F3040995FF91EF9142
:1038E000BF91AF919F918F917F916F915F914F9118
:1038F0003F912F910F900BBE0F900FBE0F901F9016
:1039000018951F920F920FB60F920BB60F921124BB
:103910002F933F934F935F936F937F938F939F93D7
:10392000AF93BF93EF93FF938091F4049091F504CC
:10393000892B29F0E091F404F091F5040995FF91A9
:10394000EF91BF91AF919F918F917F916F915F9117
:103950004F913F912F910F900BBE0F900FBE0F9084
:103960001F9018951F920F920FB60F920BB60F92E1
:1039700011242F933F934F935F936F937F938F9374
:103980009F93AF93BF93EF93FF938091F604909131
:10399000F704892B29F0E091F604F091F7040995DA
:1039A000FF91EF91BF91AF919F918F917F916F9117
:1039B0005F914F913F912F910F900BBE0F900FBED3
:1039C0000F901F9018951F920F920FB60F920BB683
:1039D0000F9211242F933F934F935F936F937F9395
:1039E0008F939F93AF93BF93EF93FF938091F804CE
:1039F0009091F904892B29F0E091F804F091F904F1
:103A00000995FF91EF91BF91AF919F918F917F9118
:103A10006F915F914F913F912F910F900BBE0F903F
:103A20000FBE0F901F9018951F920F920FB60F9216
:103A30000BB60F9211242F933F934F935F936F9385
:103A40007F938F939F93AF93BF93EF93FF93809157
:103A5000FC049091FD04892B29F0E091FC04F09185
:103A6000FD040995FF91EF91BF91AF919F918F91C7
:103A70007F916F915F914F913F912F910F900BBE6E
:103A80000F900FBE0F901F9018951F920F920FB6B8
:103A90000F920BB60F9211242F933F934F935F9386
:103AA0006F937F938F939F93AF93BF93EF93FF9306
:103AB0008091020590910305892B29F0E091020580
:103AC000F09103050995FF91EF91BF91AF919F91FF
:103AD0008F917F916F915F914F913F912F910F90B7
:103AE0000BBE0F900FBE0F901F9018951F920F9254
:103AF0000FB60F920BB60F9211242F933F934F9353
:103B00005F936F937F938F939F93AF93BF93EF9345
:103B1000FF938091040590910505892B29F0E09190
:103B20000405F09105050995FF91EF91BF91AF91C3
:103B30009F918F917F916F915F914F913F912F91C5
:103B40000F900BBE0F900FBE0F901F9018951F92F5
:103B50000F920FB60F920BB60F9211242F933F9333
:103B60004F935F936F937F938F939F93AF93BF9385
:103B7000EF93FF938091060590910705892B29F01B
:103B8000E0910605F09107050995FF91EF91BF912E
:103B9000AF919F918F917F916F915F914F913F91E5
:103BA0002F910F900BBE0F900FBE0F901F90189586
:103BB0001F920F920FB60F920BB60F9211242F93F4
:103BC0003F934F935F936F937F938F939F93AF93A5
:103BD000BF93EF93FF938091080590910905892B7E
:103BE00029F0E0910805F09109050995FF91EF9101
:103BF000BF91AF919F918F917F916F915F914F9105
:103C00003F912F910F900BBE0F900FBE0F901F9002
:103C1000189583E061E00E94A81984E061E00E94A9
:103C2000A81978940E9471180E947313FDCFDC01CB
:103C3000ED91FC910190F081E02D099508950E948D
:103C4000171E08950F931F93CF93DF938C01EB0101
:103C500004C02196C8010E941F1E68816623C9F70F
:103C6000DF91CF911F910F9108952F923F924F9224
:103C70005F926F927F928F929F92AF92BF92CF92FC
:103C8000DF92EF92FF920F931F93DF93CF93CDB705
:103C9000DEB7A0970FB6F894DEBF0FBECDBF1C01F4
:103CA0006A017B01411551056105710521F460E34D
:103CB0000E941F1E4FC0882499245401422E55246F
:103CC0006624772401E010E00C0F1D1F080D191D5C
:103CD000C701B601A30192010E945922F801608335
:103CE0000894811C911CA11CB11CC701B601A30141
:103CF00092010E945922C901DA016C017D01C114AF
:103D0000D104E104F104F1F681E0E82EF12CEC0E8F
:103D1000FD1EE80CF91C3E010894611C711CD501C4
:103D2000C4010197A109B1096C01C818D9080FC0D5
:103D3000F601EE0DFF1D60816A3010F4605D01C078
:103D4000695CC1010E941F1E0894E108F1086E140D
:103D50007F0471F7A0960FB6F894DEBF0FBECDBFFB
:103D6000CF91DF911F910F91FF90EF90DF90CF9057
:103D7000BF90AF909F908F907F906F905F904F908B
:103D80003F902F900895EF92FF920F931F93CF9340
:103D9000DF93EC017A018B0177FF0BC06DE20E948B
:103DA0001F1E10950095F094E094E11CF11C011D7C
:103DB000111DCE01B801A7012AE00E94351EDF9136
:103DC000CF911F910F91FF90EF900895AB0166275F
:103DD00057FD6095762F0E94C31E0895CF92DF9203
:103DE000EF92FF920F931F93CF93DF936C017B01B0
:103DF000C0E0D0E00EC0D601ED91FC9100811181B0
:103E0000C701BE010E94501F682FC601F801099525
:103E10002196F70186819781C817D90760F3DF9152
:103E2000CF911F910F91FF90EF90DF90CF90089569
:103E3000009711F00E9441230895CF93DF93EC0186
:103E400087E393E0998388838A819B81009711F0AF
:103E50000E94181F1D821C821F821E82DF91CF913B
:103E60000895009711F00E9441230895CF93DF93A6
:103E7000EC0187E393E0998388838A819B81009793
:103E800011F00E94181F1D821C821F821E82CE010B
:103E90000E94311FDF91CF9108950E9495220895CD
:103EA000CF93DF93EC01EA81FB81E60FF71F80815E
:103EB000DF91CF910895CF93DF93EC01CB017D8308
:103EC0006C8301960E944D1F9B838A83009721F487
:103ED0001D821C821F821E82DF91CF9108950F9355
:103EE0001F93CF93DF93EC018B0187E393E09983DA
:103EF00088836115710511F40AE312E0C8010E947C
:103F00009E23BC019F838E83CE010E945B1F8A810A
:103F10009B81009719F0B8010E949723DF91CF9100
:103F20001F910F9108955058BB27AA270ED0B1C1F9
:103F3000A2D130F0A7D120F031F49F3F11F41EF44C
:103F400097C10EF4E095E7FB64C1E92FB3D180F38C
:103F5000BA17620773078407950718F071F49EF586
:103F6000E2C10EF4E0950B2EBA2FA02D0B01B90182
:103F700090010C01CA01A0011124FF27591B99F0DF
:103F8000593F50F4503E68F11A16F040A22F232FEB
:103F9000342F4427585FF3CF469537952795A7953B
:103FA000F0405395C9F77EF41F16BA0B620B730BE2
:103FB000840BBAF09150A1F0FF0FBB1F661F771F53
:103FC000881FC2F70EC0BA0F621F731F841F48F408
:103FD000879577956795B795F7959E3F08F0B3CF8E
:103FE0009395880F08F09927EE0F97958795089578
:103FF000ECD008F481E008950CD04BC143D140F0DF
:104000003AD130F021F45F3F19F003C151118CC156
:104010002FC150D198F39923C9F35523B1F3951BC0
:10402000550BBB27AA2762177307840738F09F5FD9
:104030005F4F220F331F441FAA1FA9F333D00E2E48
:104040003AF0E0E830D091505040E695001CCAF7B5
:1040500029D0FE2F27D0660F771F881FBB1F26177A
:1040600037074807AB07B0E809F0BB0B802DBF014D
:10407000FF2793585F4F2AF09E3F510568F0C9C053
:1040800053C15F3FECF3983EDCF3869577956795D7
:10409000B795F7959F5FC9F7880F911D96958795FE
:1040A00097F90895E1E0660F771F881FBB1F62171D
:1040B00073078407BA0720F0621B730B840BBA0BDB
:1040C000EE1F88F7E095089504D06894B1112CC1D3
:1040D0000895F8D088F09F5790F0B92F9927B751DD
:1040E000A0F0D1F0660F771F881F991F1AF0BA95BC
:1040F000C9F712C0B13081F016D1B1E0089513C1F3
:10410000672F782F8827B85F39F0B93FCCF38695B1
:1041100077956795B395D9F73EF49095809570950E
:1041200061957F4F8F4F9F4F0895E89409C097FB8B
:104130003EF490958095709561957F4F8F4F9F4F7E
:104140009923A9F0F92F96E9BB279395F6958795C2
:1041500077956795B795F111F8CFFAF4BB0F11F485
:1041600060FF1BC06F5F7F4F8F4F9F4F16C088232C
:1041700011F096E911C0772321F09EE8872F762F62
:1041800005C0662371F096E8862F70E060E02AF0A3
:104190009A95660F771F881FDAF7880F969587958F
:1041A00097F90895A9D080F09F3740F491110EF04F
:1041B000BBC060E070E080E89FEB089526F41B161A
:1041C000611D711D811D2BC045C0990F0008550F41
:1041D000AA0BE0E8FEEF16161706E807F907C0F08D
:1041E00012161306E407F50798F0621B730B840B95
:1041F000950B39F40A2661F0232B242B252B21F46F
:1042000008950A2609F4A140A6958FEF811D811D0E
:10421000089597F99F6780E870E060E0089588232B
:1042200071F4772321F09850872B762F07C06623EF
:1042300011F499270DC09051862B70E060E02AF0B0
:104240009A95660F771F881FDAF7880F96958795DE
:1042500097F908959F3F31F0915020F48795779515
:104260006795B795880F911D9695879597F908954D
:104270009FEF80EC089500240A941616170618067E
:104280000906089500240A9412161306140605065A
:104290000895092E0394000C11F4882352F0BB0FEB
:1042A00040F4BF2B11F460FF04C06F5F7F4F8F4F4E
:1042B0009F4F089557FD9058440F551F59F05F3F89
:1042C00071F04795880F97FB991F61F09F3F79F038
:1042D00087950895121613061406551FF2CF4695BA
:1042E000F1DF08C0161617061806991FF1CF86953C
:1042F0007105610508940895E5DFA0F0BEE7B917E0
:1043000088F4BB279F3860F41616B11D672F782FED
:104310008827985FF7CF869577956795B11D939518
:104320009639C8F30895E894BB2766277727CB0111
:1043300097F908950BD0ADCF9EDF28F0A3DF18F0DA
:10434000952309F066CF94CF1124EECFB3DFA0F30D
:10435000959FD1F3950F50E0551F629FF001729F1A
:10436000BB27F00DB11D639FAA27F00DB11DAA1F39
:10437000649F6627B00DA11D661F829F2227B00D86
:10438000A11D621F739FB00DA11D621F839FA00D11
:10439000611D221F749F3327A00D611D231F849F61
:1043A000600D211D822F762F6A2F11249F575040B8
:1043B0008AF0E1F088234AF0EE0FFF1FBB1F661F53
:1043C000771F881F91505040A9F79E3F510570F00C
:1043D00020CFAACF5F3FECF3983EDCF3869577952C
:1043E0006795B795F795E7959F5FC1F7FE2B880F07
:1043F000911D9695879597F9089511F40EF438CF8D
:1044000029CF60DFD0F39923D9F3CEF39F57550B13
:1044100087FF35D00024A0E640EA900180585695E9
:10442000979528F4805C660F771F881F20F0261769
:104430003707480730F4621B730B840B202931299E
:104440004A2BA69517940794202531254A2758F71B
:10445000660F771F881F20F026173707480730F4AC
:10446000620B730B840B200D311D411DA09581F74C
:10447000B901842F9158880F96958795089591508A
:104480005040660F771F881FD2F7089597FB092EBB
:1044900007260AD077FD04D02ED006D000201AF4CB
:1044A000709561957F4F0895F6F7909581959F4F90
:1044B0000895A1E21A2EAA1BBB1BFD010DC0AA1F65
:1044C000BB1FEE1FFF1FA217B307E407F50720F07D
:1044D000A21BB30BE40BF50B661F771F881F991FF8
:1044E0001A9469F760957095809590959B01AC0141
:1044F000BD01CF010895AA1BBB1B51E107C0AA1F34
:10450000BB1FA617B70710F0A61BB70B881F991F74
:104510005A95A9F780959095BC01CD010895EE0FAD
:10452000FF1F0590F491E02D0994CF93DF93BC0118
:104530008230910510F462E070E0A0910C05B0911A
:104540000D05ED01E0E0F0E040E050E021C08881A1
:1045500099818617970769F48A819B81309719F0B2
:104560009383828304C090930D0580930C05FE0114
:1045700033C06817790738F44115510519F08417CD
:10458000950708F4AC01FE018A819B819C01E90139
:104590002097E9F641155105A1F1CA01861B970B39
:1045A000049708F4BA01E0E0F0E029C08D919C91F5
:1045B000119784179507F1F46417750779F4ED01E5
:1045C0008A819B81309719F09383828304C09093F2
:1045D0000D0580930C05FD0132964FC0CA01861B64
:1045E000970BFD01E80FF91F6193719302978D936B
:1045F0009C9343C0FD01828193819C01D901109756
:10460000A9F680910A0590910B05892B41F48091C0
:104610003D0290913E0290930B0580930A054091D4
:104620003F02509140024115510541F44DB75EB72C
:1046300080913B0290913C02481B590B20910A0546
:1046400030910B0524173507B0F4CA01821B930B78
:104650008617970780F0AB014E5F5F4F8417950771
:1046600050F0420F531F50930B0540930A05F90178
:104670006193719302C0E0E0F0E0CF01DF91CF9150
:104680000895CF93DF93009709F44EC0EC01229771
:104690001B821A82A0910C05B0910D05109701F1B3
:1046A00040E050E0AC17BD0700F1BB83AA83FE01D8
:1046B00021913191E20FF31FAE17BF0771F48D9175
:1046C0009C911197280F391F2E5F3F4F3983288304
:1046D000FD01828193819B838A834115510569F491
:1046E000D0930D05C0930C051FC0FD0182819381FD
:1046F000AD01009711F0DC01D5CFFA01D383C2835D
:1047000021913191E20FF31FCE17DF0769F4888101
:104710009981280F391F2E5F3F4FFA013183208383
:104720008A819B8193838283DF91CF910895FB01DE
:10473000DC0101900D920020E1F70895FC01019049
:104740000020E9F7809590958E0F9F1F089510E047
:10475000C0E9D0E004C0FE010E9491222296C23935
:08476000D107C9F7F894FFCF5F
:104768006B70006B640074687265736800737065C1
:1047780065640064656C74610061726D5370656591
:10478800640049526B700049526B6400495253707F
:1047980065656400626567696E495200656E6449C3
:1047A80052007475726E5370656564007475726E2C
:1047B800436F756E74004C65617665006F6666526E
:1047C8006F636B73006F66664952004952636F727C
:1047D80072656374696F6E00524553455454494E6F
:1047E8004700726F636B207475726E696E67006E36
:1047F800656720636F7200706F7320636F7200705B
:104808006F7320736D616C6C006E656720736D61EA
:104818006C6C0063656E746572005748415420548F
:104828004F20544553543F005461706520466F6CC7
:104838006C6F77696E67002A0020004172746966A0
:104848006163742041726D0049522053656E736F25
:104858007200474F20484F4D45004C3A2000523ACD
:1048680020007468726573683A2000495220464FE8
:104878004C4C4F57494E47007475726E3100535473
:104888004152543A20474F20534F46540053544FF7
:10489800503A20524554554E45000020000E050060
:1048A8000078003C007800E1003C003C00900126C4
:1048B800028200D00790010400C800140564006457
:1048C800000100A5003C0022014001010026023C35
:1048D800003C002C01E803D007E80304006400E46E
:1048E800025000640000C07F4400C07F4400C07FC5
:1048F80044000061440000A04000C07F4400C07F25
:104908004400C07F4400C07F440000FA4400C07FD8
:104918004400C07F440000A04000C07F440000FA6B
:104928004400C07F4400C07F4401000F000500011F
:1049380000F4010000320035003B0038002300621B
:10494800006500310034003A00370022006100643D
:1049580000300033003900360021002000630001D8
:10496800FF180019002600270005000400010000B8
:104978000000000000660100000000CE0321028351
:104988000368039D030102040810204080201008DA
:0C499800804020000000001D1F361F00A2
:00000001FF
