:100000000C9448000C947C000C947C000C947C00B4
:100010000C947C000C947C000C947C000C947C0070
:100020000C947C000C949F150C9448140C946E1541
:100030000C94DB140C940C150C9417140C94AA1447
:100040000C9411110C947C000C9454030C94E30355
:100050000C947C000C947C000C947C000C947C0030
:100060000C943D150C9463160C94D0150C94011649
:100070000C9432160C9479140C9425030C949C0364
:100080000C947C000C947C000C947C000B058F0578
:1000900011241FBECFEFD0E1DEBFCDBF88E483BF08
:1000A00084E00E948D1212BE87B7816087BF78946A
:1000B00012E0A0E0B1E0E4E5F4E300E00BBF02C031
:1000C00007900D92A83AB107D9F713E0A8EAB2E079
:1000D00001C01D92A43DB107E1F710E0C0E9D0E0F6
:1000E00004C02297FE010E94241ACC38D107C9F718
:1000F0000E9494160C94281A0C940000FB01EE0F39
:10010000FF1FE258FD4F808160E070E00E946013A5
:1001100008950F931F93CF93DF93EB018A01CC0FC8
:10012000DD1F57FD0CC0FE01EA58FD4F808161E0E4
:100130000E940312C258DD4F8881B8010EC0FE0133
:10014000EA58FD4F808160E00E940312C258DD4FE3
:1001500066277727601B710B88810E946013DF91EF
:10016000CF911F910F9108951F93CF93DF93C0E01C
:10017000D0E0FE01EA58FD4F1081812F61E00E941E
:10018000BA11812F61E00E940312FE01E258FD4F77
:10019000808160E070E00E9460132296C830D10533
:1001A00041F7DF91CF911F910895FC0110828AE001
:1001B00090E0938382830895CF93DF93EC018A814B
:1001C00060E00E9403128D8160E00E9433128D81F5
:1001D00060E00E9455128B8161E00E9403128C81C5
:1001E00061E00E9403120000000010C08C8160E0FA
:1001F0000E94031200000000000000008C8161E0FA
:100200000E94031200000000000000008D810E9487
:100210004A1287FDEBCF8C8160E00E940312DF91D0
:10022000CF910895FF920F931F938C01F62E0E9499
:10023000DC00F801828161E00E940312F8018381F1
:1002400060E00E940312F801848161E00E940312C1
:10025000F801858161E00E943312F80185816F2DDC
:100260000E9455120000000000000000F801848187
:1002700060E00E940312F801858160E00E94331261
:10028000F80185816FEF0E9455121F910F91FF9029
:100290000895EF92FF920F931F93CF93DF937C010A
:1002A000042F6115710551F0EB0110E005C0C70185
:1002B00069910E9412011F5F1017C8F3DF91CF915F
:1002C0001F910F91FF90EF900895DF93CF930F92BE
:1002D000CDB7DEB76983BE016F5F7F4F41E00E94FB
:1002E00049010F90CF91DF910895FF920F931F93D3
:1002F0008C01F62E0E94DC00F801828160E00E94F1
:100300000312F801838160E00E940312F8018481E6
:1003100061E00E940312F801858161E00E943312BE
:10032000F80185816F2D0E94551200000000000029
:100330000000F801848160E00E940312F8018581C9
:1003400060E00E943312F80185816FEF0E94551220
:100350001F910F91FF900895423031F0433031F0FA
:10036000413029F4605C03C06C5E01C06C5A606867
:100370000E947501089562E00E947501089561E090
:100380000E94750108950F931F938C01FC018281D7
:1003900060E00E940312F801838160E00E94031272
:1003A000F801848160E00E940312F801828161E01B
:1003B0000E94BA11F801838161E00E94BA11F8012C
:1003C000848161E00E94BA11F801858160E00E9499
:1003D0003312F80185816FEF0E9455121F910F9122
:1003E00008950F931F938C010E94C301C80168E315
:1003F0000E947501C80161E00E947501C80166E0B4
:100400000E947501C8016CE00E947501C80162E09C
:100410000E947501C80160E80E9475011F910F914B
:1004200008950F93FC018AE892E0918380836283B0
:10043000438324830583CF010E94F1010F91089526
:100440005F926F927F928F929F92AF92BF92CF9264
:10045000DF92EF92FF920F931F93CF93DF93EC0104
:100460003A014B01413482E458078FE0680780E08D
:1004700078070CF07FC060E874E88EE190E0A4019A
:1004800093010E94F3192150304040405040CA016E
:10049000B90122E030E040E050E00E94F319590138
:1004A0006A01A6019501209530954095509594E0FC
:1004B000220F331F441F551F9A95D1F760E074E255
:1004C00084EF90E00E94F319CA01B9012FEF30E0E8
:1004D00040E050E00E949F19A40193010E94F3198B
:1004E000C90181509F4F181619061CF4522E5A94B8
:1004F00003C055245394521A60E079E08DE390E0F4
:10050000A40193010E94F319215030404040504013
:10051000CA01B90122E030E040E050E00E94F31946
:10052000209530954095509583E0220F331F441F4E
:10053000551F8A95D1F760E074E284EF90E00E9445
:10054000F319CA01B9012FEF30E040E050E00E94FA
:100550009F19A40193010E94F319C90181509F4F73
:10056000181619061CF4822F815002C081E0821BEC
:100570008515E8F4CA5BDF4FE881F981C654D040A5
:1005800082E0808360E079E08DE390E0A401930154
:100590000E94F3192150304040405040CA01B90137
:1005A00022E030E040E050E00E94F31908C0CA5B4E
:1005B000DF4FE881F981C654D04010829501CE5BAF
:1005C000DF4FE991F9913083E881F9812083249606
:1005D000E881F98188E98083DF91CF911F910F91A4
:1005E000FF90EF90DF90CF90BF90AF909F908F9053
:1005F0007F906F905F900895FC0124813581C9013F
:100600000895DC01FC0182819381809714F080E0E1
:100610000895FD0182819381019693838283848171
:100620009581E80FF91F60870196FD01958384830A
:100630002D913C9111978217930714F481E008954E
:10064000FD011582148281E008951F920F920FB66A
:100650000F920BB60F9211242F933F934F935F93FA
:100660006F937F938F939F93AF93BF93EF93FF937A
:10067000E0913E03F0913F03608186EF92E00E949B
:100680000103FF91EF91BF91AF919F918F917F9166
:100690006F915F914F913F912F910F900BBE0F90F3
:1006A0000FBE0F901F9018951F920F920FB60F92CA
:1006B0000BB60F9211242F933F934F935F936F9339
:1006C0007F938F939F93AF93BF93EF93FF93E091AB
:1006D000F202F091F30260818AEA92E00E94010343
:1006E000FF91EF91BF91AF919F918F917F916F910A
:1006F0005F914F913F912F910F900BBE0F900FBEC6
:100700000F901F901895DC01FC0182819381019765
:100710009383828386819781E80FF91F4085019634
:10072000FD01978386832D913C918217930714F0E6
:1007300017821682842F08951F920F920FB60F9280
:100740000BB60F9211240F931F932F933F934F9348
:100750005F936F937F938F939F93AF93BF93EF9329
:10076000FF9380912003909121031816190654F4E9
:1007700000913E0310913F038EE193E00E948303BA
:10078000F80180838091200390912103892B31F41B
:10079000E0913C03F0913D0388E98083FF91EF9164
:1007A000BF91AF919F918F917F916F915F914F9189
:1007B0003F912F911F910F910F900BBE0F900FBE85
:1007C0000F901F9018951F920F920FB60F920BB6B5
:1007D0000F9211240F931F932F933F934F935F9387
:1007E0006F937F938F939F93AF93BF93EF93FF93F9
:1007F0008091D4029091D5021816190654F40091F4
:10080000F2021091F30282ED92E00E948303F8015C
:1008100080838091D4029091D502892B31F4E091AC
:10082000F002F091F10288E98083FF91EF91BF918E
:10083000AF919F918F917F916F915F914F913F9178
:100840002F911F910F910F900BBE0F900FBE0F9025
:100850001F901895DC01FC0182819381019793839D
:10086000828386819781E80FF91F40850196FD01FB
:10087000978386832D913C918217930714F01782FA
:100880001682842F0895FC0184819581892B19F4A7
:100890002FEF3FEF06C0CF0102960E942A04282FB7
:1008A00030E0C9010895CF93DF93EC01EE81FF8121
:1008B000E80FF91F8085DF91CF910895FC018481B5
:1008C0009581892B19F42FEF3FEF06C0CF010296D7
:1008D0000E945304282F30E0C9010895FC011382BF
:1008E000128282819381978386839583848308957E
:1008F00002960E946E040895FC0180E290E09183CC
:100900008083CF010E946E040895DC01FC01828186
:100910009381409714F080E00895FD0182819381D6
:1009200001969383828384819581E80FF91F608704
:100930000196FD01958384832D913C911197821737
:10094000930714F481E00895FD011582148281E07B
:100950000895CF93DF93EC018CA59DA54097E4F714
:10096000F894CE018A960E948504C85BDF4FE88127
:10097000F9818081806280837894DF91CF9108959E
:10098000FC011382128282819381978386839583EF
:1009900084830895FC0180E190E091838083CF01FE
:1009A0000E94C00408956F927F928F929F92AF929F
:1009B000BF92CF92DF92EF92FF920F931F936C0141
:1009C0005B014A013901FC0180E992E08193919336
:1009D000CF010E947C04C6018A960E94CA0482E468
:1009E00090E0C80ED91EF601A192B1928192919227
:1009F0006192719201931193F182E0821F910F91A4
:100A0000FF90EF90DF90CF90BF90AF909F908F902E
:100A10007F906F900895EF92FF920F931F9388EA53
:100A200092E060E970E049E250E02BE230E00AE257
:100A300010E0FCE2EF2EF12C0E94D30484EF92E050
:100A400068E970E049E950E02BE930E00AE910E09C
:100A5000ECE9EE2EF12C0E94D3041F910F91FF9030
:100A6000EF9008958FE590E09093290280932802FB
:100A700022E330E030932B0220932A0283E790E0B8
:100A800090932D0280932C0281EE90E090932F02A0
:100A900080932E02109255031092540384E690E046
:100AA00090933102809330023093330220933202CC
:100AB00088EC90E0909335028093340286E292E0D5
:100AC000909337028093360286E990E09093390242
:100AD0008093380280E496E090933B0280933A0240
:100AE00021E030E030933D0220933C021092570306
:100AF00010925603109263031092620380E991E012
:100B0000909343028093420284E190E090934502E7
:100B10008093440230933F0220933E0208950F9346
:100B200080E493E06AE14BE12CE102E00E941102D3
:100B300086E493E00E94B40088E493E00E94D5002C
:100B40008CE493E00E94D50080E593E00E94D500FC
:100B50000F910895CF92DF92EF92FF920F931F9320
:100B6000CF93DF937C018B016A0144275527481BF3
:100B7000590B461B570B86E493E060E070E00E943F
:100B800089000E0D1F1D86E493E061E070E0A8016E
:100B90000E94890064EF71E080E090E00E9494116F
:100BA00081E00E946912EC0182E00E946912CC157A
:100BB000DD05B4F38C159D059CF3DF91CF911F915A
:100BC0000F91FF90EF90DF90CF9008956F927F92FA
:100BD0008F929F92AF92BF92CF92DF92EF92FF924D
:100BE0000F931F93CF93DF934C013B01EA016901FF
:100BF000580181E00E9469128C0182E00E94691212
:100C00009C01C817D90744F4C017D1078CF410927F
:100C10009D0310929C030CC08C179D074CF4C017C9
:100C2000D10734F481E090E090939D0380939C037E
:100C30000C171D074CF4C217D30734F48FEF9FEF46
:100C400090939D0380939C032C173D070CF50C1784
:100C50001D07F4F4209146023091470237FF0BC084
:100C60008091480290914902909581959F4F909371
:100C70009D0380939C031216130654F4809148023E
:100C8000909149028A0D9B1D90939D0380939C0334
:100C9000809146029091470240919C0350919D03A0
:100CA00084179507B1F090939F0380939E03509310
:100CB0004702409346028091A6039091A703909328
:100CC000A9038093A80381E090E09093A703809309
:100CD000A603849E9001859E300D949E300D1124B4
:100CE0003093A1032093A00380919E0390919F03D2
:100CF000481B590B6091A6037091A7038091A8032C
:100D00009091A903680F791F649EC001659E900DA4
:100D1000749E900D11240E94BE19CB017093A30301
:100D20006093A203820F931F9093A5038093A40363
:100D3000EF2819F4CFEFDFEF02C0C1E0D0E08C0D57
:100D40009D1DC89FA001C99F500DD89F500D112413
:100D500086E493E060E070E00E9489008091A40343
:100D60009091A503C81AD90ACC9DA001CD9D500D24
:100D7000DC9D500D112486E493E061E070E00E9458
:100D800089008091A6039091A70301969093A703F1
:100D90008093A603DF91CF911F910F91FF90EF9069
:100DA000DF90CF90BF90AF909F908F907F906F908B
:100DB0000895CF93DF9381E00E946912EC0182E0F5
:100DC0000E946912AC0120912C0230912D0228174B
:100DD000390744F42C173D078CF410929D031092B0
:100DE0009C030CC0821793074CF42C173D0734F476
:100DF00081E090E090939D0380939C03C217D307FA
:100E00004CF42417350734F48FEF9FEF90939D0334
:100E100080939C03421753072CF5C217D30714F590
:100E2000209146023091470237FF0BC08091480263
:100E300090914902909581959F4F90939D03809347
:100E40009C031216130674F4809154039091550379
:100E50002091480230914902820F931F90939D0385
:100E600080939C03809146029091470220919C03BD
:100E700030919D0382179307B1F090939F03809365
:100E80009E0330934702209346028091A6039091DF
:100E9000A7039093A9038093A80381E090E0909327
:100EA000A7038093A603DF91CF9108950F931F931B
:100EB00083E00E9469128C0184E00E9469129C0107
:100EC000200F311FC9011F910F91089581E30E94E6
:100ED000EA1120E030E0882311F421E030E0C9017C
:100EE00008950E946607892B19F420E030E00EC0B7
:100EF00062E370E080E090E00E9494110E94660737
:100F000020E030E0892B11F021E030E0C9010895A4
:100F100082E30E94EA1120E030E0882311F421E00E
:100F200030E0C90108950E948807892B19F420E058
:100F300030E00EC062E370E080E090E00E94941127
:100F40000E94880720E030E0892B11F021E030E09A
:100F5000C90108951F93182F61E00E940312812F89
:100F60000E94EA11813019F020E030E013C062E302
:100F700070E080E090E00E949411812F61E00E9477
:100F80000312812F0E94EA1120E030E0813011F439
:100F900021E030E0C9011F9108950F931F93CF9373
:100FA000DF938C0180E493E00E94BF0180E493E032
:100FB0000E94BB0180E493E060E040E00E94AC014D
:100FC00080E493E060E071E00E94AD1680E493E07D
:100FD00060E041E00E94AC0180E493E069E071E0F0
:100FE0000E94AD16CC27DD27C01BD10B83E090E01B
:100FF0000E94AA07892B41F486E493E062E070E046
:10100000AE010E948900F2CF80E493E00E94BF010C
:1010100086E493E062E070E00E947E0080E493E06A
:101020000E94BB0180E493E060E040E00E94AC01DC
:1010300080E493E06EE071E00E94AD1680E493E0FE
:1010400060E041E00E94AC0180E493E06BE171E07C
:101050000E94AD1680E090E00E94AA07892B49F417
:1010600086E493E062E070E04CE251E00E94890087
:10107000F1CF80E493E00E94BF0186E493E062E058
:1010800070E00E947E000E94D906DF91CF911F91EF
:101090000F9108950F931F93CF93DF93EC018C0171
:1010A0000E5F1F4F3EC086E00E94691299838883BD
:1010B00087E00E946912F8019183808380E493E0C5
:1010C0000E94BB0180E493E060E040E00E94AC013C
:1010D00080E493E063E271E00E94AD16688179815B
:1010E00080E493E00E94711780E493E060E041E0C7
:1010F0000E94AC0180E493E06AE271E00E94AD16C8
:10110000F8016081718180E493E00E9471176AE0C8
:1011100070E080E090E00E94941180E493E00E94EF
:10112000BF010E948807892B09F4BDCF06C062E386
:1011300070E080E090E00E9494110E948807892B63
:10114000B1F7DF91CF911F910F910895EF92FF9228
:101150000F931F93CF93DF93EC018C010E5F1F4F12
:1011600081E0E82EF12C5DC086E00E94691299832F
:1011700088830E946607892BA9F062E370E080E013
:1011800090E00E9494110E946607892B59F0F801A3
:1011900080819181892B19F01182108203C0F8019E
:1011A000F182E08280E493E00E94BF0180E493E05A
:1011B0000E94BB0180E493E060E040E00E94AC014B
:1011C00080E493E061E371E00E94AD16688179816B
:1011D00080E493E00E94711780E493E060E041E0D6
:1011E0000E94AC0180E493E06DE371E00E94AD16D3
:1011F0008A819B81892B29F080E493E068E471E087
:1012000004C080E493E06AE471E00E94AD166AE0F5
:1012100070E080E090E00E94941180E493E00E94EE
:10122000BF010E948807892B09F49ECF06C062E3A4
:1012300070E080E090E00E9494110E948807892B62
:10124000B1F7DF91CF911F910F91FF90EF9008952B
:101250006F927F928F929F92AF92BF92CF92DF92C6
:10126000EF92FF920F931F93CF93DF936C014B018B
:101270005A01390183E00E9469127C0184E00E94D6
:1012800069128C016AE070E080E090E00E949411A5
:1012900080E493E00E94BF0180E493E00E94BB01E0
:1012A00080E493E06CE471E00E94AD1680E493E08A
:1012B000B7010E94711780E493E068E040E00E946B
:1012C000AC0180E493E060E571E00E94AD1680E43B
:1012D00093E0B8010E94711780E493E060E041E080
:1012E0000E94AC0180E493E064E571E00E94AD16D9
:1012F00060918C0370918D0380E493E00E947117DC
:10130000E701C01BD10BD0938D03C0938C03809158
:101310008E0390918F038C179D07B1F090939103EA
:1013200080939003D0938F03C0938E038091980392
:101330009091990390939B0380939A0381E090E0AE
:1013400090939903809398030E0D1F1DB801882771
:1013500077FD8095982F0E9414180E945A197B01DE
:101360008C01CA9DB001CB9D700DDA9D700D1124CA
:10137000882777FD8095982F0E941418A80197015F
:101380000E9479170E94E1179B0170939303609369
:1013900092038091900390919103C81BD90B6091A7
:1013A00098037091990380919A0390919B03680F21
:1013B000791FC89DC001C99D900DD89D900D112425
:1013C0000E94BE197093950360939403260F371FF4
:1013D000309397032093960380E493E068E041E024
:1013E0000E94AC0180E493E069E571E00E94AD16D3
:1013F000609196037091970380E493E00E947117C7
:10140000672819F4CFEFDFEF02C0C1E0D0E0809190
:101410009603909197038C0D9D1DC89FA001C99FB5
:10142000500DD89F500D112486E493E060E070E0E9
:101430000E9489008091960390919703C81AD90A57
:10144000CC9DA001CD9D500DDC9D500D112486E456
:1014500093E061E070E00E94890080919803909190
:10146000990301969093990380939803DF91CF910C
:101470001F910F91FF90EF90DF90CF90BF90AF90B2
:101480009F908F907F906F900895AF92BF92CF9270
:10149000DF92EF92FF920F931F93CF93DF93EC01B4
:1014A00036E0C32ED12CC80ED91E21E0A22EB12CBD
:1014B00094E0E92EF12CEC0EFD1E8E010E5F1F4F05
:1014C0004BC180E493E00E94BB0180E493E060E0C4
:1014D00040E00E94AC0180E493E06DE571E00E9481
:1014E000AD1686E00E946912AA2797FDA095BA2F33
:1014F000BC01CD010E94141820E030EC4FE754E409
:101500000E94791720E030E040E850E40E94F31890
:101510000E944F180E94E11770936103609360036B
:1015200080E493E00E94BB0180E493E060E041E04E
:101530000E94AC018091600390916103009709F0D3
:101540003FC080E493E06BE671E00E94AD168881B5
:10155000998181309105B9F480E493E06FE040E037
:101560000E94AC0180E493E06AE771E00E94AD164E
:101570000E946607892BF9F00E946607892BE1F724
:101580001982188218C0892BB1F480E493E06FE0CF
:1015900040E00E94AC0180E493E06CE771E00E94BF
:1015A000AD160E946607892B31F00E946607892BD1
:1015B000E1F7B982A8826CE271E080E090E0C6C0F9
:1015C00081309105E9F580E493E06EE771E00E94D7
:1015D000AD16F8018081918181309105B9F480E4E4
:1015E00093E06FE040E00E94AC0180E493E06AE7A2
:1015F00071E00E94AD160E946607892B09F460C055
:101600000E946607892BE1F7F8013EC0892B09F09B
:1016100057C080E493E06FE040E00E94AC0180E4BA
:1016200093E06CE771E00E94AD160E946607892B7B
:1016300009F446C00E946607892BE1F7F8013EC015
:10164000029709F042C080E493E06BE871E00E94E9
:10165000AD16F7018081918181309105C1F480E45C
:1016600093E06FE040E00E94AC0180E493E06AE721
:1016700071E00E94AD160E946607892B09F10E9455
:101680006607892BE1F7F7011182108219C0892BB7
:10169000B9F480E493E06FE040E00E94AC0180E4A4
:1016A00093E06CE771E00E94AD160E946607892BFB
:1016B00039F00E946607892BE1F7F701B182A08219
:1016C00064E670E080E090E041C080E493E065E98A
:1016D00071E00E94AD16F601808191818130910503
:1016E000C1F480E493E06FE040E00E94AC0180E44C
:1016F00093E06AE771E00E94AD160E946607892BAD
:1017000009F10E946607892BE1F7F6011182108228
:1017100019C0892BB9F480E493E06FE040E00E94A7
:10172000AC0180E493E06CE771E00E94AD160E948A
:101730006607892B39F00E946607892BE1F7F601CD
:10174000B182A0826AE070E080E090E00E94941193
:1017500080E493E00E94BF010E948807892B09F46E
:10176000B0CE06C062E370E080E090E00E94941189
:101770000E948807892BB1F7DF91CF911F910F91BC
:10178000FF90EF90DF90CF90BF90AF900895AF9211
:10179000BF92CF92DF92EF92FF920F931F93CF935E
:1017A000DF938C01EC0122964AC086E00E94691208
:1017B000F8019183808387E00E946912998388836E
:1017C00080E493E00E94BB0180E493E060E040E0AD
:1017D0000E94AC0180E493E06DE971E00E94AD16D7
:1017E00080E493E060E041E00E94AC0180E493E09B
:1017F00069EB71E00E94AD16F8016081718180E4AF
:1018000093E00E94711780E493E068E041E00E9459
:10181000AC0180E493E06DEB71E00E94AD1668814D
:10182000798180E493E00E9471176AE070E080E0C3
:1018300090E00E94941180E493E00E94BF010E9416
:101840008807892B09F4B1CF06C062E370E080E01D
:1018500090E00E9494110E948807892BB1F74BC039
:1018600083E00E9469127C0184E00E9469126C018D
:1018700086E00E946912998388838D5B924014F000
:10188000B982A88280E493E060E040E00E94AC016D
:1018900080E493E06CE471E00E94AD1680E493E094
:1018A000B7010E94711780E493E060E571E00E9447
:1018B000AD1680E493E0B6010E94711780E493E0D6
:1018C00060E041E00E94AC0180E493E061EC71E0F3
:1018D0000E94AD166881798180E493E00E947117BF
:1018E0006AE070E080E090E00E94941180E493E070
:1018F0000E94BF0106C0E80124965CEBA52E52E0D1
:10190000B52E0E948807892B09F4AACF06C062E38E
:1019100070E080E090E00E9494110E948807892B7B
:10192000B1F757C086E00E946912F7019183808366
:1019300087E00E946912AA2797FDA095BA2FBC01E3
:10194000CD010E94141820E030EC4FE754E40E94CF
:10195000791720E030E04AEF54E40E94F3180E9427
:101960004F180E94E1177983688380E493E00E9416
:10197000BB0180E493E060E040E00E94AC0180E4C1
:1019800093E069EC71E00E94AD16F701608171810E
:1019900080E493E00E94711780E493E060E041E00E
:1019A0000E94AC0180E493E061ED71E00E94AD160D
:1019B0006881798180E493E00E9471176EE170E0A4
:1019C00080E090E00E94941180E493E00E94BF01C7
:1019D00007C046E0E42EF12CE00EF11EE801289647
:1019E0000E948807892B09F49DCF06C062E370E04E
:1019F00080E090E00E9494110E948807892BB1F743
:101A0000DF91CF911F910F91FF90EF90DF90CF90DA
:101A1000BF90AF900895CF92DF92EF92FF920F9315
:101A20001F93CF93DF936C01EC0122964AC086E0AE
:101A30000E946912F6019183808387E00E946912F7
:101A40009983888380E493E00E94BB0180E493E063
:101A500060E040E00E94AC0180E493E067ED71E05B
:101A60000E94AD1680E493E060E041E00E94AC018A
:101A700080E493E069EB71E00E94AD16F6016081AD
:101A8000718180E493E00E94711780E493E068E044
:101A900041E00E94AC0180E493E06DEB71E00E94B4
:101AA000AD166881798180E493E00E9471176AE045
:101AB00070E080E090E00E94941180E493E00E9446
:101AC000BF010E948807892B09F4B1CF06C062E3E9
:101AD00070E080E090E00E9494110E948807892BBA
:101AE000B1F746C081E00E9469128C0182E00E9439
:101AF00069127C0186E00E9469129983888380E4E0
:101B000093E060E041E00E94AC0180E493E063EE8A
:101B100071E00E94AD166881798180E493E00E94B3
:101B2000711780E493E060E040E00E94AC0180E443
:101B300093E06CE471E00E94AD1680E493E0B8019C
:101B40000E94711780E493E06FEE71E00E94AD1681
:101B500080E493E0B7010E94711764E670E080E0D2
:101B600090E00E94941180E493E00E94BF0102C0C3
:101B7000E60124960E948807892B09F4B3CF06C09A
:101B800062E370E080E090E00E9494110E94880778
:101B9000892BB1F75AC086E00E9469129983888325
:101BA00087E00E946912AA2797FDA095BA2FBC0171
:101BB000CD010E94141820E030EC4FE754E40E945D
:101BC000791720E030E040EA50E40E94F3180E94C8
:101BD0004F180E94E117F601718360838881998113
:101BE0008D5B924014F01983088380E493E060E0F9
:101BF00040E00E94AC0180E493E061EC71E00E945F
:101C0000AD166881798180E493E00E94711780E4C9
:101C100093E060E041E00E94AC0180E493E064EF77
:101C200071E00E94AD16F6016081718180E493E05D
:101C30000E9471176AE070E080E090E00E949411C9
:101C400080E493E00E94BF0108C0E601269688E088
:101C500090E0C80ED91E0CEB12E00E948807892B79
:101C600009F499CF06C062E370E080E090E00E9442
:101C700094110E948807892BB1F7DF91CF911F91B2
:101C80000F91FF90EF90DF90CF900895EF92FF9229
:101C90000F931F93CF93DF93809140029091410265
:101CA000019709F00FC18CE793E00E94450A80E498
:101CB00093E00E94BB0180E493E060E040E00E947A
:101CC000AC0180E493E06CEF71E00E94AD1664E13A
:101CD00070E080E090E00E94941180E493E00E9424
:101CE000BF010E948807892B49F081E090E0909322
:101CF0006703809366030E94320508C00E9466074E
:101D0000892BA9F210926703109266030E9488073C
:101D1000892B29F40E946607892B09F448C262E3E3
:101D200070E080E090E00E949411F0CF80917C03FD
:101D300090917D03019761F588E693E00E940B0D79
:101D400080916803909169039093290280932802FF
:101D500080916A0390916B0390932B0280932A02E7
:101D600080916C0390916D0390932D0280932C02CF
:101D700080916E0390916F0390932F0280932E02B7
:101D80008091700390917103909355038093540355
:101D900080917E0390917F030197A1F484E893E002
:101DA0000E94A60880918403909185039093370246
:101DB0008093360280918603909187039093650308
:101DC000809364038091800390918103019761F572
:101DD00082E793E00E94C70B809172039091730396
:101DE0009093310280933002809174039091750337
:101DF000909333028093320280917603909177031F
:101E00009093350280933402809178039091790306
:101E1000909339028093380280917A0390917B03EA
:101E200090933B0280933A0280917C0390917D03D2
:101E3000892B09F447C088E893E00E944A08809102
:101E4000880390918903909343028093420280918A
:101E50008A0390918B03909345028093440232C091
:101E600081E00E9469128C0182E00E9469127C016B
:101E700080E493E00E94BF0180E493E00E94BB01F4
:101E800080E493E06CE471E00E94AD1680E493E09E
:101E9000B8010E94711780E493E060E041E00E9485
:101EA000AC0180E493E060E571E00E94AD1680E44F
:101EB00093E0B7010E94711764E670E080E090E063
:101EC0000E9494110E949307892B51F20AC18091BC
:101ED0007C0390917D03019701F560912A02709136
:101EE0002B0240912C0250912D02209156033091EB
:101EF000570380912E0290912F02280F391F0091D5
:101F0000540310915503E0903C02F0903D02809103
:101F10002802909129020E94E6058FB7F894969ABC
:101F20008FBF80917E0390917F03019709F057C086
:101F300086E00E94EA11813009F051C086E493E006
:101F400060E070E00E947E0086E493E061E070E073
:101F50000E947E0080913602909137020E94CD0748
:101F60008091620390916303019690936303809341
:101F70006203019751F40E94591160935C037093BE
:101F80005D0380935E0390935F0380916203909161
:101F90006303029751F40E945911609358037093A0
:101FA000590380935A0390935B038091620390914D
:101FB00063030397A1F480918203909183030197B7
:101FC00071F4609144027091450240912C0250914D
:101FD0002D0280914202909143020E94AA05209115
:101FE00062033091630321303105F9F48091560387
:101FF0009091570384369105C4F40E9459112091A1
:102000005C0330915D0340915E0350915F03621B5E
:10201000730B840B950B685B7B408040904030F1E4
:10202000D0935703C093560321C022303105F1F4F9
:10203000809156039091570318161906BCF40E941C
:102040005911209158033091590340915A035091EE
:102050005B03621B730B840B950B685B7B408040BA
:10206000904020F010925703109256038091800305
:10207000909181030197B9F50E945607209138028B
:10208000309139022817390774F510927D031092A8
:102090007C03609130027091310240913202509184
:1020A000330220913C0230913D02809134029091A4
:1020B00035020E9428090E94560720913A02309169
:1020C0003B02821793077CF086E493E060E070E0C7
:1020D0000E947E0086E493E061E070E00E947E0052
:1020E0001AC0C4E6D0E00E947107892B09F4EFCE34
:1020F00012C086E493E060E070E00E947E0086E417
:1021000093E061E070E00E947E0062E370E080E0B6
:1021100090E00E9494110E946607892B51F780E499
:1021200093E00E94BB0180E493E060E040E00E9405
:10213000AC0180E493E06CE072E00E94AD1680E4B4
:1021400093E060E041E00E94AC0180E493E06BE149
:1021500072E00E94AD166AE070E080E090E00E94BC
:10216000941180E493E00E94BF010E948807892BAC
:1021700029F010924102109240020AC00E946607A4
:10218000892B69F281E090E09093410280934002B4
:102190000E948807892B21F40E946607892B79F019
:1021A00062E370E080E090E00E949411F1CF8091B2
:1021B000660390916703892B09F4B8CD83CE109202
:1021C000630310926203109257031092560381E04A
:1021D00090E090933F0280933E02DF91CF911F9158
:1021E0000F91FF90EF90089588EA92E040E855E261
:1021F00060E070E00E94200280E060E00E94331204
:1022000081E060E00E94331280E060E00E94BA1139
:1022100083E060E00E94BA1186E060E00E94BA119B
:1022200008951F920F920FB60F9211242F933F9390
:102230008F939F93AF93BF938091AE039091AF0321
:10224000A091B003B091B1033091B2030196A11DEA
:10225000B11D232F2D5F2D3720F02D570196A11D85
:10226000B11D2093B2038093AE039093AF03A0936C
:10227000B003B093B1038091AA039091AB03A091F6
:10228000AC03B091AD030196A11DB11D8093AA03CB
:102290009093AB03A093AC03B093AD03BF91AF9108
:1022A0009F918F913F912F910F900FBE0F901F9094
:1022B00018958FB7F8942091AE033091AF034091F9
:1022C000B0035091B1038FBFB901CA0108956FB730
:1022D000F8942091AA033091AB034091AC03509144
:1022E000AD0382B790E0A0E0B0E006B600FE09C002
:1022F0008F3F9105A105B10521F02F5F3F4F4F4F53
:102300005F4F6FBF542F432F322F2227280F391FC3
:102310004A1F5B1F82E0220F331F441F551F8A95FF
:10232000D1F7B901CA010895EF92FF920F931F935D
:10233000CF93DF937B018C010E946711EB010EC0EC
:102340000E9467116C1B7D0B685E7340C8F3089494
:10235000E108F10801091109C851DC4FE114F10449
:102360000105110569F7DF91CF911F910F91FF9042
:10237000EF900895E82FE695E695E695A82FB0E052
:10238000613099F42FB7F894F0E0EE0FFF1FE85A90
:10239000FD4F0190F081E02D9081A770B070A6569E
:1023A000BD4F8C91982B908313C02FB7F894F0E019
:1023B000EE0FFF1FE85AFD4F0190F081E02D908154
:1023C000A770B070A656BD4F8C91809589238083ED
:1023D0002FBF0895A82FE82FE695E695E695F0E043
:1023E000EE0FFF1FEA59FD4F0190F081E02DE081D3
:1023F000B0E0A770B070A656BD4F8C91E82309F0ED
:10240000E1E08E2F0895E82FE695E695E695A82F52
:10241000B0E0613099F42FB7F894F0E0EE0FFF1FB1
:10242000E65BFD4F0190F081E02D9081A770B070C8
:10243000A656BD4F8C91982B908313C02FB7F8945C
:10244000F0E0EE0FFF1FE65BFD4F0190F081E02D05
:102450009081A770B070A656BD4F8C91809589234E
:1024600080832FBF0895E82FF0E0613051F4EE0F24
:10247000FF1FE85AFD4F0190F081E02D8FEF808320
:102480000895EE0FFF1FE85AFD4F0190F081E02DF7
:1024900010820895E82FF0E0EE0FFF1FEA59FD4F7C
:1024A0000190F081E02D80810895E82FF0E0EE0F9B
:1024B000FF1FE65BFD4F0190F081E02D60830895E2
:1024C000109261001092620080E487B987EE86B9AD
:1024D00008951F93182F80917402813021F40E9477
:1024E00060121092740280917502181721F4349AC8
:1024F000349BFECF0DC01093750287B11770807E9C
:10250000812B87B9349A349BFECF349A349BFECF0B
:1025100024B135B1C9011F91089593B7987F982BC5
:1025200093BF08959EB5987F982B9EBD089583E034
:102530000E9492121DBC1CBC87B7846087BF08959F
:10254000EAE8F0E09081987F982B9083089583E0EB
:102550000E94A0121092890010928800EDE7F0E02E
:102560008081846080830895893031F48FB58260E2
:102570008FBD8FB58E7F0AC08A3019F48FB5826007
:1025800002C08FB58D7F8FBD8FB581608FBD1BBCA5
:102590001ABC19BC18BC10927900109278000895EA
:1025A0008FB580688FBD8FB58F7B8FBD08958FB538
:1025B00080628FBD8FB58F7E8FBD08958FB5886087
:1025C0008FBD8FB58B7F8FBD08959BBD8ABD08954C
:1025D00099BD88BD089590937900809378000895FF
:1025E000893049F480918B00826080938B008091C8
:1025F0008B008E7F0EC08A3021F480918B00826028
:1026000003C080918B008D7F80938B0080918B0025
:10261000816080938B001092870010928600109248
:102620008500109284001092830010928200089519
:10263000EBE8F0E080818068808380818F7B8083FD
:102640000895EBE8F0E080818062808380818F7E56
:1026500080830895EBE8F0E080818860808380814A
:102660008B7F80830895853019F40E94D0120895DD
:10267000843019F40E94D7120895833019F40E940F
:10268000DE120895823019F40E94181308958130E3
:1026900019F40E9421130895882311F40E942A132B
:1026A0000895909387008093860008959093850005
:1026B000809384000895909383008093820008950E
:1026C000EF92FF921F93CF93DF93182F7B018D31F1
:1026D000B0F08F3111F413E014C08E3111F414E016
:1026E00010C08D3109F49BC0853211F410E03DC05B
:1026F000843211F411E039C0833219F48EC0833072
:10270000A0F18091B30386FD0BC00E9497127894CC
:102710008AE00E94B4128091B30380648093B30373
:102720008091B303C12FD0E090E0012E02C09595B7
:1027300087950A94E2F780FD4CC087B3FE01EE5501
:10274000FD4F9081892B87BB812F0E9433132091ED
:10275000B30381E090E0012E02C0880F991F0A9414
:10276000E2F7282B2093B30334C08091B30387FD95
:102770000BC00E94A71278948AE00E94F012809108
:10278000B30380688093B3038091B303C12FD0E07B
:1027900090E0012E02C0959587950A94E2F780FD9E
:1027A00024C082B1FE01EE55FD4F9081892B82B984
:1027B000812F0E9433132091B30381E090E0012E1A
:1027C00002C0880F991F0A94E2F7282B2093B303C5
:1027D0000CC0153021F4C7010E94E51222C014304C
:1027E00021F4C7010E94E8121CC0133021F4C70174
:1027F0000E94EB1216C0123021F4C7010E9451133F
:1028000010C0113021F4C7010E9456130AC01123D1
:1028100041F4C7010E945B1304C012E0A6CF15E08B
:1028200070CFDF91CF911F91FF90EF9008951F928D
:102830000F920FB60F920BB60F9211242F933F9366
:102840004F935F936F937F938F939F93AF93BF93B8
:10285000EF93FF938091BA039091BB03892B29F0EA
:10286000E091BA03F091BB030995FF91EF91BF91FD
:10287000AF919F918F917F916F915F914F913F9118
:102880002F910F900BBE0F900FBE0F901F901895B9
:102890001F920F920FB60F920BB60F9211242F9327
:1028A0003F934F935F936F937F938F939F93AF93D8
:1028B000BF93EF93FF938091C4039091C503892B3D
:1028C00029F0E091C403F091C5030995FF91EF91C0
:1028D000BF91AF919F918F917F916F915F914F9138
:1028E0003F912F910F900BBE0F900FBE0F901F9036
:1028F00018951F920F920FB60F920BB60F921124DC
:102900002F933F934F935F936F937F938F939F93F7
:10291000AF93BF93EF93FF938091CA039091CB0342
:10292000892B29F0E091CA03F091CB030995FF911F
:10293000EF91BF91AF919F918F917F916F915F9137
:102940004F913F912F910F900BBE0F900FBE0F90A4
:102950001F9018951F920F920FB60F920BB60F9201
:1029600011242F933F934F935F936F937F938F9394
:102970009F93AF93BF93EF93FF938091B603909192
:10298000B703892B29F0E091B603F091B7030995BD
:10299000FF91EF91BF91AF919F918F917F916F9137
:1029A0005F914F913F912F910F900BBE0F900FBEF3
:1029B0000F901F9018951F920F920FB60F920BB6A3
:1029C0000F9211242F933F934F935F936F937F93B5
:1029D0008F939F93AF93BF93EF93FF938091BC032B
:1029E0009091BD03892B29F0E091BC03F091BD03C8
:1029F0000995FF91EF91BF91AF919F918F917F9139
:102A00006F915F914F913F912F910F900BBE0F905F
:102A10000FBE0F901F9018951F920F920FB60F9236
:102A20000BB60F9211242F933F934F935F936F93A5
:102A30007F938F939F93AF93BF93EF93FF93809177
:102A4000BE039091BF03892B29F0E091BE03F09162
:102A5000BF030995FF91EF91BF91AF919F918F9126
:102A60007F916F915F914F913F912F910F900BBE8E
:102A70000F900FBE0F901F9018951F920F920FB6D8
:102A80000F920BB60F9211242F933F934F935F93A6
:102A90006F937F938F939F93AF93BF93EF93FF9326
:102AA0008091C0039091C103892B29F0E091C0036C
:102AB000F091C1030995FF91EF91BF91AF919F9163
:102AC0008F917F916F915F914F913F912F910F90D7
:102AD0000BBE0F900FBE0F901F9018951F920F9274
:102AE0000FB60F920BB60F9211242F933F934F9373
:102AF0005F936F937F938F939F93AF93BF93EF9366
:102B0000FF938091C2039091C303892B29F0E09138
:102B1000C203F091C3030995FF91EF91BF91AF916B
:102B20009F918F917F916F915F914F913F912F91E5
:102B30000F900BBE0F900FBE0F901F9018951F9215
:102B40000F920FB60F920BB60F9211242F933F9353
:102B50004F935F936F937F938F939F93AF93BF93A5
:102B6000EF93FF938091C6039091C703892B29F0BF
:102B7000E091C603F091C7030995FF91EF91BF91D2
:102B8000AF919F918F917F916F915F914F913F9105
:102B90002F910F900BBE0F900FBE0F901F901895A6
:102BA0001F920F920FB60F920BB60F9211242F9314
:102BB0003F934F935F936F937F938F939F93AF93C5
:102BC000BF93EF93FF938091CC039091CD03892B1A
:102BD00029F0E091CC03F091CD030995FF91EF919D
:102BE000BF91AF919F918F917F916F915F914F9125
:102BF0003F912F910F900BBE0F900FBE0F901F9023
:102C000018951F920F920FB60F920BB60F921124C8
:102C10002F933F934F935F936F937F938F939F93E4
:102C2000AF93BF93EF93FF938091CE039091CF0327
:102C3000892B29F0E091CE03F091CF030995FF9104
:102C4000EF91BF91AF919F918F917F916F915F9124
:102C50004F913F912F910F900BBE0F900FBE0F9091
:102C60001F9018951F920F920FB60F920BB60F92EE
:102C700011242F933F934F935F936F937F938F9381
:102C80009F93AF93BF93EF93FF938091D003909165
:102C9000D103892B29F0E091D003F091D10309955C
:102CA000FF91EF91BF91AF919F918F917F916F9124
:102CB0005F914F913F912F910F900BBE0F900FBEE0
:102CC0000F901F9018951F920F920FB60F920BB690
:102CD0000F9211242F933F934F935F936F937F93A2
:102CE0008F939F93AF93BF93EF93FF938091D20302
:102CF0009091D303892B29F0E091D203F091D30373
:102D00000995FF91EF91BF91AF919F918F917F9125
:102D10006F915F914F913F912F910F900BBE0F904C
:102D20000FBE0F901F90189583E061E00E94331250
:102D300084E061E00E94331278940E94F4100E94B3
:102D4000460EFDCFDC01ED91FC910190F081E02D6C
:102D5000099508950E94A21608950F931F93CF938B
:102D6000DF938C01EB0104C02196C8010E94AA16D2
:102D700068816623C9F7DF91CF911F910F91089564
:102D80002F923F924F925F926F927F928F929F927B
:102D9000AF92BF92CF92DF92EF92FF920F931F9369
:102DA000DF93CF93CDB7DEB7A0970FB6F894DEBF11
:102DB0000FBECDBF1C016A017B01411551056105A4
:102DC000710521F460E30E94AA164FC0882499245B
:102DD0005401422E55246624772401E010E00C0FA4
:102DE0001D1F080D191DC701B601A30192010E9404
:102DF000D119F80160830894811C911CA11CB11C9D
:102E0000C701B601A30192010E94D119C901DA01DB
:102E10006C017D01C114D104E104F104F1F681E0FB
:102E2000E82EF12CEC0EFD1EE80CF91C3E01089476
:102E3000611C711CD501C4010197A109B1096C0184
:102E4000C818D9080FC0F601EE0DFF1D60816A3069
:102E500010F4605D01C0695CC1010E94AA1608946B
:102E6000E108F1086E147F0471F7A0960FB6F8948C
:102E7000DEBF0FBECDBFCF91DF911F910F91FF90AD
:102E8000EF90DF90CF90BF90AF909F908F907F900A
:102E90006F905F904F903F902F900895EF92FF9228
:102EA0000F931F93CF93DF93EC017A018B0177FF90
:102EB0000BC06DE20E94AA1610950095F094E09464
:102EC000E11CF11C011D111DCE01B801A7012AE072
:102ED0000E94C016DF91CF911F910F91FF90EF904C
:102EE0000895AB01662757FD6095762F0E944E1717
:102EF00008950CD027C11FD140F016D130F021F435
:102F00005F3F19F0DFC0511168C10BC12CD198F39C
:102F10009923C9F35523B1F3951B550BBB27AA275A
:102F200062177307840738F09F5F5F4F220F331FCC
:102F3000441FAA1FA9F333D00E2E3AF0E0E830D098
:102F400091505040E695001CCAF729D0FE2F27D09B
:102F5000660F771F881FBB1F261737074807AB0769
:102F6000B0E809F0BB0B802DBF01FF2793585F4FDE
:102F70002AF09E3F510568F0A5C02FC15F3FECF3DA
:102F8000983EDCF3869577956795B795F7959F5FA3
:102F9000C9F7880F911D9695879597F90895E1E0F7
:102FA000660F771F881FBB1F621773078407BA0756
:102FB00020F0621B730B840BBA0BEE1F88F7E095B1
:102FC000089504D06894B11108C10895D4D088F050
:102FD0009F5790F0B92F9927B751A0F0D1F0660F05
:102FE000771F881F991F1AF0BA95C9F712C0B13020
:102FF00081F0F2D0B1E00895EFC0672F782F8827D5
:10300000B85F39F0B93FCCF3869577956795B3955E
:10301000D9F73EF490958095709561957F4F8F4FCD
:103020009F4F0895E89409C097FB3EF490958095D2
:10303000709561957F4F8F4F9F4F9923A9F0F92F7E
:1030400096E9BB279395F695879577956795B795FC
:10305000F111F8CFFAF4BB0F11F460FF1BC06F5FE2
:103060007F4F8F4F9F4F16C0882311F096E911C0F4
:10307000772321F09EE8872F762F05C0662371F015
:1030800096E8862F70E060E02AF09A95660F771F29
:10309000881FDAF7880F9695879597F9089585D058
:1030A00080F09F3740F491110EF097C060E070E01F
:1030B00080E89FEB089526F41B16611D711D811D8C
:1030C00007C021C097F99F6780E870E060E008952D
:1030D000882371F4772321F09850872B762F07C02F
:1030E000662311F499270DC09051862B70E060E0A3
:1030F0002AF09A95660F771F881FDAF7880F969542
:10310000879597F908959F3F31F0915020F4879566
:1031100077956795B795880F911D9695879597F93F
:1031200008959FEF80EC089500240A941616170660
:1031300018060906089500240A94121613061406A8
:1031400005060895092E0394000C11F4882352F00B
:10315000BB0F40F4BF2B11F460FF04C06F5F7F4FC3
:103160008F4F9F4F089557FD9058440F551F59F0AA
:103170005F3F71F04795880F97FB991F61F09F3F64
:1031800079F087950895121613061406551FF2CF8D
:103190004695F1DF08C0161617061806991FF1CFDD
:1031A00086957105610508940895E5DFA0F0BEE7F6
:1031B000B91788F4BB279F3860F41616B11D672F26
:1031C000782F8827985FF7CF869577956795B11DFB
:1031D00093959639C8F30895E894BB276627772717
:1031E000CB0197F908950BD0ADCF9EDF28F0A3DF78
:1031F00018F0952309F066CF94CF1124EECFB3DFFA
:10320000A0F3959FD1F3950F50E0551F629FF001F9
:10321000729FBB27F00DB11D639FAA27F00DB11D52
:10322000AA1F649F6627B00DA11D661F829F2227DB
:10323000B00DA11D621F739FB00DA11D621F839F62
:10324000A00D611D221F749F3327A00D611D231F38
:10325000849F600D211D822F762F6A2F11249F5786
:1032600050408AF0E1F088234AF0EE0FFF1FBB1FA9
:10327000661F771F881F91505040A9F79E3F510548
:1032800070F020CFAACF5F3FECF3983EDCF3869539
:1032900077956795B795F795E7959F5FC1F7FE2BF3
:1032A000880F911D9695879597F9089511F40EF45E
:1032B00038CF29CF60DFD0F39923D9F3CEF39F57CE
:1032C000550B87FF35D00024A0E640EA90018058D6
:1032D0005695979528F4805C660F771F881F20F01D
:1032E00026173707480730F4621B730B840B20291D
:1032F00031294A2BA69517940794202531254A2772
:1033000058F7660F771F881F20F0261737074807E2
:1033100030F4620B730B840B200D311D411DA09501
:1033200081F7B901842F9158880F96958795089554
:1033300091505040660F771F881FD2F70895629F03
:10334000D001739FF001829FE00DF11D649FE00D9D
:10335000F11D929FF00D839FF00D749FF00D659FFE
:10336000F00D9927729FB00DE11DF91F639FB00DFD
:10337000E11DF91FBD01CF011124089597FB092E0E
:1033800007260AD077FD04D049D006D000201AF4D1
:10339000709561957F4F0895F6F7909581959F4FB1
:1033A0000895A1E21A2EAA1BBB1BFD010DC0AA1F86
:1033B000BB1FEE1FFF1FA217B307E407F50720F09E
:1033C000A21BB30BE40BF50B661F771F881F991F19
:1033D0001A9469F760957095809590959B01AC0162
:1033E000BD01CF01089597FB092E05260ED057FD8C
:1033F00004D0D7DF0AD0001C38F4509540953095A2
:1034000021953F4F4F4F5F4F0895F6F79095809568
:10341000709561957F4F8F4F9F4F0895AA1BBB1BDF
:1034200051E107C0AA1FBB1FA617B70710F0A61BC4
:10343000B70B881F991F5A95A9F780959095BC01E5
:10344000CD010895EE0FFF1F0590F491E02D099432
:04345000F894FFCF1E
:103454005377696E67696E67004261636B005377E7
:10346400696E67696E672041726D00466F7277619D
:103474007264007475726E3A2000646966663A205C
:103484000041524D2053504545443A2000436F7546
:103494006E74696E673A2000540046004C3A20006E
:1034A400523A200045523A200050443A00574841CD
:1034B4005420544F20544553543F005461706520A8
:1034C400466F6C6C6F77696E67002A00200041724A
:1034D4007469666163742041726D004952205365BA
:1034E4006E736F7200474F20484F4D450054756E00
:1034F400696E672050494420666F722049522064E7
:103504006574656374696F6E00503A2000443A2014
:103514000053504545443A2000424547494E3A201D
:1035240000454E443A2000544150452054554E49DC
:103534004E47005468726573686F6C643A200020CB
:10354400523A200044454C54413A200044454641F7
:10355400554C542056414C5545533F005354415209
:10356400543A20474F20534F46540053544F503A37
:1035740020524554554E45008C0046007300E1002E
:1035840064003200C80026029600400601000100D3
:1035940001009001140005000500320035003B00D5
:1035A4003800230062006500310034003A0037001F
:1035B400220061006400300033003900360021002D
:1035C4002000630001FF18001900260027000500F1
:1035D400040001000000000000006501000000007C
:1035E400A904FC025E0443047804010204081020C8
:0835F4004080201008804020F7
:00000001FF
