:100000000C9449000C947D000C947D000C947D00B0
:100010000C947D000C947D000C947D000C947D006C
:100020000C947D000C94491D0C94F21B0C94181D2B
:100030000C94851C0C94B61C0C94C11B0C94541C81
:100040000C94BB180C947D000C9479020C9408035A
:100050000C947D000C947D000C947D000C947D002C
:100060000C94E71C0C940D1E0C947A1D0C94AB1D83
:100070000C94DC1D0C94231C0C944A020C94C102B9
:100080000C947D000C947D000C947D003004770569
:10009000700511241FBECFEFD0E1DEBFCDBF88E4D5
:1000A00083BF84E00E94371A12BE87B7816087BF82
:1000B000789413E0A0E0B1E0E2EDF7E400E00BBFDC
:1000C00002C007900D92AC33B107D9F715E0ACE34D
:1000D000B3E001C01D92AA30B107E1F710E0C0E91A
:1000E000D0E004C02297FE010E94C622CC38D1077E
:1000F000C9F70E943E1E0C94DC230C940000FB0107
:10010000EE0FFF1FE75FFC4F808160E070E00E9410
:100110000A1B08950F931F93CF93DF93EB018A017E
:10012000CC0FDD1F57FD0CC0FE01EF5FFC4F80813F
:1001300061E00E94AD19C75FDC4F8881B8010EC035
:10014000FE01EF5FFC4F808160E00E94AD19C75F48
:10015000DC4F66277727601B710B88810E940A1B82
:10016000DF91CF911F910F9108951F93CF93DF934C
:10017000C0E0D0E0FE01EF5FFC4F1081812F61E015
:100180000E946419812F61E00E94AD19FE01E75FB2
:10019000FC4F808160E070E00E940A1B2296C8300C
:1001A000D10541F7DF91CF911F910895FC01108295
:1001B0008AE090E0938382830895CF93DF93EC01EC
:1001C0008A8160E00E94AD198D8160E00E94DD1996
:1001D0008D8160E00E94FF198B8161E00E94AD1962
:1001E0008C8161E00E94AD190000000010C08C817C
:1001F00060E00E94AD1900000000000000008C814A
:1002000061E00E94AD1900000000000000008D8137
:100210000E94F41987FDEBCF8C8160E00E94AD193C
:10022000DF91CF910895FF920F931F938C01F62ECB
:100230000E94DD00F801828161E00E94AD19F801A1
:10024000838160E00E94AD19F801848161E00E9421
:10025000AD19F801858161E00E94DD19F801858101
:100260006F2D0E94FF190000000000000000F8013F
:10027000848160E00E94AD19F801858160E00E94F0
:10028000DD19F80185816FEF0E94FF191F910F9111
:10029000FF900895EF92FF920F931F93CF93DF93F8
:1002A0007C01042F6115710551F0EB0110E005C0D0
:1002B000C70169910E9413011F5F1017C8F3DF91F6
:1002C000CF911F910F91FF90EF900895DF93CF93FF
:1002D0000F92CDB7DEB76983BE016F5F7F4F41E0FC
:1002E0000E944A010F90CF91DF910895FF920F93E2
:1002F0001F938C01F62E0E94DD00F801828160E0E0
:100300000E94AD19F801838160E00E94AD19F801E7
:10031000848161E00E94AD19F801858161E00E944D
:10032000DD19F80185816F2D0E94FF190000000082
:1003300000000000F801848160E00E94AD19F8011E
:10034000858160E00E94DD19F80185816FEF0E94D0
:10035000FF191F910F91FF900895423031F0433003
:1003600031F0413029F4605C03C06C5E01C06C5A0E
:1003700060680E947601089562E00E947601089507
:1003800061E00E94760108950F931F938C01FC0198
:10039000828160E00E94AD19F801838160E00E94D3
:1003A000AD19F801848160E00E94AD19F8018281E5
:1003B00061E00E946419F801838161E00E94641980
:1003C000F801848161E00E946419F801858160E090
:1003D0000E94DD19F80185816FEF0E94FF191F91BE
:1003E0000F9108950F931F938C010E94C401C801BF
:1003F00068E30E947601C80161E00E947601C801AD
:1004000066E00E947601C8016CE00E947601C80196
:1004100062E00E947601C80160E80E9476011F91A7
:100420000F9108950F93FC0185E193E09183808300
:100430006283438324830583CF010E94F2010F91DD
:100440000895FC0124813581C9010895DC01FC0176
:1004500082819381809714F080E00895FD0182816C
:10046000938101969383828384819581E80FF91F9C
:1004700060870196FD01958384832D913C911197AE
:100480008217930714F481E00895FD011582148208
:1004900081E008951F920F920FB60F920BB60F9244
:1004A00011242F933F934F935F936F937F938F9379
:1004B0009F93AF93BF93EF93FF93E091D203F0919B
:1004C000D30360818AE893E00E942602FF91EF91B6
:1004D000BF91AF919F918F917F916F915F914F915C
:1004E0003F912F910F900BBE0F900FBE0F901F905A
:1004F00018951F920F920FB60F920BB60F92112400
:100500002F933F934F935F936F937F938F939F931B
:10051000AF93BF93EF93FF93E0918603F09187032E
:1005200060818EE393E00E942602FF91EF91BF91DC
:10053000AF919F918F917F916F915F914F913F917B
:100540002F910F900BBE0F900FBE0F901F9018951C
:10055000DC01FC01828193810197938382838681F0
:100560009781E80FF91F40850196FD0197838683E7
:100570002D913C918217930714F017821682842FD5
:1005800008951F920F920FB60F920BB60F9211247F
:100590000F931F932F933F934F935F936F937F938B
:1005A0008F939F93AF93BF93EF93FF938091B40387
:1005B0009091B5031816190654F40091D2031091C6
:1005C000D30382EB93E00E94A802F801808380911C
:1005D000B4039091B503892B31F4E091D003F091ED
:1005E000D10388E98083FF91EF91BF91AF919F91F3
:1005F0008F917F916F915F914F913F912F911F91BB
:100600000F910F900BBE0F900FBE0F901F9018957B
:100610001F920F920FB60F920BB60F9211240F93E9
:100620001F932F933F934F935F936F937F938F937A
:100630009F93AF93BF93EF93FF9380916803909143
:1006400069031816190654F4009186031091870364
:1006500086E693E00E94A802F801808380916803F7
:1006600090916903892B31F4E0918403F091850323
:1006700088E98083FF91EF91BF91AF919F918F9116
:100680007F916F915F914F913F912F911F910F91AA
:100690000F900BBE0F900FBE0F901F901895DC01AE
:1006A000FC01828193810197938382838681978164
:1006B000E80FF91F40850196FD01978386832D91F0
:1006C0003C918217930714F017821682842F0895A5
:1006D000FC0184819581892B19F42FEF3FEF06C02F
:1006E000CF0102960E944F03282F30E0C9010895E0
:1006F000CF93DF93EC01EE81FF81E80FF91F808536
:10070000DF91CF910895FC0184819581892B19F4A3
:100710002FEF3FEF06C0CF0102960E947803282FEB
:1007200030E0C9010895FC01138212828281938115
:100730009783868395838483089502960E9493030A
:100740000895FC0180E290E091838083CF010E94B4
:1007500093030895DC01FC0182819381409714F09A
:1007600080E00895FD0182819381019693838283C5
:1007700084819581E80FF91F60870196FD019583BB
:1007800084832D913C9111978217930714F481E093
:100790000895FD011582148281E00895CF93DF93BF
:1007A000EC018CA59DA54097E4F7F894CE018A96BC
:1007B0000E94AA03C85BDF4FE881F98180818062D3
:1007C00080837894DF91CF910895FC011382128287
:1007D0008281938197838683958384830895FC0126
:1007E00080E190E091838083CF010E94E50308952A
:1007F0006F927F928F929F92AF92BF92CF92DF9231
:10080000EF92FF920F931F936C015B014A01390134
:10081000FC018BE193E081939193CF010E94A103AE
:10082000C6018A960E94EF0382E490E0C80ED91EAA
:10083000F601A192B192819291926192719201938B
:100840001193F182E0821F910F91FF90EF90DF9062
:10085000CF90BF90AF909F908F907F906F900895B2
:10086000EF92FF920F931F938CE393E060E970E0A7
:1008700049E250E02BE230E00AE210E0FCE2EF2E29
:10088000F12C0E94F80388E893E068E970E049E9F8
:1008900050E02BE930E00AE910E0ECE9EE2EF12C13
:1008A0000E94F8031F910F91FF90EF90089588E741
:1008B00090E090934202809341022CE330E0309329
:1008C00044022093430281EE90E09093460280938D
:1008D000450290934802809347021092E9031092D8
:1008E000E80330934A022093490230934C0220934C
:1008F0004B0282EC91E090934E0280934D0286E28F
:1009000092E09093500280934F028AEF90E0909390
:1009100052028093510280ED97E0909354028093AD
:1009200053021092EB031092EA031092FF0310920D
:10093000FE0384E893E0909356028093550284E08E
:1009400090E0909358028093570288EC90E0909347
:100950005A028093590284E195E090935C0280935F
:100960005B0208951092B3041092B204089581E0DE
:1009700090E09093D0028093CF0280ED97E0A0E0CA
:10098000B0E08093D1029093D202A093D302B093AF
:10099000D40208959093CB048093CA0408950F93D2
:1009A000CF93DF938130910509F083C06F5F7F4F54
:1009B00009F092C084ED93E06AE14BE12CE102E0A2
:1009C0000E9412028AED93E00E94B5008CED93E044
:1009D0000E94D60080EE93E00E94D60084EE93E061
:1009E0000E94D60086E294E060E071E00E94A41FBD
:1009F0008EE294E063E071E00E94A41F86E394E03D
:100A000066E071E00E94A41F8EE394E06DE071E067
:100A10000E94A41F86E494E063E171E00E94A41F99
:100A20008EE494E069E171E00E94A41F86E594E001
:100A300062E271E00E94A41F8EE594E067E271E03B
:100A40000E94A41F86E694E06CE271E00E94A41F5D
:100A50008EE694E064E371E00E94A41F86E794E0D0
:100A60006CE371E00E94A41F8EE794E062E471E001
:100A70000E94A41F86E894E06CE471E00E94A41F29
:100A80008EE894E066E571E00E94A41F86E994E098
:100A90006CE571E00E94A41F8EE994E065E671E0C8
:100AA0000E94A41F86EA94E06BE671E00E94A41FF6
:100AB00013C0892B89F46F5F7F4F71F4C6EAD4E0CD
:100AC000E881F9810190F081E02DCE010995289708
:100AD00084E0CE31D807A1F7DF91CF910F9108952F
:100AE00080E090E06FEF7FEF0E94CF04089581E0F7
:100AF00090E06FEF7FEF0E94CF040895CF93DF93D4
:100B000081E00E94131AEC0182E00E94131AAC01EA
:100B100020914502309146022817390744F42C17DA
:100B20003D078CF41092C9041092C8040CC08217BF
:100B300093074CF42C173D0734F481E090E0909338
:100B4000C9048093C804C217D3074CF4241735078F
:100B500034F48FEF9FEF9093C9048093C804421739
:100B60005307E4F4C217D307CCF48091CA049091E0
:100B7000CB042091CD023091CE0297FF05C088278B
:100B80009927821B930B06C08091E8039091E9039B
:100B9000820F931F9093C9048093C8048091CA0464
:100BA0009091CB042091C8043091C9048217930717
:100BB000B1F09093CD048093CC043093CB04209378
:100BC000CA048091D4049091D5049093D704809363
:100BD000D60481E090E09093D5048093D404809172
:100BE000D4049091D50401969093D5048093D404B5
:100BF000DF91CF9108952F923F924F925F926F9223
:100C00007F928F929F92AF92BF92CF92DF92EF929C
:100C1000FF920F931F93CF93DF9381E00E94131AEB
:100C20008C0182E00E94131AEC010E940319609368
:100C3000D8047093D9048093DA049093DB0438E5E8
:100C4000232E32E0332E28EA422E2DEF522E90ED45
:100C5000892E97E0992EA12CB12C66246A94762CCB
:100C600088EEC82E83E0D82EE12CF12C75C081E0EF
:100C70000E94131A8C0182E00E94131AEC010E9458
:100C800003192091D8043091D9044091DA0450918D
:100C9000DB04621B730B840B950B2091D102309106
:100CA000D2024091D3025091D40226173707480749
:100CB000590708F051C08091CF029091D002813045
:100CC000910569F47092D0026092CF02C092D10275
:100CD000D092D202E092D302F092D40211C08F5F80
:100CE0009F4F71F481E090E09093D0028093CF0207
:100CF0008092D1029092D202A092D302B092D402FA
:100D00000E9403196093D8047093D9048093DA0485
:100D10009093DB048091CF029091D002829DA0013C
:100D2000839D500D929D500D11248AED93E060E05B
:100D300070E00E948A008091CF029091D002849D41
:100D4000A001859D500D949D500D11248AED93E0D6
:100D500061E070E00E948A00809145029091460215
:100D60000817190724F4C817D9070CF480CFDF91AE
:100D7000CF911F910F91FF90EF90DF90CF90BF9098
:100D8000AF909F908F907F906F905F904F903F902B
:100D90002F9008958F929F92AF92BF92CF92DF9241
:100DA000EF92FF920F931F93CF93DF935C014B0160
:100DB000EA017901680181E00E94131A8C0182E046
:100DC0000E94131A9C01C817D90744F4C017D10711
:100DD0008CF41092C9041092C8040CC08C179D07A3
:100DE0004CF4C017D10734F481E090E09093C9042B
:100DF0008093C8040C171D074CF4C217D30734F4B2
:100E00008FEF9FEF9093C9048093C8042C173D0780
:100E10000CF50C171D07F4F42091CA043091CB0493
:100E200037FF0BC08091CD029091CE0290958195B5
:100E30009F4F9093C9048093C8041216130654F46C
:100E40008091CD029091CE028C0D9D1D9093C9048E
:100E50008093C8048091CA049091CB044091C80447
:100E60005091C90484179507B1F09093CD048093F5
:100E7000CC045093CB044093CA048091D404909145
:100E8000D5049093D7048093D60481E090E09093AA
:100E9000D5048093D404A49E9001A59E300DB49EE9
:100EA000300D11243093CF042093CE048091CC04D4
:100EB0009091CD04481B590B6091D4047091D504D6
:100EC0008091D6049091D704680F791F849EC00149
:100ED000859E900D949E900D11240E947B22CB0143
:100EE0007093D1046093D004820F931F9093D30426
:100EF0008093D2042CEF33E02E193F094427552765
:100F0000421B530B841795072CF45093D304409342
:100F1000D20407C02817390724F43093D304209350
:100F2000D2044091D2045091D3044E0D5F1D8AED3E
:100F300093E060E070E00E948A008091D20490917A
:100F4000D304E81AF90A8AED93E061E070E0A701A2
:100F50000E948A008091D4049091D50401969093C8
:100F6000D5048093D404DF91CF911F910F91FF900E
:100F7000EF90DF90CF90BF90AF909F908F900895AB
:100F8000EF92FF920F931F93CF93DF938C017B011E
:100F900044275527481B590B8AED93E060E070E029
:100FA0000E948A008AED93E061E070E0A8010E944F
:100FB0008A0064EF71E080E090E00E943E1981E0D9
:100FC0000E94131AEC0182E00E94131ACE15DF056D
:100FD000B4F38E159F059CF3DF91CF911F910F9174
:100FE000FF90EF90089581E30E94941920E030E093
:100FF000882311F421E030E0C90108950E94F3072D
:10100000892B19F420E030E00EC062E370E080E04C
:1010100090E00E943E190E94F30720E030E0892B07
:1010200011F021E030E0C901089582E30E94941993
:1010300020E030E0882311F421E030E0C901089578
:101040000E941508892B19F420E030E00EC062E3FD
:1010500070E080E090E00E943E190E94150820E0B8
:1010600030E0892B11F021E030E0C90108951F9391
:10107000182F61E00E94AD19812F0E9494198130D0
:1010800019F020E030E013C06AE070E080E090E00A
:101090000E943E19812F61E00E94AD19812F0E94AC
:1010A000941920E030E0813011F421E030E0C901F2
:1010B0001F9108950F931F930AED13E0C80162E09A
:1010C00070E048E552E00E948A0064E670E080E04B
:1010D00090E00E943E19C80162E070E00E947F002B
:1010E0001F910F9108956F927F928F929F92AF926E
:1010F000BF92CF92DF92EF92FF920F931F93CF9305
:10110000DF936C013B014A015901E801CB01BA01AF
:10111000A901980187010E94CA060E9403196093E1
:10112000C4047093C5048093C6049093C704C3019C
:10113000B401A5019E010E94CA068AED93E062E017
:1011400070E0A6010E948A00C301B401A5019E01BE
:101150000E94CA06C301B401A5019E0187010E9435
:10116000CA0680E090E00E943708892BC9F4C301C9
:10117000B401A5019E010E94CA060E940319209194
:10118000C4043091C5044091C6045091C704621B49
:10119000730B840B950B60527E4480409040A0F20C
:1011A0008AED93E062E070E00E947F00DF91CF91D2
:1011B0001F910F91FF90EF90DF90CF90BF90AF9075
:1011C0009F908F907F906F9008956F927F928F92F3
:1011D0009F92AF92BF92CF92DF92EF92FF920F93C6
:1011E0001F93CF93DF936C013B014A015901E80142
:1011F0000E9403196093C4047093C5048093C604CD
:101200009093C704D094C194D108D3948AED93E00D
:1012100062E070E0A6010E948A0068EC70E080E065
:1012200090E00E943E19C301B401A5019801870115
:101230000E94CA06C301B401A5019E0187010E9454
:10124000CA0683E090E00E943708892BF1F4C301BD
:10125000B401A5019E010E94CA060E9403192091B3
:10126000C4043091C5044091C6045091C704621B68
:10127000730B840B950B60527E448040904028F4A1
:10128000C301B401A5019E01D3CF8AED93E062E0D2
:1012900070E00E947F00DF91CF911F910F91FF902E
:1012A000EF90DF90CF90BF90AF909F908F907F9006
:1012B0006F9008952F923F924F925F926F927F921C
:1012C0008F929F92AF92BF92CF92DF92EF92FF9256
:1012D0000F931F931C016B015A014901380127012B
:1012E000CB01BA01A901980187010E94CA06C10178
:1012F000B601A501940183010E94E508C601B5016C
:10130000A401930182010E94CA06C101B601A50190
:10131000940183010E947308C601B501A4019301E1
:1013200082010E94CA061F910F91FF90EF90DF90FB
:10133000CF90BF90AF909F908F907F906F905F9075
:101340004F903F902F9008950F931F938C010E9410
:1013500003196093C4047093C5048093C6049093EA
:10136000C7048AED93E062E070E0A8010E948A0061
:1013700080E090E00E943708892B99F40E940319BD
:101380002091C4043091C5044091C6045091C70413
:10139000621B730B840B950B60527E44804090401F
:1013A00038F38AED93E062E070E00E947F001F91C5
:1013B0000F9108950F931F938C010E94031960935E
:1013C000C4047093C5048093C6049093C704109519
:1013D00001951F4F8AED93E062E070E0A8010E9442
:1013E0008A0083E090E00E943708892B99F40E94DC
:1013F00003192091C4043091C5044091C604509152
:10140000C704621B730B840B950B60527E448040B3
:10141000904038F38AED93E062E070E00E947F0034
:101420001F910F9108952F923F924F925F926F926A
:101430007F928F929F92AF92BF92CF92DF92EF9264
:10144000FF920F931F93DF93CF9300D0CDB7DEB7FA
:101450009A8389834B015A01390168010E9403195B
:101460006093C4047093C5048093C6049093C7042A
:1014700049815A81509541955F4F8AED93E062E032
:1014800070E00E948A0068EC70E080E090E00E94CA
:101490003E190E9403191B012C01C401B501A301CF
:1014A000980187012AC0C401B501A30196018701F3
:1014B0000E94CA0683E090E00E943708892B51F50C
:1014C000C401B501A30196010E94CA060E94031936
:1014D0002091C4043091C5044091C6045091C704C2
:1014E000621B730B840B950B60527E4480409040CE
:1014F00088F4C401B501A30196010E94CA060E94A6
:1015000003196219730984099509685B7B4080405F
:10151000904048F20E9403196219730984099509E1
:10152000695B7B408040904040F088249924AA2445
:10153000BB24CC24DD24EE24FF24C401B501A30187
:10154000960187010E94CA0683E090E00E94370856
:10155000892B01F5C401B501A30196010E94CA06B9
:101560000E9403192091C4043091C5044091C6041F
:101570005091C704621B730B840B950B60527E4421
:101580008040904038F4C401B501A30196010E9447
:10159000CA06D3CF8AED93E062E070E00E947F003C
:1015A000C401B501A301960187010E94CA060E94E9
:1015B00003196093C4047093C5048093C604909388
:1015C000C704C401B501A30196010E94CA068AEDB1
:1015D00093E062E070E049815A810E948A0026C04F
:1015E000C401B501A301960187010E94CA0680E0EB
:1015F00090E00E943708892B51F5C401B501A30181
:1016000096010E94CA060E9403192091C4043091D9
:10161000C5044091C6045091C704621B730B840B30
:10162000950B60527E448040904088F4C401B5011F
:10163000A30196010E94CA060E9403196219730948
:1016400084099509685B7B408040904048F20E9485
:1016500003196219730984099509695B7B4080400D
:10166000904040F088249924AA24BB24CC24DD2473
:10167000EE24FF24C401B501A301960187010E9455
:10168000CA0680E090E00E943708892B01F5C4016A
:10169000B501A30196010E94CA060E940319209178
:1016A000C4043091C5044091C6045091C704621B24
:1016B000730B840B950B60527E448040904038F44D
:1016C000C401B501A30196010E94CA06D3CF8AEDD9
:1016D00093E062E070E00E947F000F900F90CF9146
:1016E000DF911F910F91FF90EF90DF90CF90BF900F
:1016F000AF909F908F907F906F905F904F903F90B2
:101700002F9008950F931F9304ED13E0C80168E72D
:1017100071E00E94571E68EE73E080E090E00E9446
:101720003E19C8010E94C0011092FF031092FE03EF
:101730001092EB031092EA031092ED031092EC0367
:101740001092F8031092F9031092FA031092FB031F
:101750001092F4031092F5031092F6031092F7031F
:1017600010920004109201041092020410920304DB
:101770001092EF031092EE031092100410921104D5
:101780001092120410921304109214041092150473
:10179000109216041092170410921D0410921C044B
:1017A000109218041092190410921A0410921B043B
:1017B00080911E0490911F0490930504809304046B
:1017C0008091200490912104909307048093060453
:1017D000809122049091230490930904809308043B
:1017E000809124049091250490930B0480930A0423
:1017F0001F910F910895EF92FF920F931F93CF9334
:10180000DF930F2EF0E0EF2EF0E0FF2EF0E00F2F31
:10181000F0E01F2FF02DC0E0D0E084E00E94131A0A
:10182000AA2797FDA095BA2FBC01CD010E94CC201C
:101830009B01AC01C801B7010E94C91F7B018C014B
:101840002196C530D10549F720E030E040EA50E468
:101850000E9431200E9407210E949920CB01DF9134
:10186000CF911F910F91FF90EF900895EF92FF920B
:101870000F931F93CF93DF930F2EF0E0EF2EF0E046
:10188000FF2EF0E00F2FF0E01F2FF02DC0E0D0E092
:1018900083E00E94131AAA2797FDA095BA2FBC01D6
:1018A000CD010E94CC209B01AC01C801B7010E9470
:1018B000C91F7B018C012196C530D10549F720E075
:1018C00030E040EA50E40E9431200E9407210E944B
:1018D0009920CB01DF91CF911F910F91FF90EF9055
:1018E00008950F931F93CF93DF938C01EB0144274F
:1018F0005527481B590B8AED93E060E070E00E9489
:101900008A008AED93E061E070E0A8010E948A00FD
:1019100084ED93E00E94C00184ED93E00E94BC013D
:1019200084ED93E062E871E00E94571E16C08AEDD4
:1019300093E060E070E044EF51E00E948A008AED9D
:1019400093E061E070E044EF51E00E948A0064EFB0
:1019500071E080E090E00E943E190E9403196093BC
:10196000C0047093C1048093C2049093C3040E9486
:10197000360C8C179D072CF00E94FB0B8C179D07D3
:10198000A4F40E9403192091C0043091C104409135
:10199000C2045091C304621B730B840B950B6151FD
:1019A00077428040904018F3C2CF84ED93E00E94CC
:1019B000C001DF91CF911F910F9108952F923F9217
:1019C0004F925F926F927F928F929F92AF92BF924F
:1019D000CF92DF92EF92FF920F931F93DF93CF93FB
:1019E00000D000D0CDB7DEB72C017A8369831A010D
:1019F000590168010E94360C8C010F5010400E9462
:101A0000FB0B7C018A159B050CF08EC00A151B058B
:101A10000CF056C08091B2049091B3040091C902B9
:101A20001091CA02181619063CF1662777276C191F
:101A30007D09882777FD8095982F0E94CC206093A0
:101A4000AE047093AF048093B0049093B104095E28
:101A500013400CF41AC11092CA021092C90284ED0C
:101A600093E00E94C00184ED93E00E94BC0184EDEC
:101A700093E06FE871E055C0B601882777FD809547
:101A8000982F0E94CC206093AE047093AF04809393
:101A9000B0049093B104095E13400CF4F6C01092A8
:101AA000CA021092C90284ED93E00E94C00184ED45
:101AB00093E00E94BC0184ED93E067E971E031C0DE
:101AC000A016B1060CF067C0B601882777FD809597
:101AD000982F0E94CC2020E030E040E05FE30E949D
:101AE000CF216093AE047093AF048093B0049093C1
:101AF000B1048091C9029091CA02895E93400CF4AE
:101B0000C4C01092CA021092C90284ED93E00E94F0
:101B1000C00184ED93E00E94BC0184ED93E06FE985
:101B200071E00E94571EB1C00A151B05A4F5A81646
:101B3000B9068CF5662777276C197D09882777FD0C
:101B40008095982F0E94CC2020E030E040E05FE3B9
:101B50000E94CF216093AE047093AF048093B004D1
:101B60009093B1048091C9029091CA02895E93401A
:101B70000CF48BC01092CA021092C90284ED93E05B
:101B80000E94C00184ED93E00E94BC0184ED93E0CB
:101B900069EA71E0C6CFC8018E199F099C838B83C7
:101BA0009C0197FF03C0309521953F4F8091CB0258
:101BB0009091CC02281739072CF580E090E0A0E046
:101BC000B0E08093AE049093AF04A093B004B093C0
:101BD000B1048091C9029091CA02895E93400CF4CD
:101BE00054C01092CA021092C90284ED93E00E9480
:101BF000C00184ED93E00E94BC0184ED93E063EBAF
:101C000071E08FCF60E070E08AE793E40E943622B3
:101C10003B014C015801AE0CBF1C2B813C811216BC
:101C2000130634F4B601882777FD8095982F08C0F5
:101C3000662777276C197D09882777FD8095982F6F
:101C40000E94CC2020E030E040E85EE30E94CF21FB
:101C50007B018C01B501882777FD8095982F0E9424
:101C6000CC200E943622A40193010E9431209B01C6
:101C7000AC01C801B7010E9431206093AE0470939B
:101C8000AF048093B0049093B104C090B204D0909C
:101C9000B304E090AE04F090AF040091B004109152
:101CA000B104B601882777FD8095982F0E94CC203B
:101CB000A80197010E942D208823D1F0D092B5046D
:101CC000C092B404C801B7010E9499207093B30474
:101CD0006093B2048091BC049091BD049093BF04C2
:101CE0008093BE0481E090E09093BD048093BC0497
:101CF000B101882777FD8095982F0E94CC20A801FC
:101D000097010E94CF210E9499204B017093B70444
:101D10006093B6046091BE047091BF04882777FD7C
:101D20008095982F0E94CC205B016C016091B404D7
:101D30007091B504882777FD8095982F0E94CC205C
:101D40009B01AC01C801B7010E94C81F0E949920E5
:101D500049815A81FB014E9FB0014F9F700D5E9FDC
:101D6000700D1124882777FD8095982F0E94CC2034
:101D70007B018C016091BC047091BD04882777FDC4
:101D80008095982F0E94CC209B01AC01C601B50123
:101D90000E94C91F9B01AC01C801B7010E943120FC
:101DA0000E949920CB017093B9046093B804880D08
:101DB000991D9093BB048093BA042CEF33E024194F
:101DC0003509281739072CF43093BB042093BA0443
:101DD0000BC044275527421B530B8417950724F447
:101DE0005093BB044093BA040091BA041091BB0411
:101DF000A201400F511F8AED93E060E070E00E9465
:101E00008A00401A510A8AED93E061E070E0A20175
:101E10000E948A008091BC049091BD040196909329
:101E2000BD048093BC040F900F900F900F90CF9142
:101E3000DF911F910F91FF90EF90DF90CF90BF90B7
:101E4000AF909F908F907F906F905F904F903F905A
:101E50002F9008952F923F924F925F926F927F92B0
:101E60008F929F92AF92BF92CF92DF92EF92FF92AA
:101E70000F931F93DF93CF9300D000D0CDB7DEB781
:101E80003C017A8369835C834B83190128010E949A
:101E900003196093C4047093C5048093C60490939F
:101EA000C7048AED93E062E070E0A3010E948A001B
:101EB0002DC089819A816B817C81A101920187016A
:101EC0000E94CA0680E090E00E943708892BD9F46E
:101ED00089819A816B817C81A10192010E94CA064D
:101EE0000E9403192091C4043091C5044091C60496
:101EF0005091C704621B730B840B950B60527E4498
:101F00008040904018F001E010E048C089819A813B
:101F10006B817C81A101920187010E94CA060E9407
:101F2000FB0B2D8D3E8D821793070CF4C2CFC6019B
:101F3000B501A401298D3A8D0B8D1C8D0E94DE0CFC
:101F400080E090E00E943708892B31F5C601B50189
:101F5000A401298D3A8D0B8D1C8D0E94DE0C0E94F0
:101F600003192091C4043091C5044091C6045091D6
:101F7000C704621B730B840B950B60527E44804038
:101F8000904050F4C601B501A401298D3A8D0B8D06
:101F90001C8D0E94DE0CCBCF00E010E08AED93E0B8
:101FA00062E070E00E947F0020E030E0012B11F43D
:101FB00021E030E0C9010F900F900F900F90CF916A
:101FC000DF911F910F91FF90EF90DF90CF90BF9026
:101FD000AF909F908F907F906F905F904F903F90C9
:101FE0002F9008952F923F924F925F926F927F921F
:101FF0008F929F92AF92BF92CF92DF92EF92FF9219
:102000000F931F93DF93CF9300D000D0CDB7DEB7EF
:102010003C017A8369835C834B83190128010E9408
:1020200003196093C4047093C5048093C60490930D
:10203000C70470946194710873948AED93E062E030
:1020400070E0A3010E948A0068EC70E080E090E0FC
:102050000E943E192DC089819A816B817C81A101EA
:10206000920187010E94CA0683E090E00E9437082F
:10207000892BD9F489819A816B817C81A10192019C
:102080000E94CA060E9403192091C4043091C5041D
:102090004091C6045091C704621B730B840B950BCF
:1020A00060527E448040904018F001E010E048C04B
:1020B00089819A816B817C81A101920187010E94B3
:1020C000CA060E94FB0B2D8D3E8D821793070CF4E0
:1020D000C2CFC601B501A401298D3A8D0B8D1C8D8F
:1020E0000E94DE0C83E090E00E943708892B31F5D6
:1020F000C601B501A401298D3A8D0B8D1C8D0E945E
:10210000DE0C0E9403192091C4043091C504409153
:10211000C6045091C704621B730B840B950B60526D
:102120007E448040904050F4C601B501A401298D41
:102130003A8D0B8D1C8D0E94DE0CCBCF00E010E0A1
:102140008AED93E062E070E00E947F0020E030E0E2
:10215000012B11F421E030E0C9010F900F900F9096
:102160000F90CF91DF911F910F91FF90EF90DF9033
:10217000CF90BF90AF909F908F907F906F905F9027
:102180004F903F902F900895AF92BF92CF92DF92E1
:10219000EF92FF920F931F93CF93DF93EC0176E0C2
:1021A000C72ED12CC80ED91E61E0A62EB12C54E04A
:1021B000E52EF12CE80EF91E8C010E5F1F4F4BC16E
:1021C00084ED93E00E94BC0184ED93E060E040E088
:1021D0000E94AD0184ED93E06AEB71E00E94571E0E
:1021E00086E00E94131AAA2797FDA095BA2FBC017A
:1021F000CD010E94CC2020E030EC4FE754E40E9457
:10220000312020E030E040E850E40E94CF210E94DD
:1022100007210E9499207093FD036093FC0384EDD5
:1022200093E00E94BC0184ED93E060E041E00E94F5
:10223000AD018091FC039091FD03009709F03FC030
:1022400084ED93E068EC71E00E94571E88819981CB
:1022500081309105B9F484ED93E06FE040E00E9495
:10226000AD0184ED93E067ED71E00E94571E0E947E
:10227000F307892BF9F00E94F307892BE1F7198204
:10228000188218C0892BB1F484ED93E06FE040E030
:102290000E94AD0184ED93E069ED71E00E94571E4C
:1022A0000E94F307892B31F00E94F307892BE1F795
:1022B000B982A8826CE271E080E090E0C6C0813013
:1022C0009105E9F584ED93E06BED71E00E94571EF6
:1022D000F8018081918181309105B9F484ED93E01A
:1022E0006FE040E00E94AD0184ED93E067ED71E0A6
:1022F0000E94571E0E94F307892B09F460C00E94B8
:10230000F307892BE1F7F8013EC0892B09F057C08C
:1023100084ED93E06FE040E00E94AD0184ED93E036
:1023200069ED71E00E94571E0E94F307892B09F4A2
:1023300046C00E94F307892BE1F7F8013EC00297DF
:1023400009F042C084ED93E068EE71E00E94571EF0
:10235000F7018081918181309105C1F484ED93E092
:102360006FE040E00E94AD0184ED93E067ED71E025
:102370000E94571E0E94F307892B09F10E94F30760
:10238000892BE1F7F7011182108219C0892BB9F46A
:1023900084ED93E06FE040E00E94AD0184ED93E0B6
:1023A00069ED71E00E94571E0E94F307892B39F0F6
:1023B0000E94F307892BE1F7F701B182A08264E65E
:1023C00070E080E090E041C084ED93E062EF71E066
:1023D0000E94571EF6018081918181309105C1F4E0
:1023E00084ED93E06FE040E00E94AD0184ED93E066
:1023F00067ED71E00E94571E0E94F307892B09F1D7
:102400000E94F307892BE1F7F6011182108219C0AF
:10241000892BB9F484ED93E06FE040E00E94AD01B8
:1024200084ED93E069ED71E00E94571E0E94F3076E
:10243000892B39F00E94F307892BE1F7F601B1826D
:10244000A0826AE070E080E090E00E943E1984ED96
:1024500093E00E94C0010E941508892B09F4B0CEB8
:1024600006C062E370E080E090E00E943E190E94A6
:102470001508892BB1F7DF91CF911F910F91FF9034
:10248000EF90DF90CF90BF90AF900895CF92DF9202
:10249000EF92FF920F931F93CF93DF93EC01BAC09B
:1024A00086E00E94131AAA2797FDA095BA2FBC01B7
:1024B000CD010E94CC2020E030EC4FE754E40E9494
:1024C000312020E030E048E851E40E94CF210E9412
:1024D00007210E9499208B0184ED93E00E94BC01AA
:1024E00084ED93E060E040E00E94AD016801A3E06C
:1024F000CC0CDD1CAA95E1F786E294E0C80ED91E4B
:1025000084ED93E0B6010E94231F84ED93E060E028
:1025100041E00E94AD017801EE0CFF1CEC0EFD1EA7
:10252000F7016081718184ED93E00E941B1F62E3DB
:1025300070E080E090E00E943E1984ED93E00E94FC
:10254000C0010E94F307892B09F464C006C062E34E
:1025500070E080E090E00E943E190E94F307892B12
:10256000B1F742C087E00E94131AAA2797FDA095F1
:10257000BA2FBC01CD010E94CC2020E030EC4FE707
:1025800054E40E943120F80120813181428153813D
:102590000E94CF210E9407210E949920F701718398
:1025A000608384ED93E060E040E00E94AD0184ED43
:1025B00093E0B6010E94231F84ED93E060E041E0C8
:1025C0000E94AD01F7016081718184ED93E00E946A
:1025D0001B1F62E370E080E090E00E943E1984EDF2
:1025E00093E00E94C00106C0000F111F000F111FD1
:1025F0000B571D4F0E941508892B09F4B3CF06C055
:1026000062E370E080E090E00E943E190E941508AD
:10261000892BB1F70E941508892B09F441CF06C018
:1026200062E370E080E090E00E943E190E9415088D
:10263000892BB1F78881998190934202809341025E
:102640008A819B8190934402809343028C819D8177
:1026500090934602809345028E819F819093480219
:1026600080934702888599859093E9038093E803D6
:102670008A859B859093500280934F028C859D851F
:1026800090934A02809349028E859F8590934C02D5
:1026900080934B028889998990934E0280934D02D2
:1026A0008A899B8990935202809351028C899D89DB
:1026B00090935402809353028E899F89909356027F
:1026C00080935502888D998D90935802809357027C
:1026D0008A8D9B8D90935A02809359028C8D9D8D8B
:1026E00090935C0280935B028E8D9F8D90935E022F
:1026F00080935D0288A199A19093600280935F020C
:10270000DF91CF911F910F91FF90EF90DF90CF90CD
:1027100008956F927F928F929F92AF92BF92CF92C5
:10272000DF92EF92FF920F931F93CF93DF938091ED
:10273000610290916202019709F06DC08EE194E010
:102740000E94C41080911E0490911F049093050470
:1027500080930404809120049091210490930704B5
:10276000809306048091220490912304909309049D
:1027700080930804809124049091250490930B0485
:1027800080930A040E94570483E692E00E94461256
:1027900042C00E94360C9093F1038093F0030E9494
:1027A000FB0B9093F3038093F20384ED93E00E947C
:1027B000BC0184ED93E060E040E00E94AD0184ED57
:1027C00093E06AEF71E00E94571E6091F0037091F0
:1027D000F10384ED93E00E941B1F84ED93E068E019
:1027E00040E00E94AD0184ED93E06EEF71E00E9445
:1027F000571E6091F2037091F30384ED93E00E9401
:102800001B1F62E370E080E090E00E943E1984EDBF
:1028100093E00E94C0010E942008892B09F4B9CFDF
:1028200006C062E370E080E090E00E943E190E94E2
:102830001508892BB1F752C081E00E94131A9093BA
:102840000D0480930C0482E00E94131A90930F04ED
:1028500080930E0484ED93E00E94C00184ED93E028
:102860000E94BC0184ED93E06AEF71E00E94571E64
:1028700060910C0470910D0484ED93E00E941B1F85
:1028800084ED93E068E040E00E94AD0184ED93E0C8
:102890006EEF71E00E94571E60910E0470910F045C
:1028A00084ED93E00E941B1F84ED93E060E041E023
:1028B0000E94AD0184ED93E062E072E00E94571E39
:1028C000609145027091460284ED93E00E941B1FC7
:1028D00062E370E080E090E00E943E190E942008D0
:1028E000892B09F4A9CF80914F02909150020E9448
:1028F000A409C4E6D0E0ADC380910404909105041E
:102900000197E1F4609143027091440240914502C5
:10291000509146022091EA033091EB0380914702E7
:1029200090914802280F391F0091E8031091E903A4
:1029300080914102909142020E94CA068FB7F8949A
:10294000969A8FBF8091060490910704019709F031
:102950002FC286E00E949419813009F029C280912B
:10296000FE039091FF038330910529F54091EA031E
:102970005091EB03509541955F4F809147029091A4
:102980004802481B590B485C50408AED93E060E0D8
:1029900070E00E948A004091EA035091EB03509549
:1029A00041955F4F8091470290914802481B590B17
:1029B000485C504036C08230910511F0892BE9F413
:1029C0004091EA035091EB034456504080914702F6
:1029D00090914802481B590B8AED93E060E070E04B
:1029E0000E948A004091EA035091EB034456504004
:1029F000809147029091480212C0809147029091C5
:102A00004802AE01481B590B8AED93E060E070E08C
:102A10000E948A008091470290914802AE01481BB3
:102A2000590B8AED93E061E070E00E948A000E94F9
:102A3000031960930004709301048093020490933F
:102A400003040E947E058091FE039091FF0303978B
:102A5000B1F40E94031920910004309101044091C7
:102A6000020450910304621B730B840B950B60529C
:102A700073408040904068F315C00E947E050E941C
:102A800003192091000430910104409102045091F7
:102A90000304621B730B840B950B685572408040D6
:102AA000904058F38AED93E060E070E00E947F0070
:102AB0008AED93E061E070E00E947F00A091FE0348
:102AC000B091FF032091570230915802C90101973C
:102AD000A817B90749F480914F02909150020E94C3
:102AE000DA090E945A08DDC0A230B10509F0B2C06F
:102AF0002430310509F0AEC000D000D000D0ADB711
:102B0000BEB7119680914F029091500260914102A0
:102B1000709142024091430250914402209145023B
:102B2000309146020091EA031091EB03E0914702D5
:102B3000F09148020E0F1F1FE090E803F090E903A8
:102B4000C0904D02D0904E02A0904902B0904A022F
:102B500080904B0290904C0260905D0270905E02FB
:102B6000EDB7FEB77282618260905F027090600282
:102B7000FD017382628260905102709052027582F0
:102B800064820E94F20FADB7BEB7119680914F02DA
:102B90009091500260914102709142024091430233
:102BA0005091440220914502309146020091EA037F
:102BB0001091EB03E0914702F09148020E0F1F1FA6
:102BC000E090E803F090E903C0904D02D0904E02EF
:102BD000A0904902B0904A0280904B0290904C0223
:102BE00060905D0270905E02EDB7FEB77282618206
:102BF00060905F0270906002FD017382628260905B
:102C0000510270905202758264820E942A0F8C01D8
:102C10008DB79EB706960FB6F8949EBF0FBE8DBFB8
:102C200001301105F1F584ED93E00E94C00184EDBF
:102C300093E00E94BC0184ED93E06BE072E00E949F
:102C4000571E10920504109204041093EF03009392
:102C5000EE0327C0209145023091460280914F0239
:102C60009091500260914102709142024091430262
:102C7000509144020091EA031091EB03E091470266
:102C8000F0914802E090E803F090E903AB2B29F4BF
:102C90000E0F1F1F0E94130A04C00E0F1F1F0E9459
:102CA0005A098091FE039091FF0301969093FF03D0
:102CB0008093FE03019709F055C084ED93E00E94D4
:102CC000C00184ED93E00E94BC0184ED93E068E1D3
:102CD00072E00E94571E0E9403197B018C018AED4D
:102CE00093E060E070E048EE53E00E948A008AEDD5
:102CF00093E061E070E048E15CEF0E948A000E948E
:102D000003196E197F09800B910B6C5D7540804033
:102D10009040A8F384ED93E00E94C00185E090E02C
:102D20000E94CA046091430270914402409145029E
:102D3000509146022091EA033091EB0380914702C3
:102D400090914802280F391F0091E8031091E90380
:102D500080914102909142020E94CA06D093EB03F7
:102D6000C093EA038091FE039091FF03029751F410
:102D70000E9403196093F4037093F5038093F603A4
:102D80009093F7038091FE039091FF03039781F4E2
:102D90008091570290915802049751F40E940319B0
:102DA000609318047093190480931A0490931B0481
:102DB0008091FE039091FF030297F1F48091EA0362
:102DC0009091EB0318161906BCF40E940319209188
:102DD000F4033091F5034091F6035091F703621B21
:102DE000730B840B950B605D77408040904020F022
:102DF0001092EB031092EA038091FE039091FF037F
:102E0000039709F03FC080915702909158020497B0
:102E1000C9F580911C0490911D04892B99F50E949D
:102E20000319209118043091190440911A0450910B
:102E30001B04621B730B840B950B6D5D754080400A
:102E4000904000F184ED93E00E94C00184ED93E096
:102E50000E94BC0184ED93E06BE072E00E94571E7B
:102E6000109205041092040481E090E090931D04F8
:102E700080931C04109218041092190410921A04E2
:102E800010921B0480910804909109040197B1F5F8
:102E90000E94360C20915102309152028217930702
:102EA0004CF40E94FB0B2091510230915202821788
:102EB000930724F18091FE039091FF030397F4F0B0
:102EC0008091EE039091EF03892BC1F410920504D9
:102ED0001092040484ED93E00E94C00184ED93E01D
:102EE0000E94BC0184ED93E06BE072E00E94571EEB
:102EF00081E090E09093EF038093EE0380910804CB
:102F000090910904019711F58091EE039091EF03E0
:102F1000019731F080911C0490911D040197B1F448
:102F20006091490270914A0240914B0250914C02CB
:102F300020915D0230915E0200915F02109160026B
:102F400080914D0290914E020E94DE0C00910A0485
:102F500010910B040130110599F52091FE03309179
:102F6000FF0380915702909158022817390741F5C5
:102F70001092070410920604809155029091560217
:102F8000243031053CF460914502709146020E9464
:102F9000C0070AC06091590270915A020E94710CD8
:102FA0001093ED030093EC038091590290915A0223
:102FB000909352028093510210920B0410920A04D3
:102FC0008091EC039091ED03019709F042C00E94BB
:102FD000360C20915B0230915C02281739074CF0C7
:102FE0000E94FB0B20915B0230915C02281739078D
:102FF00084F5109209041092080481E090E0909307
:1030000005048093040480E090E00E94CA040E94BA
:10301000FB0560914302709144024091450250913A
:1030200046022091EA033091EB0380914702909190
:103030004802280F391F0091E8031091E90380919D
:103040004102909142020E94CA061092ED03109232
:10305000EC030E94FE07892B09F44ECC12C08AEDC6
:1030600093E060E070E00E947F008AED93E061E011
:1030700070E00E947F0062E370E080E090E00E94D8
:103080003E190E94F307892B51F784ED93E00E94CB
:10309000BC0184ED93E060E040E00E94AD0184ED6E
:1030A00093E06EE172E00E94571E84ED93E060E0D1
:1030B00041E00E94AD0184ED93E06DE272E00E9478
:1030C000571E6AE070E080E090E00E943E1984EDB7
:1030D00093E00E94C0010E941508892B29F01092EC
:1030E0006202109261020AC00E94F307892B69F202
:1030F00081E090E090936202809361020E94150843
:10310000892B21F40E94F307892B39F062E370E0E8
:1031100080E090E00E943E19F1CF0E94820B0E9455
:10312000B20480E090E00E94CA040E94B704DF91DC
:10313000CF911F910F91FF90EF90DF90CF90BF90B4
:10314000AF909F908F907F906F90089580E060E0A7
:103150000E94DD1981E060E00E94DD1980E060E0FE
:103160000E94641983E060E00E94641986E060E0D8
:103170000E94641908951F920F920FB60F921124A6
:103180002F933F938F939F93AF93BF938091E004CE
:103190009091E104A091E204B091E3043091E40441
:1031A0000196A11DB11D232F2D5F2D3720F02D5726
:1031B0000196A11DB11D2093E4048093E004909337
:1031C000E104A093E204B093E3048091DC049091C5
:1031D000DD04A091DE04B091DF040196A11DB11DB4
:1031E0008093DC049093DD04A093DE04B093DF04AD
:1031F000BF91AF919F918F913F912F910F900FBEF3
:103200000F901F9018958FB7F8942091E00430919B
:10321000E1044091E2045091E3048FBFB901CA0177
:1032200008956FB7F8942091DC043091DD0440914B
:10323000DE045091DF0482B790E0A0E0B0E006B673
:1032400000FE09C08F3F9105A105B10521F02F5F58
:103250003F4F4F4F5F4F6FBF542F432F322F2227C7
:10326000280F391F4A1F5B1F82E0220F331F441FA4
:10327000551F8A95D1F7B901CA010895EF92FF92BF
:103280000F931F93CF93DF937B018C010E94111941
:10329000EB010EC00E9411196C1B7D0B685E734020
:1032A000C8F30894E108F10801091109C851DC4F7D
:1032B000E114F1040105110569F7DF91CF911F9128
:1032C0000F91FF90EF900895E82FE695E695E6952B
:1032D000A82FB0E0613099F42FB7F894F0E0EE0F2A
:1032E000FF1FED51FD4F0190F081E02D9081A770FF
:1032F000B070AB5DBC4F8C91982B908313C02FB7EF
:10330000F894F0E0EE0FFF1FED51FD4F0190F081BA
:10331000E02D9081A770B070AB5DBC4F8C91809513
:10332000892380832FBF0895A82FE82FE695E6957F
:10333000E695F0E0EE0FFF1FEF50FD4F0190F0819A
:10334000E02DE081B0E0A770B070AB5DBC4F8C9118
:10335000E82309F0E1E08E2F0895E82FE695E69541
:10336000E695A82FB0E0613099F42FB7F894F0E01B
:10337000EE0FFF1FEB52FD4F0190F081E02D908189
:10338000A770B070AB5DBC4F8C91982B908313C02D
:103390002FB7F894F0E0EE0FFF1FEB52FD4F0190B6
:1033A000F081E02D9081A770B070AB5DBC4F8C9127
:1033B0008095892380832FBF0895E82FF0E0613046
:1033C00051F4EE0FFF1FED51FD4F0190F081E02D04
:1033D0008FEF80830895EE0FFF1FED51FD4F019099
:1033E000F081E02D10820895E82FF0E0EE0FFF1F2E
:1033F000EF50FD4F0190F081E02D80810895E82F7E
:10340000F0E0EE0FFF1FEB52FD4F0190F081E02D39
:1034100060830895109261001092620080E487B981
:1034200087EE86B908951F93182F8091FF0281308F
:1034300021F40E940A1A1092FF02809100031817CB
:1034400021F4349A349BFECF0DC01093000387B152
:103450001770807E812B87B9349A349BFECF349AC3
:10346000349BFECF24B135B1C9011F91089593B7A4
:10347000987F982B93BF08959EB5987F982B9EBDFB
:10348000089583E00E943C1A1DBC1CBC87B7846071
:1034900087BF0895EAE8F0E09081987F982B9083A9
:1034A000089583E00E944A1A1092890010928800C1
:1034B000EDE7F0E08081846080830895893031F405
:1034C0008FB582608FBD8FB58E7F0AC08A3019F4A8
:1034D0008FB5826002C08FB58D7F8FBD8FB5816043
:1034E0008FBD1BBC1ABC19BC18BC1092790010927D
:1034F000780008958FB580688FBD8FB58F7B8FBDA5
:1035000008958FB580628FBD8FB58F7E8FBD089572
:103510008FB588608FBD8FB58B7F8FBD08959BBDA4
:103520008ABD089599BD88BD0895909379008093D0
:1035300078000895893049F480918B0082608093EF
:103540008B0080918B008E7F0EC08A3021F4809199
:103550008B00826003C080918B008D7F80938B00F5
:1035600080918B00816080938B0010928700109275
:1035700086001092850010928400109283001092B1
:1035800082000895EBE8F0E080818068808380818C
:103590008F7B80830895EBE8F0E0808180628083F8
:1035A00080818F7E80830895EBE8F0E080818860E1
:1035B000808380818B7F80830895853019F40E94F9
:1035C0007A1A0895843019F40E94811A089583307C
:1035D00019F40E94881A0895823019F40E94C21AC0
:1035E0000895813019F40E94CB1A0895882311F4AC
:1035F0000E94D41A089590938700809386000895BE
:103600009093850080938400089590938300809325
:1036100082000895EF92FF921F93CF93DF93182FAC
:103620007B018D31B0F08F3111F413E014C08E3175
:1036300011F414E010C08D3109F49BC0853211F4EF
:1036400010E03DC0843211F411E039C0833219F426
:103650008EC08330A0F18091E50486FD0BC00E94EE
:10366000411A78948AE00E945E1A8091E504806491
:103670008093E5048091E504C12FD0E090E0012E15
:1036800002C0959587950A94E2F780FD4CC087B3F8
:10369000FE01E35DFC4F9081892B87BB812F0E9447
:1036A000DD1A2091E50481E090E0012E02C0880F30
:1036B000991F0A94E2F7282B2093E50434C08091E7
:1036C000E50487FD0BC00E94511A78948AE00E949D
:1036D0009A1A8091E50480688093E5048091E5045E
:1036E000C12FD0E090E0012E02C0959587950A94F5
:1036F000E2F780FD24C082B1FE01E35DFC4F9081C2
:10370000892B82B9812F0E94DD1A2091E50481E086
:1037100090E0012E02C0880F991F0A94E2F7282B2F
:103720002093E5040CC0153021F4C7010E948F1AC4
:1037300022C0143021F4C7010E94921A1CC0133019
:1037400021F4C7010E94951A16C0123021F4C70156
:103750000E94FB1A10C0113021F4C7010E94001B07
:103760000AC0112341F4C7010E94051B04C012E0E6
:10377000A6CF15E070CFDF91CF911F91FF90EF9012
:1037800008951F920F920FB60F920BB60F9211244D
:103790002F933F934F935F936F937F938F939F9359
:1037A000AF93BF93EF93FF938091EC049091ED045E
:1037B000892B29F0E091EC04F091ED040995FF913B
:1037C000EF91BF91AF919F918F917F916F915F9199
:1037D0004F913F912F910F900BBE0F900FBE0F9006
:1037E0001F9018951F920F920FB60F920BB60F9263
:1037F00011242F933F934F935F936F937F938F93F6
:103800009F93AF93BF93EF93FF938091F6049091B2
:10381000F704892B29F0E091F604F091F70409955B
:10382000FF91EF91BF91AF919F918F917F916F9198
:103830005F914F913F912F910F900BBE0F900FBE54
:103840000F901F9018951F920F920FB60F920BB604
:103850000F9211242F933F934F935F936F937F9316
:103860008F939F93AF93BF93EF93FF938091FC044B
:103870009091FD04892B29F0E091FC04F091FD0466
:103880000995FF91EF91BF91AF919F918F917F919A
:103890006F915F914F913F912F910F900BBE0F90C1
:1038A0000FBE0F901F9018951F920F920FB60F9298
:1038B0000BB60F9211242F933F934F935F936F9307
:1038C0007F938F939F93AF93BF93EF93FF938091D9
:1038D000E8049091E904892B29F0E091E804F09143
:1038E000E9040995FF91EF91BF91AF919F918F915D
:1038F0007F916F915F914F913F912F910F900BBEF0
:103900000F900FBE0F901F9018951F920F920FB639
:103910000F920BB60F9211242F933F934F935F9307
:103920006F937F938F939F93AF93BF93EF93FF9387
:103930008091EE049091EF04892B29F0E091EE0440
:10394000F091EF040995FF91EF91BF91AF919F9195
:103950008F917F916F915F914F913F912F910F9038
:103960000BBE0F900FBE0F901F9018951F920F92D5
:103970000FB60F920BB60F9211242F933F934F93D4
:103980005F936F937F938F939F93AF93BF93EF93C7
:10399000FF938091F0049091F104892B29F0E0913C
:1039A000F004F091F1040995FF91EF91BF91AF916F
:1039B0009F918F917F916F915F914F913F912F9147
:1039C0000F900BBE0F900FBE0F901F9018951F9277
:1039D0000F920FB60F920BB60F9211242F933F93B5
:1039E0004F935F936F937F938F939F93AF93BF9307
:1039F000EF93FF938091F2049091F304892B29F0C7
:103A0000E091F204F091F3040995FF91EF91BF91D9
:103A1000AF919F918F917F916F915F914F913F9166
:103A20002F910F900BBE0F900FBE0F901F90189507
:103A30001F920F920FB60F920BB60F9211242F9375
:103A40003F934F935F936F937F938F939F93AF9326
:103A5000BF93EF93FF938091F4049091F504892B29
:103A600029F0E091F404F091F5040995FF91EF91AC
:103A7000BF91AF919F918F917F916F915F914F9186
:103A80003F912F910F900BBE0F900FBE0F901F9084
:103A900018951F920F920FB60F920BB60F9211242A
:103AA0002F933F934F935F936F937F938F939F9346
:103AB000AF93BF93EF93FF938091F8049091F90433
:103AC000892B29F0E091F804F091F9040995FF9110
:103AD000EF91BF91AF919F918F917F916F915F9186
:103AE0004F913F912F910F900BBE0F900FBE0F90F3
:103AF0001F9018951F920F920FB60F920BB60F9250
:103B000011242F933F934F935F936F937F938F93E2
:103B10009F93AF93BF93EF93FF938091FE04909197
:103B2000FF04892B29F0E091FE04F091FF04099530
:103B3000FF91EF91BF91AF919F918F917F916F9185
:103B40005F914F913F912F910F900BBE0F900FBE41
:103B50000F901F9018951F920F920FB60F920BB6F1
:103B60000F9211242F933F934F935F936F937F9303
:103B70008F939F93AF93BF93EF93FF938091000533
:103B800090910105892B29F0E0910005F091010544
:103B90000995FF91EF91BF91AF919F918F917F9187
:103BA0006F915F914F913F912F910F900BBE0F90AE
:103BB0000FBE0F901F9018951F920F920FB60F9285
:103BC0000BB60F9211242F933F934F935F936F93F4
:103BD0007F938F939F93AF93BF93EF93FF938091C6
:103BE000020590910305892B29F0E0910205F091DF
:103BF00003050995FF91EF91BF91AF919F918F912F
:103C00007F916F915F914F913F912F910F900BBEDC
:103C10000F900FBE0F901F9018951F920F920FB626
:103C20000F920BB60F9211242F933F934F935F93F4
:103C30006F937F938F939F93AF93BF93EF93FF9374
:103C40008091040590910505892B29F0E0910405E8
:103C5000F09105050995FF91EF91BF91AF919F916B
:103C60008F917F916F915F914F913F912F910F9025
:103C70000BBE0F900FBE0F901F90189583E061E070
:103C80000E94DD1984E061E00E94DD1978940E94B1
:103C9000A6180E948913FDCFDC01ED91FC910190E3
:103CA000F081E02D099508950E944C1E08950F9310
:103CB0001F93CF93DF938C01EB0104C02196C801C1
:103CC0000E94541E68816623C9F7DF91CF911F912E
:103CD0000F9108952F923F924F925F926F927F9231
:103CE0008F929F92AF92BF92CF92DF92EF92FF920C
:103CF0000F931F93DF93CF93CDB7DEB7A0970FB687
:103D0000F894DEBF0FBECDBF1C016A017B014115D7
:103D100051056105710521F460E30E94541E4FC0F6
:103D2000882499245401422E55246624772401E0E6
:103D300010E00C0F1D1F080D191DC701B601A301CE
:103D400092010E948E22F80160830894811C911CCC
:103D5000A11CB11CC701B601A30192010E948E22D1
:103D6000C901DA016C017D01C114D104E104F1043F
:103D7000F1F681E0E82EF12CEC0EFD1EE80CF91CAA
:103D80003E010894611C711CD501C4010197A10971
:103D9000B1096C01C818D9080FC0F601EE0DFF1D5E
:103DA00060816A3010F4605D01C0695CC1010E94ED
:103DB000541E0894E108F1086E147F0471F7A09670
:103DC0000FB6F894DEBF0FBECDBFCF91DF911F912C
:103DD0000F91FF90EF90DF90CF90BF90AF909F90AA
:103DE0008F907F906F905F904F903F902F900895AD
:103DF000EF92FF920F931F93CF93DF93EC017A0121
:103E00008B0177FF0BC06DE20E94541E1095009548
:103E1000F094E094E11CF11C011D111DCE01B801CC
:103E2000A7012AE00E946A1EDF91CF911F910F9196
:103E3000FF90EF900895AB01662757FD6095762FB0
:103E40000E94F81E0895CF92DF92EF92FF920F9397
:103E50001F93CF93DF936C017B01C0E0D0E00EC0D5
:103E6000D601ED91FC9100811181C701BE010E9434
:103E7000851F682FC601F80109952196F7018681F3
:103E80009781C817D90760F3DF91CF911F910F91E8
:103E9000FF90EF90DF90CF900895009711F00E946F
:103EA00076230895CF93DF93EC0187E393E0998322
:103EB00088838A819B81009711F00E944D1F1D828B
:103EC0001C821F821E82DF91CF910895009711F00E
:103ED0000E9476230895CF93DF93EC0187E393E06C
:103EE000998388838A819B81009711F00E944D1FDE
:103EF0001D821C821F821E82CE010E94661FDF91DE
:103F0000CF9108950E94CA220895CF93DF93EC01C8
:103F1000EA81FB81E60FF71F8081DF91CF91089541
:103F2000CF93DF93EC01CB017D836C8301960E94DC
:103F3000821F9B838A83009721F41D821C821F822B
:103F40001E82DF91CF9108950F931F93CF93DF933C
:103F5000EC018B0187E393E09983888361157105F8
:103F600011F40AE312E0C8010E94D323BC019F832D
:103F70008E83CE010E94901F8A819B81009719F049
:103F8000B8010E94CC23DF91CF911F910F9108952A
:103F90005058BB27AA270ED0B1C1A2D130F0A7D16B
:103FA00020F031F49F3F11F41EF497C10EF4E09518
:103FB000E7FB64C1E92FB3D180F3BA176207730737
:103FC0008407950718F071F49EF5E2C10EF4E095B0
:103FD0000B2EBA2FA02D0B01B90190010C01CA01C3
:103FE000A0011124FF27591B99F0593F50F4503E6E
:103FF00068F11A16F040A22F232F342F4427585F60
:10400000F3CF469537952795A795F0405395C9F777
:104010007EF41F16BA0B620B730B840BBAF091502F
:10402000A1F0FF0FBB1F661F771F881FC2F70EC0CE
:10403000BA0F621F731F841F48F4879577956795A1
:10404000B795F7959E3F08F0B3CF9395880F08F08A
:104050009927EE0F979587950895ECD008F481E0A5
:1040600008950CD04BC143D140F03AD130F021F447
:104070005F3F19F003C151118CC12FC150D198F38A
:104080009923C9F35523B1F3951B550BBB27AA27D9
:1040900062177307840738F09F5F5F4F220F331F4B
:1040A000441FAA1FA9F333D00E2E3AF0E0E830D017
:1040B00091505040E695001CCAF729D0FE2F27D01A
:1040C000660F771F881FBB1F261737074807AB07E8
:1040D000B0E809F0BB0B802DBF01FF2793585F4F5D
:1040E0002AF09E3F510568F0C9C053C15F3FECF311
:1040F000983EDCF3869577956795B795F7959F5F22
:10410000C9F7880F911D9695879597F90895E1E075
:10411000660F771F881FBB1F621773078407BA07D4
:1041200020F0621B730B840BBA0BEE1F88F7E0952F
:10413000089504D06894B1112CC10895F8D088F086
:104140009F5790F0B92F9927B751A0F0D1F0660F83
:10415000771F881F991F1AF0BA95C9F712C0B1309E
:1041600081F016D1B1E0089513C1672F782F882709
:10417000B85F39F0B93FCCF3869577956795B395DD
:10418000D9F73EF490958095709561957F4F8F4F4C
:104190009F4F0895E89409C097FB3EF49095809551
:1041A000709561957F4F8F4F9F4F9923A9F0F92FFD
:1041B00096E9BB279395F695879577956795B7957B
:1041C000F111F8CFFAF4BB0F11F460FF1BC06F5F61
:1041D0007F4F8F4F9F4F16C0882311F096E911C073
:1041E000772321F09EE8872F762F05C0662371F094
:1041F00096E8862F70E060E02AF09A95660F771FA8
:10420000881FDAF7880F9695879597F90895A9D0B2
:1042100080F09F3740F491110EF0BBC060E070E079
:1042200080E89FEB089526F41B16611D711D811D0A
:104230002BC045C0990F0008550FAA0BE0E8FEEF10
:1042400016161706E807F907C0F012161306E4075A
:10425000F50798F0621B730B840B950B39F40A2653
:1042600061F0232B242B252B21F408950A2609F431
:10427000A140A6958FEF811D811D089597F99F6735
:1042800080E870E060E00895882371F4772321F0DE
:104290009850872B762F07C0662311F499270DC0FD
:1042A0009051862B70E060E02AF09A95660F771F98
:1042B000881FDAF7880F9695879597F908959F3F9D
:1042C00031F0915020F4879577956795B795880FD1
:1042D000911D9695879597F908959FEF80EC089525
:1042E00000240A94161617061806090608950024D5
:1042F0000A9412161306140605060895092E03944F
:10430000000C11F4882352F0BB0F40F4BF2B11F4C2
:1043100060FF04C06F5F7F4F8F4F9F4F089557FD21
:104320009058440F551F59F05F3F71F04795880F23
:1043300097FB991F61F09F3F79F0879508951216BA
:1043400013061406551FF2CF4695F1DF08C0161666
:1043500017061806991FF1CF869571056105089417
:104360000895E5DFA0F0BEE7B91788F4BB279F38B2
:1043700060F41616B11D672F782F8827985FF7CF46
:10438000869577956795B11D93959639C8F30895ED
:10439000E894BB2766277727CB0197F908950BD0C0
:1043A000ADCF9EDF28F0A3DF18F0952309F066CF8C
:1043B00094CF1124EECFB3DFA0F3959FD1F3950FE7
:1043C00050E0551F629FF001729FBB27F00DB11D99
:1043D000639FAA27F00DB11DAA1F649F6627B00D29
:1043E000A11D661F829F2227B00DA11D621F739F12
:1043F000B00DA11D621F839FA00D611D221F749F20
:104400003327A00D611D231F849F600D211D822F66
:10441000762F6A2F11249F5750408AF0E1F08823AD
:104420004AF0EE0FFF1FBB1F661F771F881F9150BA
:104430005040A9F79E3F510570F020CFAACF5F3FB3
:10444000ECF3983EDCF3869577956795B795F795ED
:10445000E7959F5FC1F7FE2B880F911D9695879575
:1044600097F9089511F40EF438CF29CF60DFD0F317
:104470009923D9F3CEF39F57550B87FF35D00024EE
:10448000A0E640EA900180585695979528F4805C04
:10449000660F771F881F20F026173707480730F46C
:1044A000621B730B840B202931294A2BA695179484
:1044B0000794202531254A2758F7660F771F881F54
:1044C00020F026173707480730F4620B730B840B74
:1044D000200D311D411DA09581F7B901842F915800
:1044E000880F96958795089591505040660F771FD5
:1044F000881FD2F7089597FB092E07260AD077FD6B
:1045000004D02ED006D000201AF4709561957F4F0C
:104510000895F6F7909581959F4F0895A1E21A2E80
:10452000AA1BBB1BFD010DC0AA1FBB1FEE1FFF1F57
:10453000A217B307E407F50720F0A21BB30BE40BA7
:10454000F50B661F771F881F991F1A9469F76095EE
:104550007095809590959B01AC01BD01CF010895A8
:10456000AA1BBB1B51E107C0AA1FBB1FA617B70799
:1045700010F0A61BB70B881F991F5A95A9F78095B5
:104580009095BC01CD010895EE0FFF1F0590F491A9
:10459000E02D0994CF93DF93BC018230910510F494
:1045A00062E070E0A0910805B0910905ED01E0E03E
:1045B000F0E040E050E021C088819981861797079C
:1045C00069F48A819B81309719F09383828304C0B8
:1045D0009093090580930805FE0133C06817790799
:1045E00038F44115510519F08417950708F4AC010A
:1045F000FE018A819B819C01E9012097E9F6411522
:104600005105A1F1CA01861B970B049708F4BA0162
:10461000E0E0F0E029C08D919C91119784179507F7
:10462000F1F46417750779F4ED018A819B81309765
:1046300019F09383828304C0909309058093080541
:10464000FD0132964FC0CA01861B970BFD01E80F92
:10465000F91F6193719302978D939C9343C0FD0161
:10466000828193819C01D9011097A9F6809106055A
:1046700090910705892B41F480913D0290913E0273
:10468000909307058093060540913F0250914002A8
:104690004115510541F44DB75EB780913B029091B1
:1046A0003C02481B590B2091060530910705241741
:1046B0003507B0F4CA01821B930B8617970780F069
:1046C000AB014E5F5F4F8417950750F0420F531FA9
:1046D0005093070540930605F9016193719302C059
:1046E000E0E0F0E0CF01DF91CF910895CF93DF9329
:1046F000009709F44EC0EC0122971B821A82A09108
:104700000805B0910905109701F140E050E0AC17A1
:10471000BD0700F1BB83AA83FE0121913191E20F15
:10472000F31FAE17BF0771F48D919C911197280F5D
:10473000391F2E5F3F4F39832883FD01828193818A
:104740009B838A834115510569F4D0930905C09371
:1047500008051FC0FD0182819381AD01009711F012
:10476000DC01D5CFFA01D383C28321913191E20FCD
:10477000F31FCE17DF0769F488819981280F391F4D
:104780002E5F3F4FFA01318320838A819B8193837F
:104790008283DF91CF910895FB01DC0101900D929E
:1047A0000020E1F70895FC0101900020E9F78095D1
:1047B00090958E0F9F1F089510E0C0E9D0E004C0CF
:1047C000FE010E94C6222296C239D107C9F7F89489
:0247D000FFCF19
:1047D2006B70006B64007468726573680073706557
:1047E20065640064656C74610061726D5370656527
:1047F200640049526B700049526B64004952537015
:1048020065656400626567696E495200656E644958
:1048120052007475726E5370656564007475726EC1
:10482200436F756E74004C65617665006F66665203
:104832006F636B73006F66664952004952636F7211
:1048420072656374696F6E00524553455454494E04
:104852004700726F636B207475726E696E67006ECB
:10486200656720636F7200706F7320636F720070F0
:104872006F7320736D616C6C006E656720736D6180
:104882006C6C0063656E7465720057484154205425
:104892004F20544553543F005461706520466F6C5D
:1048A2006C6F77696E67002A002000417274696636
:1048B2006163742041726D0049522053656E736FBB
:1048C2007200474F20484F4D45004C3A2000523A63
:1048D20020007468726573683A2000495220464F7E
:1048E2004C4C4F57494E47007475726E3100535409
:1048F2004152543A20474F20534F46540053544F8D
:10490200503A20524554554E45000020000A0500F9
:104912000078003C007800E1003C003C0090012659
:10492200028200D00790010400C8001405640064EC
:1049320000010094003C0022010E01000026023C0E
:10494200003C004201FA00D007E80304006400E4DE
:10495200025000640000C07F4400C07F4400C07F5A
:1049620044000061440000A04000C07F4400C07FBA
:104972004400C07F4400C07F440000FA4400C07F6E
:104982004400C07F440000A04000C07F440000FA01
:104992004400C07F4400C07F4401000F00050001B5
:1049A20000D0070000320035003B003800230062CF
:1049B200006500310034003A0037002200610064D3
:1049C200003000330039003600210020006300016E
:1049D200FF1800190026002700050004000100004E
:1049E2000000000000660100000000CE03210283E7
:1049F2000368039D03010204081020408020100870
:0C4A020080402000000000521F6B1F00CD
:00000001FF
