:100000000C9448000C947C000C947C000C947C00B4
:100010000C947C000C947C000C947C000C947C0070
:100020000C947C000C9423130C94CC110C94F212BD
:100030000C945F120C9490120C949B110C942E1241
:100040000C94A30E0C947C000C9454030C94E303C6
:100050000C947C000C947C000C947C000C947C0030
:100060000C94C1120C94E7130C9454130C94851344
:100070000C94B6130C94FD110C9425030C949C0362
:100080000C947C000C947C000C947C000B056F0598
:1000900011241FBECFEFD0E1DEBFCDBF88E483BF08
:1000A00084E00E94111012BE87B7816087BF7894E8
:1000B00012E0A0E0B1E0ECE5FFE200E00BBF02C01F
:1000C00007900D92A639B107D9F713E0A6E9B2E07F
:1000D00001C01D92A43BB107E1F710E0C0E9D0E0F8
:1000E00004C02297FE010E94A817CC38D107C9F797
:1000F0000E9418140C94AC170C940000FB01EE0F36
:10010000FF1FE459FD4F808160E070E00E94E41021
:1001100008950F931F93CF93DF93EB018A01CC0FC8
:10012000DD1F57FD0CC0FE01EC59FD4F808161E0E1
:100130000E94870FC459DD4F8881B8010EC0FE01AF
:10014000EC59FD4F808160E00E94870FC459DD4F5C
:1001500066277727601B710B88810E94E410DF916E
:10016000CF911F910F9108951F93CF93DF93C0E01C
:10017000D0E0FE01EC59FD4F1081812F61E00E941B
:100180003E0F812F61E00E94870FFE01E459FD4F71
:10019000808160E070E00E94E4102296C830D105B2
:1001A00041F7DF91CF911F910895FC0110828AE001
:1001B00090E0938382830895CF93DF93EC018A814B
:1001C00060E00E94870F8D8160E00E94B70F8D81F3
:1001D00060E00E94D90F8B8161E00E94870F8C81C3
:1001E00061E00E94870F0000000010C08C8160E079
:1001F0000E94870F00000000000000008C8161E079
:100200000E94870F00000000000000008D810E9406
:10021000CE0F87FDEBCF8C8160E00E94870FDF91CE
:10022000CF910895FF920F931F938C01F62E0E9499
:10023000DC00F801828161E00E94870FF801838170
:1002400060E00E94870FF801848161E00E94870FBF
:10025000F801858161E00E94B70FF80185816F2D5B
:100260000E94D90F0000000000000000F801848106
:1002700060E00E94870FF801858160E00E94B70F5F
:10028000F80185816FEF0E94D90F1F910F91FF90A8
:100290000895EF92FF920F931F93CF93DF937C010A
:1002A000042F6115710551F0EB0110E005C0C70185
:1002B00069910E9412011F5F1017C8F3DF91CF915F
:1002C0001F910F91FF90EF900895DF93CF930F92BE
:1002D000CDB7DEB76983BE016F5F7F4F41E00E94FB
:1002E00049010F90CF91DF910895FF920F931F93D3
:1002F0008C01F62E0E94DC00F801828160E00E94F1
:10030000870FF801838160E00E94870FF8018481E4
:1003100061E00E94870FF801858161E00E94B70FBC
:10032000F80185816F2D0E94D90F000000000000A8
:100330000000F801848160E00E94870FF801858148
:1003400060E00E94B70FF80185816FEF0E94D90F1E
:100350001F910F91FF900895423031F0433031F0FA
:10036000413029F4605C03C06C5E01C06C5A606867
:100370000E947501089562E00E947501089561E090
:100380000E94750108950F931F938C01FC018281D7
:1003900060E00E94870FF801838160E00E94870F70
:1003A000F801848160E00E94870FF801828161E09A
:1003B0000E943E0FF801838161E00E943E0FF80128
:1003C000848161E00E943E0FF801858160E00E9417
:1003D000B70FF80185816FEF0E94D90F1F910F9120
:1003E00008950F931F938C010E94C301C80168E315
:1003F0000E947501C80161E00E947501C80166E0B4
:100400000E947501C8016CE00E947501C80162E09C
:100410000E947501C80160E80E9475011F910F914B
:1004200008950F93FC0188E792E0918380836283B3
:10043000438324830583CF010E94F1010F91089526
:100440005F926F927F928F929F92AF92BF92CF9264
:10045000DF92EF92FF920F931F93CF93DF93EC0104
:100460003A014B01413482E458078FE0680780E08D
:1004700078070CF07FC060E874E88EE190E0A4019A
:1004800093010E9477172150304040405040CA01EC
:10049000B90122E030E040E050E00E9477175901B6
:1004A0006A01A6019501209530954095509594E0FC
:1004B000220F331F441F551F9A95D1F760E074E255
:1004C00084EF90E00E947717CA01B9012FEF30E066
:1004D00040E050E00E942317A40193010E94771787
:1004E000C90181509F4F181619061CF4522E5A94B8
:1004F00003C055245394521A60E079E08DE390E0F4
:10050000A40193010E947717215030404040504091
:10051000CA01B90122E030E040E050E00E947717C4
:10052000209530954095509583E0220F331F441F4E
:10053000551F8A95D1F760E074E284EF90E00E9445
:100540007717CA01B9012FEF30E040E050E00E9478
:100550002317A40193010E947717C90181509F4F6F
:10056000181619061CF4822F815002C081E0821BEC
:100570008515E8F4CA5BDF4FE881F981C654D040A5
:1005800082E0808360E079E08DE390E0A401930154
:100590000E9477172150304040405040CA01B901B5
:1005A00022E030E040E050E00E94771708C0CA5BCC
:1005B000DF4FE881F981C654D04010829501CE5BAF
:1005C000DF4FE991F9913083E881F9812083249606
:1005D000E881F98188E98083DF91CF911F910F91A4
:1005E000FF90EF90DF90CF90BF90AF909F908F9053
:1005F0007F906F905F900895FC0124813581C9013F
:100600000895DC01FC0182819381809714F080E0E1
:100610000895FD0182819381019693838283848171
:100620009581E80FF91F60870196FD01958384830A
:100630002D913C9111978217930714F481E008954E
:10064000FD011582148281E008951F920F920FB66A
:100650000F920BB60F9211242F933F934F935F93FA
:100660006F937F938F939F93AF93BF93EF93FF937A
:10067000E0912C03F0912D03608184EE92E00E94C2
:100680000103FF91EF91BF91AF919F918F917F9166
:100690006F915F914F913F912F910F900BBE0F90F3
:1006A0000FBE0F901F9018951F920F920FB60F92CA
:1006B0000BB60F9211242F933F934F935F936F9339
:1006C0007F938F939F93AF93BF93EF93FF93E091AB
:1006D000E002F091E102608188E992E00E9401036A
:1006E000FF91EF91BF91AF919F918F917F916F910A
:1006F0005F914F913F912F910F900BBE0F900FBEC6
:100700000F901F901895DC01FC0182819381019765
:100710009383828386819781E80FF91F4085019634
:10072000FD01978386832D913C918217930714F0E6
:1007300017821682842F08951F920F920FB60F9280
:100740000BB60F9211240F931F932F933F934F9348
:100750005F936F937F938F939F93AF93BF93EF9329
:10076000FF9380910E0390910F031816190654F40D
:1007700000912C0310912D038CE093E00E948303E1
:10078000F801808380910E0390910F03892B31F43F
:10079000E0912A03F0912B0388E98083FF91EF9188
:1007A000BF91AF919F918F917F916F915F914F9189
:1007B0003F912F911F910F910F900BBE0F900FBE85
:1007C0000F901F9018951F920F920FB60F920BB6B5
:1007D0000F9211240F931F932F933F934F935F9387
:1007E0006F937F938F939F93AF93BF93EF93FF93F9
:1007F0008091C2029091C3021816190654F4009118
:10080000E0021091E10280EC92E00E948303F80183
:1008100080838091C2029091C302892B31F4E091D0
:10082000DE02F091DF0288E98083FF91EF91BF91B2
:10083000AF919F918F917F916F915F914F913F9178
:100840002F911F910F910F900BBE0F900FBE0F9025
:100850001F901895DC01FC0182819381019793839D
:10086000828386819781E80FF91F40850196FD01FB
:10087000978386832D913C918217930714F01782FA
:100880001682842F0895FC0184819581892B19F4A7
:100890002FEF3FEF06C0CF0102960E942A04282FB7
:1008A00030E0C9010895CF93DF93EC01EE81FF8121
:1008B000E80FF91F8085DF91CF910895FC018481B5
:1008C0009581892B19F42FEF3FEF06C0CF010296D7
:1008D0000E945304282F30E0C9010895FC011382BF
:1008E000128282819381978386839583848308957E
:1008F00002960E946E040895FC0180E290E09183CC
:100900008083CF010E946E040895DC01FC01828186
:100910009381409714F080E00895FD0182819381D6
:1009200001969383828384819581E80FF91F608704
:100930000196FD01958384832D913C911197821737
:10094000930714F481E00895FD011582148281E07B
:100950000895CF93DF93EC018CA59DA54097E4F714
:10096000F894CE018A960E948504C85BDF4FE88127
:10097000F9818081806280837894DF91CF9108959E
:10098000FC011382128282819381978386839583EF
:1009900084830895FC0180E190E091838083CF01FE
:1009A0000E94C00408956F927F928F929F92AF929F
:1009B000BF92CF92DF92EF92FF920F931F936C0141
:1009C0005B014A013901FC018EE792E0819391932A
:1009D000CF010E947C04C6018A960E94CA0482E468
:1009E00090E0C80ED91EF601A192B1928192919227
:1009F0006192719201931193F182E0821F910F91A4
:100A0000FF90EF90DF90CF90BF90AF909F908F902E
:100A10007F906F900895EF92FF920F931F9386E956
:100A200092E060E970E049E250E02BE230E00AE257
:100A300010E0FCE2EF2EF12C0E94D30482EE92E053
:100A400068E970E049E950E02BE930E00AE910E09C
:100A5000ECE9EE2EF12C0E94D3041F910F91FF9030
:100A6000EF90089524E630E030931F0220931E0299
:100A70008CE390E090932102809320023093230234
:100A80002093220281EE90E090932502809324022D
:100A900010924303109242033093270220932602C0
:100AA00082E390E0909329028093280288EC90E002
:100AB00090932B0280932A0286E292E090932D027B
:100AC00080932C0280E293E090932F0280932E0279
:100AD00081E090E0909331028093300208950F936B
:100AE0008EE293E06AE14BE12CE102E00E94110208
:100AF00084E393E00E94B40086E393E00E94D50073
:100B00008AE393E00E94D5008EE393E00E94D50033
:100B10000F9108950F931F9383E00E94ED0F8C01B6
:100B200084E00E94ED0F9C01200F311FC9011F912D
:100B30000F9108954F925F926F927F928F929F9242
:100B4000AF92BF92CF92DF92EF92FF920F931F93DB
:100B5000CF93DF934C013B01EA0169015801270162
:100B600081E00E94ED0F7C0182E00E94ED0F8C017C
:100B70008EE293E00E94BF018EE293E00E94BB01EF
:100B80008EE293E060E071E00E9431148EE293E027
:100B9000B7010E94F5148EE293E068E040E00E9405
:100BA000AC018EE293E064E071E00E9431148EE2C9
:100BB00093E0B8010E94F514C017D10744F4CE1594
:100BC000DF058CF410927B0310927A030CC00C1793
:100BD0001D074CF4CE15DF0534F481E090E09093CE
:100BE0007B0380937A03EC16FD064CF4C017D10703
:100BF00034F48FEF9FEF90937B0380937A030C176D
:100C00001D070CF5EC16FD06F4F420917C033091E1
:100C10007D0337FF0BC0809136029091370290958B
:100C200081959F4F90937B0380937A03121613064E
:100C300054F480913602909137028A0D9B1D909357
:100C40007B0380937A0380917C0390917D03409194
:100C50007A0350917B0384179507B1F090937F033B
:100C600080937E0350937D0340937C0380918603A1
:100C700090918703909389038093880381E090E0AB
:100C80009093870380938603849E9001859E300D08
:100C9000949E300D11243093810320938003809122
:100CA0007E0390917F03481B590B609186037091DE
:100CB00087038091880390918903680F791F649E50
:100CC000C001659E900D749E900D11240E944217E4
:100CD000CB017093830360938203820F931F9093E1
:100CE000850380938403452819F40FEF1FEF02C09A
:100CF00001E010E08C0D9D1D089FA001099F500D83
:100D0000189F500D112484E393E060E070E00E948E
:100D100089008091840390918503C81AD90A0C9D9B
:100D2000A0010D9D500D1C9D500D112484E393E0F6
:100D300061E070E00E9489008091860390918703B2
:100D4000019690938703809386038091840390910A
:100D50008503DF91CF911F910F91FF90EF90DF906E
:100D6000CF90BF90AF909F908F907F906F905F904B
:100D70004F90089581E30E946E0F20E030E08823B9
:100D800011F421E030E0C901089582E30E946E0F62
:100D900020E030E0882311F421E030E0C90108951B
:100DA000EF92FF920F931F93CF93DF93EC018C018F
:100DB0000E5F1F4F81E0E82EF12C5DC086E00E949F
:100DC000ED0F998388830E94BA06892BA9F062E30C
:100DD00070E080E090E00E94180F0E94BA06892B14
:100DE00059F0F80180819181892B19F011821082CC
:100DF00003C0F801F182E0828EE293E00E94BF011D
:100E00008EE293E00E94BB018EE293E060E040E05E
:100E10000E94AC018EE293E068E071E00E94311420
:100E2000688179818EE293E00E94F5148EE293E06E
:100E300060E041E00E94AC018EE293E064E171E089
:100E40000E9431148A819B81892B29F08EE293E0E4
:100E50006FE171E004C08EE293E061E271E00E9414
:100E600031146AE070E080E090E00E94180F8EE29A
:100E700093E00E94BF010E94C506892B09F49ECF12
:100E800006C062E370E080E090E00E94180F0E94CC
:100E9000C506892BB1F7DF91CF911F910F91FF907C
:100EA000EF900895AF92BF92CF92DF92EF92FF92B0
:100EB0000F931F93CF93DF93EC018C010E5F1F4FB5
:100EC0004AC086E00E94ED0F9983888387E00E94E4
:100ED000ED0FF801918380838EE293E00E94BB01C5
:100EE0008EE293E060E040E00E94AC018EE293E08D
:100EF00063E271E00E9431148EE293E060E041E031
:100F00000E94AC018EE293E06FE371E00E94311425
:100F1000688179818EE293E00E94F5148EE293E07D
:100F200068E041E00E94AC018EE293E063E471E08E
:100F30000E943114F801608171818EE293E00E9479
:100F4000F5146AE070E080E090E00E94180F8EE2F5
:100F500093E00E94BF010E94C506892B09F4B1CF1E
:100F600006C062E370E080E090E00E94180F0E94EB
:100F7000C506892BB1F76AC083E00E94ED0FEC0132
:100F800084E00E94ED0F7C0186E00E94ED0FF801E5
:100F90009183808387E00E94ED0FF6019183808327
:100FA000F801808191818D5B92401CF0F801B18243
:100FB000A0828EE293E060E040E00E94AC018EE20D
:100FC00093E060E071E00E9431148EE293E0BE0194
:100FD0000E94F5148EE293E064E071E00E94311407
:100FE0008EE293E0B7010E94F5148EE293E060E098
:100FF00041E00E94AC018EE293E067E471E00E9460
:101000003114F801608171818EE293E00E94F51441
:101010008EE293E068E041E00E94AC018EE293E052
:101020006BE471E00E943114F601608171818EE2FF
:1010300093E00E94F5146AE070E080E090E00E9486
:10104000180F8EE293E00E94BF010CC08E010C5F6E
:101050001F4F26E0C22ED12CCC0EDD1E9CEBA92EFC
:1010600092E0B92E0E94C506892B09F485CF06C0EF
:1010700062E370E080E090E00E94180F0E94C506D5
:10108000892BB1F7DF91CF911F910F91FF90EF90D6
:10109000DF90CF90BF90AF9008951F93182F61E01D
:1010A0000E94870F812F0E946E0F813019F020E07F
:1010B00030E013C062E370E080E090E00E94180F1F
:1010C000812F61E00E94870F812F0E946E0F20E028
:1010D00030E0813011F421E030E0C9011F91089522
:1010E0000F931F93CF93DF938C018EE293E00E94C6
:1010F000BF018EE293E00E94BB018EE293E060E0CC
:1011000040E00E94AC018EE293E061E571E00E9454
:1011100031148EE293E060E041E00E94AC018EE287
:1011200093E06AE571E00E943114CC27DD27C01BF3
:10113000D10B83E090E00E944D08892B41F484E3B9
:1011400093E062E070E0AE010E948900F2CF8EE28F
:1011500093E00E94BF0184E393E062E070E00E94AC
:101160007E008EE293E00E94BB018EE293E060E09D
:1011700040E00E94AC018EE293E06FE571E00E94D6
:1011800031148EE293E060E041E00E94AC018EE217
:1011900093E06CE671E00E94311480E090E00E94E0
:1011A0004D08892B49F484E393E062E070E04CE25F
:1011B00051E00E948900F1CF8EE293E00E94BF01CE
:1011C00084E393E062E070E00E947E00DF91CF91C3
:1011D0001F910F9108956F927F928F929F92AF927D
:1011E000BF92CF92DF92EF92FF920F931F93CF9314
:1011F000DF936C014B015A01390183E00E94ED0F2E
:101200007C0184E00E94ED0F8C018EE293E00E944D
:10121000BF018EE293E00E94BB018EE293E060E0AA
:1012200071E00E9431148EE293E0B7010E94F51440
:101230008EE293E068E040E00E94AC018EE293E031
:1012400064E071E00E9431148EE293E0B8010E94E4
:10125000F5148EE293E060E041E00E94AC018EE282
:1012600093E064E771E00E94311460916A03709129
:101270006B038EE293E00E94F514C701801B910B73
:1012800090936B0380936A036AE070E080E090E0E3
:101290000E94180F80916C0390916D03C0916A03B6
:1012A000D0916B038C179D07B1F090936F038093DF
:1012B0006E03D0936D03C0936C038091760390917D
:1012C0007703909379038093780381E090E0909383
:1012D0007703809376030E0D1F1DB801882777FDD5
:1012E0008095982F0E9498150E94DE167B018C0134
:1012F000AC9EB001AD9E700DBC9E700D1124882770
:1013000077FD8095982F0E949815A80197010E945B
:10131000FD140E9465159B01709371036093700327
:1013200080916E0390916F03C81BD90B6091760377
:10133000709177038091780390917903680F791FFA
:101340008C9EC0018D9E900D9C9E900D11240E943C
:1013500042177093730360937203260F371F309305
:101360007503209374038EE293E068E041E00E94ED
:10137000AC018EE293E069E771E00E943114609164
:101380007403709175038EE293E00E94F514672850
:1013900019F4CFEFDFEF02C0C1E0D0E08091740319
:1013A000909175038C0D9D1DC89FA001C99F500D84
:1013B000D89F500D112484E393E060E070E00E9418
:1013C00089008091740390917503C81AD90ACC9D45
:1013D000A001CD9D500DDC9D500D112484E393E0C0
:1013E00061E070E00E94890080917603909177031C
:1013F00001969093770380937603DF91CF911F91AD
:101400000F91FF90EF90DF90CF90BF90AF909F90A3
:101410008F907F906F900895AF92BF92CF92DF929E
:10142000EF92FF920F931F93CF93DF93EC0156E05F
:10143000C52ED12CC80ED91E41E0A42EB12C34E00B
:10144000E32EF12CE80EF91E8C010E5F1F4F4BC1ED
:101450008EE293E00E94BB018EE293E060E040E008
:101460000E94AC018EE293E06DE771E00E943114BE
:1014700086E00E94ED0FAA2797FDA095BA2FBC0128
:10148000CD010E94981520E030EC4FE754E40E9413
:10149000FD1420E030E040E850E40E9477160E94FE
:1014A000D3150E94651570934503609344038EE243
:1014B00093E00E94BB018EE293E060E041E00E9475
:1014C000AC018091440390914503009709F03FC01F
:1014D0008EE293E06BE871E00E943114888199817B
:1014E00081309105B9F48EE293E06FE040E00E9414
:1014F000AC018EE293E06AE971E00E9431140E942F
:10150000BA06892BF9F00E94BA06892BE1F71982F5
:10151000188218C0892BB1F48EE293E06FE040E0AE
:101520000E94AC018EE293E06CE971E00E943114FC
:101530000E94BA06892B31F00E94BA06892BE1F786
:10154000B982A8826CE271E080E090E0C6C0813090
:101550009105E9F58EE293E06EE971E00E943114A5
:10156000F8018081918181309105B9F48EE293E098
:101570006FE040E00E94AC018EE293E06AE971E026
:101580000E9431140E94BA06892B09F460C00E949F
:10159000BA06892BE1F7F8013EC0892B09F057C044
:1015A0008EE293E06FE040E00E94AC018EE293E0B7
:1015B0006CE971E00E9431140E94BA06892B09F48B
:1015C00046C00E94BA06892BE1F7F8013EC0029797
:1015D00009F042C08EE293E06BEA71E00E943114A0
:1015E000F7018081918181309105C1F48EE293E011
:1015F0006FE040E00E94AC018EE293E06AE971E0A6
:101600000E9431140E94BA06892B09F10E94BA0681
:10161000892BE1F7F7011182108219C0892BB9F4E7
:101620008EE293E06FE040E00E94AC018EE293E036
:101630006CE971E00E9431140E94BA06892B39F0DE
:101640000E94BA06892BE1F7F701B182A08264E615
:1016500070E080E090E041C08EE293E065EB71E0E5
:101660000E943114F6018081918181309105C1F48D
:101670008EE293E06FE040E00E94AC018EE293E0E6
:101680006AE971E00E9431140E94BA06892B09F1BF
:101690000E94BA06892BE1F7F6011182108219C067
:1016A000892BB9F48EE293E06FE040E00E94AC0138
:1016B0008EE293E06CE971E00E9431140E94BA0658
:1016C000892B39F00E94BA06892BE1F7F601B18225
:1016D000A0826AE070E080E090E00E94180F8EE245
:1016E00093E00E94BF010E94C506892B09F4B0CE89
:1016F00006C062E370E080E090E00E94180F0E9454
:10170000C506892BB1F7DF91CF911F910F91FF9003
:10171000EF90DF90CF90BF90AF900895CF92DF927F
:10172000EF92FF920F931F93CF93DF936C01EC0125
:1017300022964AC086E00E94ED0FF60191838083D5
:1017400087E00E94ED0F998388838EE293E00E94E8
:10175000BB018EE293E060E040E00E94AC018EE2CB
:1017600093E065EC71E00E9431148EE293E060E05A
:1017700041E00E94AC018EE293E06FE371E00E94D1
:101780003114F601608171818EE293E00E94F514BC
:101790008EE293E068E041E00E94AC018EE293E0CB
:1017A00063E471E00E943114688179818EE293E0F4
:1017B0000E94F5146AE070E080E090E00E94180F4B
:1017C0008EE293E00E94BF010E94C506892B09F4B6
:1017D000B1CF06C062E370E080E090E00E94180F95
:1017E0000E94C506892BB1F746C081E00E94ED0F2B
:1017F0008C0182E00E94ED0F7C0186E00E94ED0FDB
:10180000998388838EE293E060E041E00E94AC011E
:101810008EE293E061ED71E00E943114688179817C
:101820008EE293E00E94F5148EE293E060E040E0E7
:101830000E94AC018EE293E060E071E00E943114FE
:101840008EE293E0B8010E94F5148EE293E06DED14
:1018500071E00E9431148EE293E0B7010E94F5140A
:1018600064E670E080E090E00E94180F8EE293E062
:101870000E94BF0102C0E60124960E94C506892B82
:1018800009F4B3CF06C062E370E080E090E00E940C
:10189000180F0E94C506892BB1F75AC086E00E9436
:1018A000ED0F9983888387E00E94ED0FAA2797FDAB
:1018B000A095BA2FBC01CD010E94981520E030EC14
:1018C0004FE754E40E94FD1420E030E040EA50E489
:1018D0000E9477160E94D3150E946515F601718348
:1018E0006083888199818D5B924014F0198308830D
:1018F0008EE293E060E040E00E94AC018EE293E073
:1019000062EE71E00E943114688179818EE293E089
:101910000E94F5148EE293E060E041E00E94AC0189
:101920008EE293E06AEE71E00E943114F60160816C
:1019300071818EE293E00E94F5146AE070E080E02D
:1019400090E00E94180F8EE293E00E94BF0108C051
:10195000E601269688E090E0C80ED91E0CEB12E056
:101960000E94C506892B09F499CF06C062E370E096
:1019700080E090E00E94180F0E94C506892BB1F705
:10198000DF91CF911F910F91FF90EF90DF90CF905B
:101990000895EF92FF920F931F93CF93DF9380915F
:1019A000340290913502019709F03BC18EE593E036
:1019B0000E940C0A8EE293E00E94BB018EE293E04B
:1019C00060E040E00E94AC018EE293E062EF71E0E3
:1019D0000E94311464E170E080E090E00E94180FF2
:1019E0008EE293E00E94BF010E94C506892B49F058
:1019F00081E090E090934B0380934A030E9432056C
:101A000008C00E94BA06892BA9F210924B031092CB
:101A10004A030E94C506892B29F40E94BA06892B25
:101A200009F465C162E370E080E090E00E94180F65
:101A3000F0CF80915E0390915F03019761F58CE494
:101A400093E00E948E0B80914C0390914D039093F4
:101A50001F0280931E0280914E0390914F0390933A
:101A60002102809320028091500390915103909322
:101A7000230280932202809152039091530390930A
:101A800025028093240280915403909155039093F2
:101A90004303809342038091600390916103019717
:101AA000A1F486E693E00E94D006809166039091AF
:101AB000670390932D0280932C028091680390918C
:101AC0006903909349038093480380916203909146
:101AD0006303019709F0A5C086E593E00E945207D1
:101AE000809156039091570390932702809326028A
:101AF0008091580390915903909329028093280272
:101B000080915A0390915B0390932B0280932A0259
:101B100080915C0390915D0390932F0280932E023D
:101B200080C080915E0390915F03019701F5609101
:101B300020027091210240912202509123022091B3
:101B40003202309133028091240290912502280FB5
:101B5000391F0091420310914303E0903002F0904E
:101B6000310280911E0290911F020E949A058FB748
:101B7000F894969A8FBF80916003909161030197CA
:101B800071F586E00E946E0F813049F584E393E0A1
:101B900060E070E00E947E0084E393E061E070E02A
:101BA0000E947E0080912C0290912D020E9470086C
:101BB0008091460390914703019690934703809349
:101BC00046038130910529F4D0933302C093320249
:101BD00006C0029721F410923302109232028091D3
:101BE0006203909163030197F1F40E948A0587399B
:101BF0009105CCF010925F0310925E036091260273
:101C000070912702409128025091290220913002C0
:101C10003091310280912A0290912B020E94EB08B0
:101C200002C0C4E6D0E00E94BA06892B09F479CF3D
:101C300012C084E393E060E070E00E947E0084E3E1
:101C400093E061E070E00E947E0062E370E080E07B
:101C500090E00E94180F0E94BA06892B51F78EE27D
:101C600093E00E94BB018EE293E060E040E00E94BE
:101C7000AC018EE293E062E072E00E9431148EE2E9
:101C800093E060E041E00E94AC018EE293E061E10C
:101C900072E00E9431146AE070E080E090E00E94FF
:101CA000180F8EE293E00E94BF010E94C506892BA7
:101CB00029F010923502109234020AC00E94BA062E
:101CC000892B69F281E090E0909335028093340291
:101CD0000E94C506892B21F40E94BA06892B79F04F
:101CE00062E370E080E090E00E94180FF1CF8091F5
:101CF0004A0390914B03892B09F49BCE92CFDF913D
:101D0000CF911F910F91FF90EF90089586E992E097
:101D100040E855E260E070E00E94200280E060E070
:101D20000E94B70F81E060E00E94B70F80E060E0A2
:101D30000E943E0F83E060E00E943E0F86E060E07C
:101D40000E943E0F08951F920F920FB60F9211241A
:101D50002F933F938F939F93AF93BF9380918E0365
:101D600090918F03A0919003B091910330919203D1
:101D70000196A11DB11D232F2D5F2D3720F02D576A
:101D80000196A11DB11D2093920380938E03909321
:101D90008F03A0939003B093910380918A03909155
:101DA0008B03A0918C03B0918D030196A11DB11DF1
:101DB00080938A0390938B03A0938C03B0938D033D
:101DC000BF91AF919F918F913F912F910F900FBE37
:101DD0000F901F9018956FB7F89420918A03309157
:101DE0008B0340918C0350918D0382B790E0A0E06B
:101DF000B0E006B600FE09C08F3F9105A105B10510
:101E000021F02F5F3F4F4F4F5F4F6FBF542F432F36
:101E1000322F2227280F391F4A1F5B1F82E0220F13
:101E2000331F441F551F8A95D1F7B901CA01089580
:101E3000EF92FF920F931F93CF93DF937B018C015F
:101E40000E94EB0EEB010EC00E94EB0E6C1B7D0B93
:101E5000685E7340C8F30894E108F10801091109AC
:101E6000C851DC4FE114F1040105110569F7DF9158
:101E7000CF911F910F91FF90EF900895E82FE69575
:101E8000E695E695A82FB0E0613099F42FB7F89465
:101E9000F0E0EE0FFF1FEA5BFD4F0190F081E02DB7
:101EA0009081A770B070A857BD4F8C91982B9083EC
:101EB00013C02FB7F894F0E0EE0FFF1FEA5BFD4F61
:101EC0000190F081E02D9081A770B070A857BD4FB0
:101ED0008C918095892380832FBF0895A82FE82FA8
:101EE000E695E695E695F0E0EE0FFF1FEC5AFD4F04
:101EF0000190F081E02DE081B0E0A770B070A857AC
:101F0000BD4F8C91E82309F0E1E08E2F0895E82F72
:101F1000E695E695E695A82FB0E0613099F42FB7E5
:101F2000F894F0E0EE0FFF1FE85CFD4F0190F081A8
:101F3000E02D9081A770B070A857BD4F8C91982B61
:101F4000908313C02FB7F894F0E0EE0FFF1FE85C0A
:101F5000FD4F0190F081E02D9081A770B070A857DF
:101F6000BD4F8C918095892380832FBF0895E82FE2
:101F7000F0E0613051F4EE0FFF1FEA5BFD4F01907E
:101F8000F081E02D8FEF80830895EE0FFF1FEA5B55
:101F9000FD4F0190F081E02D10820895E82FF0E0D0
:101FA000EE0FFF1FEC5AFD4F0190F081E02D808174
:101FB0000895E82FF0E0EE0FFF1FE85CFD4F019061
:101FC000F081E02D6083089510926100109262000C
:101FD00080E487B987EE86B908951F93182F809102
:101FE0006202813021F40E94E40F1092620280911B
:101FF0006302181721F4349A349BFECF0DC010935E
:10200000630287B11770807E812B87B9349A349B25
:10201000FECF349A349BFECF24B135B1C9011F9154
:10202000089593B7987F982B93BF08959EB5987F96
:10203000982B9EBD089583E00E9416101DBC1CBC09
:1020400087B7846087BF0895EAE8F0E09081987FC1
:10205000982B9083089583E00E94241010928900A9
:1020600010928800EDE7F0E080818460808308951D
:10207000893031F48FB582608FBD8FB58E7F0AC0F5
:102080008A3019F48FB5826002C08FB58D7F8FBD05
:102090008FB581608FBD1BBC1ABC19BC18BC1092D7
:1020A00079001092780008958FB580688FBD8FB544
:1020B0008F7B8FBD08958FB580628FBD8FB58F7E6A
:1020C0008FBD08958FB588608FBD8FB58B7F8FBD15
:1020D00008959BBD8ABD089599BD88BD08959093CC
:1020E0007900809378000895893049F480918B00BD
:1020F000826080938B0080918B008E7F0EC08A302F
:1021000021F480918B00826003C080918B008D7FD1
:1021100080938B0080918B00816080938B00109264
:102120008700109286001092850010928400109211
:102130008300109282000895EBE8F0E080818068CF
:10214000808380818F7B80830895EBE8F0E080813D
:102150008062808380818F7E80830895EBE8F0E049
:1021600080818860808380818B7F80830895853023
:1021700019F40E9454100895843019F40E945B10E1
:102180000895833019F40E9462100895823019F482
:102190000E949C100895813019F40E94A5100895A2
:1021A000882311F40E94AE100895909387008093C5
:1021B00086000895909385008093840008959093FD
:1021C0008300809382000895EF92FF921F93CF9334
:1021D000DF93182F7B018D31B0F08F3111F413E0B4
:1021E00014C08E3111F414E010C08D3109F49BC07D
:1021F000853211F410E03DC0843211F411E039C091
:10220000833219F48EC08330A0F18091930386FD50
:102210000BC00E941B1078948AE00E9438108091B5
:10222000930380648093930380919303C12FD0E044
:1022300090E0012E02C0959587950A94E2F780FD03
:102240004CC087B3FE01E057FD4F9081892B87BBBF
:10225000812F0E94B7102091930381E090E0012E1E
:1022600002C0880F991F0A94E2F7282B209393034A
:1022700034C08091930387FD0BC00E942B1078948B
:102280008AE00E9474108091930380688093930386
:1022900080919303C12FD0E090E0012E02C095956C
:1022A00087950A94E2F780FD24C082B1FE01E057D1
:1022B000FD4F9081892B82B9812F0E94B710209108
:1022C000930381E090E0012E02C0880F991F0A94C9
:1022D000E2F7282B209393030CC0153021F4C7019B
:1022E0000E94691022C0143021F4C7010E946C10B2
:1022F0001CC0133021F4C7010E946F1016C01230A9
:1023000021F4C7010E94D51010C0113021F4C7017B
:102310000E94DA100AC0112341F4C7010E94DF10A5
:1023200004C012E0A6CF15E070CFDF91CF911F91CE
:10233000FF90EF9008951F920F920FB60F920BB679
:102340000F9211242F933F934F935F936F937F933B
:102350008F939F93AF93BF93EF93FF9380919A03D3
:1023600090919B03892B29F0E0919A03F0919B03B4
:102370000995FF91EF91BF91AF919F918F917F91BF
:102380006F915F914F913F912F910F900BBE0F90E6
:102390000FBE0F901F9018951F920F920FB60F92BD
:1023A0000BB60F9211242F933F934F935F936F932C
:1023B0007F938F939F93AF93BF93EF93FF938091FE
:1023C000A4039091A503892B29F0E091A403F09137
:1023D000A5030995FF91EF91BF91AF919F918F91C7
:1023E0007F916F915F914F913F912F910F900BBE15
:1023F0000F900FBE0F901F9018951F920F920FB65F
:102400000F920BB60F9211242F933F934F935F932C
:102410006F937F938F939F93AF93BF93EF93FF93AC
:102420008091AA039091AB03892B29F0E091AA0334
:10243000F091AB030995FF91EF91BF91AF919F91FF
:102440008F917F916F915F914F913F912F910F905D
:102450000BBE0F900FBE0F901F9018951F920F92FA
:102460000FB60F920BB60F9211242F933F934F93F9
:102470005F936F937F938F939F93AF93BF93EF93EC
:10248000FF938091960390919703892B29F0E09117
:102490009603F09197030995FF91EF91BF91AF914A
:1024A0009F918F917F916F915F914F913F912F916C
:1024B0000F900BBE0F900FBE0F901F9018951F929C
:1024C0000F920FB60F920BB60F9211242F933F93DA
:1024D0004F935F936F937F938F939F93AF93BF932C
:1024E000EF93FF9380919C0390919D03892B29F09A
:1024F000E0919C03F0919D030995FF91EF91BF91AD
:10250000AF919F918F917F916F915F914F913F918B
:102510002F910F900BBE0F900FBE0F901F9018952C
:102520001F920F920FB60F920BB60F9211242F939A
:102530003F934F935F936F937F938F939F93AF934B
:10254000BF93EF93FF9380919E0390919F03892BFC
:1025500029F0E0919E03F0919F030995FF91EF917F
:10256000BF91AF919F918F917F916F915F914F91AB
:102570003F912F910F900BBE0F900FBE0F901F90A9
:1025800018951F920F920FB60F920BB60F9211244F
:102590002F933F934F935F936F937F938F939F936B
:1025A000AF93BF93EF93FF938091A0039091A1030A
:1025B000892B29F0E091A003F091A1030995FF91E7
:1025C000EF91BF91AF919F918F917F916F915F91AB
:1025D0004F913F912F910F900BBE0F900FBE0F9018
:1025E0001F9018951F920F920FB60F920BB60F9275
:1025F00011242F933F934F935F936F937F938F9308
:102600009F93AF93BF93EF93FF938091A203909119
:10261000A303892B29F0E091A203F091A30309956C
:10262000FF91EF91BF91AF919F918F917F916F91AA
:102630005F914F913F912F910F900BBE0F900FBE66
:102640000F901F9018951F920F920FB60F920BB616
:102650000F9211242F933F934F935F936F937F9328
:102660008F939F93AF93BF93EF93FF938091A603B4
:102670009091A703892B29F0E091A603F091A7037D
:102680000995FF91EF91BF91AF919F918F917F91AC
:102690006F915F914F913F912F910F900BBE0F90D3
:1026A0000FBE0F901F9018951F920F920FB60F92AA
:1026B0000BB60F9211242F933F934F935F936F9319
:1026C0007F938F939F93AF93BF93EF93FF938091EB
:1026D000AC039091AD03892B29F0E091AC03F0910C
:1026E000AD030995FF91EF91BF91AF919F918F91AC
:1026F0007F916F915F914F913F912F910F900BBE02
:102700000F900FBE0F901F9018951F920F920FB64B
:102710000F920BB60F9211242F933F934F935F9319
:102720006F937F938F939F93AF93BF93EF93FF9399
:102730008091AE039091AF03892B29F0E091AE0315
:10274000F091AF030995FF91EF91BF91AF919F91E8
:102750008F917F916F915F914F913F912F910F904A
:102760000BBE0F900FBE0F901F9018951F920F92E7
:102770000FB60F920BB60F9211242F933F934F93E6
:102780005F936F937F938F939F93AF93BF93EF93D9
:10279000FF938091B0039091B103892B29F0E091D0
:1027A000B003F091B1030995FF91EF91BF91AF9103
:1027B0009F918F917F916F915F914F913F912F9159
:1027C0000F900BBE0F900FBE0F901F9018951F9289
:1027D0000F920FB60F920BB60F9211242F933F93C7
:1027E0004F935F936F937F938F939F93AF93BF9319
:1027F000EF93FF938091B2039091B303892B29F05B
:10280000E091B203F091B3030995FF91EF91BF916D
:10281000AF919F918F917F916F915F914F913F9178
:102820002F910F900BBE0F900FBE0F901F90189519
:1028300083E061E00E94B70F84E061E00E94B70F7F
:1028400078940E94860E0E94C90CFDCFDC01ED91A8
:10285000FC910190F081E02D099508950E942614C5
:1028600008950F931F93CF93DF938C01EB0104C066
:102870002196C8010E942E1468816623C9F7DF9152
:10288000CF911F910F9108952F923F924F925F9297
:102890006F927F928F929F92AF92BF92CF92DF9270
:1028A000EF92FF920F931F93DF93CF93CDB7DEB7D5
:1028B000A0970FB6F894DEBF0FBECDBF1C016A0112
:1028C0007B01411551056105710521F460E30E940A
:1028D0002E144FC0882499245401422E5524662476
:1028E000772401E010E00C0F1D1F080D191DC70112
:1028F000B601A30192010E945517F8016083089464
:10290000811C911CA11CB11CC701B601A30192013D
:102910000E945517C901DA016C017D01C114D1046F
:10292000E104F104F1F681E0E82EF12CEC0EFD1E3D
:10293000E80CF91C3E010894611C711CD501C4010E
:102940000197A109B1096C01C818D9080FC0F60197
:10295000EE0DFF1D60816A3010F4605D01C0695C9E
:10296000C1010E942E140894E108F1086E147F043E
:1029700071F7A0960FB6F894DEBF0FBECDBFCF9112
:10298000DF911F910F91FF90EF90DF90CF90BF905C
:10299000AF909F908F907F906F905F904F903F90FF
:1029A0002F900895EF92FF920F931F93CF93DF9391
:1029B000EC017A018B0177FF0BC06DE20E942E14AF
:1029C00010950095F094E094E11CF11C011D111D7F
:1029D000CE01B801A7012AE00E944414DF91CF91F3
:1029E0001F910F91FF90EF900895AB01662757FD5F
:1029F0006095762F0E94D21408950CD027C11FD164
:102A000040F016D130F021F45F3F19F0DFC05111D2
:102A100068C10BC12CD198F39923C9F35523B1F3A5
:102A2000951B550BBB27AA2762177307840738F03D
:102A30009F5F5F4F220F331F441FAA1FA9F333D09C
:102A40000E2E3AF0E0E830D091505040E695001C50
:102A5000CAF729D0FE2F27D0660F771F881FBB1F0C
:102A6000261737074807AB07B0E809F0BB0B802DE6
:102A7000BF01FF2793585F4F2AF09E3F510568F032
:102A8000A5C02FC15F3FECF3983EDCF386957795A8
:102A90006795B795F7959F5FC9F7880F911D969534
:102AA000879597F90895E1E0660F771F881FBB1F90
:102AB000621773078407BA0720F0621B730B840B3D
:102AC000BA0BEE1F88F7E095089504D06894B11111
:102AD00008C10895D4D088F09F5790F0B92F992756
:102AE000B751A0F0D1F0660F771F881F991F1AF019
:102AF000BA95C9F712C0B13081F0F2D0B1E00895B3
:102B0000EFC0672F782F8827B85F39F0B93FCCF333
:102B1000869577956795B395D9F73EF4909580950E
:102B2000709561957F4F8F4F9F4F0895E89409C02E
:102B300097FB3EF490958095709561957F4F8F4FF0
:102B40009F4F9923A9F0F92F96E9BB279395F69506
:102B5000879577956795B795F111F8CFFAF4BB0F84
:102B600011F460FF1BC06F5F7F4F8F4F9F4F16C0E8
:102B7000882311F096E911C0772321F09EE8872F72
:102B8000762F05C0662371F096E8862F70E060E02E
:102B90002AF09A95660F771F881FDAF7880F9695A7
:102BA000879597F9089585D080F09F3740F491116B
:102BB0000EF097C060E070E080E89FEB089526F487
:102BC0001B16611D711D811D07C021C097F99F67EC
:102BD00080E870E060E00895882371F4772321F0A5
:102BE0009850872B762F07C0662311F499270DC0C4
:102BF0009051862B70E060E02AF09A95660F771F5F
:102C0000881FDAF7880F9695879597F908959F3F63
:102C100031F0915020F4879577956795B795880F97
:102C2000911D9695879597F908959FEF80EC0895EB
:102C300000240A941616170618060906089500249B
:102C40000A9412161306140605060895092E039415
:102C5000000C11F4882352F0BB0F40F4BF2B11F489
:102C600060FF04C06F5F7F4F8F4F9F4F089557FDE8
:102C70009058440F551F59F05F3F71F04795880FEA
:102C800097FB991F61F09F3F79F087950895121681
:102C900013061406551FF2CF4695F1DF08C016162D
:102CA00017061806991FF1CF8695710561050894DE
:102CB0000895E5DFA0F0BEE7B91788F4BB279F3879
:102CC00060F41616B11D672F782F8827985FF7CF0D
:102CD000869577956795B11D93959639C8F30895B4
:102CE000E894BB2766277727CB0197F908950BD087
:102CF000ADCF9EDF28F0A3DF18F0952309F066CF53
:102D000094CF1124EECFB3DFA0F3959FD1F3950FAD
:102D100050E0551F629FF001729FBB27F00DB11D5F
:102D2000639FAA27F00DB11DAA1F649F6627B00DEF
:102D3000A11D661F829F2227B00DA11D621F739FD8
:102D4000B00DA11D621F839FA00D611D221F749FE6
:102D50003327A00D611D231F849F600D211D822F2D
:102D6000762F6A2F11249F5750408AF0E1F0882374
:102D70004AF0EE0FFF1FBB1F661F771F881F915081
:102D80005040A9F79E3F510570F020CFAACF5F3F7A
:102D9000ECF3983EDCF3869577956795B795F795B4
:102DA000E7959F5FC1F7FE2B880F911D969587953C
:102DB00097F9089511F40EF438CF29CF60DFD0F3DE
:102DC0009923D9F3CEF39F57550B87FF35D00024B5
:102DD000A0E640EA900180585695979528F4805CCB
:102DE000660F771F881F20F026173707480730F433
:102DF000621B730B840B202931294A2BA69517944B
:102E00000794202531254A2758F7660F771F881F1A
:102E100020F026173707480730F4620B730B840B3A
:102E2000200D311D411DA09581F7B901842F9158C6
:102E3000880F96958795089591505040660F771F9B
:102E4000881FD2F70895629FD001739FF001829F7F
:102E5000E00DF11D649FE00DF11D929FF00D839F29
:102E6000F00D749FF00D659FF00D9927729FB00DC6
:102E7000E11DF91F639FB00DE11DF91FBD01CF01D9
:102E80001124089597FB092E07260AD077FD04D058
:102E900049D006D000201AF4709561957F4F0895AF
:102EA000F6F7909581959F4F0895A1E21A2EAA1BDF
:102EB000BB1BFD010DC0AA1FBB1FEE1FFF1FA217EA
:102EC000B307E407F50720F0A21BB30BE40BF50BE7
:102ED000661F771F881F991F1A9469F76095709570
:102EE000809590959B01AC01BD01CF01089597FBA2
:102EF000092E05260ED057FD04D0D7DF0AD0001CBE
:102F000038F450954095309521953F4F4F4F5F4F86
:102F10000895F6F790958095709561957F4F8F4F46
:102F20009F4F0895AA1BBB1B51E107C0AA1FBB1FDF
:102F3000A617B70710F0A61BB70B881F991F5A9545
:102F4000A9F780959095BC01CD010895EE0FFF1F64
:0C2F50000590F491E02D0994F894FFCF57
:102F5C004C3A2000523A200041524D2053504545E6
:102F6C00443A2000436F756E74696E673A200054C2
:102F7C0000460054756E696E672050494420666F98
:102F8C007220495220646574656374696F6E0050D9
:102F9C003A2000443A2000533A20006D61783A20E0
:102FAC00005377696E67696E67004261636B00530B
:102FBC0077696E67696E672041726D00466F727734
:102FCC006172640045523A200050443A005748411F
:102FDC005420544F20544553543F00546170652085
:102FEC00466F6C6C6F77696E67002A002000417227
:102FFC007469666163742041726D00495220536597
:10300C006E736F72005265766572736520447269D7
:10301C0076696E6700544150452054554E494E47D1
:10302C00005468726573686F6C643A200020523AE1
:10303C00200053504545443A200044454C54413AF5
:10304C00200044454641554C542056414C5545535F
:10305C003F0053544152543A20474F20534F46544B
:10306C000053544F503A20524554554E450064007D
:10307C003C006400E10064003200C800260220031A
:10308C000100010001000500320035003B00380052
:10309C00230062006500310034003A003700220042
:1030AC00610064003000330039003600210020003C
:1030BC00630001FF1800190026002700050004001A
:1030CC000100000000000000650100000000A904E0
:1030DC00FC025E04430478040102040810204080C2
:0630EC00201008804020C6
:00000001FF
