:100000000C9448000C947C000C947C000C947C00B4
:100010000C947C000C947C000C947C000C947C0070
:100020000C947C000C94C7170C9470160C949617C3
:100030000C9403170C9434170C943F160C94D2169E
:100040000C9439130C947C000C9478020C940703E4
:100050000C947C000C947C000C947C000C947C0030
:100060000C9465170C948B180C94F8170C942918A1
:100070000C945A180C94A1160C9449020C94C002CA
:100080000C947C000C947C000C947C002F04B10434
:1000900011241FBECFEFD0E1DEBFCDBF88E483BF08
:1000A00084E00E94B51412BE87B7816087BF789440
:1000B00012E0A0E0B1E0EAE4F9E300E00BBF02C027
:1000C00007900D92AA3AB107D9F713E0AAEAB2E075
:1000D00001C01D92A43FB107E1F710E0C0E9D0E0F4
:1000E00004C02297FE010E949F1CCC38D107C9F79B
:1000F0000E94BC180C94A31C0C940000FB01EE0F92
:10010000FF1FE058FD4F808160E070E00E9488157D
:1001100008950F931F93CF93DF93EB018A01CC0FC8
:10012000DD1F57FD0CC0FE01E858FD4F808161E0E6
:100130000E942B14C058DD4F8881B8010EC0FE010B
:10014000E858FD4F808160E00E942B14C058DD4FBD
:1001500066277727601B710B88810E948815DF91C5
:10016000CF911F910F9108951F93CF93DF93C0E01C
:10017000D0E0FE01E858FD4F1081812F61E00E9420
:10018000E213812F61E00E942B14FE01E058FD4F25
:10019000808160E070E00E9488152296C830D10509
:1001A00041F7DF91CF911F910895FC0110828AE001
:1001B00090E0938382830895CF93DF93EC018A814B
:1001C00060E00E942B148D8160E00E945B148D81A1
:1001D00060E00E947D148B8161E00E942B148C8171
:1001E00061E00E942B140000000010C08C8160E0D0
:1001F0000E942B1400000000000000008C8161E0D0
:100200000E942B1400000000000000008D810E945D
:10021000721487FDEBCF8C8160E00E942B14DF917C
:10022000CF910895FF920F931F938C01F62E0E9499
:10023000DC00F801828161E00E942B14F8018381C7
:1002400060E00E942B14F801848161E00E942B146D
:10025000F801858161E00E945B14F80185816F2DB2
:100260000E947D140000000000000000F80184815D
:1002700060E00E942B14F801858160E00E945B140D
:10028000F80185816FEF0E947D141F910F91FF90FF
:100290000895EF92FF920F931F93CF93DF937C010A
:1002A000042F6115710551F0EB0110E005C0C70185
:1002B00069910E9412011F5F1017C8F3DF91CF915F
:1002C0001F910F91FF90EF900895DF93CF930F92BE
:1002D000CDB7DEB76983BE016F5F7F4F41E00E94FB
:1002E00049010F90CF91DF910895FF920F931F93D3
:1002F0008C01F62E0E94DC00F801828160E00E94F1
:100300002B14F801838160E00E942B14F801848192
:1003100061E00E942B14F801858161E00E945B146A
:10032000F80185816F2D0E947D14000000000000FF
:100330000000F801848160E00E942B14F80185819F
:1003400060E00E945B14F80185816FEF0E947D14CC
:100350001F910F91FF900895423031F0433031F0FA
:10036000413029F4605C03C06C5E01C06C5A606867
:100370000E947501089562E00E947501089561E090
:100380000E94750108950F931F938C01FC018281D7
:1003900060E00E942B14F801838160E00E942B141E
:1003A000F801848160E00E942B14F801828161E0F1
:1003B0000E94E213F801838161E00E94E213F801D8
:1003C000848161E00E94E213F801858160E00E946F
:1003D0005B14F80185816FEF0E947D141F910F91CE
:1003E00008950F931F938C010E94C301C80168E315
:1003F0000E947501C80161E00E947501C80166E0B4
:100400000E947501C8016CE00E947501C80162E09C
:100410000E947501C80160E80E9475011F910F914B
:1004200008950F93FC018CE892E0918380836283AE
:10043000438324830583CF010E94F1010F91089526
:10044000FC0124813581C9010895DC01FC01828110
:100450009381809714F080E00895FD01828193815B
:1004600001969383828384819581E80FF91F6087C9
:100470000196FD01958384832D913C9111978217FC
:10048000930714F481E00895FD011582148281E040
:1004900008951F920F920FB60F920BB60F92112470
:1004A0002F933F934F935F936F937F938F939F937C
:1004B000AF93BF93EF93FF93E0914003F09141031B
:1004C000608188EF92E00E942502FF91EF91BF9139
:1004D000AF919F918F917F916F915F914F913F91DC
:1004E0002F910F900BBE0F900FBE0F901F9018957D
:1004F0001F920F920FB60F920BB60F9211242F93EB
:100500003F934F935F936F937F938F939F93AF939B
:10051000BF93EF93FF93E091F402F091F5026081B5
:100520008CEA92E00E942502FF91EF91BF91AF917A
:100530009F918F917F916F915F914F913F912F91FB
:100540000F900BBE0F900FBE0F901F901895DC01FF
:10055000FC018281938101979383828386819781B5
:10056000E80FF91F40850196FD01978386832D9141
:100570003C918217930714F017821682842F0895F6
:100580001F920F920FB60F920BB60F9211240F937A
:100590001F932F933F934F935F936F937F938F930B
:1005A0009F93AF93BF93EF93FF938091220390911A
:1005B00023031816190654F40091400310914103C7
:1005C00080E293E00E94A702F801808380912203D9
:1005D00090912303892B31F4E0913E03F0913F0386
:1005E00088E98083FF91EF91BF91AF919F918F91A7
:1005F0007F916F915F914F913F912F911F910F913B
:100600000F900BBE0F900FBE0F901F9018951F926A
:100610000F920FB60F920BB60F9211240F931F93E8
:100620002F933F934F935F936F937F938F939F93FA
:10063000AF93BF93EF93FF938091D6029091D7022F
:100640001816190654F40091F4021091F50284ED85
:1006500092E00E94A702F80180838091D6029091D7
:10066000D702892B31F4E091F202F091F30288E98C
:100670008083FF91EF91BF91AF919F918F917F9177
:100680006F915F914F913F912F911F910F910F901B
:100690000BBE0F900FBE0F901F901895DC01FC0150
:1006A0008281938101979383828386819781E80F6A
:1006B000F91F40850196FD01978386832D913C911A
:1006C0008217930714F017821682842F0895FC0175
:1006D00084819581892B19F42FEF3FEF06C0CF015C
:1006E00002960E944E03282F30E0C9010895CF934F
:1006F000DF93EC01EE81FF81E80FF91F8085DF9128
:10070000CF910895FC0184819581892B19F42FEFF5
:100710003FEF06C0CF0102960E947703282F30E0FA
:10072000C9010895FC01138212828281938197830B
:10073000868395838483089502960E949203089588
:10074000FC0180E290E091838083CF010E949203BC
:100750000895DC01FC0182819381409714F080E0D0
:100760000895FD0182819381019693838283848120
:100770009581E80FF91F60870196FD0195838483B9
:100780002D913C9111978217930714F481E00895FD
:10079000FD011582148281E00895CF93DF93EC016F
:1007A0008CA59DA54097E4F7F894CE018A960E9407
:1007B000A903C85BDF4FE881F98180818062808373
:1007C0007894DF91CF910895FC0113821282828187
:1007D000938197838683958384830895FC0180E1C8
:1007E00090E091838083CF010E94E40308956F928B
:1007F0007F928F929F92AF92BF92CF92DF92EF92B1
:10080000FF920F931F936C015B014A013901FC01B8
:1008100082E992E081939193CF010E94A003C601E7
:100820008A960E94EE0382E490E0C80ED91EF6017B
:10083000A192B192819291926192719201931193DE
:10084000F182E0821F910F91FF90EF90DF90CF90A7
:10085000BF90AF909F908F907F906F900895EF9290
:10086000FF920F931F938AEA92E060E970E049E2F9
:1008700050E02BE230E00AE210E0FCE2EF2EF12C37
:100880000E94F70386EF92E068E970E049E950E0E2
:100890002BE930E00AE910E0ECE9EE2EF12C0E94A1
:1008A000F7031F910F91FF90EF90089548E750E0F4
:1008B00050932902409328022CE330E030932B021E
:1008C00020932A0281EE90E090932D0280932C02D7
:1008D00068EC70E070932F0260932E021092570321
:1008E00010925603509331024093300230933302FA
:1008F0002093320282EC91E090933502809334028F
:1009000086E292E090933702809336028AEF90E07D
:10091000909339028093380280ED97E090933B02E8
:1009200080933A0210925903109258031092670371
:10093000109266038CEB92E090933D0280933C0210
:1009400084E090E090933F0280933E0270934102D6
:100950006093400284E195E09093430280934202C9
:1009600008950F9382E493E06AE14BE12CE102E009
:100970000E94110288E493E00E94B4008AE493E0AC
:100980000E94D5008EE493E00E94D50082E593E0BA
:100990000E94D5000F910895CF93DF9381E00E94CC
:1009A0009114EC0182E00E949114AC0120912C0280
:1009B00030912D022817390744F42C173D078CF489
:1009C0001092B9031092B8030CC0821793074CF42D
:1009D0002C173D0734F481E090E09093B9038093A5
:1009E000B803C217D3074CF42417350734F48FEF3C
:1009F0009FEF9093B9038093B803421753072CF5E8
:100A0000C217D30714F5209146023091470237FFF1
:100A10000BC08091480290914902909581959F4F1B
:100A20009093B9038093B8031216130674F480915F
:100A30005603909157032091480230914902820F4A
:100A4000931F9093B9038093B803809146029091CD
:100A500047022091B8033091B90382179307B1F090
:100A60009093BB038093BA033093470220934602CE
:100A70008091C2039091C3039093C5038093C403F4
:100A800081E090E09093C3038093C203DF91CF9104
:100A90000895AF92BF92CF92DF92EF92FF920F93A1
:100AA0001F93CF93DF93C0E0D0E083E00E949114C6
:100AB0007C0184E00E949114A090B003B090B10337
:100AC000C090B203D090B303E80EF91E0027F7FCE4
:100AD0000095102FC801B7010E94A51A9B01AC0117
:100AE000C601B5010E94A2196093B0037093B103CF
:100AF0008093B2039093B3032196CA30D105A9F62F
:100B000020E030E040E251E40E940A1A9B01AC016F
:100B10002093B0033093B1034093B2035093B303D7
:100B2000DF91CF911F910F91FF90EF90DF90CF90C9
:100B3000BF90AF9008950F931F9383E00E9491148C
:100B40008C0184E00E9491149C01200F311FC90187
:100B50001F910F9108958F929F92AF92BF92CF9263
:100B6000DF92EF92FF920F931F93CF93DF935C017D
:100B70004B01EA017901680181E00E9491148C0126
:100B800082E00E9491149C01C817D90744F4C01751
:100B9000D1078CF41092B9031092B8030CC08C17D3
:100BA0009D074CF4C017D10734F481E090E0909396
:100BB000B9038093B8030C171D074CF4C217D30771
:100BC00034F48FEF9FEF9093B9038093B8032C1701
:100BD0003D070CF50C171D07F4F4209146023091E7
:100BE000470237FF0BC080914802909149029095CF
:100BF00081959F4F9093B9038093B8031216130603
:100C000054F480914802909149028C0D9D1D90935F
:100C1000B9038093B80380914602909147024091B6
:100C2000B8035091B90384179507B1F09093BB03B3
:100C30008093BA0350934702409346028091C203C7
:100C40009091C3039093C5038093C40381E090E027
:100C50009093C3038093C203A49E9001A59E300D80
:100C6000B49E300D11243093BD032093BC038091BA
:100C7000BA039091BB03481B590B6091C20370915A
:100C8000C3038091C4039091C503680F791F849EAC
:100C9000C001859E900D949E900D11240E94541CBD
:100CA000AB017093BF036093BE03420F531F509379
:100CB000C1034093C0034E0D5F1D88E493E060E0E4
:100CC00070E00E9489008091C0039091C103E81AEE
:100CD000F90A88E493E061E070E0A7010E948900CE
:100CE0008091C2039091C30301969093C3038093B4
:100CF000C203DF91CF911F910F91FF90EF90DF9092
:100D0000CF90BF90AF909F908F900895AF92BF9279
:100D1000CF92DF92EF92FF920F931F938C017B0192
:100D200044275527481B590B88E493E060E070E0A6
:100D30000E94890088E493E061E070E0A8010E94CD
:100D400089005701CC24B7FCC094DC2C0E944905D3
:100D50007B018C01C601B5010E94A51A9B01AC0163
:100D6000C801B7010E94061A87FDF0CF1F910F91AD
:100D7000FF90EF90DF90CF90BF90AF900895AF922B
:100D8000BF92CF92DF92EF92FF920F931F93CF9378
:100D9000DF9381E00E9491148C0182E00E94911403
:100DA000EC010E9481136093C6037093C703809384
:100DB000C8039093C90382E493E00E94BB0182E4DC
:100DC00093E060E040E00E94AC0182E493E060E0E8
:100DD00071E00E94D51898E5A92E92E0B92E88EA14
:100DE000C82E8DEFD82EEE24EA94FE2C58C081E058
:100DF0000E9491148C0182E00E949114EC01809178
:100E00004A0290914B028A9DA0018B9D500D9A9DA4
:100E1000500D112488E493E060E070E00E948900A6
:100E200080914A0290914B028C9DA0018D9D500DA6
:100E30009C9D500D112488E493E061E070E00E94D5
:100E400089000E9481132091C6033091C70340910D
:100E5000C8035091C903621B730B840B950B20EDE3
:100E600037E040E050E00E94671C61157105810584
:100E70009105A9F480914A0290914B02813091052D
:100E800029F4F0924B02E0924A0209C08F5F9F4F13
:100E900031F481E090E090934B0280934A0280917C
:100EA0002C0290912D020817190724F4C817D907AE
:100EB0000CF49DCF82E493E00E94BF01DF91CF91BB
:100EC0001F910F91FF90EF90DF90CF90BF90AF9068
:100ED00008950F931F9302E413E0C80169E071E0E5
:100EE0000E94D51868EE73E080E090E00E94BC1389
:100EF000C8010E94BF01109267031092660310920E
:100F000059031092580310925B0310925A031092E7
:100F100060031092610310926203109263031092B7
:100F20005C0310925D0310925E0310925F031092B7
:100F30006A0310926B0310926C0310926D03809100
:100F40008E0390918F0390936F0380936E03809133
:100F5000900390919103909371038093700380911B
:100F60009203909193039093730380937203809103
:100F700094039091950390937503809374038091EB
:100F80007A0390917B0390932902809328028091A9
:100F90007C0390917D0390932B0280932A02809191
:100FA0007E0390917F0390932D0280932C02809179
:100FB00080039091810390932F0280932E02809161
:100FC00082039091830390935703809356038091FB
:100FD0008403909185039093310280933002809135
:100FE000860390918703909333028093320280911D
:100FF0008803909189039093350280933402809105
:101000008A0390918B0390933902809338028091E8
:101010008C0390918D0390933B0280933A028091D0
:1010200096039091970390933702809336028091B4
:1010300098039091990390933D0280933C02809194
:101040009A0390919B0390933F0280933E021F91DD
:101050000F91089581E30E94121420E030E088236C
:1010600011F421E030E0C90108950E942A08892B7B
:1010700019F420E030E00EC062E370E080E090E020
:101080000E94BC130E942A0820E030E0892B11F056
:1010900021E030E0C901089582E30E94121420E0AB
:1010A00030E0882311F421E030E0C90108950E9466
:1010B0004C08892B19F420E030E00EC062E370E0A8
:1010C00080E090E00E94BC130E944C0820E030E0D9
:1010D000892B11F021E030E0C90108951F93182FEA
:1010E00061E00E942B14812F0E941214813019F0AC
:1010F00020E030E013C06AE070E080E090E00E9401
:10110000BC13812F61E00E942B14812F0E941214C6
:1011100020E030E0813011F421E030E0C9011F917E
:1011200008956F927F928F929F92AF92BF92CF92CB
:10113000DF92EF92FF920F931F93CF93DF936C0197
:101140003B014A015901E801CB01BA01A90198010B
:1011500087010E94AB050E9481136093B4037093D2
:10116000B5038093B6039093B70388E493E062E0FD
:1011700070E0A6010E94890080E090E00E946E0865
:10118000892BD9F40E9481132091B4033091B503C7
:101190004091B6035091B703621B730B840B950B00
:1011A00060527E448040904040F4C301B401A501E8
:1011B0009E0187010E94AB05DFCFDF91CF911F9188
:1011C0000F91FF90EF90DF90CF90BF90AF909F90E6
:1011D0008F907F906F9008956F927F928F929F92E1
:1011E000AF92BF92CF92DF92EF92FF920F931F9335
:1011F000CF93DF936C013B014A015901E8010E9442
:1012000081136093B4037093B5038093B6039093F6
:10121000B703D094C194D108D39488E493E062E0FA
:1012200070E0A6010E94890068EC70E080E090E028
:101230000E94BC1383E090E00E946E08892BD9F4D1
:101240000E9481132091B4033091B5034091B603FD
:101250005091B703621B730B840B950B60527E4455
:101260008040904040F4C301B401A5019E01870174
:101270000E94AB05DFCFDF91CF911F910F91FF90BF
:10128000EF90DF90CF90BF90AF909F908F907F9026
:101290006F9008952F923F924F925F926F927F923C
:1012A0008F929F92AF92BF92CF92DF92EF92FF9276
:1012B0000F931F93CF93DF93EC016B015A01490108
:1012C000380127010E94EC0828E4222E23E0322E68
:1012D000C10162E070E00E947E00CE01B601A5016E
:1012E00094010E949108C10162E070E00E947E00BA
:1012F000C601B501A401930182010E94AB05DF91F3
:10130000CF911F910F91FF90EF90DF90CF90BF9002
:10131000AF909F908F907F906F905F904F903F9095
:101320002F900895CF93DF93EC0129C086E00E94AF
:1013300091149983888382E493E00E94BF0182E440
:1013400093E00E94BB0182E493E060E040E00E94F1
:10135000AC0182E493E063E171E00E94D5186881FA
:10136000798182E493E00E9499196AE070E080E05C
:1013700090E00E94BC1382E493E00E94BF010E94AF
:101380004C08892B99F206C062E370E080E090E09F
:101390000E94BC130E944C08892BB1F7DF91CF91BA
:1013A00008958F929F92AF92BF92CF92DF92EF9269
:1013B000FF920F931F93CF93DF936C014B015A0160
:1013C00083E00E9491147C0184E00E9491148C01BE
:1013D0006AE070E080E090E00E94BC1382E493E059
:1013E0000E94BF0182E493E00E94BB0182E493E08B
:1013F0006FE171E00E94D51882E493E0B7010E948A
:10140000991982E493E068E040E00E94AC0182E434
:1014100093E063E271E00E94D51882E493E0B801A2
:101420000E94991982E493E060E041E00E94AC01DF
:1014300082E493E067E271E00E94D5186091A00316
:101440007091A10382E493E00E949919E701C01B07
:10145000D10BD093A103C093A0038091A2039091DC
:10146000A3038C179D07B1F09093A5038093A40369
:10147000D093A303C093A2038091AC039091AD03DA
:101480009093AF038093AE0381E090E09093AD031F
:101490008093AC030E0D1F1DB801882777FD809542
:1014A000982F0E94A51A0E940F1C7B018C01CA9DD7
:1014B000B001CB9D700DDA9D700D1124882777FD4A
:1014C0008095982F0E94A51AA80197010E940A1AD8
:1014D0000E94721A9B017093A7036093A6038091E8
:1014E000A4039091A503C81BD90B6091AC03709124
:1014F000AD038091AE039091AF03680F791FC89D33
:10150000C001C99D900DD89D900D11240E94541CBE
:101510007093A9036093A803260F371F3093AB0382
:101520002093AA0382E493E068E041E00E94AC01CA
:1015300082E493E06CE271E00E94D5186091AA0306
:101540007091AB0382E493E00E9499194091AA0341
:101550005091AB034C0D5D1D88E493E060E070E0BA
:101560000E9489008091AA039091AB03C81AD90AFE
:1015700088E493E061E070E0A6010E948900809118
:10158000AC039091AD0301969093AD038093AC03AF
:10159000DF91CF911F910F91FF90EF90DF90CF904F
:1015A000BF90AF909F908F900895AF92BF92CF92CF
:1015B000DF92EF92FF920F931F93CF93DF93EC0193
:1015C00056E0C52ED12CC80ED91E41E0A42EB12C58
:1015D00034E0E32EF12CE80EF91E8C010E5F1F4F54
:1015E0004BC182E493E00E94BB0182E493E060E09F
:1015F00040E00E94AC0182E493E060E371E00E946D
:10160000D51886E00E949114AA2797FDA095BA2FBD
:10161000BC01CD010E94A51A20E030EC4FE754E454
:101620000E940A1A20E030E040E850E40E94A81B23
:101630000E94E01A0E94721A70936503609364031B
:1016400082E493E00E94BB0182E493E060E041E029
:101650000E94AC018091640390916503009709F0AA
:101660003FC082E493E06EE371E00E94D518888168
:10167000998181309105B9F482E493E06FE040E014
:101680000E94AC0182E493E06DE471E00E94D51801
:101690000E942A08892BF9F00E942A08892BE1F779
:1016A0001982188218C0892BB1F482E493E06FE0AC
:1016B00040E00E94AC0182E493E06FE471E00E949C
:1016C000D5180E942A08892B31F00E942A08892BFC
:1016D000E1F7B982A8826CE271E080E090E0C6C0D8
:1016E00081309105E9F582E493E061E571E00E94C3
:1016F000D518F8018081918181309105B9F482E497
:1017000093E06FE040E00E94AC0182E493E06DE47E
:1017100071E00E94D5180E942A08892B09F460C044
:101720000E942A08892BE1F7F8013EC0892B09F0B5
:1017300057C082E493E06FE040E00E94AC0182E495
:1017400093E06FE471E00E94D5180E942A08892B6B
:1017500009F446C00E942A08892BE1F7F8013EC02F
:10176000029709F042C082E493E06EE571E00E94C6
:10177000D518F7018081918181309105C1F482E40F
:1017800093E06FE040E00E94AC0182E493E06DE4FE
:1017900071E00E94D5180E942A08892B09F10E9445
:1017A0002A08892BE1F7F7011182108219C0892BD1
:1017B000B9F482E493E06FE040E00E94AC0182E47F
:1017C00093E06FE471E00E94D5180E942A08892BEB
:1017D00039F00E942A08892BE1F7F701B182A08233
:1017E00064E670E080E090E041C082E493E068E667
:1017F00071E00E94D518F6018081918181309105B8
:10180000C1F482E493E06FE040E00E94AC0182E426
:1018100093E06DE471E00E94D5180E942A08892B9C
:1018200009F10E942A08892BE1F7F6011182108242
:1018300019C0892BB9F482E493E06FE040E00E9484
:10184000AC0182E493E06FE471E00E94D5180E943D
:101850002A08892B39F00E942A08892BE1F7F60122
:10186000B182A0826AE070E080E090E00E94BC1348
:1018700082E493E00E94BF010E944C08892B09F486
:10188000B0CE06C062E370E080E090E00E94BC133E
:101890000E944C08892BB1F7DF91CF911F910F91D6
:1018A000FF90EF90DF90CF90BF90AF9008950F938F
:1018B0001F93CF93DF93EC018C010E5F1F4F56C037
:1018C00086E00E9491149983888387E00E94911496
:1018D000AA2797FDA095BA2FBC01CD010E94A51A99
:1018E00020E030EC4FE754E40E940A1A20E030E098
:1018F00040EA50E40E94A81B0E94E01A0E94721A5B
:10190000F8017183608382E493E00E94BB0182E46A
:1019100093E060E040E00E94AC0182E493E060E785
:1019200071E00E94D5186881798182E493E00E9479
:10193000991982E493E060E041E00E94AC0182E406
:1019400093E067E771E00E94D518F801608171812A
:1019500082E493E00E9499196AE070E080E090E0F0
:101960000E94BC1382E493E00E94BF010E944C08D5
:10197000892B09F4A5CF06C062E370E080E090E017
:101980000E94BC130E944C08892BB1F7DF91CF91C4
:101990001F910F9108950F931F93CF93DF93EC0145
:1019A0008C010E5F1F4F56C086E00E9491149983F0
:1019B000888387E00E949114AA2797FDA095BA2FEB
:1019C000BC01CD010E94A51A20E030EC4FE754E4A1
:1019D0000E940A1A20E030E04AEF54E40E94A81B5B
:1019E0000E94E01A0E94721AF8017183608382E4F7
:1019F00093E00E94BB0182E493E060E040E00E943B
:101A0000AC0182E493E06FE771E00E94D518688131
:101A1000798182E493E00E94991982E493E060E086
:101A200041E00E94AC0182E493E069E871E00E9429
:101A3000D518F8016081718182E493E00E949919C0
:101A40006EE170E080E090E00E94BC1382E493E0DD
:101A50000E94BF010E944C08892B09F4A5CF06C043
:101A600062E370E080E090E00E94BC130E944C08AA
:101A7000892BB1F7DF91CF911F910F910895AF920C
:101A8000BF92CF92DF92EF92FF920F931F93CF936B
:101A9000DF938C01EC0122964AC086E00E949114EB
:101AA000F8019183808387E00E9491149983888351
:101AB00082E493E00E94BB0182E493E060E040E0B6
:101AC0000E94AC0182E493E065E971E00E94D518C0
:101AD00082E493E060E041E00E94AC0182E493E0A4
:101AE00061EB71E00E94D518F8016081718182E498
:101AF00093E00E94991982E493E068E041E00E943B
:101B0000AC0182E493E065EB71E00E94D518688136
:101B1000798182E493E00E9499196AE070E080E0A4
:101B200090E00E94BC1382E493E00E94BF010E94F7
:101B30004C08892B09F4B1CF06C062E370E080E065
:101B400090E00E94BC130E944C08892BB1F74BC057
:101B500083E00E9491147C0184E00E9491146C0146
:101B600086E00E949114998388838D5B924014F0E3
:101B7000B982A88282E493E060E040E00E94AC0178
:101B800082E493E06FE171E00E94D51882E493E073
:101B9000B7010E94991982E493E063E271E00E9428
:101BA000D51882E493E0B6010E94991982E493E08B
:101BB00060E041E00E94AC0182E493E069EB71E0F7
:101BC0000E94D5186881798182E493E00E94991976
:101BD0006AE070E080E090E00E94BC1382E493E051
:101BE0000E94BF0106C0E80124967CEBA72E72E09C
:101BF000B72E0E944C08892B09F4AACF06C062E3D5
:101C000070E080E090E00E94BC130E944C08892B99
:101C1000B1F757C086E00E949114F7019183808349
:101C200087E00E949114AA2797FDA095BA2FBC01C6
:101C3000CD010E94A51A20E030EC4FE754E40E9449
:101C40000A1A20E030E04AEF54E40E94A81B0E94E8
:101C5000E01A0E94721A7983688382E493E00E94FA
:101C6000BB0182E493E060E040E00E94AC0182E4CA
:101C700093E061EC71E00E94D518F70160817181F9
:101C800082E493E00E94991982E493E060E041E0ED
:101C90000E94AC0182E493E069EC71E00E94D518E7
:101CA0006881798182E493E00E9499196EE170E085
:101CB00080E090E00E94BC1382E493E00E94BF01A8
:101CC00007C066E0E62EF12CE00EF11EE801289632
:101CD0000E944C08892B09F49DCF06C062E370E096
:101CE00080E090E00E94BC130E944C08892BB1F761
:101CF000DF91CF911F910F91FF90EF90DF90CF90E8
:101D0000BF90AF900895CF92DF92EF92FF920F9322
:101D10001F93CF93DF936C01EC0122964AC086E0BB
:101D20000E949114F6019183808387E00E949114B0
:101D30009983888382E493E00E94BB0182E493E06C
:101D400060E040E00E94AC0182E493E06FEC71E05F
:101D50000E94D51882E493E060E041E00E94AC016B
:101D600082E493E061EB71E00E94D518F601608196
:101D7000718182E493E00E94991982E493E068E023
:101D800041E00E94AC0182E493E065EB71E00E94C7
:101D9000D5186881798182E493E00E9499196AE0FC
:101DA00070E080E090E00E94BC1382E493E00E9427
:101DB000BF010E944C08892B09F4B1CF06C062E331
:101DC00070E080E090E00E94BC130E944C08892BD8
:101DD000B1F746C081E00E9491148C0182E00E941C
:101DE00091147C0186E00E9491149983888382E497
:101DF00093E060E041E00E94AC0182E493E06BED8F
:101E000071E00E94D5186881798182E493E00E9494
:101E1000991982E493E060E040E00E94AC0182E422
:101E200093E06FE171E00E94D51882E493E0B8017D
:101E30000E94991982E493E067EE71E00E94D51840
:101E400082E493E0B7010E94991964E670E080E0B3
:101E500090E00E94BC1382E493E00E94BF0102C0A4
:101E6000E60124960E944C08892B09F4B3CF06C0E2
:101E700062E370E080E090E00E94BC130E944C0896
:101E8000892BB1F75AC086E00E9491149983888308
:101E900087E00E949114AA2797FDA095BA2FBC0154
:101EA000CD010E94A51A20E030EC4FE754E40E94D7
:101EB0000A1A20E030E040EA50E40E94A81B0E9489
:101EC000E01A0E94721AF6017183608388819981F9
:101ED0008D5B924014F01983088382E493E060E004
:101EE00040E00E94AC0182E493E069EB71E00E9463
:101EF000D5186881798182E493E00E94991982E47F
:101F000093E060E041E00E94AC0182E493E06CEE7B
:101F100071E00E94D518F6016081718182E493E03E
:101F20000E9499196AE070E080E090E00E94BC1382
:101F300082E493E00E94BF0108C0E601269688E093
:101F400090E0C80ED91E0CEB12E00E944C08892BC1
:101F500009F499CF06C062E370E080E090E00E944F
:101F6000BC130E944C08892BB1F7DF91CF911F91D0
:101F70000F91FF90EF90DF90CF900895EF92FF9236
:101F80000F931F93CF93DF9380914402909145026A
:101F9000019709F054C18EE893E00E94D50A809120
:101FA0008E0390918F0390936F0380936E038091C3
:101FB00090039091910390937103809370038091AB
:101FC0009203909193039093730380937203809193
:101FD000940390919503909375038093740382E426
:101FE00093E00E94BB0182E493E060E040E00E9445
:101FF000AC0182E493E064EF71E00E94D51864E1E3
:1020000070E080E090E00E94BC1382E493E00E94C4
:10201000BF010E944C08892B49F081E090E0909329
:102020006903809368030E94560408C00E942A082E
:10203000892BA9F210926903109268030E944C0840
:10204000892B29F40E942A08892B09F4ECC262E347
:1020500070E080E090E00E94BC13F0CF80916E03AE
:1020600090916F03019761F58AE793E00E94830ED8
:1020700080917A0390917B039093290280932802A8
:1020800080917C0390917D0390932B0280932A0290
:1020900080917E0390917F0390932D0280932C0278
:1020A000809180039091810390932F0280932E0260
:1020B00080918203909183039093570380935603FA
:1020C0008091700390917103019761F486E993E028
:1020D0000E94920980919603909197039093370202
:1020E000809336028091720390917303019761F59A
:1020F00084E893E00E943F0D8091840390918503D2
:1021000090933102809330028091860390918703EF
:1021100090933302809332028091880390918903D7
:10212000909335028093340280918A0390918B03BF
:10213000909339028093380280918C0390918D03A3
:1021400090933B0280933A028091740390917503BF
:102150000197A1F488E993E00E94570C80919803BD
:102160009091990390933D0280933C0280919A0351
:1021700090919B0390933F0280933E028091740361
:1021800090917503019709F05AC080917203909164
:102190007303019709F053C08CE993E00E94CB0CC4
:1021A00080919C0390919D03909341028093400203
:1021B00080919E0390919F039093430280934202EB
:1021C0003EC081E00E949114909377038093760340
:1021D00082E00E949114909379038093780382E4C3
:1021E00093E00E94BF0182E493E00E94BB0182E47D
:1021F00093E06FE171E00E94D518609176037091D1
:10220000770382E493E00E94991982E493E060E00E
:1022100041E00E94AC0182E493E063E271E00E943D
:10222000D518609178037091790382E493E00E945D
:10223000991964E170E080E090E00E94BC130E9474
:102240005708892B09F4BDCF88C180916E03909106
:102250006F030197E1F460912A0270912B02409183
:102260002C0250912D0220915803309159038091F6
:102270002E0290912F02280F391F009156031091C2
:10228000570380912802909129020E94AB058FB7D5
:10229000F894969A8FBF8091700390917103019783
:1022A00009F0A2C086E00E941214813009F09CC09F
:1022B000409158035091590380912E0290912F0222
:1022C000481B590B88E493E060E070E00E948900AD
:1022D000409158035091590380912E0290912F0202
:1022E000481B590B88E493E061E070E00E9489008C
:1022F0000E94811360936A0370936B0380936C0355
:1023000090936D030E94CC0482E493E064E072E059
:102310000E94D5180E94811320916A0330916B03AB
:1023200040916C0350916D03621B730B840B950BF2
:10233000645F71408040904068F30E94CC0482E466
:1023400093E00E94BF0188E493E060E070E00E94A7
:102350007E0088E493E061E070E00E947E0060917E
:1023600028027091290240912A0250912B0220915B
:102370002C0230912D020091580310915903809145
:102380002E0290912F02080F191FE0905603F09033
:10239000570380913602909137020E944A0980913A
:1023A0006603909167030196909367038093660399
:1023B000019751F40E94811360936003709361034D
:1023C0008093620390936303809166039091670307
:1023D000029751F40E94811360935C0370935D0334
:1023E00080935E0390935F032091660330916703AF
:1023F00021303105F9F480915803909159038436C6
:102400009105C4F40E94811320916003309161030F
:102410004091620350916303621B730B840B950B15
:102420006C5A7D408040904030F1D0935903C09366
:10243000580321C022303105F1F480915803909166
:10244000590318161906BCF40E94811320915C03ED
:1024500030915D0340915E0350915F03621B730BEB
:10246000840B950B6C5A7D408040904020F0109278
:10247000590310925803809172039091730301974E
:1024800009F50E949B05209138023091390282178C
:102490009307C4F08091660390916703039794F0CB
:1024A00010926F0310926E036091300270913102AE
:1024B0004091320250913302809134029091350262
:1024C0000E94D10900917403109175030130110528
:1024D00049F5209166033091670380913E02909107
:1024E0003F0228173907F1F410927103109270031C
:1024F000609140027091410280913C0290913D02B6
:102500000E94860680914002909141029093390288
:102510008093380210935B0300935A031092750363
:102520001092740300915A0310915B03013011055E
:10253000B1F40E949B05209142023091430228177A
:1025400039076CF4109273031092720310936F03A7
:1025500000936E030E94BF0602C0C4E6D0E00E9452
:102560003508892B09F471CE12C088E493E060E04D
:1025700070E00E947E0088E493E061E070E00E94D9
:102580007E0062E370E080E090E00E94BC130E9455
:102590002A08892B51F782E493E00E94BB0182E470
:1025A00093E060E040E00E94AC0182E493E06CE0E4
:1025B00072E00E94D51882E493E060E041E00E945E
:1025C000AC0182E493E06BE172E00E94D5186AE00E
:1025D00070E080E090E00E94BC1382E493E00E94EF
:1025E000BF010E944C08892B29F0109245021092DD
:1025F00044020AC00E942A08892B69F281E090E017
:1026000090934502809344020E944C08892B21F448
:102610000E942A08892B79F062E370E080E090E064
:102620000E94BC13F1CF8091680390916903892BBC
:1026300009F414CD04CE0E946907DF91CF911F9158
:102640000F91FF90EF90089580E060E00E945B148E
:1026500081E060E00E945B1480E060E00E94E21391
:1026600083E060E00E94E21386E060E00E94E213F3
:1026700008951F920F920FB60F9211242F933F933C
:102680008F939F93AF93BF938091CE039091CF038D
:10269000A091D003B091D1033091D2030196A11D36
:1026A000B11D232F2D5F2D3720F02D570196A11D31
:1026B000B11D2093D2038093CE039093CF03A093B8
:1026C000D003B093D1038091CA039091CB03A09122
:1026D000CC03B091CD030196A11DB11D8093CA0317
:1026E0009093CB03A093CC03B093CD03BF91AF9154
:1026F0009F918F913F912F910F900FBE0F901F9040
:1027000018958FB7F8942091CE033091CF03409164
:10271000D0035091D1038FBFB901CA0108956FB79B
:10272000F8942091CA033091CB034091CC0350918F
:10273000CD0382B790E0A0E0B0E006B600FE09C08D
:102740008F3F9105A105B10521F02F5F3F4F4F4FFE
:102750005F4F6FBF542F432F322F2227280F391F6F
:102760004A1F5B1F82E0220F331F441F551F8A95AB
:10277000D1F7B901CA010895EF92FF920F931F9309
:10278000CF93DF937B018C010E948F13EB010EC06E
:102790000E948F136C1B7D0B685E7340C8F3089416
:1027A000E108F10801091109C851DC4FE114F104F5
:1027B0000105110569F7DF91CF911F910F91FF90EE
:1027C000EF900895E82FE695E695E695A82FB0E0FE
:1027D000613099F42FB7F894F0E0EE0FFF1FE65A3E
:1027E000FD4F0190F081E02D9081A770B070A4564C
:1027F000BD4F8C91982B908313C02FB7F894F0E0C5
:10280000EE0FFF1FE65AFD4F0190F081E02D908101
:10281000A770B070A456BD4F8C918095892380839A
:102820002FBF0895A82FE82FE695E695E695F0E0EE
:10283000EE0FFF1FE859FD4F0190F081E02DE08180
:10284000B0E0A770B070A456BD4F8C91E82309F09A
:10285000E1E08E2F0895E82FE695E695E695A82FFE
:10286000B0E0613099F42FB7F894F0E0EE0FFF1F5D
:10287000E45BFD4F0190F081E02D9081A770B07076
:10288000A456BD4F8C91982B908313C02FB7F8940A
:10289000F0E0EE0FFF1FE45BFD4F0190F081E02DB3
:1028A0009081A770B070A456BD4F8C9180958923FC
:1028B00080832FBF0895E82FF0E0613051F4EE0FD0
:1028C000FF1FE65AFD4F0190F081E02D8FEF8083CE
:1028D0000895EE0FFF1FE65AFD4F0190F081E02DA5
:1028E00010820895E82FF0E0EE0FFF1FE859FD4F2A
:1028F0000190F081E02D80810895E82FF0E0EE0F47
:10290000FF1FE45BFD4F0190F081E02D608308958F
:10291000109261001092620080E487B987EE86B958
:1029200008951F93182F80917602813021F40E9420
:1029300088141092760280917702181721F4349A45
:10294000349BFECF0DC01093770287B11770807E45
:10295000812B87B9349A349BFECF349A349BFECFB7
:1029600024B135B1C9011F91089593B7987F982B71
:1029700093BF08959EB5987F982B9EBD089583E0E0
:102980000E94BA141DBC1CBC87B7846087BF089521
:10299000EAE8F0E09081987F982B9083089583E097
:1029A0000E94C8141092890010928800EDE7F0E0B0
:1029B0008081846080830895893031F48FB582608E
:1029C0008FBD8FB58E7F0AC08A3019F48FB58260B3
:1029D00002C08FB58D7F8FBD8FB581608FBD1BBC51
:1029E0001ABC19BC18BC1092790010927800089596
:1029F0008FB580688FBD8FB58F7B8FBD08958FB5E4
:102A000080628FBD8FB58F7E8FBD08958FB5886032
:102A10008FBD8FB58B7F8FBD08959BBD8ABD0895F7
:102A200099BD88BD089590937900809378000895AA
:102A3000893049F480918B00826080938B00809173
:102A40008B008E7F0EC08A3021F480918B008260D3
:102A500003C080918B008D7F80938B0080918B00D1
:102A6000816080938B0010928700109286001092F4
:102A700085001092840010928300109282000895C5
:102A8000EBE8F0E080818068808380818F7B8083A9
:102A90000895EBE8F0E080818062808380818F7E02
:102AA00080830895EBE8F0E08081886080838081F6
:102AB0008B7F80830895853019F40E94F81408955F
:102AC000843019F40E94FF140895833019F40E9491
:102AD00006150895823019F40E944015089581303A
:102AE00019F40E9449150895882311F40E94521583
:102AF00008959093870080938600089590938500B1
:102B000080938400089590938300809382000895B9
:102B1000EF92FF921F93CF93DF93182F7B018D319C
:102B2000B0F08F3111F413E014C08E3111F414E0C1
:102B300010C08D3109F49BC0853211F410E03DC006
:102B4000843211F411E039C0833219F48EC083301D
:102B5000A0F18091D30386FD0BC00E94BF1478942E
:102B60008AE00E94DC148091D30380648093D303B5
:102B70008091D303C12FD0E090E0012E02C0959543
:102B800087950A94E2F780FD4CC087B3FE01EC55AF
:102B9000FD4F9081892B87BB812F0E945B1520916F
:102BA000D30381E090E0012E02C0880F991F0A94A0
:102BB000E2F7282B2093D30334C08091D30387FD01
:102BC0000BC00E94CF1478948AE00E94181580915F
:102BD000D30380688093D3038091D303C12FD0E0C7
:102BE00090E0012E02C0959587950A94E2F780FD4A
:102BF00024C082B1FE01EC55FD4F9081892B82B932
:102C0000812F0E945B152091D30381E090E0012E7B
:102C100002C0880F991F0A94E2F7282B2093D30350
:102C20000CC0153021F4C7010E940D1522C01430CC
:102C300021F4C7010E9410151CC0133021F4C701F4
:102C40000E94131516C0123021F4C7010E94791595
:102C500010C0113021F4C7010E947E150AC0112353
:102C600041F4C7010E94831504C012E0A6CF15E00D
:102C700070CFDF91CF911F91FF90EF9008951F9239
:102C80000F920FB60F920BB60F9211242F933F9312
:102C90004F935F936F937F938F939F93AF93BF9364
:102CA000EF93FF938091DA039091DB03892B29F056
:102CB000E091DA03F091DB030995FF91EF91BF9169
:102CC000AF919F918F917F916F915F914F913F91C4
:102CD0002F910F900BBE0F900FBE0F901F90189565
:102CE0001F920F920FB60F920BB60F9211242F93D3
:102CF0003F934F935F936F937F938F939F93AF9384
:102D0000BF93EF93FF938091E4039091E503892BA8
:102D100029F0E091E403F091E5030995FF91EF912B
:102D2000BF91AF919F918F917F916F915F914F91E3
:102D30003F912F910F900BBE0F900FBE0F901F90E1
:102D400018951F920F920FB60F920BB60F92112487
:102D50002F933F934F935F936F937F938F939F93A3
:102D6000AF93BF93EF93FF938091EA039091EB03AE
:102D7000892B29F0E091EA03F091EB030995FF918B
:102D8000EF91BF91AF919F918F917F916F915F91E3
:102D90004F913F912F910F900BBE0F900FBE0F9050
:102DA0001F9018951F920F920FB60F920BB60F92AD
:102DB00011242F933F934F935F936F937F938F9340
:102DC0009F93AF93BF93EF93FF938091D60390911E
:102DD000D703892B29F0E091D603F091D703099509
:102DE000FF91EF91BF91AF919F918F917F916F91E3
:102DF0005F914F913F912F910F900BBE0F900FBE9F
:102E00000F901F9018951F920F920FB60F920BB64E
:102E10000F9211242F933F934F935F936F937F9360
:102E20008F939F93AF93BF93EF93FF938091DC03B6
:102E30009091DD03892B29F0E091DC03F091DD0313
:102E40000995FF91EF91BF91AF919F918F917F91E4
:102E50006F915F914F913F912F910F900BBE0F900B
:102E60000FBE0F901F9018951F920F920FB60F92E2
:102E70000BB60F9211242F933F934F935F936F9351
:102E80007F938F939F93AF93BF93EF93FF93809123
:102E9000DE039091DF03892B29F0E091DE03F091AE
:102EA000DF030995FF91EF91BF91AF919F918F91B2
:102EB0007F916F915F914F913F912F910F900BBE3A
:102EC0000F900FBE0F901F9018951F920F920FB684
:102ED0000F920BB60F9211242F933F934F935F9352
:102EE0006F937F938F939F93AF93BF93EF93FF93D2
:102EF0008091E0039091E103892B29F0E091E003B8
:102F0000F091E1030995FF91EF91BF91AF919F91EE
:102F10008F917F916F915F914F913F912F910F9082
:102F20000BBE0F900FBE0F901F9018951F920F921F
:102F30000FB60F920BB60F9211242F933F934F931E
:102F40005F936F937F938F939F93AF93BF93EF9311
:102F5000FF938091E2039091E303892B29F0E091A4
:102F6000E203F091E3030995FF91EF91BF91AF91D7
:102F70009F918F917F916F915F914F913F912F9191
:102F80000F900BBE0F900FBE0F901F9018951F92C1
:102F90000F920FB60F920BB60F9211242F933F93FF
:102FA0004F935F936F937F938F939F93AF93BF9351
:102FB000EF93FF938091E6039091E703892B29F02B
:102FC000E091E603F091E7030995FF91EF91BF913E
:102FD000AF919F918F917F916F915F914F913F91B1
:102FE0002F910F900BBE0F900FBE0F901F90189552
:102FF0001F920F920FB60F920BB60F9211242F93C0
:103000003F934F935F936F937F938F939F93AF9370
:10301000BF93EF93FF938091EC039091ED03892B85
:1030200029F0E091EC03F091ED030995FF91EF9108
:10303000BF91AF919F918F917F916F915F914F91D0
:103040003F912F910F900BBE0F900FBE0F901F90CE
:1030500018951F920F920FB60F920BB60F92112474
:103060002F933F934F935F936F937F938F939F9390
:10307000AF93BF93EF93FF938091EE039091EF0393
:10308000892B29F0E091EE03F091EF030995FF9170
:10309000EF91BF91AF919F918F917F916F915F91D0
:1030A0004F913F912F910F900BBE0F900FBE0F903D
:1030B0001F9018951F920F920FB60F920BB60F929A
:1030C00011242F933F934F935F936F937F938F932D
:1030D0009F93AF93BF93EF93FF938091F0039091F1
:1030E000F103892B29F0E091F003F091F1030995A8
:1030F000FF91EF91BF91AF919F918F917F916F91D0
:103100005F914F913F912F910F900BBE0F900FBE8B
:103110000F901F9018951F920F920FB60F920BB63B
:103120000F9211242F933F934F935F936F937F934D
:103130008F939F93AF93BF93EF93FF938091F2038D
:103140009091F303892B29F0E091F203F091F303BE
:103150000995FF91EF91BF91AF919F918F917F91D1
:103160006F915F914F913F912F910F900BBE0F90F8
:103170000FBE0F901F90189583E061E00E945B14D2
:1031800084E061E00E945B1478940E9424130E9402
:10319000BE0FFDCFDC01ED91FC910190F081E02D9F
:1031A000099508950E94CA1808950F931F93CF930D
:1031B000DF938C01EB0104C02196C8010E94D21854
:1031C00068816623C9F7DF91CF911F910F91089510
:1031D0002F923F924F925F926F927F928F929F9227
:1031E000AF92BF92CF92DF92EF92FF920F931F9315
:1031F000DF93CF93CDB7DEB7A0970FB6F894DEBFBD
:103200000FBECDBF1C016A017B014115510561054F
:10321000710521F460E30E94D2184FC088249924DC
:103220005401422E55246624772401E010E00C0F4F
:103230001D1F080D191DC701B601A30192010E94AF
:10324000671CF80160830894811C911CA11CB11CAF
:10325000C701B601A30192010E94671CC901DA01EE
:103260006C017D01C114D104E104F104F1F681E0A7
:10327000E82EF12CEC0EFD1EE80CF91C3E01089422
:10328000611C711CD501C4010197A109B1096C0130
:10329000C818D9080FC0F601EE0DFF1D60816A3015
:1032A00010F4605D01C0695CC1010E94D2180894ED
:1032B000E108F1086E147F0471F7A0960FB6F89438
:1032C000DEBF0FBECDBFCF91DF911F910F91FF9059
:1032D000EF90DF90CF90BF90AF909F908F907F90B6
:1032E0006F905F904F903F902F900895EF92FF92D4
:1032F0000F931F93CF93DF93EC017A018B0177FF3C
:103300000BC06DE20E94D21810950095F094E094E5
:10331000E11CF11C011D111DCE01B801A7012AE01D
:103320000E94E818DF91CF911F910F91FF90EF90CD
:103330000895AB01662757FD6095762F0E94761998
:1033400008955058BB27AA270ED0B1C1A2D130F0A2
:10335000A7D120F031F49F3F11F41EF497C10EF471
:10336000E095E7FB64C1E92FB3D180F3BA17620798
:1033700073078407950718F071F49EF5E2C10EF407
:10338000E0950B2EBA2FA02D0B01B90190010C0175
:10339000CA01A0011124FF27591B99F0593F50F48D
:1033A000503E68F11A16F040A22F232F342F4427E5
:1033B000585FF3CF469537952795A795F0405395DD
:1033C000C9F77EF41F16BA0B620B730B840BBAF0AD
:1033D0009150A1F0FF0FBB1F661F771F881FC2F718
:1033E0000EC0BA0F621F731F841F48F4879577952C
:1033F0006795B795F7959E3F08F0B3CF9395880FE3
:1034000008F09927EE0F979587950895ECD008F46A
:1034100081E008950CD04BC143D140F03AD130F057
:1034200021F45F3F19F003C151118CC12FC150D15C
:1034300098F39923C9F35523B1F3951B550BBB277B
:10344000AA2762177307840738F09F5F5F4F220F28
:10345000331F441FAA1FA9F333D00E2E3AF0E0E821
:1034600030D091505040E695001CCAF729D0FE2F6D
:1034700027D0660F771F881FBB1F261737074807FF
:10348000AB07B0E809F0BB0B802DBF01FF279358B5
:103490005F4F2AF09E3F510568F0C9C053C15F3F9E
:1034A000ECF3983EDCF3869577956795B795F7959D
:1034B0009F5FC9F7880F911D9695879597F9089595
:1034C000E1E0660F771F881FBB1F62177307840731
:1034D000BA0720F0621B730B840BBA0BEE1F88F740
:1034E000E095089504D06894B1112CC10895F8D0E6
:1034F00088F09F5790F0B92F9927B751A0F0D1F0DD
:10350000660F771F881F991F1AF0BA95C9F712C066
:10351000B13081F016D1B1E0089513C1672F782F33
:103520008827B85F39F0B93FCCF3869577956795D2
:10353000B395D9F73EF490958095709561957F4F3E
:103540008F4F9F4F0895E89409C097FB3EF49095E4
:103550008095709561957F4F8F4F9F4F9923A9F06C
:10356000F92F96E9BB279395F695879577956795FB
:10357000B795F111F8CFFAF4BB0F11F460FF1BC03F
:103580006F5F7F4F8F4F9F4F16C0882311F096E9D2
:1035900011C0772321F09EE8872F762F05C0662380
:1035A00071F096E8862F70E060E02AF09A95660F39
:1035B000771F881FDAF7880F9695879597F90895F2
:1035C000A9D080F09F3740F491110EF0BBC060E0AD
:1035D00070E080E89FEB089526F41B16611D711DB5
:1035E000811D2BC045C0990F0008550FAA0BE0E8BC
:1035F000FEEF16161706E807F907C0F012161306B5
:10360000E407F50798F0621B730B840B950B39F4F4
:103610000A2661F0232B242B252B21F408950A265A
:1036200009F4A140A6958FEF811D811D089597F99A
:103630009F6780E870E060E00895882371F4772345
:1036400021F09850872B762F07C0662311F4992715
:103650000DC09051862B70E060E02AF09A95660FBD
:10366000771F881FDAF7880F9695879597F9089541
:103670009F3F31F0915020F4879577956795B795E6
:10368000880F911D9695879597F908959FEF80EC87
:10369000089500240A9416161706180609060895B8
:1036A00000240A9412161306140605060895092E1E
:1036B0000394000C11F4882352F0BB0F40F4BF2B8D
:1036C00011F460FF04C06F5F7F4F8F4F9F4F0895CD
:1036D00057FD9058440F551F59F05F3F71F04795C3
:1036E000880F97FB991F61F09F3F79F087950895A8
:1036F000121613061406551FF2CF4695F1DF08C0C7
:10370000161617061806991FF1CF869571056105E3
:1037100008940895E5DFA0F0BEE7B91788F4BB2749
:103720009F3860F41616B11D672F782F8827985F91
:10373000F7CF869577956795B11D93959639C8F320
:103740000895E894BB2766277727CB0197F908955A
:103750000BD0ADCF9EDF28F0A3DF18F0952309F042
:1037600066CF94CF1124EECFB3DFA0F3959FD1F3B2
:10377000950F50E0551F629FF001729FBB27F00D1F
:10378000B11D639FAA27F00DB11DAA1F649F662774
:10379000B00DA11D661F829F2227B00DA11D621FC3
:1037A000739FB00DA11D621F839FA00D611D221F7D
:1037B000749F3327A00D611D231F849F600D211D61
:1037C000822F762F6A2F11249F5750408AF0E1F004
:1037D00088234AF0EE0FFF1FBB1F661F771F881F4D
:1037E00091505040A9F79E3F510570F020CFAACFCD
:1037F0005F3FECF3983EDCF3869577956795B79538
:10380000F795E7959F5FC1F7FE2B880F911D969561
:10381000879597F9089511F40EF438CF29CF60DF1A
:10382000D0F39923D9F3CEF39F57550B87FF35D0AB
:103830000024A0E640EA900180585695979528F418
:10384000805C660F771F881F20F026173707480710
:1038500030F4621B730B840B202931294A2BA69567
:1038600017940794202531254A2758F7660F771FAC
:10387000881F20F026173707480730F4620B730BB8
:10388000840B200D311D411DA09581F7B901842FB6
:103890009158880F96958795089591505040660FDE
:1038A000771F881FD2F7089597FB092E07260AD0A5
:1038B00077FD04D02ED006D000201AF470956195C3
:1038C0007F4F0895F6F7909581959F4F0895A1E257
:1038D0001A2EAA1BBB1BFD010DC0AA1FBB1FEE1F8A
:1038E000FF1FA217B307E407F50720F0A21BB30BD5
:1038F000E40BF50B661F771F881F991F1A9469F751
:1039000060957095809590959B01AC01BD01CF01AC
:103910000895AA1BBB1B51E107C0AA1FBB1FA61716
:10392000B70710F0A61BB70B881F991F5A95A9F768
:1039300080959095BC01CD010895EE0FFF1F059075
:0A394000F491E02D0994F894FFCFF4
:10394A005357454550494E470052455345545449EB
:10395A004E470041524D2053504545443A20004CB1
:10396A003A2000523A200045523A200050443A0088
:10397A005748415420544F20544553543F005461F2
:10398A00706520466F6C6C6F77696E67002A00203D
:10399A000041727469666163742041726D00495214
:1039AA002053656E736F7200474F20484F4D450094
:1039BA005475726E3A2000436F756E743A20004C4B
:1039CA00454156494E473A20004F464620524F43FA
:1039DA004B533A200054756E696E67205049442053
:1039EA00666F7220495220646574656374696F6EEC
:1039FA0000503A2000443A200053504545443A20AA
:103A0A0000424547494E3A2000454E443A20005468
:103A1A004150452054554E494E47005468726573CB
:103A2A00686F6C643A200020523A200044454C5496
:103A3A00413A200044454641554C542056414C5584
:103A4A0045533F004241434B205550005354415285
:103A5A00543A20474F20534F46540053544F503A3C
:103A6A0020524554554E450078003C007800C80065
:103A7A0078003C00900126028200D00790010400E1
:103A8A00C8001405010005000500010032003500D8
:103A9A003B003800230062006500310034003A0020
:103AAA00370022006100640030003300390036001C
:103ABA0021002000630001FF1800190026002700DA
:103ACA00050004000100000000000000650100007C
:103ADA000000CD032002820367039C03010204084D
:0A3AEA0010204080201008804020CA
:00000001FF
