:100000000C9449000C947D000C947D000C947D00B0
:100010000C947D000C947D000C947D000C947D006C
:100020000C947D000C94621A0C940B190C94311AE8
:100030000C949E190C94CF190C94DA180C946D1929
:100040000C94D4150C947D000C9479020C94080344
:100050000C947D000C947D000C947D000C947D002C
:100060000C94001A0C94261B0C94931A0C94C41A2A
:100070000C94F51A0C943C190C944A020C94C1028D
:100080000C947D000C947D000C947D0030045A0586
:10009000530511241FBECFEFD0E1DEBFCDBF88E4F2
:1000A00083BF84E00E94501712BE87B7816087BF6C
:1000B000789413E0A0E0B1E0E4E0F2E400E00BBFEC
:1000C00002C007900D92A633B107D9F714E0A6E35A
:1000D000B3E001C01D92A23FB107E1F710E0C0E913
:1000E000D0E004C02297FE010E94DF1FCC38D10768
:1000F000C9F70E94571B0C94F5200C940000FB01DB
:10010000EE0FFF1FED5FFC4F808160E070E00E940A
:10011000231808950F931F93CF93DF93EB018A0168
:10012000CC0FDD1F57FD0CC0FE01E550FD4F808157
:1001300061E00E94C616CD5FDC4F8881B8010EC019
:10014000FE01E550FD4F808160E00E94C616CD5F44
:10015000DC4F66277727601B710B88810E9423186C
:10016000DF91CF911F910F9108951F93CF93DF934C
:10017000C0E0D0E0FE01E550FD4F1081812F61E02D
:100180000E947D16812F61E00E94C616FE01ED5F80
:10019000FC4F808160E070E00E9423182296C830F6
:1001A000D10541F7DF91CF911F910895FC01108295
:1001B0008AE090E0938382830895CF93DF93EC01EC
:1001C0008A8160E00E94C6168D8160E00E94F6166A
:1001D0008D8160E00E9418178B8161E00E94C61635
:1001E0008C8161E00E94C6160000000010C08C8166
:1001F00060E00E94C61600000000000000008C8134
:1002000061E00E94C61600000000000000008D8121
:100210000E940D1787FDEBCF8C8160E00E94C6160F
:10022000DF91CF910895FF920F931F938C01F62ECB
:100230000E94DD00F801828161E00E94C616F8018B
:10024000838160E00E94C616F801848161E00E940B
:10025000C616F801858161E00E94F616F8018581D5
:100260006F2D0E9418170000000000000000F80128
:10027000848160E00E94C616F801858160E00E94DA
:10028000F616F80185816FEF0E9418171F910F91E4
:10029000FF900895EF92FF920F931F93CF93DF93F8
:1002A0007C01042F6115710551F0EB0110E005C0D0
:1002B000C70169910E9413011F5F1017C8F3DF91F6
:1002C000CF911F910F91FF90EF900895DF93CF93FF
:1002D0000F92CDB7DEB76983BE016F5F7F4F41E0FC
:1002E0000E944A010F90CF91DF910895FF920F93E2
:1002F0001F938C01F62E0E94DD00F801828160E0E0
:100300000E94C616F801838160E00E94C616F801BB
:10031000848161E00E94C616F801858161E00E9437
:10032000F616F80185816F2D0E9418170000000055
:1003300000000000F801848160E00E94C616F80108
:10034000858160E00E94F616F80185816FEF0E94BA
:1003500018171F910F91FF900895423031F04330EC
:1003600031F0413029F4605C03C06C5E01C06C5A0E
:1003700060680E947601089562E00E947601089507
:1003800061E00E94760108950F931F938C01FC0198
:10039000828160E00E94C616F801838160E00E94BD
:1003A000C616F801848160E00E94C616F8018281B9
:1003B00061E00E947D16F801838161E00E947D1654
:1003C000F801848161E00E947D16F801858160E07A
:1003D0000E94F616F80185816FEF0E9418171F9191
:1003E0000F9108950F931F938C010E94C401C801BF
:1003F00068E30E947601C80161E00E947601C801AD
:1004000066E00E947601C8016CE00E947601C80196
:1004100062E00E947601C80160E80E9476011F91A7
:100420000F9108950F93FC018FE093E091838083F7
:100430006283438324830583CF010E94F2010F91DD
:100440000895FC0124813581C9010895DC01FC0176
:1004500082819381809714F080E00895FD0182816C
:10046000938101969383828384819581E80FF91F9C
:1004700060870196FD01958384832D913C911197AE
:100480008217930714F481E00895FD011582148208
:1004900081E008951F920F920FB60F920BB60F9244
:1004A00011242F933F934F935F936F937F938F9379
:1004B0009F93AF93BF93EF93FF93E091CC03F091A1
:1004C000CD03608184E893E00E942602FF91EF91C2
:1004D000BF91AF919F918F917F916F915F914F915C
:1004E0003F912F910F900BBE0F900FBE0F901F905A
:1004F00018951F920F920FB60F920BB60F92112400
:100500002F933F934F935F936F937F938F939F931B
:10051000AF93BF93EF93FF93E0918003F09181033A
:10052000608188E393E00E942602FF91EF91BF91E2
:10053000AF919F918F917F916F915F914F913F917B
:100540002F910F900BBE0F900FBE0F901F9018951C
:10055000DC01FC01828193810197938382838681F0
:100560009781E80FF91F40850196FD0197838683E7
:100570002D913C918217930714F017821682842FD5
:1005800008951F920F920FB60F920BB60F9211247F
:100590000F931F932F933F934F935F936F937F938B
:1005A0008F939F93AF93BF93EF93FF938091AE038D
:1005B0009091AF031816190654F40091CC031091D2
:1005C000CD038CEA93E00E94A802F8018083809119
:1005D000AE039091AF03892B31F4E091CA03F091FF
:1005E000CB0388E98083FF91EF91BF91AF919F91F9
:1005F0008F917F916F915F914F913F912F911F91BB
:100600000F910F900BBE0F900FBE0F901F9018957B
:100610001F920F920FB60F920BB60F9211240F93E9
:100620001F932F933F934F935F936F937F938F937A
:100630009F93AF93BF93EF93FF9380916203909149
:1006400063031816190654F4009180031091810376
:1006500080E693E00E94A802F80180838091620303
:1006600090916303892B31F4E0917E03F0917F0335
:1006700088E98083FF91EF91BF91AF919F918F9116
:100680007F916F915F914F913F912F911F910F91AA
:100690000F900BBE0F900FBE0F901F901895DC01AE
:1006A000FC01828193810197938382838681978164
:1006B000E80FF91F40850196FD01978386832D91F0
:1006C0003C918217930714F017821682842F0895A5
:1006D000FC0184819581892B19F42FEF3FEF06C02F
:1006E000CF0102960E944F03282F30E0C9010895E0
:1006F000CF93DF93EC01EE81FF81E80FF91F808536
:10070000DF91CF910895FC0184819581892B19F4A3
:100710002FEF3FEF06C0CF0102960E947803282FEB
:1007200030E0C9010895FC01138212828281938115
:100730009783868395838483089502960E9493030A
:100740000895FC0180E290E091838083CF010E94B4
:1007500093030895DC01FC0182819381409714F09A
:1007600080E00895FD0182819381019693838283C5
:1007700084819581E80FF91F60870196FD019583BB
:1007800084832D913C9111978217930714F481E093
:100790000895FD011582148281E00895CF93DF93BF
:1007A000EC018CA59DA54097E4F7F894CE018A96BC
:1007B0000E94AA03C85BDF4FE881F98180818062D3
:1007C00080837894DF91CF910895FC011382128287
:1007D0008281938197838683958384830895FC0126
:1007E00080E190E091838083CF010E94E50308952A
:1007F0006F927F928F929F92AF92BF92CF92DF9231
:10080000EF92FF920F931F936C015B014A01390134
:10081000FC0185E193E081939193CF010E94A103B4
:10082000C6018A960E94EF0382E490E0C80ED91EAA
:10083000F601A192B192819291926192719201938B
:100840001193F182E0821F910F91FF90EF90DF9062
:10085000CF90BF90AF909F908F907F906F900895B2
:10086000EF92FF920F931F9386E393E060E970E0AD
:1008700049E250E02BE230E00AE210E0FCE2EF2E29
:10088000F12C0E94F80382E893E068E970E049E9FE
:1008900050E02BE930E00AE910E0ECE9EE2EF12C13
:1008A0000E94F8031F910F91FF90EF90089548E781
:1008B00050E05093400240933F022CE330E03093ED
:1008C00042022093410281EE90E090934402809393
:1008D000430268EC70E07093460260934502109208
:1008E000E3031092E203509348024093470230938F
:1008F0004A022093490282EC91E090934C0280934B
:100900004B0286E292E090934E0280934D028AEF72
:1009100090E09093500280934F0280ED97E0909387
:100920005202809351021092E5031092E403109258
:10093000F9031092F80384E893E0909354028093B3
:10094000530284E090E09093560280935502709396
:1009500058026093570284E195E090935A02809385
:10096000590208950F93CF93DF938130910509F0D9
:1009700083C06F5F7F4F09F092C08EEC93E06AE115
:100980004BE12CE102E00E94120284ED93E00E9410
:10099000B50086ED93E00E94D6008AED93E00E94B8
:1009A000D6008EED93E00E94D60082E194E060E0F4
:1009B00071E00E94BD1C8AE194E063E071E00E9456
:1009C000BD1C82E294E066E071E00E94BD1C8AE2F8
:1009D00094E06DE071E00E94BD1C82E394E063E16D
:1009E00071E00E94BD1C8AE394E069E171E00E941D
:1009F000BD1C82E494E062E271E00E94BD1C8AE4C6
:100A000094E067E271E00E94BD1C82E594E06CE234
:100A100071E00E94BD1C8AE594E064E371E00E94ED
:100A2000BD1C82E694E06CE371E00E94BD1C8AE686
:100A300094E062E471E00E94BD1C82E794E06CE403
:100A400071E00E94BD1C8AE794E066E571E00E94B7
:100A5000BD1C82E894E06CE571E00E94BD1C8AE850
:100A600094E065E671E00E94BD1C82E994E06BE6CB
:100A700071E00E94BD1C13C0892B89F46F5F7F4F0A
:100A800071F4C2E9D4E0E881F9810190F081E02DB0
:100A9000CE010995289784E0CA30D807A1F7DF91E5
:100AA000CF910F91089580E090E06FEF7FEF0E946B
:100AB000B204089581E090E06FEF7FEF0E94B204EE
:100AC0000895CF93DF9381E00E942C17EC0182E020
:100AD0000E942C17AC012091430230914402281748
:100AE000390744F42C173D078CF41092B30410928C
:100AF000B2040CC0821793074CF42C173D0734F452
:100B000081E090E09093B3048093B204C217D307BE
:100B10004CF42417350734F48FEF9FEF9093B30410
:100B20008093B204421753072CF5C217D30714F56C
:100B30002091C9023091CA0237FF0BC08091CB02CD
:100B40009091CC02909581959F4F9093B3048093A0
:100B5000B2041216130674F48091E2039091E30339
:100B60002091CB023091CC02820F931F9093B3045B
:100B70008093B2048091C9029091CA022091B2047C
:100B80003091B30482179307B1F09093B50480932A
:100B9000B4043093CA022093C9028091BC0490919E
:100BA000BD049093BF048093BE0481E090E09093D5
:100BB000BD048093BC048091BC049091BD04019657
:100BC0009093BD048093BC04DF91CF9108956F9200
:100BD0007F928F929F92AF92BF92CF92DF92EF92CD
:100BE000FF920F931F93CF93DF933B014C010F2E86
:100BF000F0E0AF2EF0E0BF2EF0E0CF2EF0E0DF2EE1
:100C0000F02DC0E0D0E01AC083E00E942C177C01D8
:100C100084E00E942C17E80EF91E0027F7FC0095CF
:100C2000102FC801B7010E94E51D9B01AC01C60150
:100C3000B5010E94E21C5B016C012196BE01882770
:100C400077FD8095982F0E94E51DA40193010E94D5
:100C5000461D87FDD9CFC601B501A40193010E94AD
:100C60004A1DDF91CF911F910F91FF90EF90DF9080
:100C7000CF90BF90AF909F908F907F906F9008958E
:100C80000F931F9383E00E942C178C0184E00E9435
:100C90002C179C01200F311FC9011F910F9108953E
:100CA0008F929F92AF92BF92CF92DF92EF92FF927C
:100CB0000F931F93CF93DF935C014B01EA017901FE
:100CC000680181E00E942C178C0182E00E942C17A1
:100CD0009C01C817D90744F4C017D1078CF41092AF
:100CE000B3041092B2040CC08C179D074CF4C017CB
:100CF000D10734F481E090E09093B3048093B20480
:100D00000C171D074CF4C217D30734F48FEF9FEF75
:100D10009093B3048093B2042C173D070CF50C1785
:100D20001D07F4F42091C9023091CA0237FF0BC0AD
:100D30008091CB029091CC02909581959F4F90939A
:100D4000B3048093B2041216130654F48091CB02BC
:100D50009091CC028C0D9D1D9093B3048093B204AE
:100D60008091C9029091CA024091B2045091B3049B
:100D700084179507B1F09093B5048093B404509311
:100D8000CA024093C9028091BC049091BD04909323
:100D9000BF048093BE0481E090E09093BD048093F3
:100DA000BC04A49E9001A59E300DB49E300D11246C
:100DB0003093B7042093B6048091B4049091B504A5
:100DC000481B590B6091BC047091BD048091BE0416
:100DD0009091BF04680F791F849EC001859E900D7D
:100DE000949E900D11240E94941FAB017093B9043E
:100DF0006093B804420F531F5093BB044093BA044E
:100E00004E0D5F1D84ED93E060E070E00E948A006B
:100E10008091BA049091BB04E81AF90A84ED93E03A
:100E200061E070E0A7010E948A008091BC0490916B
:100E3000BD0401969093BD048093BC04DF91CF91D3
:100E40001F910F91FF90EF90DF90CF90BF90AF90E8
:100E50009F908F900895AF92BF92CF92DF92EF92C2
:100E6000FF920F931F93CF93DF9381E00E942C1783
:100E70008C0182E00E942C17EC010E941C166093EA
:100E8000C0047093C1048093C2049093C3048EEC99
:100E900093E00E94BC018EEC93E060E040E00E9491
:100EA000AD018EEC93E068E771E00E94701B98E55D
:100EB000A92E92E0B92E88EAC82E8DEFD82EEE2406
:100EC000EA94FE2C58C081E00E942C178C0182E02D
:100ED0000E942C17EC018091CD029091CE028A9D48
:100EE000A0018B9D500D9A9D500D112484ED93E02F
:100EF00060E070E00E948A008091CD029091CE0265
:100F00008C9DA0018D9D500D9C9D500D112484ED54
:100F100093E061E070E00E948A000E941C1620911C
:100F2000C0043091C1044091C2045091C304621BBB
:100F3000730B840B950B20ED37E040E050E00E94EE
:100F4000A71F6115710581059105A9F48091CD0256
:100F50009091CE028130910529F4F092CE02E09278
:100F6000CD0209C08F5F9F4F31F481E090E09093F4
:100F7000CE028093CD0280914302909144020817E3
:100F8000190724F4C817D9070CF49DCF8EEC93E011
:100F90000E94C001DF91CF911F910F91FF90EF90C0
:100FA000DF90CF90BF90AF900895EF92FF920F9394
:100FB0001F93CF93DF938C017B0144275527481B58
:100FC000590B84ED93E060E070E00E948A0084EDAC
:100FD00093E061E070E0A8010E948A0064EF71E094
:100FE00080E090E00E94571681E00E942C17EC01EF
:100FF00082E00E942C17CE15DF05B4F38E159F05F5
:101000009CF3DF91CF911F910F91FF90EF90089586
:10101000AF92BF92CF92DF92EF92FF920F931F9306
:101020008C017B0144275527481B590B84ED93E025
:1010300060E070E00E948A0084ED93E061E070E07F
:10104000A8010E948A000E941C166093A804709355
:10105000A9048093AA049093AB045701CC24B7FC55
:10106000C094DC2C33C00E941C162091A80430913F
:10107000A9044091AA045091AB04621B730B840B2A
:10108000950B615177428040904000F184ED93E0F0
:1010900060E070E044EF51E00E948A0084ED93E04C
:1010A00061E070E044EF51E00E948A0064EF71E07B
:1010B00080E090E00E9457160E941C166093A804DE
:1010C0007093A9048093AA049093AB0460E070E04D
:1010D00080E291E40E94E7057B018C01C601B50125
:1010E0000E94E51D9B01AC01C801B7010E94461D8D
:1010F00087FDB9CF1F910F91FF90EF90DF90CF90B8
:10110000BF90AF9008950F931F930EEC13E0C801AA
:1011100061E871E00E94701B68EE73E080E090E08F
:101120000E945716C8010E94C0011092F903109244
:10113000F8031092E5031092E4031092E703109273
:10114000E6031092F2031092F3031092F40310924C
:10115000F5031092EE031092EF031092F003109239
:10116000F1031092FA031092FB031092FC03109209
:10117000FD031092E9031092E80380910A04909114
:101180000B049093FF038093FE0380910C049091D5
:101190000D04909301048093000480910E049091BB
:1011A0000F049093030480930204809110049091A3
:1011B000110490930504809304041F910F910895E6
:1011C00081E30E94AD1620E030E0882311F421E095
:1011D00030E0C90108950E94E008892B19F420E04D
:1011E00030E00EC062E370E080E090E00E945716AD
:1011F0000E94E00820E030E0892B11F021E030E08F
:10120000C901089582E30E94AD1620E030E08823F2
:1012100011F421E030E0C90108950E940209892BF0
:1012200019F420E030E00EC062E370E080E090E06E
:101230000E9457160E94020920E030E0892B11F02D
:1012400021E030E0C90108951F93182F61E00E944A
:10125000C616812F0E94AD16813019F020E030E0D3
:1012600013C06AE070E080E090E00E945716812F82
:1012700061E00E94C616812F0E94AD1620E030E08A
:10128000813011F421E030E0C9011F9108950F93DE
:101290001F9304ED13E0C80162E070E048E552E0FE
:1012A0000E948A0064E670E080E090E00E94571699
:1012B000C80162E070E00E947F001F910F910895C5
:1012C0006F927F928F929F92AF92BF92CF92DF9256
:1012D000EF92FF920F931F93CF93DF936C013B012B
:1012E0004A015901E801CB01BA01A901980187011E
:1012F0000E9450060E941C166093AE047093AF04C7
:101300008093B0049093B104C301B401A5019E0180
:101310000E94500684ED93E062E070E0A6010E9416
:101320008A00C301B401A5019E010E945006C301B9
:10133000B401A5019E0187010E94500680E090E063
:101340000E942409892BC9F4C301B401A5019E019F
:101350000E9450060E941C162091AE043091AF04EA
:101360004091B0045091B104621B730B840B950B38
:1013700060527E4480409040A0F284ED93E062E0B1
:1013800070E00E947F00DF91CF911F910F91FF903D
:10139000EF90DF90CF90BF90AF909F908F907F9015
:1013A0006F9008956F927F928F929F92AF92BF92AB
:1013B000CF92DF92EF92FF920F931F93CF93DF9321
:1013C0006C013B014A015901E8010E941C1660931F
:1013D000AE047093AF048093B0049093B104D094A2
:1013E000C194D108D39484ED93E062E070E0A6014B
:1013F0000E948A0068EC70E080E090E00E9457163E
:10140000C301B401A501980187010E945006C301E0
:10141000B401A5019E0187010E94500683E090E07F
:101420000E942409892BF1F4C301B401A5019E0196
:101430000E9450060E941C162091AE043091AF0409
:101440004091B0045091B104621B730B840B950B57
:1014500060527E448040904028F4C301B401A5014D
:101460009E01D3CF84ED93E062E070E00E947F00A4
:10147000DF91CF911F910F91FF90EF90DF90CF9070
:10148000BF90AF909F908F907F906F9008952F9214
:101490003F924F925F926F927F928F929F92AF9204
:1014A000BF92CF92DF92EF92FF920F931F931C0196
:1014B0006B015A01490138012701CB01BA01A90189
:1014C000980187010E945006C101B601A50194014F
:1014D00083010E94D209C601B501A40193018201D2
:1014E0000E945006C101B601A501940183010E942A
:1014F0006009C601B501A401930182010E94500652
:101500001F910F91FF90EF90DF90CF90BF90AF9021
:101510009F908F907F906F905F904F903F902F9013
:1015200008950F931F938C010E941C166093AE04C4
:101530007093AF048093B0049093B10484ED93E072
:1015400062E070E0A8010E948A0080E090E00E94C2
:101550002409892B99F40E941C162091AE04309125
:10156000AF044091B0045091B104621B730B840B23
:10157000950B60527E448040904038F384ED93E0B8
:1015800062E070E00E947F001F910F9108950F9319
:101590001F938C010E941C166093AE047093AF04DD
:1015A0008093B0049093B104109501951F4F84ED82
:1015B00093E062E070E0A8010E948A0083E090E07E
:1015C0000E942409892B99F40E941C162091AE04D4
:1015D0003091AF044091B0045091B104621B730B81
:1015E000840B950B60527E448040904038F384ED2C
:1015F00093E062E070E00E947F001F910F910895D8
:10160000EF92FF920F931F93CF93DF930F2EF0E093
:10161000EF2EF0E0FF2EF0E00F2FF0E01F2FF02D67
:10162000C0E0D0E084E00E942C17AA2797FDA09587
:10163000BA2FBC01CD010E94E51D9B01AC01C80180
:10164000B7010E94E21C7B018C012196C530D105B7
:1016500049F720E030E040EA50E40E944A1D0E9431
:10166000201E0E94B21DCB01DF91CF911F910F91DF
:10167000FF90EF900895EF92FF920F931F93CF93F7
:10168000DF930F2EF0E0EF2EF0E0FF2EF0E00F2FB3
:10169000F0E01F2FF02DC0E0D0E083E00E942C1777
:1016A000AA2797FDA095BA2FBC01CD010E94E51D88
:1016B0009B01AC01C801B7010E94E21C7B018C01B7
:1016C0002196C530D10549F720E030E040EA50E4EA
:1016D0000E944A1D0E94201E0E94B21DCB01DF9174
:1016E000CF911F910F91FF90EF9008956F927F928D
:1016F0008F929F92AF92BF92CF92DF92EF92FF9222
:101700000F931F93CF93DF934C013A01E9010E949D
:101710003B0B21EFE22E2FEFF22EE80EF91E0E9476
:10172000000B6C018C179D070CF076C0EC16FD06C3
:101730000CF040C080919C0490919D042091AC04D9
:101740003091AD0497FF1DC088279927801B910B0E
:1017500090939B0480939A04295E33400CF4E5C077
:101760001092AD041092AC048EEC93E00E94C00184
:101770008EEC93E00E94BC018EEC93E06BE871E08C
:1017800048C010939B0400939A04295E33400CF4E4
:10179000CCC01092AD041092AC048EEC93E00E9489
:1017A000C0018EEC93E00E94BC018EEC93E063E9F3
:1017B00071E02FC0CE15DF050CF095C0B801882769
:1017C00077FD8095982F0E94E51D20E030E040E0F5
:1017D0005FE30E94E81E0E94B21D70939B04609319
:1017E0009A048091AC049091AD04895E93400CF40E
:1017F0009CC01092AD041092AC048EEC93E00E9459
:10180000C0018EEC93E00E94BC018EEC93E06BE98A
:1018100071E00E94701B89C0EC16FD069CF5C8178C
:10182000D9070CF060C066277727601B710B8827EB
:1018300077FD8095982F0E94E51D20E030E040E084
:101840005FE30E94E81E0E94B21D70939B046093A8
:101850009A048091AC049091AD04895E93400CF49D
:1018600064C01092AD041092AC048EEC93E00E9420
:10187000C0018EEC93E00E94BC018EEC93E065EA1F
:1018800071E0C7CFC817D90774F5CE15DF055CF531
:101890009701281B390B37FF03C0309521953F4F27
:1018A0008091C7029091C80228173907E4F410927A
:1018B0009B0410929A048091AC049091AD04895ECF
:1018C00093409CF11092AD041092AC048EEC93E026
:1018D0000E94C0018EEC93E00E94BC018EEC93E06C
:1018E0006FEA71E096CFC7018C199D0990939B0414
:1018F00080939A048091AC049091AD04895E9340EA
:10190000A4F01092AD041092AC048EEC93E00E940F
:10191000C0018EEC93E00E94BC0160919A0470912A
:101920009B048EEC93E00E94341C80919C04909167
:101930009D04C0919A04D0919B048C179D07B1F02F
:1019400090939F0480939E04D0939D04C0939C0425
:101950008091A4049091A5049093A7048093A60479
:1019600081E090E09093A5048093A404D093A10417
:10197000C093A004D093A304C093A2048091AC04AC
:101980009091AD04892BB1F58EEC93E060E041E0DD
:101990000E94AD01EC0CFD1CB701882777FD8095F6
:1019A000982F0E94E51D0E944F1F5B016C01B3013F
:1019B000882777FD8095982F0E94E51D7B018C017B
:1019C000BE01882777FD8095982F0E94E51D9B0119
:1019D000AC01C801B7010E94E81EA60195010E9452
:1019E0004A1D0E94B21D9B01AC018EEC93E0B9012F
:1019F0000E94341C8CEF93E0881999094091A2044D
:101A00005091A304841795072CF49093A30480931A
:101A1000A2040BC022273327281B390B4217530778
:101A200024F43093A3042093A2048091AC049091F9
:101A3000AD04892BA1F48EEC93E068E041E00E94B4
:101A4000AD018EEC93E066EB71E00E94701B60913B
:101A5000A2047091A3048EEC93E00E94341C409188
:101A6000A2045091A304480D591D84ED93E060E059
:101A700070E00E948A008091A2049091A304881AC9
:101A8000990A84ED93E061E070E0A4010E948A006D
:101A90008091A4049091A50401969093A50480934D
:101AA000A4048091AC049091AD0401969093AD0490
:101AB0008093AC04DF91CF911F910F91FF90EF9035
:101AC000DF90CF90BF90AF909F908F907F906F905E
:101AD00008952F923F924F925F926F927F928F92D2
:101AE0009F92AF92BF92CF92DF92EF92FF920F93AD
:101AF0001F93DF93CF9300D000D0CDB7DEB73C016A
:101B00007A8369835C834B83190128010E941C1628
:101B10006093AE047093AF048093B0049093B104CB
:101B200084ED93E062E070E0A3010E948A002DC082
:101B300089819A816B817C81A101920187010E9438
:101B4000500680E090E00E942409892BD9F4898115
:101B50009A816B817C81A10192010E9450060E94B2
:101B60001C162091AE043091AF044091B004509106
:101B7000B104621B730B840B950B60527E44804052
:101B8000904018F001E010E048C089819A816B8193
:101B90007C81A101920187010E9450060E94000BE6
:101BA0002D8D3E8D821793070CF4C2CFC601B5016F
:101BB000A401298D3A8D0B8D1C8D0E94760B80E03F
:101BC00090E00E942409892B31F5C601B501A401DA
:101BD000298D3A8D0B8D1C8D0E94760B0E941C1650
:101BE0002091AE043091AF044091B0045091B10403
:101BF000621B730B840B950B60527E4480409040B7
:101C000050F4C601B501A401298D3A8D0B8D1C8DB0
:101C10000E94760BCBCF00E010E084ED93E062E011
:101C200070E00E947F0020E030E0012B11F421E001
:101C300030E0C9010F900F900F900F90CF91DF917E
:101C40001F910F91FF90EF90DF90CF90BF90AF90DA
:101C50009F908F907F906F905F904F903F902F90CC
:101C600008952F923F924F925F926F927F928F9240
:101C70009F92AF92BF92CF92DF92EF92FF920F931B
:101C80001F93DF93CF9300D000D0CDB7DEB73C01D8
:101C90007A8369835C834B83190128010E941C1697
:101CA0006093AE047093AF048093B0049093B1043A
:101CB000709461947108739484ED93E062E070E035
:101CC000A3010E948A0068EC70E080E090E00E942E
:101CD00057162DC089819A816B817C81A101920167
:101CE00087010E94500683E090E00E942409892B1E
:101CF000D9F489819A816B817C81A10192010E9432
:101D000050060E941C162091AE043091AF04409101
:101D1000B0045091B104621B730B840B950B60529D
:101D20007E448040904018F001E010E048C0898176
:101D30009A816B817C81A101920187010E945006EA
:101D40000E94000B2D8D3E8D821793070CF4C2CF9D
:101D5000C601B501A401298D3A8D0B8D1C8D0E9401
:101D6000760B83E090E00E942409892B31F5C601AF
:101D7000B501A401298D3A8D0B8D1C8D0E94760B27
:101D80000E941C162091AE043091AF044091B00423
:101D90005091B104621B730B840B950B60527E440F
:101DA0008040904050F4C601B501A401298D3A8DC0
:101DB0000B8D1C8D0E94760BCBCF00E010E084EDE4
:101DC00093E062E070E00E947F0020E030E0012BB1
:101DD00011F421E030E0C9010F900F900F900F90A7
:101DE000CF91DF911F910F91FF90EF90DF90CF90F7
:101DF000BF90AF909F908F907F906F905F904F902B
:101E00003F902F900895AF92BF92CF92DF92EF92C2
:101E1000FF920F931F93CF93DF93EC0156E0C52EF3
:101E2000D12CC80ED91E41E0A42EB12C34E0E32EF3
:101E3000F12CE80EF91E8C010E5F1F4F4BC18EEC8A
:101E400093E00E94BC018EEC93E060E040E00E94D1
:101E5000AD018EEC93E06EEB71E00E94701B86E0AA
:101E60000E942C17AA2797FDA095BA2FBC01CD017F
:101E70000E94E51D20E030EC4FE754E40E944A1D2B
:101E800020E030E040E850E40E94E81E0E94201E5E
:101E90000E94B21D7093F7036093F6038EEC93E0FB
:101EA0000E94BC018EEC93E060E041E00E94AD0135
:101EB0008091F6039091F703009709F03FC08EECF4
:101EC00093E06CEC71E00E94701B888199818130F5
:101ED0009105B9F48EEC93E06FE040E00E94AD0113
:101EE0008EEC93E06BED71E00E94701B0E94E008A5
:101EF000892BF9F00E94E008892BE1F719821882FA
:101F000018C0892BB1F48EEC93E06FE040E00E94A2
:101F1000AD018EEC93E06DED71E00E94701B0E94AC
:101F2000E008892B31F00E94E008892BE1F7B982A3
:101F3000A8826CE271E080E090E0C6C0813091053B
:101F4000E9F58EEC93E06FED71E00E94701BF801F3
:101F50008081918181309105B9F48EEC93E06FE03E
:101F600040E00E94AD018EEC93E06BED71E00E94C9
:101F7000701B0E94E008892B09F460C00E94E008F1
:101F8000892BE1F7F8013EC0892B09F057C08EEC90
:101F900093E06FE040E00E94AD018EEC93E06DEDC8
:101FA00071E00E94701B0E94E008892B09F446C072
:101FB0000E94E008892BE1F7F8013EC0029709F082
:101FC00042C08EEC93E06CEE71E00E94701BF70152
:101FD0008081918181309105C1F48EEC93E06FE0B6
:101FE00040E00E94AD018EEC93E06BED71E00E9449
:101FF000701B0E94E008892B09F10E94E008892BE0
:10200000E1F7F7011182108219C0892BB9F48EEC27
:1020100093E06FE040E00E94AD018EEC93E06DED47
:1020200071E00E94701B0E94E008892B39F00E9429
:10203000E008892BE1F7F701B182A08264E670E045
:1020400080E090E041C08EEC93E066EF71E00E948A
:10205000701BF6018081918181309105C1F48EEC75
:1020600093E06FE040E00E94AD018EEC93E06BEDF9
:1020700071E00E94701B0E94E008892B09F10E9408
:10208000E008892BE1F7F6011182108219C0892B33
:10209000B9F48EEC93E06FE040E00E94AD018EEC6D
:1020A00093E06DED71E00E94701B0E94E008892BA7
:1020B00039F00E94E008892BE1F7F601B182A08295
:1020C0006AE070E080E090E00E9457168EEC93E0AA
:1020D0000E94C0010E940209892B09F4B0CE06C0FB
:1020E00062E370E080E090E00E9457160E940209CF
:1020F000892BB1F7DF91CF911F910F91FF90EF9056
:10210000DF90CF90BF90AF900895CF92DF92EF9283
:10211000FF920F931F93CF93DF93EC01BAC086E039
:102120000E942C17AA2797FDA095BA2FBC01CD01BC
:102130000E94E51D20E030EC4FE754E40E944A1D68
:1021400020E030E048E851E40E94E81E0E94201E92
:102150000E94B21D8B018EEC93E00E94BC018EECBC
:1021600093E060E040E00E94AD016801E3E0CC0C48
:10217000DD1CEA95E1F782E194E0C80ED91E8EECF1
:1021800093E0B6010E943C1C8EEC93E060E041E0DD
:102190000E94AD017801EE0CFF1CEC0EFD1EF70154
:1021A000608171818EEC93E00E94341C62E370E0E8
:1021B00080E090E00E9457168EEC93E00E94C001F0
:1021C0000E94E008892B09F464C006C062E370E055
:1021D00080E090E00E9457160E94E008892BB1F73A
:1021E00042C087E00E942C17AA2797FDA095BA2F1E
:1021F000BC01CD010E94E51D20E030EC4FE754E426
:102200000E944A1DF80120813181428153810E9440
:10221000E81E0E94201E0E94B21DF7017183608398
:102220008EEC93E060E040E00E94AD018EEC93E024
:10223000B6010E943C1C8EEC93E060E041E00E94FD
:10224000AD01F701608171818EEC93E00E94341C36
:1022500062E370E080E090E00E9457168EEC93E01D
:102260000E94C00106C0000F111F000F111F0D5763
:102270001D4F0E940209892B09F4B3CF06C062E307
:1022800070E080E090E00E9457160E940209892BBE
:10229000B1F70E940209892B09F441CF06C062E31D
:1022A00070E080E090E00E9457160E940209892B9E
:1022B000B1F7888199819093400280933F028A818F
:1022C0009B8190934202809341028C819D819093E7
:1022D0004402809343028E819F81909346028093B3
:1022E0004502888599859093E3038093E2038A856C
:1022F0009B8590934E0280934D028C859D85909393
:102300004802809347028E859F8590934A0280936E
:1023100049028889998990934C0280934B028A895B
:102320009B899093500280934F028C899D89909352
:102330005202809351028E899F8990935402809318
:102340005302888D998D90935602809355028A8D01
:102350009B8D90935802809357028C8D9D8D909306
:102360005A02809359028E8D9F8D90935C028093C8
:102370005B0288A199A190935E0280935D02DF9138
:10238000CF911F910F91FF90EF90DF90CF90089524
:102390006F927F928F929F92AF92BF92CF92DF9275
:1023A000EF92FF920F931F93CF93DF9380915F0281
:1023B00090916002019709F06DC08AE094E00E945C
:1023C000030F80910A0490910B049093FF03809374
:1023D000FE0380910C0490910D049093010480936E
:1023E000000480910E0490910F0490930304809355
:1023F000020480911004909111049093050480933D
:1024000004040E94570481E692E00E94851042C0B5
:102410000E943B0B9093EB038093EA030E94000B16
:102420009093ED038093EC038EEC93E00E94BC014B
:102430008EEC93E060E040E00E94AD018EEC93E012
:102440006EEF71E00E94701B6091EA037091EB03E4
:102450008EEC93E00E94341C8EEC93E068E040E048
:102460000E94AD018EEC93E062E072E00E94701B6E
:102470006091EC037091ED038EEC93E00E94341CAC
:1024800062E370E080E090E00E9457168EEC93E0EB
:102490000E94C0010E940D09892B09F4B9CF06C022
:1024A00062E370E080E090E00E9457160E9402090B
:1024B000892BB1F759C081E00E942C179093070433
:1024C0008093060482E00E942C1790930904809365
:1024D00008048EEC93E00E94C0018EEC93E00E9411
:1024E000BC018EEC93E06EEF71E00E94701B609176
:1024F0000604709107048EEC93E00E94341C8EEC6D
:1025000093E068E040E00E94AD018EEC93E062E071
:1025100072E00E94701B60910804709109048EECB7
:1025200093E00E94341C86E00E942C179093440292
:10253000809343028EEC93E060E041E00E94AD01A5
:102540008EEC93E066E072E00E94701B60914302A3
:10255000709144028EEC93E00E94341C62E370E0C0
:1025600080E090E00E9457160E940D09892B09F423
:10257000A2CF8091FE039091FF03A0914D02B091F4
:102580004E020197C1F460913F0270914002409168
:102590004102509142022091430230914402009145
:1025A000450210914602E090E203F090E303CD0172
:1025B0000E9460096CC2CD010E94910A68C280919C
:1025C000FE039091FF030197E1F460914102709145
:1025D000420240914302509144022091E403309121
:1025E000E5038091450290914602280F391F009122
:1025F000E2031091E30380913F02909140020E9418
:1026000050068FB7F894969A8FBF809100049091EE
:102610000104019709F02FC186E00E94AD168130B8
:1026200009F029C14091E4035091E50380914502EE
:1026300090914602481B590B84ED93E060E070E0F6
:102640000E948A004091E4035091E5038091450285
:1026500090914602481B590B84ED93E061E070E0D5
:102660000E948A000E941C166093FA037093FB0379
:102670008093FC039093FD030E9461050E941C1649
:102680002091FA033091FB034091FC035091FD032C
:10269000621B730B840B950B675771408040904011
:1026A00058F384ED93E060E070E00E947F0084EDD9
:1026B00093E061E070E00E947F00E091F803F09108
:1026C000F903E330F10549F480914D0290914E02F7
:1026D0000E94C70A0E944709A9C020914302309175
:1026E0004402A0914D02B0914E0260913F02709160
:1026F00040024091410250914202809145029091E6
:102700004602E090E203F090E3030091E4031091AD
:10271000E503329709F085C000D000D000D0EDB7B6
:10272000FEB73196080F191FC0904B02D0904C0293
:10273000A0904702B09048028090490290904A02CF
:1027400080915B0290915C02CDB7DEB79A8389835A
:1027500080915D0290915E029383828380914F020B
:102760009091500295838483CD010E94310EADB7C4
:10277000BEB7119680914D0290914E0260913F023A
:1027800070914002409141025091420220914302D7
:10279000309144020091E4031091E503E091450279
:1027A000F09146020E0F1F1FE090E203F090E3034A
:1027B000C0904B02D0904C02A0904702B0904802CB
:1027C0008090490290904A02E0915B02F0915C0295
:1027D000CDB7DEB7FA83E983E0915D02F0915E0246
:1027E000ED01FB83EA83E0914F02F0915002FD83FB
:1027F000EC830E94690D2DB73EB72A5F3F4F0FB69D
:10280000F8943EBF0FBE2DBF892B81F01092FF03BD
:102810001092FE0381E090E09093E9038093E80337
:1028200005C0080F191FCD010E94470A8091F803C7
:102830009091F90301969093F9038093F80301971F
:1028400051F40E941C166093F2037093F30380937B
:10285000F4039093F5038091F8039091F9030297A4
:1028600051F40E941C166093EE037093EF03809363
:10287000F0039093F1032091F8033091F903213094
:102880003105F9F48091E4039091E50384369105D4
:10289000C4F40E941C162091F2033091F30340917E
:1028A000F4035091F503621B730B840B950B605A74
:1028B0007F408040904030F17092E5036092E403E5
:1028C00021C022303105F1F48091E4039091E503B9
:1028D00018161906BCF40E941C162091EE033091C4
:1028E000EF034091F0035091F103621B730B840BD3
:1028F000950B685B7B408040904020F01092E50390
:102900001092E403009102041091030401301105B8
:1029100081F50E943B0B20914F02309150028217AB
:1029200093073CF10E94000B20914F02309150021E
:1029300082179307F4F08091F8039091F9030397BD
:10294000C4F08091E8039091E903892B91F41092EF
:10295000FF031092FE038EEC93E00E94BC018EEC0C
:1029600093E06FE072E00E94701B1093E903009304
:10297000E8038091E8039091E9030197B1F4609135
:102980004702709148024091490250914A022091B9
:102990005B0230915C0200915D0210915E028091B9
:1029A0004B0290914C020E94760B8091040490910E
:1029B00005040197A9F52091F8033091F90380915E
:1029C0005502909156022817390751F510920104CB
:1029D00010920004809153029091540224303105EA
:1029E0003CF460914302709144020E94D50706C0F6
:1029F00060915702709158020E9408088091570216
:102A0000909158029093500280934F0281E090E0A1
:102A10009093E7038093E603109205041092040458
:102A20000091E6031091E7030130110599F50E942A
:102A300040062091590230915A022817390754F55F
:102A400010920304109202041093FF030093FE03FC
:102A50000E942B0760914102709142024091430213
:102A6000509144022091E4033091E50380914502A6
:102A700090914602280F391F0091E2031091E30361
:102A800080913F02909140020E94500603C0F4E6FC
:102A90006F2E712C0E94EB08892B09F490CD12C087
:102AA00084ED93E060E070E00E947F0084ED93E0AD
:102AB00061E070E00E947F0062E370E080E090E0FF
:102AC0000E9457160E94E008892B51F78EEC93E084
:102AD0000E94BC018EEC93E060E040E00E94AD01FA
:102AE0008EEC93E06CE172E00E94701B8EEC93E040
:102AF00060E041E00E94AD018EEC93E06BE272E099
:102B00000E94701B6AE070E080E090E00E9457161F
:102B10008EEC93E00E94C0010E940209892B29F0EB
:102B20001092600210925F020AC00E94E008892B96
:102B300069F281E090E09093600280935F020E94CE
:102B40000209892B21F40E94E008892B39F062E305
:102B500070E080E090E00E945716F1CF0E94830859
:102B6000DF91CF911F910F91FF90EF90DF90CF9069
:102B7000BF90AF909F908F907F906F90089580E06E
:102B800060E00E94F61681E060E00E94F61680E0A8
:102B900060E00E947D1683E060E00E947D1686E082
:102BA00060E00E947D1608951F920F920FB60F925B
:102BB00011242F933F938F939F93AF93BF93809153
:102BC000C8049091C904A091CA04B091CB0430917B
:102BD000CC040196A11DB11D232F2D5F2D3720F0B0
:102BE0002D570196A11DB11D2093CC048093C804DC
:102BF0009093C904A093CA04B093CB048091C404F9
:102C00009091C504A091C604B091C7040196A11D7E
:102C1000B11D8093C4049093C504A093C604B093DF
:102C2000C704BF91AF919F918F913F912F910F90CA
:102C30000FBE0F901F9018958FB7F8942091C8047D
:102C40003091C9044091CA045091CB048FBFB9019F
:102C5000CA0108956FB7F8942091C4043091C50457
:102C60004091C6045091C70482B790E0A0E0B0E064
:102C700006B600FE09C08F3F9105A105B10521F000
:102C80002F5F3F4F4F4F5F4F6FBF542F432F322F58
:102C90002227280F391F4A1F5B1F82E0220F331F94
:102CA000441F551F8A95D1F7B901CA010895EF92C3
:102CB000FF920F931F93CF93DF937B018C010E94B0
:102CC0002A16EB010EC00E942A166C1B7D0B685E53
:102CD0007340C8F30894E108F10801091109C851CB
:102CE000DC4FE114F1040105110569F7DF91CF9183
:102CF0001F910F91FF90EF900895E82FE695E695CC
:102D0000E695A82FB0E0613099F42FB7F894F0E081
:102D1000EE0FFF1FE352FD4F0190F081E02D9081F7
:102D2000A770B070A15EBC4F8C91982B908313C09C
:102D30002FB7F894F0E0EE0FFF1FE352FD4F019024
:102D4000F081E02D9081A770B070A15EBC4F8C9196
:102D50008095892380832FBF0895A82FE82FE695BB
:102D6000E695E695F0E0EE0FFF1FE551FD4F01906F
:102D7000F081E02DE081B0E0A770B070A15EBC4FA3
:102D80008C91E82309F0E1E08E2F0895E82FE69575
:102D9000E695E695A82FB0E0613099F42FB7F89446
:102DA000F0E0EE0FFF1FE153FD4F0190F081E02DA9
:102DB0009081A770B070A15EBC4F8C91982B9083CE
:102DC00013C02FB7F894F0E0EE0FFF1FE153FD4F53
:102DD0000190F081E02D9081A770B070A15EBC4F92
:102DE0008C918095892380832FBF0895E82FF0E090
:102DF000613051F4EE0FFF1FE352FD4F0190F0815F
:102E0000E02D8FEF80830895EE0FFF1FE352FD4FFB
:102E10000190F081E02D10820895E82FF0E0EE0F90
:102E2000FF1FE551FD4F0190F081E02D8081089555
:102E3000E82FF0E0EE0FFF1FE153FD4F0190F0810E
:102E4000E02D60830895109261001092620080E48A
:102E500087B987EE86B908951F93182F8091F902DC
:102E6000813021F40E9423171092F9028091FA0216
:102E7000181721F4349A349BFECF0DC01093FA0238
:102E800087B11770807E812B87B9349A349BFECF2F
:102E9000349A349BFECF24B135B1C9011F910895F6
:102EA00093B7987F982B93BF08959EB5987F982BE2
:102EB0009EBD089583E00E9455171DBC1CBC87B7BA
:102EC000846087BF0895EAE8F0E09081987F982BAE
:102ED0009083089583E00E946317109289001092F6
:102EE0008800EDE7F0E08081846080830895893078
:102EF00031F48FB582608FBD8FB58E7F0AC08A3066
:102F000019F48FB5826002C08FB58D7F8FBD8FB5EC
:102F100081608FBD1BBC1ABC19BC18BC1092790013
:102F20001092780008958FB580688FBD8FB58F7B24
:102F30008FBD08958FB580628FBD8FB58F7E8FBD99
:102F400008958FB588608FBD8FB58B7F8FBD089535
:102F50009BBD8ABD089599BD88BD08959093790061
:102F6000809378000895893049F480918B008260C5
:102F700080938B0080918B008E7F0EC08A3021F46D
:102F800080918B00826003C080918B008D7F809345
:102F90008B0080918B00816080938B001092870062
:102FA0001092860010928500109284001092830087
:102FB000109282000895EBE8F0E0808180688083C1
:102FC00080818F7B80830895EBE8F0E080818062D0
:102FD000808380818F7E80830895EBE8F0E080819C
:102FE0008860808380818B7F80830895853019F489
:102FF0000E9493170895843019F40E949A17089537
:10300000833019F40E94A1170895823019F40E94A8
:10301000DB170895813019F40E94E417089588237E
:1030200011F40E94ED170895909387008093860015
:103030000895909385008093840008959093830071
:10304000809382000895EF92FF921F93CF93DF93B6
:10305000182F7B018D31B0F08F3111F413E014C0C3
:103060008E3111F414E010C08D3109F49BC085320B
:1030700011F410E03DC0843211F411E039C0833204
:1030800019F48EC08330A0F18091CD0486FD0BC071
:103090000E945A1778948AE00E9477178091CD0495
:1030A00080648093CD048091CD04C12FD0E090E066
:1030B000012E02C0959587950A94E2F780FD4CC0D9
:1030C00087B3FE01E95DFC4F9081892B87BB812F7F
:1030D0000E94F6172091CD0481E090E0012E02C0FD
:1030E000880F991F0A94E2F7282B2093CD0434C04F
:1030F0008091CD0487FD0BC00E946A1778948AE006
:103100000E94B3178091CD0480688093CD04809194
:10311000CD04C12FD0E090E0012E02C09595879597
:103120000A94E2F780FD24C082B1FE01E95DFC4F04
:103130009081892B82B9812F0E94F6172091CD04AE
:1031400081E090E0012E02C0880F991F0A94E2F7F7
:10315000282B2093CD040CC0153021F4C7010E9408
:10316000A81722C0143021F4C7010E94AB171CC05D
:10317000133021F4C7010E94AE1716C0123021F49B
:10318000C7010E94141810C0113021F4C7010E9419
:1031900019180AC0112341F4C7010E941E1804C067
:1031A00012E0A6CF15E070CFDF91CF911F91FF9075
:1031B000EF9008951F920F920FB60F920BB60F92D9
:1031C00011242F933F934F935F936F937F938F932C
:1031D0009F93AF93BF93EF93FF938091D40490910B
:1031E000D504892B29F0E091D404F091D5040995F8
:1031F000FF91EF91BF91AF919F918F917F916F91CF
:103200005F914F913F912F910F900BBE0F900FBE8A
:103210000F901F9018951F920F920FB60F920BB63A
:103220000F9211242F933F934F935F936F937F934C
:103230008F939F93AF93BF93EF93FF938091DE049F
:103240009091DF04892B29F0E091DE04F091DF04F6
:103250000995FF91EF91BF91AF919F918F917F91D0
:103260006F915F914F913F912F910F900BBE0F90F7
:103270000FBE0F901F9018951F920F920FB60F92CE
:103280000BB60F9211242F933F934F935F936F933D
:103290007F938F939F93AF93BF93EF93FF9380910F
:1032A000E4049091E504892B29F0E091E404F09185
:1032B000E5040995FF91EF91BF91AF919F918F9197
:1032C0007F916F915F914F913F912F910F900BBE26
:1032D0000F900FBE0F901F9018951F920F920FB670
:1032E0000F920BB60F9211242F933F934F935F933E
:1032F0006F937F938F939F93AF93BF93EF93FF93BE
:103300008091D0049091D104892B29F0E091D004D0
:10331000F091D1040995FF91EF91BF91AF919F91E9
:103320008F917F916F915F914F913F912F910F906E
:103330000BBE0F900FBE0F901F9018951F920F920B
:103340000FB60F920BB60F9211242F933F934F930A
:103350005F936F937F938F939F93AF93BF93EF93FD
:10336000FF938091D6049091D704892B29F0E091A6
:10337000D604F091D7040995FF91EF91BF91AF91D9
:103380009F918F917F916F915F914F913F912F917D
:103390000F900BBE0F900FBE0F901F9018951F92AD
:1033A0000F920FB60F920BB60F9211242F933F93EB
:1033B0004F935F936F937F938F939F93AF93BF933D
:1033C000EF93FF938091D8049091D904892B29F031
:1033D000E091D804F091D9040995FF91EF91BF9144
:1033E000AF919F918F917F916F915F914F913F919D
:1033F0002F910F900BBE0F900FBE0F901F9018953E
:103400001F920F920FB60F920BB60F9211242F93AB
:103410003F934F935F936F937F938F939F93AF935C
:10342000BF93EF93FF938091DA049091DB04892B93
:1034300029F0E091DA04F091DB040995FF91EF9116
:10344000BF91AF919F918F917F916F915F914F91BC
:103450003F912F910F900BBE0F900FBE0F901F90BA
:1034600018951F920F920FB60F920BB60F92112460
:103470002F933F934F935F936F937F938F939F937C
:10348000AF93BF93EF93FF938091DC049091DD04A1
:10349000892B29F0E091DC04F091DD040995FF917E
:1034A000EF91BF91AF919F918F917F916F915F91BC
:1034B0004F913F912F910F900BBE0F900FBE0F9029
:1034C0001F9018951F920F920FB60F920BB60F9286
:1034D00011242F933F934F935F936F937F938F9319
:1034E0009F93AF93BF93EF93FF938091E0049091EC
:1034F000E104892B29F0E091E004F091E1040995C1
:10350000FF91EF91BF91AF919F918F917F916F91BB
:103510005F914F913F912F910F900BBE0F900FBE77
:103520000F901F9018951F920F920FB60F920BB627
:103530000F9211242F933F934F935F936F937F9339
:103540008F939F93AF93BF93EF93FF938091E60484
:103550009091E704892B29F0E091E604F091E704CB
:103560000995FF91EF91BF91AF919F918F917F91BD
:103570006F915F914F913F912F910F900BBE0F90E4
:103580000FBE0F901F9018951F920F920FB60F92BB
:103590000BB60F9211242F933F934F935F936F932A
:1035A0007F938F939F93AF93BF93EF93FF938091FC
:1035B000E8049091E904892B29F0E091E804F09166
:1035C000E9040995FF91EF91BF91AF919F918F9180
:1035D0007F916F915F914F913F912F910F900BBE13
:1035E0000F900FBE0F901F9018951F920F920FB65D
:1035F0000F920BB60F9211242F933F934F935F932B
:103600006F937F938F939F93AF93BF93EF93FF93AA
:103610008091EA049091EB04892B29F0E091EA046F
:10362000F091EB040995FF91EF91BF91AF919F91BC
:103630008F917F916F915F914F913F912F910F905B
:103640000BBE0F900FBE0F901F9018951F920F92F8
:103650000FB60F920BB60F9211242F933F934F93F7
:103660005F936F937F938F939F93AF93BF93EF93EA
:10367000FF938091EC049091ED04892B29F0E09167
:10368000EC04F091ED040995FF91EF91BF91AF919A
:103690009F918F917F916F915F914F913F912F916A
:1036A0000F900BBE0F900FBE0F901F90189583E0E8
:1036B00061E00E94F61684E061E00E94F6167894BC
:1036C0000E94BF150E94C811FDCFDC01ED91FC9155
:1036D0000190F081E02D099508950E94651B0895E1
:1036E0000F931F93CF93DF938C01EB0104C02196BE
:1036F000C8010E946D1B68816623C9F7DF91CF91D5
:103700001F910F9108952F923F924F925F926F9267
:103710007F928F929F92AF92BF92CF92DF92EF9261
:10372000FF920F931F93DF93CF93CDB7DEB7A09790
:103730000FB6F894DEBF0FBECDBF1C016A017B013E
:10374000411551056105710521F460E30E946D1B6F
:103750004FC0882499245401422E5524662477248E
:1037600001E010E00C0F1D1F080D191DC701B60167
:10377000A30192010E94A71FF80160830894811C95
:10378000911CA11CB11CC701B601A30192010E94AA
:10379000A71FC901DA016C017D01C114D104E10444
:1037A000F104F1F681E0E82EF12CEC0EFD1EE80CA0
:1037B000F91C3E010894611C711CD501C4010197DC
:1037C000A109B1096C01C818D9080FC0F601EE0DA6
:1037D000FF1D60816A3010F4605D01C0695CC10149
:1037E0000E946D1B0894E108F1086E147F0471F7C4
:1037F000A0960FB6F894DEBF0FBECDBFCF91DF917C
:103800001F910F91FF90EF90DF90CF90BF90AF90FE
:103810009F908F907F906F905F904F903F902F90F0
:103820000895EF92FF920F931F93CF93DF93EC01D4
:103830007A018B0177FF0BC06DE20E946D1B109522
:103840000095F094E094E11CF11C011D111DCE01C6
:10385000B801A7012AE00E94831BDF91CF911F913D
:103860000F91FF90EF900895AB01662757FD60958B
:10387000762F0E94111C0895CF92DF92EF92FF9253
:103880000F931F93CF93DF936C017B01C0E0D0E0D7
:103890000EC0D601ED91FC9100811181C701BE01DE
:1038A0000E949E1C682FC601F80109952196F70118
:1038B00086819781C817D90760F3DF91CF911F9157
:1038C0000F91FF90EF90DF90CF900895009711F047
:1038D0000E948F200895CF93DF93EC0181E393E062
:1038E000998388838A819B81009711F00E94661CCE
:1038F0001D821C821F821E82DF91CF910895009746
:1039000011F00E948F200895CF93DF93EC0181E3A3
:1039100093E0998388838A819B81009711F00E94AC
:10392000661C1D821C821F821E82CE010E947F1C8B
:10393000DF91CF9108950E94E31F0895CF93DF9305
:10394000EC01EA81FB81E60FF71F8081DF91CF91C7
:103950000895CF93DF93EC01CB017D836C830196B7
:103960000E949B1C9B838A83009721F41D821C82EA
:103970001F821E82DF91CF9108950F931F93CF93E3
:10398000DF93EC018B0181E393E0998388836115D8
:10399000710511F408E312E0C8010E94EC20BC019B
:1039A0009F838E83CE010E94A91C8A819B810097F0
:1039B00019F0B8010E94E520DF91CF911F910F917E
:1039C00008955058BB27AA270ED0B1C1A2D130F01C
:1039D000A7D120F031F49F3F11F41EF497C10EF4EB
:1039E000E095E7FB64C1E92FB3D180F3BA17620712
:1039F00073078407950718F071F49EF5E2C10EF481
:103A0000E0950B2EBA2FA02D0B01B90190010C01EE
:103A1000CA01A0011124FF27591B99F0593F50F406
:103A2000503E68F11A16F040A22F232F342F44275E
:103A3000585FF3CF469537952795A795F040539556
:103A4000C9F77EF41F16BA0B620B730B840BBAF026
:103A50009150A1F0FF0FBB1F661F771F881FC2F791
:103A60000EC0BA0F621F731F841F48F487957795A5
:103A70006795B795F7959E3F08F0B3CF9395880F5C
:103A800008F09927EE0F979587950895ECD008F4E4
:103A900081E008950CD04BC143D140F03AD130F0D1
:103AA00021F45F3F19F003C151118CC12FC150D1D6
:103AB00098F39923C9F35523B1F3951B550BBB27F5
:103AC000AA2762177307840738F09F5F5F4F220FA2
:103AD000331F441FAA1FA9F333D00E2E3AF0E0E89B
:103AE00030D091505040E695001CCAF729D0FE2FE7
:103AF00027D0660F771F881FBB1F26173707480779
:103B0000AB07B0E809F0BB0B802DBF01FF2793582E
:103B10005F4F2AF09E3F510568F0C9C053C15F3F17
:103B2000ECF3983EDCF3869577956795B795F79516
:103B30009F5FC9F7880F911D9695879597F908950E
:103B4000E1E0660F771F881FBB1F621773078407AA
:103B5000BA0720F0621B730B840BBA0BEE1F88F7B9
:103B6000E095089504D06894B1112CC10895F8D05F
:103B700088F09F5790F0B92F9927B751A0F0D1F056
:103B8000660F771F881F991F1AF0BA95C9F712C0E0
:103B9000B13081F016D1B1E0089513C1672F782FAD
:103BA0008827B85F39F0B93FCCF38695779567954C
:103BB000B395D9F73EF490958095709561957F4FB8
:103BC0008F4F9F4F0895E89409C097FB3EF490955E
:103BD0008095709561957F4F8F4F9F4F9923A9F0E6
:103BE000F92F96E9BB279395F69587957795679575
:103BF000B795F111F8CFFAF4BB0F11F460FF1BC0B9
:103C00006F5F7F4F8F4F9F4F16C0882311F096E94B
:103C100011C0772321F09EE8872F762F05C06623F9
:103C200071F096E8862F70E060E02AF09A95660FB2
:103C3000771F881FDAF7880F9695879597F908956B
:103C4000A9D080F09F3740F491110EF0BBC060E026
:103C500070E080E89FEB089526F41B16611D711D2E
:103C6000811D2BC045C0990F0008550FAA0BE0E835
:103C7000FEEF16161706E807F907C0F0121613062E
:103C8000E407F50798F0621B730B840B950B39F46E
:103C90000A2661F0232B242B252B21F408950A26D4
:103CA00009F4A140A6958FEF811D811D089597F914
:103CB0009F6780E870E060E00895882371F47723BF
:103CC00021F09850872B762F07C0662311F499278F
:103CD0000DC09051862B70E060E02AF09A95660F37
:103CE000771F881FDAF7880F9695879597F90895BB
:103CF0009F3F31F0915020F4879577956795B79560
:103D0000880F911D9695879597F908959FEF80EC00
:103D1000089500240A941616170618060906089531
:103D200000240A9412161306140605060895092E97
:103D30000394000C11F4882352F0BB0F40F4BF2B06
:103D400011F460FF04C06F5F7F4F8F4F9F4F089546
:103D500057FD9058440F551F59F05F3F71F047953C
:103D6000880F97FB991F61F09F3F79F08795089521
:103D7000121613061406551FF2CF4695F1DF08C040
:103D8000161617061806991FF1CF8695710561055D
:103D900008940895E5DFA0F0BEE7B91788F4BB27C3
:103DA0009F3860F41616B11D672F782F8827985F0B
:103DB000F7CF869577956795B11D93959639C8F39A
:103DC0000895E894BB2766277727CB0197F90895D4
:103DD0000BD0ADCF9EDF28F0A3DF18F0952309F0BC
:103DE00066CF94CF1124EECFB3DFA0F3959FD1F32C
:103DF000950F50E0551F629FF001729FBB27F00D99
:103E0000B11D639FAA27F00DB11DAA1F649F6627ED
:103E1000B00DA11D661F829F2227B00DA11D621F3C
:103E2000739FB00DA11D621F839FA00D611D221FF6
:103E3000749F3327A00D611D231F849F600D211DDA
:103E4000822F762F6A2F11249F5750408AF0E1F07D
:103E500088234AF0EE0FFF1FBB1F661F771F881FC6
:103E600091505040A9F79E3F510570F020CFAACF46
:103E70005F3FECF3983EDCF3869577956795B795B1
:103E8000F795E7959F5FC1F7FE2B880F911D9695DB
:103E9000879597F9089511F40EF438CF29CF60DF94
:103EA000D0F39923D9F3CEF39F57550B87FF35D025
:103EB0000024A0E640EA900180585695979528F492
:103EC000805C660F771F881F20F02617370748078A
:103ED00030F4621B730B840B202931294A2BA695E1
:103EE00017940794202531254A2758F7660F771F26
:103EF000881F20F026173707480730F4620B730B32
:103F0000840B200D311D411DA09581F7B901842F2F
:103F10009158880F96958795089591505040660F57
:103F2000771F881FD2F7089597FB092E07260AD01E
:103F300077FD04D02ED006D000201AF4709561953C
:103F40007F4F0895F6F7909581959F4F0895A1E2D0
:103F50001A2EAA1BBB1BFD010DC0AA1FBB1FEE1F03
:103F6000FF1FA217B307E407F50720F0A21BB30B4E
:103F7000E40BF50B661F771F881F991F1A9469F7CA
:103F800060957095809590959B01AC01BD01CF0126
:103F90000895AA1BBB1B51E107C0AA1FBB1FA61790
:103FA000B70710F0A61BB70B881F991F5A95A9F7E2
:103FB00080959095BC01CD010895EE0FFF1F0590EF
:103FC000F491E02D0994CF93DF93BC0182309105E9
:103FD00010F462E070E0A091F004B091F104ED0102
:103FE000E0E0F0E040E050E021C088819981861750
:103FF000970769F48A819B81309719F093838283B4
:1040000004C09093F1048093F004FE0133C068175C
:10401000790738F44115510519F08417950708F40C
:10402000AC01FE018A819B819C01E9012097E9F6A0
:1040300041155105A1F1CA01861B970B049708F49D
:10404000BA01E0E0F0E029C08D919C9111978417AE
:104050009507F1F46417750779F4ED018A819B8166
:10406000309719F09383828304C09093F104809376
:10407000F004FD0132964FC0CA01861B970BFD016B
:10408000E80FF91F6193719302978D939C9343C03E
:10409000FD01828193819C01D9011097A9F680913D
:1040A000EE049091EF04892B41F480913B029091B2
:1040B0003C029093EF048093EE0440913D025091B6
:1040C0003E024115510541F44DB75EB7809139026A
:1040D00090913A02481B590B2091EE043091EF0465
:1040E00024173507B0F4CA01821B930B8617970774
:1040F00080F0AB014E5F5F4F8417950750F0420F81
:10410000531F5093EF044093EE04F90161937193B0
:1041100002C0E0E0F0E0CF01DF91CF910895CF93AE
:10412000DF93009709F44EC0EC0122971B821A829C
:10413000A091F004B091F104109701F140E050E03B
:10414000AC17BD0700F1BB83AA83FE012191319119
:10415000E20FF31FAE17BF0771F48D919C91119779
:10416000280F391F2E5F3F4F39832883FD0182813D
:1041700093819B838A834115510569F4D093F1049F
:10418000C093F0041FC0FD0182819381AD010097AF
:1041900011F0DC01D5CFFA01D383C2832191319193
:1041A000E20FF31FCE17DF0769F488819981280F8A
:1041B000391F2E5F3F4FFA01318320838A819B8113
:1041C00093838283DF91CF910895FB01DC010190FD
:1041D0000D920020E1F70895FC0101900020E9F71D
:1041E000809590958E0F9F1F089510E0C0E9D0E054
:1041F00004C0FE010E94DF1F2296C239D107C9F711
:04420000F894FFCF60
:104204006B70006B6400746872657368007370652A
:1042140065640064656C74610061726D53706565FA
:10422400640049526B700049526B640049525370E8
:1042340065656400626567696E495200656E64492C
:1042440052007475726E5370656564007475726E95
:10425400436F756E74004C65617665006F666652D7
:104264006F636B73006F66664952004952636F72E5
:1042740072656374696F6E005357454550494E47E4
:1042840000524553455454494E47006E65672063B8
:104294006F7200706F7320636F7200706F7320739E
:1042A4006D616C6C006E656720736D616C6C00638E
:1042B400656E7465720061667465723A20005748D1
:1042C400415420544F20544553543F005461706569
:1042D40020466F6C6C6F77696E67002A002000417E
:1042E400727469666163742041726D00495220538F
:1042F400656E736F7200474F20484F4D45004C3A2E
:104304002000523A20007468726573683A200049AC
:104314005220464F4C4C4F57494E4700535441523C
:10432400543A20474F20534F46540053544F503A69
:1043340020524554554E4500002000F204000078F8
:10434400003C007800C80078003C009001260282FE
:1043540000D00790010400C8001405640064000143
:104364000078003C002C01C8000000260278003CC4
:1043740000C2017D00D007E8030400640014056452
:1043840000640000C07F4400C07F4400C07F44003C
:104394000061440000A04000C07F4400C07F44008E
:1043A400C07F4400C07F440000FA4400C07F440042
:1043B400C07F440000A04000C07F4400C07F440090
:1043C400C07F4400C07F440F000500050001003297
:1043D4000035003B003800230062006500310034E2
:1043E400003A0037002200610064003000330039D5
:1043F40000360021002000630001FF180019002688
:104404000027000500040001000000000000006611
:104414000100000000CE032102830368039D030111
:104424000204081020408020100880402000000072
:06443400006B1C841C005B
:00000001FF
