:100000000C9448000C947C000C947C000C947C00B4
:100010000C947C000C947C000C947C000C947C0070
:100020000C947C000C9497130C9440120C9466135F
:100030000C94D3120C9404130C940F120C94A2126F
:100040000C94170F0C947C000C9454030C94E30351
:100050000C947C000C947C000C947C000C947C0030
:100060000C9435130C945B140C94C8130C94F91372
:100070000C942A140C9471120C9425030C949C0378
:100080000C947C000C947C000C947C000B05750592
:1000900011241FBECFEFD0E1DEBFCDBF88E483BF08
:1000A00084E00E94851012BE87B7816087BF789474
:1000B00012E0A0E0B1E0E4E4F0E300E00BBF02C036
:1000C00007900D92AC39B107D9F713E0ACE9B2E073
:1000D00001C01D92AC3BB107E1F710E0C0E9D0E0F0
:1000E00004C02297FE010E941C18CC38D107C9F722
:1000F0000E948C140C9420180C940000FB01EE0F4D
:10010000FF1FEE58FD4F808160E070E00E945811A3
:1001100008950F931F93CF93DF93EB018A01CC0FC8
:10012000DD1F57FD0CC0FE01E659FD4F808161E0E7
:100130000E94FB0FCE58DD4F8881B8010EC0FE0132
:10014000E659FD4F808160E00E94FB0FCE58DD4FE5
:1001500066277727601B710B88810E945811DF91F9
:10016000CF911F910F9108951F93CF93DF93C0E01C
:10017000D0E0FE01E659FD4F1081812F61E00E9421
:10018000B20F812F61E00E94FB0FFE01EE58FD4F80
:10019000808160E070E00E9458112296C830D1053D
:1001A00041F7DF91CF911F910895FC0110828AE001
:1001B00090E0938382830895CF93DF93EC018A814B
:1001C00060E00E94FB0F8D8160E00E942B108D810A
:1001D00060E00E944D108B8161E00E94FB0F8C81DA
:1001E00061E00E94FB0F0000000010C08C8160E005
:1001F0000E94FB0F00000000000000008C8161E005
:100200000E94FB0F00000000000000008D810E9492
:10021000421087FDEBCF8C8160E00E94FB0FDF91E5
:10022000CF910895FF920F931F938C01F62E0E9499
:10023000DC00F801828161E00E94FB0FF8018381FC
:1002400060E00E94FB0FF801848161E00E94FB0FD7
:10025000F801858161E00E942B10F80185816F2DE6
:100260000E944D100000000000000000F801848191
:1002700060E00E94FB0FF801858160E00E942B1076
:10028000F80185816FEF0E944D101F910F91FF9033
:100290000895EF92FF920F931F93CF93DF937C010A
:1002A000042F6115710551F0EB0110E005C0C70185
:1002B00069910E9412011F5F1017C8F3DF91CF915F
:1002C0001F910F91FF90EF900895DF93CF930F92BE
:1002D000CDB7DEB76983BE016F5F7F4F41E00E94FB
:1002E00049010F90CF91DF910895FF920F931F93D3
:1002F0008C01F62E0E94DC00F801828160E00E94F1
:10030000FB0FF801838160E00E94FB0FF8018481FC
:1003100061E00E94FB0FF801858161E00E942B10D3
:10032000F80185816F2D0E944D1000000000000033
:100330000000F801848160E00E94FB0FF8018581D4
:1003400060E00E942B10F80185816FEF0E944D1034
:100350001F910F91FF900895423031F0433031F0FA
:10036000413029F4605C03C06C5E01C06C5A606867
:100370000E947501089562E00E947501089561E090
:100380000E94750108950F931F938C01FC018281D7
:1003900060E00E94FB0FF801838160E00E94FB0F88
:1003A000F801848160E00E94FB0FF801828161E026
:1003B0000E94B20FF801838161E00E94B20FF80140
:1003C000848161E00E94B20FF801858160E00E94A3
:1003D0002B10F80185816FEF0E944D101F910F9136
:1003E00008950F931F938C010E94C301C80168E315
:1003F0000E947501C80161E00E947501C80166E0B4
:100400000E947501C8016CE00E947501C80162E09C
:100410000E947501C80160E80E9475011F910F914B
:1004200008950F93FC018EE792E0918380836283AD
:10043000438324830583CF010E94F1010F91089526
:100440005F926F927F928F929F92AF92BF92CF9264
:10045000DF92EF92FF920F931F93CF93DF93EC0104
:100460003A014B01413482E458078FE0680780E08D
:1004700078070CF07FC060E874E88EE190E0A4019A
:1004800093010E94EB172150304040405040CA0178
:10049000B90122E030E040E050E00E94EB17590142
:1004A0006A01A6019501209530954095509594E0FC
:1004B000220F331F441F551F9A95D1F760E074E255
:1004C00084EF90E00E94EB17CA01B9012FEF30E0F2
:1004D00040E050E00E949717A40193010E94EB179F
:1004E000C90181509F4F181619061CF4522E5A94B8
:1004F00003C055245394521A60E079E08DE390E0F4
:10050000A40193010E94EB1721503040404050401D
:10051000CA01B90122E030E040E050E00E94EB1750
:10052000209530954095509583E0220F331F441F4E
:10053000551F8A95D1F760E074E284EF90E00E9445
:10054000EB17CA01B9012FEF30E040E050E00E9404
:100550009717A40193010E94EB17C90181509F4F87
:10056000181619061CF4822F815002C081E0821BEC
:100570008515E8F4CA5BDF4FE881F981C654D040A5
:1005800082E0808360E079E08DE390E0A401930154
:100590000E94EB172150304040405040CA01B90141
:1005A00022E030E040E050E00E94EB1708C0CA5B58
:1005B000DF4FE881F981C654D04010829501CE5BAF
:1005C000DF4FE991F9913083E881F9812083249606
:1005D000E881F98188E98083DF91CF911F910F91A4
:1005E000FF90EF90DF90CF90BF90AF909F908F9053
:1005F0007F906F905F900895FC0124813581C9013F
:100600000895DC01FC0182819381809714F080E0E1
:100610000895FD0182819381019693838283848171
:100620009581E80FF91F60870196FD01958384830A
:100630002D913C9111978217930714F481E008954E
:10064000FD011582148281E008951F920F920FB66A
:100650000F920BB60F9211242F933F934F935F93FA
:100660006F937F938F939F93AF93BF93EF93FF937A
:10067000E0913203F091330360818AEE92E00E94B0
:100680000103FF91EF91BF91AF919F918F917F9166
:100690006F915F914F913F912F910F900BBE0F90F3
:1006A0000FBE0F901F9018951F920F920FB60F92CA
:1006B0000BB60F9211242F933F934F935F936F9339
:1006C0007F938F939F93AF93BF93EF93FF93E091AB
:1006D000E602F091E70260818EE992E00E94010358
:1006E000FF91EF91BF91AF919F918F917F916F910A
:1006F0005F914F913F912F910F900BBE0F900FBEC6
:100700000F901F901895DC01FC0182819381019765
:100710009383828386819781E80FF91F4085019634
:10072000FD01978386832D913C918217930714F0E6
:1007300017821682842F08951F920F920FB60F9280
:100740000BB60F9211240F931F932F933F934F9348
:100750005F936F937F938F939F93AF93BF93EF9329
:10076000FF9380911403909115031816190654F401
:10077000009132031091330382E193E00E948303DE
:10078000F80180838091140390911503892B31F433
:10079000E0913003F091310388E98083FF91EF917C
:1007A000BF91AF919F918F917F916F915F914F9189
:1007B0003F912F911F910F910F900BBE0F900FBE85
:1007C0000F901F9018951F920F920FB60F920BB6B5
:1007D0000F9211240F931F932F933F934F935F9387
:1007E0006F937F938F939F93AF93BF93EF93FF93F9
:1007F0008091C8029091C9021816190654F400910C
:10080000E6021091E70286EC92E00E948303F80171
:1008100080838091C8029091C902892B31F4E091C4
:10082000E402F091E50288E98083FF91EF91BF91A6
:10083000AF919F918F917F916F915F914F913F9178
:100840002F911F910F910F900BBE0F900FBE0F9025
:100850001F901895DC01FC0182819381019793839D
:10086000828386819781E80FF91F40850196FD01FB
:10087000978386832D913C918217930714F01782FA
:100880001682842F0895FC0184819581892B19F4A7
:100890002FEF3FEF06C0CF0102960E942A04282FB7
:1008A00030E0C9010895CF93DF93EC01EE81FF8121
:1008B000E80FF91F8085DF91CF910895FC018481B5
:1008C0009581892B19F42FEF3FEF06C0CF010296D7
:1008D0000E945304282F30E0C9010895FC011382BF
:1008E000128282819381978386839583848308957E
:1008F00002960E946E040895FC0180E290E09183CC
:100900008083CF010E946E040895DC01FC01828186
:100910009381409714F080E00895FD0182819381D6
:1009200001969383828384819581E80FF91F608704
:100930000196FD01958384832D913C911197821737
:10094000930714F481E00895FD011582148281E07B
:100950000895CF93DF93EC018CA59DA54097E4F714
:10096000F894CE018A960E948504C85BDF4FE88127
:10097000F9818081806280837894DF91CF9108959E
:10098000FC011382128282819381978386839583EF
:1009900084830895FC0180E190E091838083CF01FE
:1009A0000E94C00408956F927F928F929F92AF929F
:1009B000BF92CF92DF92EF92FF920F931F936C0141
:1009C0005B014A013901FC0184E892E08193919333
:1009D000CF010E947C04C6018A960E94CA0482E468
:1009E00090E0C80ED91EF601A192B1928192919227
:1009F0006192719201931193F182E0821F910F91A4
:100A0000FF90EF90DF90CF90BF90AF909F908F902E
:100A10007F906F900895EF92FF920F931F938CE950
:100A200092E060E970E049E250E02BE230E00AE257
:100A300010E0FCE2EF2EF12C0E94D30488EE92E04D
:100A400068E970E049E950E02BE930E00AE910E09C
:100A5000ECE9EE2EF12C0E94D3041F910F91FF9030
:100A6000EF90089524E630E0309323022093220291
:100A70008CE390E090932502809324023093270228
:100A80002093260281EE90E0909329028093280221
:100A9000109249031092480330932B0220932A02AC
:100AA00082E390E090932D0280932C0288EC90E0FA
:100AB00090932F0280932E0286E292E0909331026F
:100AC0008093300286E990E0909333028093320263
:100AD00080E496E0909335028093340281E090E0C8
:100AE000909337028093360208950F9384E393E046
:100AF0006AE14BE12CE102E00E9411028AE393E0FB
:100B00000E94B4008CE393E00E94D50080E493E05F
:100B10000E94D50084E493E00E94D5000F910895CF
:100B20000F931F9383E00E9461108C0184E00E9468
:100B300061109C01200F311FC9011F910F91089571
:100B40004F925F926F927F928F929F92AF92BF92DD
:100B5000CF92DF92EF92FF920F931F93CF93DF9389
:100B60004C013B01EA0169015801270181E00E9423
:100B700061107C0182E00E9461108C0184E393E0AB
:100B80000E94BF0184E393E00E94BB0184E393E0F1
:100B900060E071E00E94A51484E393E0B7010E9435
:100BA000691584E393E068E040E00E94AC0184E3CF
:100BB00093E064E071E00E94A51484E393E0B8013F
:100BC0000E946915C017D10744F4CE15DF058CF4D7
:100BD00010928303109282030CC00C171D074CF473
:100BE000CE15DF0534F481E090E090938303809389
:100BF0008203EC16FD064CF4C017D10734F48FEFD6
:100C00009FEF90938303809382030C171D070CF5CD
:100C1000EC16FD06F4F4209184033091850337FF30
:100C20000BC080913C0290913D02909581959F4F21
:100C300090938303809382031216130654F48091D9
:100C40003C0290913D028A0D9B1D909383038093FB
:100C50008203809184039091850340918203509197
:100C6000830384179507B1F09093870380938603DD
:100C7000509385034093840380918E0390918F035A
:100C8000909391038093900381E090E090938F0381
:100C900080938E03849E9001859E300D949E300D2E
:100CA00011243093890320938803809186039091C7
:100CB0008703481B590B60918E0370918F038091BD
:100CC000900390919103680F791F649EC001659E07
:100CD000900D749E900D11240E94B617CB01709355
:100CE0008B0360938A03820F931F90938D038093ED
:100CF0008C03452819F40FEF1FEF02C001E010E04C
:100D00008C0D9D1D089FA001099F500D189F500D2F
:100D100011248AE393E060E070E00E9489008091F2
:100D20008C0390918D03C81AD90A0C9DA0010D9DCA
:100D3000500D1C9D500D11248AE393E061E070E09A
:100D40000E94890080918E0390918F030196909369
:100D50008F0380938E0380918C0390918D03DF919C
:100D6000CF911F910F91FF90EF90DF90CF90BF90A8
:100D7000AF909F908F907F906F905F904F9008956D
:100D800081E30E94E20F20E030E0882311F421E0AB
:100D900030E0C901089582E30E94E20F20E030E0D4
:100DA000882311F421E030E0C9010895EF92FF9209
:100DB0000F931F93CF93DF93EC018C010E5F1F4FB6
:100DC00081E0E82EF12C5DC086E00E9461109983DD
:100DD00088830E94C006892BA9F062E370E080E05E
:100DE00090E00E948C0F0E94C006892B59F0F801F8
:100DF00080819181892B19F01182108203C0F80142
:100E0000F182E08284E393E00E94BF0184E393E0F7
:100E10000E94BB0184E393E060E040E00E94AC01EB
:100E200084E393E068E071E00E94A5146881798111
:100E300084E393E00E94691584E393E060E041E07D
:100E40000E94AC0184E393E064E171E00E94A51488
:100E50008A819B81892B29F084E393E06FE171E023
:100E600004C084E393E061E271E00E94A5146AE0AB
:100E700070E080E090E00E948C0F84E393E00E9499
:100E8000BF010E94CB06892B09F49ECF06C062E306
:100E900070E080E090E00E948C0F0E94CB06892BCE
:100EA000B1F7DF91CF911F910F91FF90EF900895CF
:100EB0001F93182F61E00E94FB0F812F0E94E20F09
:100EC000813019F020E030E013C062E370E080E090
:100ED00090E00E948C0F812F61E00E94FB0F812F18
:100EE0000E94E20F20E030E0813011F421E030E098
:100EF000C9011F9108950F931F93CF93DF938C0126
:100F000084E393E00E94BF0184E393E00E94BB016D
:100F100084E393E060E040E00E94AC0184E393E06E
:100F200063E271E00E94A51484E393E060E041E095
:100F30000E94AC0184E393E06CE271E00E94A5148E
:100F4000CC27DD27C01BD10B83E090E00E9458071F
:100F5000892B41F48AE393E062E070E0AE010E94E5
:100F60008900F2CF84E393E00E94BF018AE393E01B
:100F700062E070E00E947E0084E393E00E94BB0187
:100F800084E393E060E040E00E94AC0184E393E0FE
:100F900061E371E00E94A51484E393E060E041E026
:100FA0000E94AC0184E393E06EE371E00E94A5141B
:100FB00080E090E00E945807892B49F48AE393E08F
:100FC00062E070E04CE251E00E948900F1CF84E3DE
:100FD00093E00E94BF018AE393E062E070E00E9428
:100FE0007E00DF91CF911F910F9108956F927F92B4
:100FF0008F929F92AF92BF92CF92DF92EF92FF9229
:101000000F931F93CF93DF936C014B015A0138016B
:1010100083E00E9461107C0184E00E9461108C01D9
:1010200084E393E00E94BF0184E393E00E94BB014C
:1010300084E393E060E071E00E94A51484E393E010
:10104000B7010E94691584E393E068E040E00E94E4
:10105000AC0184E393E064E071E00E94A51484E3B2
:1010600093E0B8010E94691584E393E060E041E0F9
:101070000E94AC0184E393E066E471E00E94A51451
:10108000609172037091730384E393E00E94691589
:10109000C701801B910B90937303809372036AE0E6
:1010A00070E080E090E00E948C0F8091740390913A
:1010B0007503C0917203D09173038C179D07B1F033
:1010C0009093770380937603D0937503C093740352
:1010D00080917E0390917F0390938103809380039E
:1010E00081E090E090937F0380937E030E0D1F1D9F
:1010F000B801882777FD8095982F0E940C160E94D2
:1011000052177B018C01AC9EB001AD9E700DBC9E50
:10111000700D1124882777FD8095982F0E940C165A
:10112000A80197010E9471150E94D9159B01709327
:101130007903609378038091760390917703C81BBD
:10114000D90B60917E0370917F0380918003909111
:101150008103680F791F8C9EC0018D9E900D9C9E0F
:10116000900D11240E94B61770937B0360937A034D
:10117000260F371F30937D0320937C0384E393E095
:1011800068E041E00E94AC0184E393E06BE471E02D
:101190000E94A51460917C0370917D0384E393E029
:1011A0000E946915672819F40FEF1FEF02C001E0D4
:1011B00010E080917C0390917D038C0D9D1D089F14
:1011C000A001099F500D189F500D11248AE393E050
:1011D00060E070E00E94890080917C0390917D0323
:1011E000C81AD90A0C9DA0010D9D500D1C9D500DD3
:1011F00011248AE393E061E070E00E94890080910D
:101200007E0390917F03019690937F0380937E03EA
:10121000DF91CF911F910F91FF90EF90DF90CF90D2
:10122000BF90AF909F908F907F906F900895AF92F6
:10123000BF92CF92DF92EF92FF920F931F93CF93C3
:10124000DF93EC0136E0C32ED12CC80ED91E21E06D
:10125000A22EB12C94E0E92EF12CEC0EFD1E8E0195
:101260000E5F1F4F4BC184E393E00E94BB0184E3F8
:1012700093E060E040E00E94AC0184E393E06FE41F
:1012800071E00E94A51486E00E946110AA2797FDD4
:10129000A095BA2FBC01CD010E940C1620E030ECC5
:1012A0004FE754E40E94711520E030E040E850E43C
:1012B0000E94EB160E9447160E94D91570934B03AB
:1012C00060934A0384E393E00E94BB0184E393E0CC
:1012D00060E041E00E94AC0180914A0390914B0391
:1012E000009709F03FC084E393E06DE571E00E9450
:1012F000A5148881998181309105B9F484E393E044
:101300006FE040E00E94AC0184E393E06CE671E0A2
:101310000E94A5140E94C006892BF9F00E94C00605
:10132000892BE1F71982188218C0892BB1F484E364
:1013300093E06FE040E00E94AC0184E393E06EE64E
:1013400071E00E94A5140E94C006892B31F00E9412
:10135000C006892BE1F7B982A8826CE271E080E0D7
:1013600090E0C6C081309105E9F584E393E060E741
:1013700071E00E94A514F80180819181813091056E
:10138000B9F484E393E06FE040E00E94AC0184E3B1
:1013900093E06CE671E00E94A5140E94C006892BC0
:1013A00009F460C00E94C006892BE1F7F8013EC035
:1013B000892B09F057C084E393E06FE040E00E947E
:1013C000AC0184E393E06EE671E00E94A5140E94F4
:1013D000C006892B09F446C00E94C006892BE1F79C
:1013E000F8013EC0029709F042C084E393E06DE744
:1013F00071E00E94A514F7018081918181309105EF
:10140000C1F484E393E06FE040E00E94AC0184E328
:1014100093E06CE671E00E94A5140E94C006892B3F
:1014200009F10E94C006892BE1F7F70111821082B1
:1014300019C0892BB9F484E393E06FE040E00E9487
:10144000AC0184E393E06EE671E00E94A5140E9473
:10145000C006892B39F00E94C006892BE1F7F701FD
:10146000B182A08264E670E080E090E041C084E355
:1014700093E067E871E00E94A514F60180819181F4
:1014800081309105C1F484E393E06FE040E00E9475
:10149000AC0184E393E06CE671E00E94A5140E9425
:1014A000C006892B09F10E94C006892BE1F7F601DD
:1014B0001182108219C0892BB9F484E393E06FE0A4
:1014C00040E00E94AC0184E393E06EE671E00E948C
:1014D000A5140E94C006892B39F00E94C006892BF2
:1014E000E1F7F601B182A0826AE070E080E090E06E
:1014F0000E948C0F84E393E00E94BF010E94CB0600
:10150000892B09F4B0CE06C062E370E080E090E081
:101510000E948C0F0E94CB06892BB1F7DF91CF91EF
:101520001F910F91FF90EF90DF90CF90BF90AF9001
:101530000895AF92BF92CF92DF92EF92FF920F93F6
:101540001F93CF93DF938C01EC0122964AC086E073
:101550000E946110F8019183808387E00E946110EE
:101560009983888384E393E00E94BB0184E393E042
:1015700060E040E00E94AC0184E393E067E971E041
:101580000E94A51484E393E060E041E00E94AC0176
:1015900084E393E063EB71E00E94A514F80160819D
:1015A000718184E393E00E94691584E393E068E02D
:1015B00041E00E94AC0184E393E067EB71E00E949C
:1015C000A5146881798184E393E00E9469156AE03B
:1015D00070E080E090E00E948C0F84E393E00E9432
:1015E000BF010E94CB06892B09F4B1CF06C062E38C
:1015F00070E080E090E00E948C0F0E94CB06892B67
:10160000B1F74BC083E00E9461107C0184E00E942E
:1016100061106C0186E00E946110998388838D5B64
:10162000924014F0B982A88284E393E060E040E045
:101630000E94AC0184E393E060E071E00E94A51495
:1016400084E393E0B7010E94691584E393E064E0CA
:1016500071E00E94A51484E393E0B6010E9469152D
:1016600084E393E060E041E00E94AC0184E393E016
:101670006BEB71E00E94A5146881798184E393E0AB
:101680000E9469156AE070E080E090E00E948C0F93
:1016900084E393E00E94BF0106C0E80124965CEB5E
:1016A000A52E52E0B52E0E94CB06892B09F4AACFB5
:1016B00006C062E370E080E090E00E948C0F0E9420
:1016C000CB06892BB1F757C086E00E946110F70165
:1016D0009183808387E00E946110AA2797FDA095DF
:1016E000BA2FBC01CD010E940C1620E030EC4FE770
:1016F00054E40E94711520E030E04AEF54E40E9467
:10170000EB160E9447160E94D9157983688384E3FB
:1017100093E00E94BB0184E393E060E040E00E941C
:10172000AC0184E393E063EC71E00E94A514F7013F
:101730006081718184E393E00E94691584E393E002
:1017400060E041E00E94AC0184E393E06BEC71E067
:101750000E94A5146881798184E393E00E94691551
:101760006EE170E080E090E00E948C0F84E393E0F3
:101770000E94BF0107C046E0E42EF12CE00EF11EEE
:10178000E80128960E94CB06892B09F49DCF06C05C
:1017900062E370E080E090E00E948C0F0E94CB0634
:1017A000892BB1F7DF91CF911F910F91FF90EF90AF
:1017B000DF90CF90BF90AF900895CF92DF92EF92DD
:1017C000FF920F931F93CF93DF936C01EC0122964E
:1017D0004AC086E00E946110F6019183808387E011
:1017E0000E9461109983888384E393E00E94BB0187
:1017F00084E393E060E040E00E94AC0184E393E086
:1018000061ED71E00E94A51484E393E060E041E0A3
:101810000E94AC0184E393E063EB71E00E94A514A5
:10182000F6016081718184E393E00E94691584E38D
:1018300093E068E041E00E94AC0184E393E067EB51
:1018400071E00E94A5146881798184E393E00E948D
:1018500069156AE070E080E090E00E948C0F84E3FC
:1018600093E00E94BF010E94CB06892B09F4B1CFFF
:1018700006C062E370E080E090E00E948C0F0E945E
:10188000CB06892BB1F746C081E00E9461108C0124
:1018900082E00E9461107C0186E00E9461109983C1
:1018A000888384E393E060E041E00E94AC0184E33C
:1018B00093E06DED71E00E94A5146881798184E365
:1018C00093E00E94691584E393E060E040E00E94A9
:1018D000AC0184E393E060E071E00E94A51484E32E
:1018E00093E0B8010E94691584E393E069EE71E02A
:1018F0000E94A51484E393E0B7010E94691564E691
:1019000070E080E090E00E948C0F84E393E00E94FE
:10191000BF0102C0E60124960E94CB06892B09F480
:10192000B3CF06C062E370E080E090E00E948C0FCD
:101930000E94CB06892BB1F75AC086E00E94611045
:101940009983888387E00E946110AA2797FDA0955C
:10195000BA2FBC01CD010E940C1620E030EC4FE7FD
:1019600054E40E94711520E030E040EA50E40E9407
:10197000EB160E9447160E94D915F6017183608309
:10198000888199818D5B924014F01983088384E3E8
:1019900093E060E040E00E94AC0184E393E06BEBF5
:1019A00071E00E94A5146881798184E393E00E942C
:1019B000691584E393E060E041E00E94AC0184E3B8
:1019C00093E06EEE71E00E94A514F60160817181D2
:1019D00084E393E00E9469156AE070E080E090E0A3
:1019E0000E948C0F84E393E00E94BF0108C0E601CF
:1019F000269688E090E0C80ED91E0CEB12E00E94FB
:101A0000CB06892B09F499CF06C062E370E080E031
:101A100090E00E948C0F0E94CB06892BB1F7DF91DA
:101A2000CF911F910F91FF90EF90DF90CF9008958D
:101A3000EF92FF920F931F93CF93DF9380913A021F
:101A400090913B02019709F060C186E693E00E9405
:101A5000170984E393E00E94BB0184E393E060E014
:101A600040E00E94AC0184E393E066EF71E00E94E5
:101A7000A51464E170E080E090E00E948C0F84E3A4
:101A800093E00E94BF010E94CB06892B49F081E0C0
:101A900090E090935103809350030E94320508C058
:101AA0000E94C006892BA9F2109251031092500394
:101AB0000E94CB06892B29F40E94C006892B09F4C9
:101AC0008AC162E370E080E090E00E948C0FF0CF6A
:101AD0008091660390916703019761F582E593E039
:101AE0000E94DD0B80915203909153039093230247
:101AF0008093220280915403909155039093250284
:101B0000809324028091560390915703909327026B
:101B10008093260280915803909159039093290253
:101B20008093280280915A0390915B03909349031C
:101B30008093480380916803909169030197A1F411
:101B40008EE693E00E94D60680916E0390916F031B
:101B500090933102809330028091700390917103D1
:101B600090934F0380934E0380916A0390916B038F
:101B7000019709F0CAC08CE593E00E94990A809110
:101B80005C0390915D0390932B0280932A028091D5
:101B90005E0390915F0390932D0280932C028091BD
:101BA00060039091610390932F0280932E028091A5
:101BB0006203909163039093330280933202809189
:101BC00064039091650390933502809334029DC025
:101BD0008091660390916703019701F5609124025B
:101BE00070912502409126025091270220913802DF
:101BF000309139028091280290912902280F391FD3
:101C00000091480310914903E0903602F0903702AA
:101C100080912202909123020E94A0058FB7F89430
:101C2000969A8FBF8091680390916903019771F52F
:101C300086E00E94E20F813049F58AE393E060E09C
:101C400070E00E947E008AE393E061E070E00E9411
:101C50007E0080913002909131020E947B0780913A
:101C60004C0390914D03019690934D0380934C0348
:101C70008130910529F4D0933902C093380206C00F
:101C8000029721F4109239021092380280916A036F
:101C900090916B030197D9F50E9490052091320233
:101CA000309133022817390794F510926703109288
:101CB000660360912A0270912B0240912C02509190
:101CC0002D0220913402309135020091360210919C
:101CD000370280912E0290912F020E94F6070E94F7
:101CE00090052091340230913502821793077CF0E1
:101CF0008AE393E060E070E00E947E008AE393E074
:101D000061E070E00E947E001AC0C4E6D0E00E944C
:101D1000C006892B09F45CCF12C08AE393E060E02F
:101D200070E00E947E008AE393E061E070E00E9430
:101D30007E0062E370E080E090E00E948C0F0E94E1
:101D4000C006892B51F784E393E00E94BB0184E332
:101D500093E060E040E00E94AC0184E393E066E041
:101D600072E00E94A51484E393E060E041E00E94E9
:101D7000AC0184E393E065E172E00E94A5146AE09F
:101D800070E080E090E00E948C0F84E393E00E947A
:101D9000BF010E94CB06892B29F010923B021092C2
:101DA0003A020AC00E94C006892B69F281E090E0E5
:101DB00090933B0280933A020E94CB06892B21F438
:101DC0000E94C006892B79F062E370E080E090E029
:101DD0000E948C0FF1CF8091500390915103892B79
:101DE00009F476CE92CFDF91CF911F910F91FF90A2
:101DF000EF9008958CE992E040E855E260E070E0F1
:101E00000E94200280E060E00E942B1081E060E0F0
:101E10000E942B1080E060E00E94B20F83E060E03F
:101E20000E94B20F86E060E00E94B20F08951F92F8
:101E30000F920FB60F9211242F933F938F939F937E
:101E4000AF93BF938091960390919703A0919803CD
:101E5000B091990330919A030196A11DB11D232FD2
:101E60002D5F2D3720F02D570196A11DB11D209318
:101E70009A038093960390939703A0939803B0934B
:101E800099038091920390919303A0919403B09150
:101E900095030196A11DB11D809392039093930326
:101EA000A0939403B0939503BF91AF919F918F91AD
:101EB0003F912F910F900FBE0F901F9018956FB705
:101EC000F8942091920330919303409194035091A0
:101ED000950382B790E0A0E0B0E006B600FE09C02E
:101EE0008F3F9105A105B10521F02F5F3F4F4F4F67
:101EF0005F4F6FBF542F432F322F2227280F391FD8
:101F00004A1F5B1F82E0220F331F441F551F8A9513
:101F1000D1F7B901CA010895EF92FF920F931F9371
:101F2000CF93DF937B018C010E945F0FEB010EC00A
:101F30000E945F0F6C1B7D0B685E7340C8F30894B2
:101F4000E108F10801091109C851DC4FE114F1045D
:101F50000105110569F7DF91CF911F910F91FF9056
:101F6000EF900895E82FE695E695E695A82FB0E066
:101F7000613099F42FB7F894F0E0EE0FFF1FE45BA7
:101F8000FD4F0190F081E02D9081A770B070A257B5
:101F9000BD4F8C91982B908313C02FB7F894F0E02D
:101FA000EE0FFF1FE45BFD4F0190F081E02D90816B
:101FB000A770B070A257BD4F8C9180958923808304
:101FC0002FBF0895A82FE82FE695E695E695F0E057
:101FD000EE0FFF1FE65AFD4F0190F081E02DE081EA
:101FE000B0E0A770B070A257BD4F8C91E82309F004
:101FF000E1E08E2F0895E82FE695E695E695A82F67
:10200000B0E0613099F42FB7F894F0E0EE0FFF1FC5
:10201000E25CFD4F0190F081E02D9081A770B070DF
:10202000A257BD4F8C91982B908313C02FB7F89473
:10203000F0E0EE0FFF1FE25CFD4F0190F081E02D1C
:102040009081A770B070A257BD4F8C918095892365
:1020500080832FBF0895E82FF0E0613051F4EE0F38
:10206000FF1FE45BFD4F0190F081E02D8FEF808337
:102070000895EE0FFF1FE45BFD4F0190F081E02D0E
:1020800010820895E82FF0E0EE0FFF1FE65AFD4F93
:102090000190F081E02D80810895E82FF0E0EE0FAF
:1020A000FF1FE25CFD4F0190F081E02D60830895F9
:1020B000109261001092620080E487B987EE86B9C1
:1020C00008951F93182F80916802813021F40E9497
:1020D00058101092680280916902181721F4349AFE
:1020E000349BFECF0DC01093690287B11770807EBC
:1020F000812B87B9349A349BFECF349A349BFECF20
:1021000024B135B1C9011F91089593B7987F982BD9
:1021100093BF08959EB5987F982B9EBD089583E048
:102120000E948A101DBC1CBC87B7846087BF0895BD
:10213000EAE8F0E09081987F982B9083089583E0FF
:102140000E9498101092890010928800EDE7F0E04C
:102150008081846080830895893031F48FB58260F6
:102160008FBD8FB58E7F0AC08A3019F48FB582601B
:1021700002C08FB58D7F8FBD8FB581608FBD1BBCB9
:102180001ABC19BC18BC10927900109278000895FE
:102190008FB580688FBD8FB58F7B8FBD08958FB54C
:1021A00080628FBD8FB58F7E8FBD08958FB588609B
:1021B0008FBD8FB58B7F8FBD08959BBD8ABD089560
:1021C00099BD88BD08959093790080937800089513
:1021D000893049F480918B00826080938B008091DC
:1021E0008B008E7F0EC08A3021F480918B0082603C
:1021F00003C080918B008D7F80938B0080918B003A
:10220000816080938B00109287001092860010925C
:10221000850010928400109283001092820008952D
:10222000EBE8F0E080818068808380818F7B808311
:102230000895EBE8F0E080818062808380818F7E6A
:1022400080830895EBE8F0E080818860808380815E
:102250008B7F80830895853019F40E94C8100895FB
:10226000843019F40E94CF100895833019F40E942D
:10227000D6100895823019F40E941011089581300B
:1022800019F40E9419110895882311F40E94221153
:102290000895909387008093860008959093850019
:1022A0008093840008959093830080938200089522
:1022B000EF92FF921F93CF93DF93182F7B018D3105
:1022C000B0F08F3111F413E014C08E3111F414E02A
:1022D00010C08D3109F49BC0853211F410E03DC06F
:1022E000843211F411E039C0833219F48EC0833086
:1022F000A0F180919B0386FD0BC00E948F10789403
:102300008AE00E94AC1080919B03806480939B03C1
:1023100080919B03C12FD0E090E0012E02C09595E3
:1023200087950A94E2F780FD4CC087B3FE01EA5618
:10233000FD4F9081892B87BB812F0E942B1120910B
:102340009B0381E090E0012E02C0880F991F0A9440
:10235000E2F7282B20939B0334C080919B0387FDD9
:102360000BC00E949F1078948AE00E94E810809130
:102370009B03806880939B0380919B03C12FD0E0D7
:1023800090E0012E02C0959587950A94E2F780FDB2
:1023900024C082B1FE01EA56FD4F9081892B82B99B
:1023A000812F0E942B1120919B0381E090E0012E50
:1023B00002C0880F991F0A94E2F7282B20939B03F1
:1023C0000CC0153021F4C7010E94DD1022C014306A
:1023D00021F4C7010E94E0101CC0133021F4C70192
:1023E0000E94E31016C0123021F4C7010E94491167
:1023F00010C0113021F4C7010E944E110AC01123F0
:1024000041F4C7010E94531104C012E0A6CF15E0A9
:1024100070CFDF91CF911F91FF90EF9008951F92A1
:102420000F920FB60F920BB60F9211242F933F937A
:102430004F935F936F937F938F939F93AF93BF93CC
:10244000EF93FF938091A2039091A303892B29F02E
:10245000E091A203F091A3030995FF91EF91BF9141
:10246000AF919F918F917F916F915F914F913F912C
:102470002F910F900BBE0F900FBE0F901F901895CD
:102480001F920F920FB60F920BB60F9211242F933B
:102490003F934F935F936F937F938F939F93AF93EC
:1024A000BF93EF93FF938091AC039091AD03892B81
:1024B00029F0E091AC03F091AD030995FF91EF9104
:1024C000BF91AF919F918F917F916F915F914F914C
:1024D0003F912F910F900BBE0F900FBE0F901F904A
:1024E00018951F920F920FB60F920BB60F921124F0
:1024F0002F933F934F935F936F937F938F939F930C
:10250000AF93BF93EF93FF938091B2039091B30386
:10251000892B29F0E091B203F091B3030995FF9163
:10252000EF91BF91AF919F918F917F916F915F914B
:102530004F913F912F910F900BBE0F900FBE0F90B8
:102540001F9018951F920F920FB60F920BB60F9215
:1025500011242F933F934F935F936F937F938F93A8
:102560009F93AF93BF93EF93FF9380919E039091BE
:102570009F03892B29F0E0919E03F0919F03099519
:10258000FF91EF91BF91AF919F918F917F916F914B
:102590005F914F913F912F910F900BBE0F900FBE07
:1025A0000F901F9018951F920F920FB60F920BB6B7
:1025B0000F9211242F933F934F935F936F937F93C9
:1025C0008F939F93AF93BF93EF93FF938091A40357
:1025D0009091A503892B29F0E091A403F091A50324
:1025E0000995FF91EF91BF91AF919F918F917F914D
:1025F0006F915F914F913F912F910F900BBE0F9074
:102600000FBE0F901F9018951F920F920FB60F924A
:102610000BB60F9211242F933F934F935F936F93B9
:102620007F938F939F93AF93BF93EF93FF9380918B
:10263000A6039091A703892B29F0E091A603F091BE
:10264000A7030995FF91EF91BF91AF919F918F9152
:102650007F916F915F914F913F912F910F900BBEA2
:102660000F900FBE0F901F9018951F920F920FB6EC
:102670000F920BB60F9211242F933F934F935F93BA
:102680006F937F938F939F93AF93BF93EF93FF933A
:102690008091A8039091A903892B29F0E091A803C8
:1026A000F091A9030995FF91EF91BF91AF919F918F
:1026B0008F917F916F915F914F913F912F910F90EB
:1026C0000BBE0F900FBE0F901F9018951F920F9288
:1026D0000FB60F920BB60F9211242F933F934F9387
:1026E0005F936F937F938F939F93AF93BF93EF937A
:1026F000FF938091AA039091AB03892B29F0E0917D
:10270000AA03F091AB030995FF91EF91BF91AF91AF
:102710009F918F917F916F915F914F913F912F91F9
:102720000F900BBE0F900FBE0F901F9018951F9229
:102730000F920FB60F920BB60F9211242F933F9367
:102740004F935F936F937F938F939F93AF93BF93B9
:10275000EF93FF938091AE039091AF03892B29F003
:10276000E091AE03F091AF030995FF91EF91BF9116
:10277000AF919F918F917F916F915F914F913F9119
:102780002F910F900BBE0F900FBE0F901F901895BA
:102790001F920F920FB60F920BB60F9211242F9328
:1027A0003F934F935F936F937F938F939F93AF93D9
:1027B000BF93EF93FF938091B4039091B503892B5E
:1027C00029F0E091B403F091B5030995FF91EF91E1
:1027D000BF91AF919F918F917F916F915F914F9139
:1027E0003F912F910F900BBE0F900FBE0F901F9037
:1027F00018951F920F920FB60F920BB60F921124DD
:102800002F933F934F935F936F937F938F939F93F8
:10281000AF93BF93EF93FF938091B6039091B7036B
:10282000892B29F0E091B603F091B7030995FF9148
:10283000EF91BF91AF919F918F917F916F915F9138
:102840004F913F912F910F900BBE0F900FBE0F90A5
:102850001F9018951F920F920FB60F920BB60F9202
:1028600011242F933F934F935F936F937F938F9395
:102870009F93AF93BF93EF93FF938091B803909191
:10288000B903892B29F0E091B803F091B9030995B8
:10289000FF91EF91BF91AF919F918F917F916F9138
:1028A0005F914F913F912F910F900BBE0F900FBEF4
:1028B0000F901F9018951F920F920FB60F920BB6A4
:1028C0000F9211242F933F934F935F936F937F93B6
:1028D0008F939F93AF93BF93EF93FF938091BA032E
:1028E0009091BB03892B29F0E091BA03F091BB03CF
:1028F0000995FF91EF91BF91AF919F918F917F913A
:102900006F915F914F913F912F910F900BBE0F9060
:102910000FBE0F901F90189583E061E00E942B106E
:1029200084E061E00E942B1078940E94FA0E0E94CD
:10293000180DFDCFDC01ED91FC910190F081E02DAF
:10294000099508950E949A1408950F931F93CF93A9
:10295000DF938C01EB0104C02196C8010E94A214F0
:1029600068816623C9F7DF91CF911F910F91089578
:102970002F923F924F925F926F927F928F929F928F
:10298000AF92BF92CF92DF92EF92FF920F931F937D
:10299000DF93CF93CDB7DEB7A0970FB6F894DEBF25
:1029A0000FBECDBF1C016A017B01411551056105B8
:1029B000710521F460E30E94A2144FC08824992479
:1029C0005401422E55246624772401E010E00C0FB8
:1029D0001D1F080D191DC701B601A30192010E9418
:1029E000C917F80160830894811C911CA11CB11CBB
:1029F000C701B601A30192010E94C917C901DA01FA
:102A00006C017D01C114D104E104F104F1F681E00F
:102A1000E82EF12CEC0EFD1EE80CF91C3E0108948A
:102A2000611C711CD501C4010197A109B1096C0198
:102A3000C818D9080FC0F601EE0DFF1D60816A307D
:102A400010F4605D01C0695CC1010E94A214089489
:102A5000E108F1086E147F0471F7A0960FB6F894A0
:102A6000DEBF0FBECDBFCF91DF911F910F91FF90C1
:102A7000EF90DF90CF90BF90AF909F908F907F901E
:102A80006F905F904F903F902F900895EF92FF923C
:102A90000F931F93CF93DF93EC017A018B0177FFA4
:102AA0000BC06DE20E94A21410950095F094E09482
:102AB000E11CF11C011D111DCE01B801A7012AE086
:102AC0000E94B814DF91CF911F910F91FF90EF906A
:102AD0000895AB01662757FD6095762F0E94461535
:102AE00008950CD027C11FD140F016D130F021F449
:102AF0005F3F19F0DFC0511168C10BC12CD198F3B1
:102B00009923C9F35523B1F3951B550BBB27AA276E
:102B100062177307840738F09F5F5F4F220F331FE0
:102B2000441FAA1FA9F333D00E2E3AF0E0E830D0AC
:102B300091505040E695001CCAF729D0FE2F27D0AF
:102B4000660F771F881FBB1F261737074807AB077D
:102B5000B0E809F0BB0B802DBF01FF2793585F4FF2
:102B60002AF09E3F510568F0A5C02FC15F3FECF3EE
:102B7000983EDCF3869577956795B795F7959F5FB7
:102B8000C9F7880F911D9695879597F90895E1E00B
:102B9000660F771F881FBB1F621773078407BA076A
:102BA00020F0621B730B840BBA0BEE1F88F7E095C5
:102BB000089504D06894B11108C10895D4D088F064
:102BC0009F5790F0B92F9927B751A0F0D1F0660F19
:102BD000771F881F991F1AF0BA95C9F712C0B13034
:102BE00081F0F2D0B1E00895EFC0672F782F8827E9
:102BF000B85F39F0B93FCCF3869577956795B39573
:102C0000D9F73EF490958095709561957F4F8F4FE1
:102C10009F4F0895E89409C097FB3EF490958095E6
:102C2000709561957F4F8F4F9F4F9923A9F0F92F92
:102C300096E9BB279395F695879577956795B79510
:102C4000F111F8CFFAF4BB0F11F460FF1BC06F5FF6
:102C50007F4F8F4F9F4F16C0882311F096E911C008
:102C6000772321F09EE8872F762F05C0662371F029
:102C700096E8862F70E060E02AF09A95660F771F3D
:102C8000881FDAF7880F9695879597F9089585D06C
:102C900080F09F3740F491110EF097C060E070E033
:102CA00080E89FEB089526F41B16611D711D811DA0
:102CB00007C021C097F99F6780E870E060E0089541
:102CC000882371F4772321F09850872B762F07C043
:102CD000662311F499270DC09051862B70E060E0B7
:102CE0002AF09A95660F771F881FDAF7880F969556
:102CF000879597F908959F3F31F0915020F487957B
:102D000077956795B795880F911D9695879597F953
:102D100008959FEF80EC089500240A941616170674
:102D200018060906089500240A94121613061406BC
:102D300005060895092E0394000C11F4882352F01F
:102D4000BB0F40F4BF2B11F460FF04C06F5F7F4FD7
:102D50008F4F9F4F089557FD9058440F551F59F0BE
:102D60005F3F71F04795880F97FB991F61F09F3F78
:102D700079F087950895121613061406551FF2CFA1
:102D80004695F1DF08C0161617061806991FF1CFF1
:102D900086957105610508940895E5DFA0F0BEE70A
:102DA000B91788F4BB279F3860F41616B11D672F3A
:102DB000782F8827985FF7CF869577956795B11D0F
:102DC00093959639C8F30895E894BB27662777272B
:102DD000CB0197F908950BD0ADCF9EDF28F0A3DF8C
:102DE00018F0952309F066CF94CF1124EECFB3DF0E
:102DF000A0F3959FD1F3950F50E0551F629FF0010E
:102E0000729FBB27F00DB11D639FAA27F00DB11D66
:102E1000AA1F649F6627B00DA11D661F829F2227EF
:102E2000B00DA11D621F739FB00DA11D621F839F76
:102E3000A00D611D221F749F3327A00D611D231F4C
:102E4000849F600D211D822F762F6A2F11249F579A
:102E500050408AF0E1F088234AF0EE0FFF1FBB1FBD
:102E6000661F771F881F91505040A9F79E3F51055C
:102E700070F020CFAACF5F3FECF3983EDCF386954D
:102E800077956795B795F795E7959F5FC1F7FE2B07
:102E9000880F911D9695879597F9089511F40EF472
:102EA00038CF29CF60DFD0F39923D9F3CEF39F57E2
:102EB000550B87FF35D00024A0E640EA90018058EA
:102EC0005695979528F4805C660F771F881F20F031
:102ED00026173707480730F4621B730B840B202931
:102EE00031294A2BA69517940794202531254A2786
:102EF00058F7660F771F881F20F0261737074807F7
:102F000030F4620B730B840B200D311D411DA09515
:102F100081F7B901842F9158880F96958795089568
:102F200091505040660F771F881FD2F70895629F17
:102F3000D001739FF001829FE00DF11D649FE00DB1
:102F4000F11D929FF00D839FF00D749FF00D659F12
:102F5000F00D9927729FB00DE11DF91F639FB00D11
:102F6000E11DF91FBD01CF011124089597FB092E22
:102F700007260AD077FD04D049D006D000201AF4E5
:102F8000709561957F4F0895F6F7909581959F4FC5
:102F90000895A1E21A2EAA1BBB1BFD010DC0AA1F9A
:102FA000BB1FEE1FFF1FA217B307E407F50720F0B2
:102FB000A21BB30BE40BF50B661F771F881F991F2D
:102FC0001A9469F760957095809590959B01AC0176
:102FD000BD01CF01089597FB092E05260ED057FDA0
:102FE00004D0D7DF0AD0001C38F4509540953095B6
:102FF00021953F4F4F4F5F4F0895F6F7909580957D
:10300000709561957F4F8F4F9F4F0895AA1BBB1BF3
:1030100051E107C0AA1FBB1FA617B70710F0A61BD8
:10302000B70B881F991F5A95A9F780959095BC01F9
:10303000CD010895EE0FFF1F0590F491E02D099446
:04304000F894FFCF32
:103044004C3A2000523A200041524D2053504545FD
:10305400443A2000436F756E74696E673A200054D9
:103064000046005377696E67696E67004261636B5F
:10307400005377696E67696E672041726D00466F11
:1030840072776172640045523A200050443A005706
:1030940048415420544F20544553543F00546170C8
:1030A4006520466F6C6C6F77696E67002A0020009C
:1030B40041727469666163742041726D00495220E3
:1030C40053656E736F720052657665727365204442
:1030D400726976696E670054756E696E672050492F
:1030E4004420666F72204952206465746563746974
:1030F4006F6E00503A2000443A2000535045454436
:103104003A2000424547494E3A2000454E443A2071
:1031140000544150452054554E494E47005468725E
:103124006573686F6C643A200020523A200044456D
:103134004C54413A200044454641554C5420564194
:103144004C5545533F0053544152543A20474F2065
:10315400534F46540053544F503A20524554554E01
:10316400450064003C006400E10064003200C800D3
:10317400260296004006010001000100050032000D
:1031840035003B0038002300620065003100340044
:103194003A00370022006100640030003300390037
:1031A400360021002000630001FF180019002600EA
:1031B4002700050004000100000000000000650174
:1031C40000000000A904FC025E0443047804010228
:0C31D400040810204080201008804020DB
:00000001FF
