:100000000C9448000C947C000C947C000C947C00B4
:100010000C947C000C947C000C947C000C947C0070
:100020000C947C000C9453110C94FC0F0C94221132
:100030000C948F100C94C0100C94CB0F0C945E1089
:100040000C94D30C0C947C000C9454030C94E30398
:100050000C947C000C947C000C947C000C947C0030
:100060000C94F1100C9417120C9484110C94B5118B
:100070000C94E6110C942D100C9425030C949C0305
:100080000C947C000C947C000C947C000B053205D5
:1000900011241FBECFEFD0E1DEBFCDBF88E483BF08
:1000A00084E00E94410E12BE87B7816087BF7894BA
:1000B00012E0A0E0B1E0ECEEFBE200E00BBF02C01A
:1000C00007900D92A035B107D9F713E0A0E5B2E093
:1000D00001C01D92A237B107E1F710E0C0E9D0E0FE
:1000E00004C02297FE010E94F015CC38D107C9F751
:1000F0000E9448120C94F4150C940000FB01EE0FC2
:10010000FF1FEB5DFD4F808160E070E00E94140FE7
:1001100008950F931F93CF93DF93EB018A01CC0FC8
:10012000DD1F57FD0CC0FE01E35EFD4F808161E0E5
:100130000E94B70DCB5DDD4F8881B8010EC0FE0176
:10014000E35EFD4F808160E00E94B70DCB5DDD4F27
:1001500066277727601B710B88810E94140FDF913F
:10016000CF911F910F9108951F93CF93DF93C0E01C
:10017000D0E0FE01E35EFD4F1081812F61E00E941F
:100180006E0D812F61E00E94B70DFE01EB5DFD4F0A
:10019000808160E070E00E94140F2296C830D10583
:1001A00041F7DF91CF911F910895FC0110828AE001
:1001B00090E0938382830895CF93DF93EC018A814B
:1001C00060E00E94B70D8D8160E00E94E70D8D8197
:1001D00060E00E94090E8B8161E00E94B70D8C8166
:1001E00061E00E94B70D0000000010C08C8160E04B
:1001F0000E94B70D00000000000000008C8161E04B
:100200000E94B70D00000000000000008D810E94D8
:10021000FE0D87FDEBCF8C8160E00E94B70DDF9172
:10022000CF910895FF920F931F938C01F62E0E9499
:10023000DC00F801828161E00E94B70DF801838142
:1002400060E00E94B70DF801848161E00E94B70D63
:10025000F801858161E00E94E70DF80185816F2D2D
:100260000E94090E0000000000000000F8018481D7
:1002700060E00E94B70DF801858160E00E94E70D03
:10028000F80185816FEF0E94090E1F910F91FF9079
:100290000895EF92FF920F931F93CF93DF937C010A
:1002A000042F6115710551F0EB0110E005C0C70185
:1002B00069910E9412011F5F1017C8F3DF91CF915F
:1002C0001F910F91FF90EF900895DF93CF930F92BE
:1002D000CDB7DEB76983BE016F5F7F4F41E00E94FB
:1002E00049010F90CF91DF910895FF920F931F93D3
:1002F0008C01F62E0E94DC00F801828160E00E94F1
:10030000B70DF801838160E00E94B70DF801848188
:1003100061E00E94B70DF801858161E00E94E70D60
:10032000F80185816F2D0E94090E00000000000079
:100330000000F801848160E00E94B70DF80185811A
:1003400060E00E94E70DF80185816FEF0E94090EC1
:100350001F910F91FF900895423031F0433031F0FA
:10036000413029F4605C03C06C5E01C06C5A606867
:100370000E947501089562E00E947501089561E090
:100380000E94750108950F931F938C01FC018281D7
:1003900060E00E94B70DF801838160E00E94B70D14
:1003A000F801848160E00E94B70DF801828161E06C
:1003B0000E946E0DF801838161E00E946E0DF801CC
:1003C000848161E00E946E0DF801858160E00E94E9
:1003D000E70DF80185816FEF0E94090E1F910F91C3
:1003E00008950F931F938C010E94C301C80168E315
:1003F0000E947501C80161E00E947501C80166E0B4
:100400000E947501C8016CE00E947501C80162E09C
:100410000E947501C80160E80E9475011F910F914B
:1004200008950F93FC0181E392E0918380836283BE
:10043000438324830583CF010E94F1010F91089526
:100440005F926F927F928F929F92AF92BF92CF9264
:10045000DF92EF92FF920F931F93CF93DF93EC0104
:100460003A014B01413482E458078FE0680780E08D
:1004700078070CF07FC060E874E88EE190E0A4019A
:1004800093010E94BF152150304040405040CA01A6
:10049000B90122E030E040E050E00E94BF15590170
:1004A0006A01A6019501209530954095509594E0FC
:1004B000220F331F441F551F9A95D1F760E074E255
:1004C00084EF90E00E94BF15CA01B9012FEF30E020
:1004D00040E050E00E946B15A40193010E94BF15FB
:1004E000C90181509F4F181619061CF4522E5A94B8
:1004F00003C055245394521A60E079E08DE390E0F4
:10050000A40193010E94BF1521503040404050404B
:10051000CA01B90122E030E040E050E00E94BF157E
:10052000209530954095509583E0220F331F441F4E
:10053000551F8A95D1F760E074E284EF90E00E9445
:10054000BF15CA01B9012FEF30E040E050E00E9432
:100550006B15A40193010E94BF15C90181509F4FE3
:10056000181619061CF4822F815002C081E0821BEC
:100570008515E8F4CA5BDF4FE881F981C654D040A5
:1005800082E0808360E079E08DE390E0A401930154
:100590000E94BF152150304040405040CA01B9016F
:1005A00022E030E040E050E00E94BF1508C0CA5B86
:1005B000DF4FE881F981C654D04010829501CE5BAF
:1005C000DF4FE991F9913083E881F9812083249606
:1005D000E881F98188E98083DF91CF911F910F91A4
:1005E000FF90EF90DF90CF90BF90AF909F908F9053
:1005F0007F906F905F900895FC0124813581C9013F
:100600000895DC01FC0182819381809714F080E0E1
:100610000895FD0182819381019693838283848171
:100620009581E80FF91F60870196FD01958384830A
:100630002D913C9111978217930714F481E008954E
:10064000FD011582148281E008951F920F920FB66A
:100650000F920BB60F9211242F933F934F935F93FA
:100660006F937F938F939F93AF93BF93EF93FF937A
:10067000E091E602F091E70260818EE992E00E944B
:100680000103FF91EF91BF91AF919F918F917F9166
:100690006F915F914F913F912F910F900BBE0F90F3
:1006A0000FBE0F901F9018951F920F920FB60F92CA
:1006B0000BB60F9211242F933F934F935F936F9339
:1006C0007F938F939F93AF93BF93EF93FF93E091AB
:1006D0009A02F0919B02608182E592E00E94010300
:1006E000FF91EF91BF91AF919F918F917F916F910A
:1006F0005F914F913F912F910F900BBE0F900FBEC6
:100700000F901F901895DC01FC0182819381019765
:100710009383828386819781E80FF91F4085019634
:10072000FD01978386832D913C918217930714F0E6
:1007300017821682842F08951F920F920FB60F9280
:100740000BB60F9211240F931F932F933F934F9348
:100750005F936F937F938F939F93AF93BF93EF9329
:10076000FF938091C8029091C9021816190654F49B
:100770000091E6021091E70286EC92E00E9483036A
:10078000F80180838091C8029091C902892B31F4CD
:10079000E091E402F091E50288E98083FF91EF9116
:1007A000BF91AF919F918F917F916F915F914F9189
:1007B0003F912F911F910F910F900BBE0F900FBE85
:1007C0000F901F9018951F920F920FB60F920BB6B5
:1007D0000F9211240F931F932F933F934F935F9387
:1007E0006F937F938F939F93AF93BF93EF93FF93F9
:1007F00080917C0290917D021816190654F40091A4
:100800009A0210919B028AE792E00E948303F8010A
:10081000808380917C0290917D02892B31F4E0915C
:100820009802F091990288E98083FF91EF91BF913E
:10083000AF919F918F917F916F915F914F913F9178
:100840002F911F910F910F900BBE0F900FBE0F9025
:100850001F901895DC01FC0182819381019793839D
:10086000828386819781E80FF91F40850196FD01FB
:10087000978386832D913C918217930714F01782FA
:100880001682842F0895FC0184819581892B19F4A7
:100890002FEF3FEF06C0CF0102960E942A04282FB7
:1008A00030E0C9010895CF93DF93EC01EE81FF8121
:1008B000E80FF91F8085DF91CF910895FC018481B5
:1008C0009581892B19F42FEF3FEF06C0CF010296D7
:1008D0000E945304282F30E0C9010895FC011382BF
:1008E000128282819381978386839583848308957E
:1008F00002960E946E040895FC0180E290E09183CC
:100900008083CF010E946E040895DC01FC01828186
:100910009381409714F080E00895FD0182819381D6
:1009200001969383828384819581E80FF91F608704
:100930000196FD01958384832D913C911197821737
:10094000930714F481E00895FD011582148281E07B
:100950000895CF93DF93EC018CA59DA54097E4F714
:10096000F894CE018A960E948504C85BDF4FE88127
:10097000F9818081806280837894DF91CF9108959E
:10098000FC011382128282819381978386839583EF
:1009900084830895FC0180E190E091838083CF01FE
:1009A0000E94C00408956F927F928F929F92AF929F
:1009B000BF92CF92DF92EF92FF920F931F936C0141
:1009C0005B014A013901FC0187E392E08193919335
:1009D000CF010E947C04C6018A960E94CA0482E468
:1009E00090E0C80ED91EF601A192B1928192919227
:1009F0006192719201931193F182E0821F910F91A4
:100A0000FF90EF90DF90CF90BF90AF909F908F902E
:100A10007F906F900895EF92FF920F931F9380E560
:100A200092E060E970E049E250E02BE230E00AE257
:100A300010E0FCE2EF2EF12C0E94D3048CE992E04E
:100A400068E970E049E950E02BE930E00AE910E09C
:100A5000ECE9EE2EF12C0E94D3041F910F91FF9030
:100A6000EF9008950F9388EE92E06AE14BE12CE15C
:100A700002E00E9411028EEE92E00E94B40080EF2C
:100A800092E00E94D50084EF92E00E94D50088EFAA
:100A900092E00E94D5000F9108950F931F9381E07B
:100AA0000E941D0E8C0182E00E941D0E9C01200FF1
:100AB000311FC9011F910F91089581E30E949E0D7E
:100AC00020E030E0882311F421E030E0C9010895EE
:100AD0002F923F924F925F926F927F928F929F924E
:100AE000AF92BF92CF92DF92EF92FF920F931F933C
:100AF000CF93DF933C014B017A016901580181E0FA
:100B0000482E512C22242A94322CDBC083E00E94F0
:100B10001D0E8C0184E00E941D0EEC0188EE92E017
:100B20000E94BF0188EE92E00E94BB0188EE92E035
:100B300060E071E00E94611288EE92E0B8010E94CC
:100B4000321388EE92E068E040E00E94AC0188EE4B
:100B500092E064E071E00E94611288EE92E0BE01D2
:100B60000E943213EC16FD0644F4E016F1067CF404
:100B700010923903109238030AC0CE15DF053CF4F9
:100B8000E016F10624F450923903409238030E1512
:100B90001F053CF4EC16FD0624F430923903209234
:100BA0003803CE15DF050CF50E151F05F4F4209162
:100BB0003A0330913B0337FF0BC08091EF019091D6
:100BC000F001909581959F4F90933903809338035E
:100BD0001216130654F48091EF019091F0018A0DE2
:100BE0009B1D909339038093380380913A03909131
:100BF0003B03409138035091390384179507A1F0C6
:100C000090933D0380933C0350933B0340933A03FE
:100C1000809144039091450390934703809346034A
:100C20005092450340924403649E9001659E300DAE
:100C3000749E300D112430933F0320933E03809126
:100C40003C0390913D03481B590B60914403709104
:100C500045038091460390914703680F791F849E56
:100C6000C001859E900D949E900D11240E948A15BE
:100C7000AB017093410360934003420F531F5093A5
:100C80004303409342034C0D5D1D8EEE92E060E005
:100C900070E00E9489008091420390914303A60175
:100CA000481B590B8EEE92E061E070E00E948900D3
:100CB000809144039091450301969093450380935E
:100CC00044030E945D05892B09F420CF0CC08EEEF1
:100CD00092E060E070E00E947E008EEE92E061E0C3
:100CE00070E00E947E000E945D05892B81F7DF91F4
:100CF000CF911F910F91FF90EF90DF90CF90BF9019
:100D0000AF909F908F907F906F905F904F903F90AB
:100D10002F90089582E30E949E0D20E030E088230A
:100D200011F421E030E0C90108950F931F93CF9390
:100D3000DF938C0188EE92E00E94BF0188EE92E082
:100D40000E94BB0188EE92E060E040E00E94AC01AE
:100D500088EE92E068E071E00E94611288EE92E015
:100D600060E041E00E94AC0188EE92E061E171E058
:100D70000E946112CC27DD27C01BD10B0BC08EEE69
:100D800092E062E070E0AE010E9489008FB7F894B3
:100D9000919A8FBF81E00E949E0D813081F788EE8D
:100DA00092E00E94BF018EEE92E062E070E00E944D
:100DB0007E0088EE92E00E94BB0188EE92E060E047
:100DC00040E00E94AC0188EE92E066E171E00E9492
:100DD000611288EE92E060E041E00E94AC0188EE92
:100DE00092E063E271E00E9461120BC08EEE92E02D
:100DF00062E070E0A8010E9489008FB7F894909A91
:100E00008FBF80E00E949E0D813081F788EE92E0D6
:100E10000E94BF018EEE92E062E070E00E947E00D0
:100E2000DF91CF911F910F910895CF93DF93C0E091
:100E3000D0E023C086E00E941D0EEC0188EE92E017
:100E40000E94BB0188EE92E060E040E00E94AC01AD
:100E500088EE92E06BE271E00E94611288EE92E00F
:100E6000BE010E9432136AE070E080E090E00E94D0
:100E7000480D88EE92E00E94BF010E945D05892B1B
:100E8000C9F2CE01DF91CF9108950F931F93CF93B5
:100E9000DF93EC018C010E5F1F4F4AC086E00E9479
:100EA0001D0E9983888387E00E941D0EF8019183AF
:100EB000808388EE92E00E94BB0188EE92E060E0C1
:100EC00040E00E94AC0188EE92E067E371E00E948E
:100ED000611288EE92E060E041E00E94AC0188EE91
:100EE00092E063E571E00E9461126881798188EE89
:100EF00092E00E94321388EE92E068E041E00E94A6
:100F0000AC0188EE92E067E571E00E946112F801A1
:100F10006081718188EE92E00E9432136AE070E095
:100F200080E090E00E94480D88EE92E00E94BF01B0
:100F30000E945D05892B09F4B1CF33C086E00E9481
:100F40001D0E998388838D5B924014F0198308836A
:100F500088EE92E060E040E00E94AC0188EE92E012
:100F60006BE571E00E94611288EE92E060E041E082
:100F70000E94AC0188EE92E065E671E00E94611289
:100F80006881798188EE92E00E9432136AE070E015
:100F900080E090E00E94480D88EE92E00E94BF0140
:100FA00003C024960CEB12E00E948A06892B31F2D2
:100FB000DF91CF911F910F9108952F923F924F9201
:100FC0005F926F927F928F929F92AF92BF92CF92D9
:100FD000DF92EF92FF920F931F93CF93DF933C0129
:100FE0001B012A0135C181E00E941D0E5C0182E0D7
:100FF0000E941D0E4C0188EE92E00E94BF0188EE17
:1010000092E00E94BB0188EE92E060E071E00E94F5
:10101000611288EE92E0B5010E94321388EE92E0F0
:1010200068E040E00E94AC0188EE92E064E071E08C
:101030000E94611288EE92E0B4010E94321388EEA1
:1010400092E060E041E00E94AC0188EE92E06DE643
:1010500071E00E946112609128037091290388EE6B
:1010600092E00E943213C5018819990990932903CF
:10107000809328036AE070E080E090E00E94480DD1
:1010800080912A0390912B03C0912803D0912903CA
:101090008C179D07B1F090932D0380932C03D09370
:1010A0002B03C0932A0380913403909135039093CE
:1010B00037038093360381E090E09093350380936B
:1010C00034036401CA0CDB1CB601882777FD8095C8
:1010D000982F0E94E0130E9426157B018C014C9EE4
:1010E000B0014D9E700D5C9E700D1124882777FD18
:1010F0008095982F0E94E013A80197010E94451344
:101100000E94AD139B0170932F0360932E03809177
:101110002C0390912D03C81BD90B6091340370915F
:1011200035038091360390913703680F791F2C9E09
:10113000C0012D9E900D3C9E900D11240E948A1599
:101140007093310360933003260F371F30933303BE
:101150002093320388EE92E068E041E00E94AC0107
:1011600088EE92E062E771E00E94611260913203C2
:101170007091330388EE92E00E9432134091320363
:1011800050913303460D571D8EEE92E060E070E003
:101190000E9489008091320390913303A301481B80
:1011A000590B8EEE92E061E070E00E948900809120
:1011B0003403909135030196909335038093340363
:1011C0009DE4C91694E0D9060CF442C088EE92E082
:1011D0000E94BF0188EE92E00E94BB0188EE92E07F
:1011E00060E040E00E94AC0188EE92E060E071E0D7
:1011F0000E94611288EE92E0B5010E94321388EEDF
:1012000092E060E041E00E94AC0188EE92E064E090
:1012100071E00E94611288EE92E0B4010E943213E4
:1012200088EE92E061E040E00E94AC0188EE92E03E
:1012300066E771E00E9461128EEE92E060E070E07D
:101240000E947E008EEE92E061E070E00E947E00DF
:101250000E945D05892B09F4C6CE0CC08EEE92E08B
:1012600060E070E00E947E008EEE92E061E070E04F
:101270000E947E000E945D05892B81F7DF91CF914E
:101280001F910F91FF90EF90DF90CF90BF90AF90A4
:101290009F908F907F906F905F904F903F902F9096
:1012A00008958F929F92AF92BF92CF92DF92EF926A
:1012B000FF920F931F93CF93DF938C0146E0A42EF0
:1012C000B12CA80EB91E31E0832E912C24E0C22E41
:1012D000D12CC80ED91E92E0E92EF12CE00EF11EA1
:1012E0002EC188EE92E00E94BB0188EE92E060E0A1
:1012F00040E00E94AC0188EE92E062E871E00E945A
:10130000611286E00E941D0EAA2797FDA095BA2FB4
:10131000BC01CD010E94E01320E030EC4FE754E423
:101320000E94451320E030E040E850E40E94BF14E2
:101330000E941B140E94AD1370930D0360930C0365
:1013400088EE92E00E94BB0188EE92E060E041E00E
:101350000E94AC01C0910C03D0910D032097D1F5F0
:1013600088EE92E060E971E00E946112F8018081EC
:10137000918181309105A1F488EE92E06FE040E028
:101380000E94AC0188EE92E06FE971E00E94611268
:101390000E948A06892BC9F0F8011182108215C0BB
:1013A000892B99F488EE92E06FE040E00E94AC0156
:1013B00088EE92E061EA71E00E9461120E948A0662
:1013C000892B19F0F801918280826CE271E080E053
:1013D00090E0A9C0C130D105B9F588EE92E063EA8A
:1013E00071E00E946112F701808191818130910545
:1013F00099F488EE92E06FE040E00E94AC0188EE44
:1014000092E06FE971E00E9461120E948A06892BC6
:1014100009F485C0F7016BC0892B09F080C088EE04
:1014200092E06FE040E00E94AC0188EE92E061EA59
:1014300071E00E9461120E948A06892B09F46FC034
:10144000F701D183C0836BC02297A1F588EE92E0AB
:1014500060EB71E00E946112F60180819181813020
:10146000910599F488EE92E06FE040E00E94AC01B3
:1014700088EE92E06FE971E00E9461120E948A0694
:10148000892B09F44CC0F60132C0892B09F047C002
:1014900088EE92E06FE040E00E94AC0188EE92E0BE
:1014A00061EA71E00E9461120E948A06892BB9F1FB
:1014B000F60133C088EE92E06AEB71E00E9461129F
:1014C000F5018081918181309105A1F488EE92E04F
:1014D0006FE040E00E94AC0188EE92E06FE971E0BD
:1014E0000E9461120E948A06892BC9F0F5011182BF
:1014F000108215C0892B99F488EE92E06FE040E0ED
:101500000E94AC0188EE92E061EA71E00E946112F3
:101510000E948A06892B19F0F5019182808264E687
:1015200070E080E090E00E94480D88EE92E00E941A
:10153000BF016AE070E080E090E00E94480D0E94E8
:101540005D05892B09F4CDCEDF91CF911F910F91CD
:10155000FF90EF90DF90CF90BF90AF909F908F90D3
:101560000895CF92DF92EF92FF920F931F93CF9344
:10157000DF936C01EC0122964AC086E00E941D0EAA
:10158000F6019183808387E00E941D0E99838883F2
:1015900088EE92E00E94BB0188EE92E060E040E0BD
:1015A0000E94AC0188EE92E06AEC71E00E94611248
:1015B00088EE92E060E040E00E94AC0188EE92E0AC
:1015C00063E571E00E946112F6016081718188EE2D
:1015D00092E00E94321388EE92E060E041E00E94C7
:1015E000AC0188EE92E067E571E00E9461126881CB
:1015F000798188EE92E00E9432136AE070E080E028
:1016000090E00E94480D88EE92E00E94BF010E9487
:101610005D05892B09F4B1CF46C081E00E941D0E03
:101620008C0182E00E941D0E7C0186E00E941D0E4E
:101630009983888388EE92E060E041E00E94AC01EB
:1016400088EE92E066ED71E00E9461126881798116
:1016500088EE92E00E94321388EE92E060E040E073
:101660000E94AC0188EE92E060E071E00E9461129D
:1016700088EE92E0B8010E94321388EE92E062EEAA
:1016800071E00E94611288EE92E0B7010E9432136D
:1016900064E670E080E090E00E94480D88EE92E001
:1016A0000E94BF0102C0E60124960E948A06892B8F
:1016B00009F4B3CF0E948A06892BE1F766C086E061
:1016C0000E941D0E9983888387E00E941D0EAA2721
:1016D00097FDA095BA2FBC01CD010E94E01320E038
:1016E00030EC4FE754E40E94451320E030E040EA3C
:1016F00050E40E94BF140E941B140E94AD13F60117
:1017000071836083888199818D5B924014F0198385
:10171000088388EE92E060E040E00E94AC0188EE31
:1017200092E06AEC71E00E94611288EE92E060E063
:1017300041E00E94AC0188EE92E065E671E00E9413
:1017400061126881798188EE92E00E94321388EEFE
:1017500092E068E041E00E94AC0188EE92E067EE22
:1017600071E00E946112F6016081718188EE92E061
:101770000E9432136AE070E080E090E00E94480D21
:1017800088EE92E00E94BF0108C0E601269688E03C
:1017900090E0C80ED91E0CEB12E00E948A06892B3D
:1017A00009F48DCFDF91CF911F910F91FF90EF90B2
:1017B000DF90CF9008950F931F9380E293E00E94F3
:1017C00051098091200390912103019761F580E1F7
:1017D00093E00E94B10A80911003909111039093BD
:1017E000FD028093FC028091120390911303909369
:1017F000FF028093FE028091140390911503909351
:101800000103809300038091160390911703909336
:10181000030380930203809118039091190390931E
:101820000503809304038091220390912303019781
:1018300031F40E94150790930F0380930E0380915B
:10184000240390912503019709F084C08AE193E075
:101850000E94450780911A0390911B039093070300
:101860008093060380911C0390911D0390930903BC
:101870008093080380911E0390911F0390930B03A4
:1018800080930A0367C08091200390912103019700
:1018900031F56091FE027091FF024091000350917A
:1018A000010320910203309103030091040310917E
:1018B00005038091FC029091FD020E9468056091F1
:1018C00002037091030380E592E00E943A13609155
:1018D00022037091230380E592E00E943A138091E5
:1018E0002203909123030197B9F482E00E949E0D98
:1018F000813091F48EEE92E060E070E00E947E0014
:101900008EEE92E061E070E00E947E0080910E0316
:1019100090910F030E9495068091240390912503D6
:101920000197C1F40E944D05873991059CF00EC0C6
:1019300060910603709107034091080350910903D9
:1019400080910A0390910B030E94DD070E945D05C0
:10195000892B71F30E945D05892B09F494CF1F91A7
:101960000F91089580E592E040E855E260E070E074
:101970000E94200280E060E00E94E70D81E060E0CC
:101980000E94E70D80E060E00E946E0D81E060E063
:101990000E946E0D82E060E00E946E0D8FB7F89499
:1019A000929A8FBF08951F920F920FB60F92112433
:1019B0002F933F938F939F93AF93BF9380914C034B
:1019C00090914D03A0914E03B0914F03309150037D
:1019D0000196A11DB11D232F2D5F2D3720F02D570E
:1019E0000196A11DB11D2093500380934C03909349
:1019F0004D03A0934E03B0934F0380914803909101
:101A00004903A0914A03B0914B030196A11DB11D5A
:101A10008093480390934903A0934A03B0934B03E8
:101A2000BF91AF919F918F913F912F910F900FBEDA
:101A30000F901F9018956FB7F8942091480330913C
:101A4000490340914A0350914B0382B790E0A0E0D4
:101A5000B0E006B600FE09C08F3F9105A105B105B3
:101A600021F02F5F3F4F4F4F5F4F6FBF542F432FDA
:101A7000322F2227280F391F4A1F5B1F82E0220FB7
:101A8000331F441F551F8A95D1F7B901CA01089524
:101A9000EF92FF920F931F93CF93DF937B018C0103
:101AA0000E941B0DEB010EC00E941B0D6C1B7D0BD9
:101AB000685E7340C8F30894E108F1080109110950
:101AC000C851DC4FE114F1040105110569F7DF91FC
:101AD000CF911F910F91FF90EF900895E82FE69519
:101AE000E695E695A82FB0E0613099F42FB7F89409
:101AF000F0E0EE0FFF1FE150FE4F0190F081E02D6E
:101B00009081A770B070AF5BBD4F8C91982B908384
:101B100013C02FB7F894F0E0EE0FFF1FE150FE4F17
:101B20000190F081E02D9081A770B070AF5BBD4F48
:101B30008C918095892380832FBF0895A82FE82F4B
:101B4000E695E695E695F0E0EE0FFF1FE35FFD4FAB
:101B50000190F081E02DE081B0E0A770B070AF5B44
:101B6000BD4F8C91E82309F0E1E08E2F0895E82F16
:101B7000E695E695E695A82FB0E0613099F42FB789
:101B8000F894F0E0EE0FFF1FEF50FE4F0190F08150
:101B9000E02D9081A770B070AF5BBD4F8C91982BFA
:101BA000908313C02FB7F894F0E0EE0FFF1FEF50B3
:101BB000FE4F0190F081E02D9081A770B070AF5B77
:101BC000BD4F8C918095892380832FBF0895E82F86
:101BD000F0E0613051F4EE0FFF1FE150FE4F019035
:101BE000F081E02D8FEF80830895EE0FFF1FE1500D
:101BF000FE4F0190F081E02D10820895E82FF0E073
:101C0000EE0FFF1FE35FFD4F0190F081E02D80811B
:101C10000895E82FF0E0EE0FFF1FEF50FE4F019008
:101C2000F081E02D608308951092610010926200AF
:101C300080E487B987EE86B908951F93182F8091A5
:101C40001B02813021F40E94140E10921B0280911D
:101C50001C02181721F4349A349BFECF0DC0109348
:101C60001C0287B11770807E812B87B9349A349B10
:101C7000FECF349A349BFECF24B135B1C9011F91F8
:101C8000089593B7987F982B93BF08959EB5987F3A
:101C9000982B9EBD089583E00E94460E1DBC1CBC7F
:101CA00087B7846087BF0895EAE8F0E09081987F65
:101CB000982B9083089583E00E94540E109289001F
:101CC00010928800EDE7F0E08081846080830895C1
:101CD000893031F48FB582608FBD8FB58E7F0AC099
:101CE0008A3019F48FB5826002C08FB58D7F8FBDA9
:101CF0008FB581608FBD1BBC1ABC19BC18BC10927B
:101D000079001092780008958FB580688FBD8FB5E7
:101D10008F7B8FBD08958FB580628FBD8FB58F7E0D
:101D20008FBD08958FB588608FBD8FB58B7F8FBDB8
:101D300008959BBD8ABD089599BD88BD089590936F
:101D40007900809378000895893049F480918B0060
:101D5000826080938B0080918B008E7F0EC08A30D2
:101D600021F480918B00826003C080918B008D7F75
:101D700080938B0080918B00816080938B00109208
:101D800087001092860010928500109284001092B5
:101D90008300109282000895EBE8F0E08081806873
:101DA000808380818F7B80830895EBE8F0E08081E1
:101DB0008062808380818F7E80830895EBE8F0E0ED
:101DC00080818860808380818B7F808308958530C7
:101DD00019F40E94840E0895843019F40E948B0E29
:101DE0000895833019F40E94920E0895823019F4F8
:101DF0000E94CC0E0895813019F40E94D50E0895EA
:101E0000882311F40E94DE0E08959093870080933A
:101E100086000895909385008093840008959093A0
:101E20008300809382000895EF92FF921F93CF93D7
:101E3000DF93182F7B018D31B0F08F3111F413E057
:101E400014C08E3111F414E010C08D3109F49BC020
:101E5000853211F410E03DC0843211F411E039C034
:101E6000833219F48EC08330A0F18091510386FD36
:101E70000BC00E944B0E78948AE00E94680E8091FD
:101E8000510380648093510380915103C12FD0E0AE
:101E900090E0012E02C0959587950A94E2F780FDA7
:101EA0004CC087B3FE01E75BFD4F9081892B87BB58
:101EB000812F0E94E70E2091510381E090E0012ED6
:101EC00002C0880F991F0A94E2F7282B2093510330
:101ED00034C08091510387FD0BC00E945B0E789443
:101EE0008AE00E94A40E8091510380688093510380
:101EF00080915103C12FD0E090E0012E02C0959552
:101F000087950A94E2F780FD24C082B1FE01E75B69
:101F1000FD4F9081892B82B9812F0E94E70E20917D
:101F2000510381E090E0012E02C0880F991F0A94AE
:101F3000E2F7282B209351030CC0153021F4C70180
:101F40000E94990E22C0143021F4C7010E949C0EF9
:101F50001CC0133021F4C7010E949F0E16C012301E
:101F600021F4C7010E94050F10C0113021F4C701F0
:101F70000E940A0F0AC0112341F4C7010E940F0FEB
:101F800004C012E0A6CF15E070CFDF91CF911F9172
:101F9000FF90EF9008951F920F920FB60F920BB61D
:101FA0000F9211242F933F934F935F936F937F93DF
:101FB0008F939F93AF93BF93EF93FF9380915803B9
:101FC00090915903892B29F0E0915803F09159031E
:101FD0000995FF91EF91BF91AF919F918F917F9163
:101FE0006F915F914F913F912F910F900BBE0F908A
:101FF0000FBE0F901F9018951F920F920FB60F9261
:102000000BB60F9211242F933F934F935F936F93CF
:102010007F938F939F93AF93BF93EF93FF938091A1
:10202000620390916303892B29F0E0916203F091A0
:1020300063030995FF91EF91BF91AF919F918F91AC
:102040007F916F915F914F913F912F910F900BBEB8
:102050000F900FBE0F901F9018951F920F920FB602
:102060000F920BB60F9211242F933F934F935F93D0
:102070006F937F938F939F93AF93BF93EF93FF9350
:102080008091680390916903892B29F0E09168039E
:10209000F09169030995FF91EF91BF91AF919F91E5
:1020A0008F917F916F915F914F913F912F910F9001
:1020B0000BBE0F900FBE0F901F9018951F920F929E
:1020C0000FB60F920BB60F9211242F933F934F939D
:1020D0005F936F937F938F939F93AF93BF93EF9390
:1020E000FF938091540390915503892B29F0E0913F
:1020F0005403F09155030995FF91EF91BF91AF9172
:102100009F918F917F916F915F914F913F912F910F
:102110000F900BBE0F900FBE0F901F9018951F923F
:102120000F920FB60F920BB60F9211242F933F937D
:102130004F935F936F937F938F939F93AF93BF93CF
:10214000EF93FF9380915A0390915B03892B29F0C1
:10215000E0915A03F0915B030995FF91EF91BF91D4
:10216000AF919F918F917F916F915F914F913F912F
:102170002F910F900BBE0F900FBE0F901F901895D0
:102180001F920F920FB60F920BB60F9211242F933E
:102190003F934F935F936F937F938F939F93AF93EF
:1021A000BF93EF93FF9380915C0390915D03892B24
:1021B00029F0E0915C03F0915D030995FF91EF91A7
:1021C000BF91AF919F918F917F916F915F914F914F
:1021D0003F912F910F900BBE0F900FBE0F901F904D
:1021E00018951F920F920FB60F920BB60F921124F3
:1021F0002F933F934F935F936F937F938F939F930F
:10220000AF93BF93EF93FF9380915E0390915F0331
:10221000892B29F0E0915E03F0915F030995FF910E
:10222000EF91BF91AF919F918F917F916F915F914E
:102230004F913F912F910F900BBE0F900FBE0F90BB
:102240001F9018951F920F920FB60F920BB60F9218
:1022500011242F933F934F935F936F937F938F93AB
:102260009F93AF93BF93EF93FF93809160039091FF
:102270006103892B29F0E0916003F09161030995D6
:10228000FF91EF91BF91AF919F918F917F916F914E
:102290005F914F913F912F910F900BBE0F900FBE0A
:1022A0000F901F9018951F920F920FB60F920BB6BA
:1022B0000F9211242F933F934F935F936F937F93CC
:1022C0008F939F93AF93BF93EF93FF93809164039A
:1022D00090916503892B29F0E0916403F0916503E7
:1022E0000995FF91EF91BF91AF919F918F917F9150
:1022F0006F915F914F913F912F910F900BBE0F9077
:102300000FBE0F901F9018951F920F920FB60F924D
:102310000BB60F9211242F933F934F935F936F93BC
:102320007F938F939F93AF93BF93EF93FF9380918E
:102330006A0390916B03892B29F0E0916A03F09175
:102340006B030995FF91EF91BF91AF919F918F9191
:102350007F916F915F914F913F912F910F900BBEA5
:102360000F900FBE0F901F9018951F920F920FB6EF
:102370000F920BB60F9211242F933F934F935F93BD
:102380006F937F938F939F93AF93BF93EF93FF933D
:1023900080916C0390916D03892B29F0E0916C037F
:1023A000F0916D030995FF91EF91BF91AF919F91CE
:1023B0008F917F916F915F914F913F912F910F90EE
:1023C0000BBE0F900FBE0F901F9018951F920F928B
:1023D0000FB60F920BB60F9211242F933F934F938A
:1023E0005F936F937F938F939F93AF93BF93EF937D
:1023F000FF9380916E0390916F03892B29F0E091F8
:102400006E03F0916F030995FF91EF91BF91AF912A
:102410009F918F917F916F915F914F913F912F91FC
:102420000F900BBE0F900FBE0F901F9018951F922C
:102430000F920FB60F920BB60F9211242F933F936A
:102440004F935F936F937F938F939F93AF93BF93BC
:10245000EF93FF938091700390917103892B29F082
:10246000E0917003F09171030995FF91EF91BF9195
:10247000AF919F918F917F916F915F914F913F911C
:102480002F910F900BBE0F900FBE0F901F901895BD
:1024900083E061E00E94E70D84E061E00E94E70DC7
:1024A00078940E94B20C0E94DB0BFDCFDC01ED9111
:1024B000FC910190F081E02D099508950E9456123B
:1024C00008950F931F93CF93DF938C01EB0104C00A
:1024D0002196C8010E945E1268816623C9F7DF91C8
:1024E000CF911F910F9108950F931F938C016DE071
:1024F0000E945E12C8016AE00E945E121F910F9155
:1025000008952F923F924F925F926F927F928F9297
:102510009F92AF92BF92CF92DF92EF92FF920F9372
:102520001F93DF93CF93CDB7DEB7A0970FB6F89484
:10253000DEBF0FBECDBF1C016A017B0141155105F5
:102540006105710521F460E30E945E124FC088248A
:1025500099245401422E55246624772401E010E08A
:102560000C0F1D1F080D191DC701B601A301920113
:102570000E949D15F80160830894811C911CA11C88
:10258000B11CC701B601A30192010E949D15C901AA
:10259000DA016C017D01C114D104E104F104F1F60A
:1025A00081E0E82EF12CEC0EFD1EE80CF91C3E013A
:1025B0000894611C711CD501C4010197A109B109DE
:1025C0006C01C818D9080FC0F601EE0DFF1D60811F
:1025D0006A3010F4605D01C0695CC1010E945E1246
:1025E0000894E108F1086E147F0471F7A0960FB605
:1025F000F894DEBF0FBECDBFCF91DF911F910F9139
:10260000FF90EF90DF90CF90BF90AF909F908F9012
:102610007F906F905F904F903F902F900895EF9232
:10262000FF920F931F93CF93DF93EC017A018B01FD
:1026300077FF0BC06DE20E945E1210950095F0943A
:10264000E094E11CF11C011D111DCE01B801A70190
:102650002AE00E948112DF91CF911F910F91FF908C
:10266000EF900895AB01662757FD6095762F0E9485
:102670000F1308950F931F938C010E943213C8010A
:102680000E9474121F910F9108950CD027C11FD181
:1026900040F016D130F021F45F3F19F0DFC0511146
:1026A00068C10BC12CD198F39923C9F35523B1F319
:1026B000951B550BBB27AA2762177307840738F0B1
:1026C0009F5F5F4F220F331F441FAA1FA9F333D010
:1026D0000E2E3AF0E0E830D091505040E695001CC4
:1026E000CAF729D0FE2F27D0660F771F881FBB1F80
:1026F000261737074807AB07B0E809F0BB0B802D5A
:10270000BF01FF2793585F4F2AF09E3F510568F0A5
:10271000A5C02FC15F3FECF3983EDCF3869577951B
:102720006795B795F7959F5FC9F7880F911D9695A7
:10273000879597F90895E1E0660F771F881FBB1F03
:10274000621773078407BA0720F0621B730B840BB0
:10275000BA0BEE1F88F7E095089504D06894B11184
:1027600008C10895D4D088F09F5790F0B92F9927C9
:10277000B751A0F0D1F0660F771F881F991F1AF08C
:10278000BA95C9F712C0B13081F0F2D0B1E0089526
:10279000EFC0672F782F8827B85F39F0B93FCCF3A7
:1027A000869577956795B395D9F73EF49095809582
:1027B000709561957F4F8F4F9F4F0895E89409C0A2
:1027C00097FB3EF490958095709561957F4F8F4F64
:1027D0009F4F9923A9F0F92F96E9BB279395F6957A
:1027E000879577956795B795F111F8CFFAF4BB0FF8
:1027F00011F460FF1BC06F5F7F4F8F4F9F4F16C05C
:10280000882311F096E911C0772321F09EE8872FE5
:10281000762F05C0662371F096E8862F70E060E0A1
:102820002AF09A95660F771F881FDAF7880F96951A
:10283000879597F9089585D080F09F3740F49111DE
:102840000EF097C060E070E080E89FEB089526F4FA
:102850001B16611D711D811D07C021C097F99F675F
:1028600080E870E060E00895882371F4772321F018
:102870009850872B762F07C0662311F499270DC037
:102880009051862B70E060E02AF09A95660F771FD2
:10289000881FDAF7880F9695879597F908959F3FD7
:1028A00031F0915020F4879577956795B795880F0B
:1028B000911D9695879597F908959FEF80EC08955F
:1028C00000240A941616170618060906089500240F
:1028D0000A9412161306140605060895092E039489
:1028E000000C11F4882352F0BB0F40F4BF2B11F4FD
:1028F00060FF04C06F5F7F4F8F4F9F4F089557FD5C
:102900009058440F551F59F05F3F71F04795880F5D
:1029100097FB991F61F09F3F79F0879508951216F4
:1029200013061406551FF2CF4695F1DF08C01616A0
:1029300017061806991FF1CF869571056105089451
:102940000895E5DFA0F0BEE7B91788F4BB279F38EC
:1029500060F41616B11D672F782F8827985FF7CF80
:10296000869577956795B11D93959639C8F3089527
:10297000E894BB2766277727CB0197F908950BD0FA
:10298000ADCF9EDF28F0A3DF18F0952309F066CFC6
:1029900094CF1124EECFB3DFA0F3959FD1F3950F21
:1029A00050E0551F629FF001729FBB27F00DB11DD3
:1029B000639FAA27F00DB11DAA1F649F6627B00D63
:1029C000A11D661F829F2227B00DA11D621F739F4C
:1029D000B00DA11D621F839FA00D611D221F749F5A
:1029E0003327A00D611D231F849F600D211D822FA1
:1029F000762F6A2F11249F5750408AF0E1F08823E8
:102A00004AF0EE0FFF1FBB1F661F771F881F9150F4
:102A10005040A9F79E3F510570F020CFAACF5F3FED
:102A2000ECF3983EDCF3869577956795B795F79527
:102A3000E7959F5FC1F7FE2B880F911D96958795AF
:102A400097F9089511F40EF438CF29CF60DFD0F351
:102A50009923D9F3CEF39F57550B87FF35D0002428
:102A6000A0E640EA900180585695979528F4805C3E
:102A7000660F771F881F20F026173707480730F4A6
:102A8000621B730B840B202931294A2BA6951794BE
:102A90000794202531254A2758F7660F771F881F8E
:102AA00020F026173707480730F4620B730B840BAE
:102AB000200D311D411DA09581F7B901842F91583A
:102AC000880F96958795089591505040660F771F0F
:102AD000881FD2F70895629FD001739FF001829FF3
:102AE000E00DF11D649FE00DF11D929FF00D839F9D
:102AF000F00D749FF00D659FF00D9927729FB00D3A
:102B0000E11DF91F639FB00DE11DF91FBD01CF014C
:102B10001124089597FB092E07260AD077FD04D0CB
:102B200049D006D000201AF4709561957F4F089522
:102B3000F6F7909581959F4F0895A1E21A2EAA1B52
:102B4000BB1BFD010DC0AA1FBB1FEE1FFF1FA2175D
:102B5000B307E407F50720F0A21BB30BE40BF50B5A
:102B6000661F771F881F991F1A9469F760957095E3
:102B7000809590959B01AC01BD01CF01089597FB15
:102B8000092E05260ED057FD04D0D7DF0AD0001C31
:102B900038F450954095309521953F4F4F4F5F4FFA
:102BA0000895F6F790958095709561957F4F8F4FBA
:102BB0009F4F0895AA1BBB1B51E107C0AA1FBB1F53
:102BC000A617B70710F0A61BB70B881F991F5A95B9
:102BD000A9F780959095BC01CD010895EE0FFF1FD8
:0C2BE0000590F491E02D0994F894FFCFCB
:102BEC004C3A2000523A20005377696E67696E6741
:102BFC00004261636B005377696E67696E672041B1
:102C0C00726D00466F72776172640041524D2053B1
:102C1C00504545443A200054756E696E6720504902
:102C2C004420666F72204952206465746563746930
:102C3C006F6E00503A2000443A20004954205455FD
:102C4C004E494E470053504545443A200045523AB0
:102C5C00200050443A00454E44204F4620504154E9
:102C6C0048005748415420544F20544553543F007A
:102C7C005461706520466F6C6C6F77696E67002AC3
:102C8C0000200041727469666163742041726D00AA
:102C9C0049522053656E736F72005265766572737C
:102CAC00652044726976696E670054415045205422
:102CBC00554E494E47005468726573686F6C643AA0
:102CCC00200020523A200044454C54413A20000543
:102CDC0000320035003B00380023006200650031F3
:102CEC000034003A003700220061006400300033E9
:102CFC00003900360021002000630001FF18001984
:102D0C000026002700050004000100000000000060
:102D1C0000650100000000A904FC025E0443047875
:102D2C00040102040810204080201008804020007C
:00000001FF
