:100000000C9448000C947C000C947C000C947C00B4
:100010000C947C000C947C000C947C000C947C0070
:100020000C947C000C94E5120C948E110C94B41278
:100030000C9421120C9452120C945D110C94F0113A
:100040000C94650E0C947C000C9454030C94E30304
:100050000C947C000C947C000C947C000C947C0030
:100060000C9483120C94A9130C9416130C9447133C
:100070000C9478130C94BF110C9425030C949C03DE
:100080000C947C000C947C000C947C000B053205D5
:1000900011241FBECFEFD0E1DEBFCDBF88E483BF08
:1000A00084E00E94D30F12BE87B7816087BF789427
:1000B00012E0A0E0B1E0E0EEFEE200E00BBF02C023
:1000C00007900D92A637B107D9F713E0A6E7B2E083
:1000D00001C01D92A63AB107E1F710E0C0E9D0E0F7
:1000E00004C02297FE010E946A17CC38D107C9F7D5
:1000F0000E94DA130C946E170C940000FB01EE0FB3
:10010000FF1FE45BFD4F808160E070E00E94A6105D
:1001100008950F931F93CF93DF93EB018A01CC0FC8
:10012000DD1F57FD0CC0FE01EC5BFD4F808161E0DF
:100130000E94490FC45BDD4F8881B8010EC0FE01EB
:10014000EC5BFD4F808160E00E94490FC45BDD4F96
:1001500066277727601B710B88810E94A610DF91AC
:10016000CF911F910F9108951F93CF93DF93C0E01C
:10017000D0E0FE01EC5BFD4F1081812F61E00E9419
:10018000000F812F61E00E94490FFE01E45BFD4FEB
:10019000808160E070E00E94A6102296C830D105F0
:1001A00041F7DF91CF911F910895FC0110828AE001
:1001B00090E0938382830895CF93DF93EC018A814B
:1001C00060E00E94490F8D8160E00E94790F8D816F
:1001D00060E00E949B0F8B8161E00E94490F8C813F
:1001E00061E00E94490F0000000010C08C8160E0B7
:1001F0000E94490F00000000000000008C8161E0B7
:100200000E94490F00000000000000008D810E9444
:10021000900F87FDEBCF8C8160E00E94490FDF914A
:10022000CF910895FF920F931F938C01F62E0E9499
:10023000DC00F801828161E00E94490FF8018381AE
:1002400060E00E94490FF801848161E00E94490F3B
:10025000F801858161E00E94790FF80185816F2D99
:100260000E949B0F0000000000000000F801848144
:1002700060E00E94490FF801858160E00E94790FDB
:10028000F80185816FEF0E949B0F1F910F91FF90E6
:100290000895EF92FF920F931F93CF93DF937C010A
:1002A000042F6115710551F0EB0110E005C0C70185
:1002B00069910E9412011F5F1017C8F3DF91CF915F
:1002C0001F910F91FF90EF900895DF93CF930F92BE
:1002D000CDB7DEB76983BE016F5F7F4F41E00E94FB
:1002E00049010F90CF91DF910895FF920F931F93D3
:1002F0008C01F62E0E94DC00F801828160E00E94F1
:10030000490FF801838160E00E94490FF801848160
:1003100061E00E94490FF801858161E00E94790F38
:10032000F80185816F2D0E949B0F000000000000E6
:100330000000F801848160E00E94490FF801858186
:1003400060E00E94790FF80185816FEF0E949B0F9A
:100350001F910F91FF900895423031F0433031F0FA
:10036000413029F4605C03C06C5E01C06C5A606867
:100370000E947501089562E00E947501089561E090
:100380000E94750108950F931F938C01FC018281D7
:1003900060E00E94490FF801838160E00E94490FEC
:1003A000F801848160E00E94490FF801828161E0D8
:1003B0000E94000FF801838161E00E94000FF801A4
:1003C000848161E00E94000FF801858160E00E9455
:1003D000790FF80185816FEF0E949B0F1F910F919C
:1003E00008950F931F938C010E94C301C80168E315
:1003F0000E947501C80161E00E947501C80166E0B4
:100400000E947501C8016CE00E947501C80162E09C
:100410000E947501C80160E80E9475011F910F914B
:1004200008950F93FC0188E592E0918380836283B5
:10043000438324830583CF010E94F1010F91089526
:100440005F926F927F928F929F92AF92BF92CF9264
:10045000DF92EF92FF920F931F93CF93DF93EC0104
:100460003A014B01413482E458078FE0680780E08D
:1004700078070CF07FC060E874E88EE190E0A4019A
:1004800093010E9439172150304040405040CA012A
:10049000B90122E030E040E050E00E9439175901F4
:1004A0006A01A6019501209530954095509594E0FC
:1004B000220F331F441F551F9A95D1F760E074E255
:1004C00084EF90E00E943917CA01B9012FEF30E0A4
:1004D00040E050E00E94E516A40193010E94391704
:1004E000C90181509F4F181619061CF4522E5A94B8
:1004F00003C055245394521A60E079E08DE390E0F4
:10050000A40193010E9439172150304040405040CF
:10051000CA01B90122E030E040E050E00E94391702
:10052000209530954095509583E0220F331F441F4E
:10053000551F8A95D1F760E074E284EF90E00E9445
:100540003917CA01B9012FEF30E040E050E00E94B6
:10055000E516A40193010E943917C90181509F4FEC
:10056000181619061CF4822F815002C081E0821BEC
:100570008515E8F4CA5BDF4FE881F981C654D040A5
:1005800082E0808360E079E08DE390E0A401930154
:100590000E9439172150304040405040CA01B901F3
:1005A00022E030E040E050E00E94391708C0CA5B0A
:1005B000DF4FE881F981C654D04010829501CE5BAF
:1005C000DF4FE991F9913083E881F9812083249606
:1005D000E881F98188E98083DF91CF911F910F91A4
:1005E000FF90EF90DF90CF90BF90AF909F908F9053
:1005F0007F906F905F900895FC0124813581C9013F
:100600000895DC01FC0182819381809714F080E0E1
:100610000895FD0182819381019693838283848171
:100620009581E80FF91F60870196FD01958384830A
:100630002D913C9111978217930714F481E008954E
:10064000FD011582148281E008951F920F920FB66A
:100650000F920BB60F9211242F933F934F935F93FA
:100660006F937F938F939F93AF93BF93EF93FF937A
:10067000E0910C03F0910D03608184EC92E00E9404
:100680000103FF91EF91BF91AF919F918F917F9166
:100690006F915F914F913F912F910F900BBE0F90F3
:1006A0000FBE0F901F9018951F920F920FB60F92CA
:1006B0000BB60F9211242F933F934F935F936F9339
:1006C0007F938F939F93AF93BF93EF93FF93E091AB
:1006D000C002F091C102608188E792E00E940103AC
:1006E000FF91EF91BF91AF919F918F917F916F910A
:1006F0005F914F913F912F910F900BBE0F900FBEC6
:100700000F901F901895DC01FC0182819381019765
:100710009383828386819781E80FF91F4085019634
:10072000FD01978386832D913C918217930714F0E6
:1007300017821682842F08951F920F920FB60F9280
:100740000BB60F9211240F931F932F933F934F9348
:100750005F936F937F938F939F93AF93BF93EF9329
:10076000FF938091EE029091EF021816190654F44F
:1007700000910C0310910D038CEE92E00E94830314
:10078000F80180838091EE029091EF02892B31F481
:10079000E0910A03F0910B0388E98083FF91EF91C8
:1007A000BF91AF919F918F917F916F915F914F9189
:1007B0003F912F911F910F910F900BBE0F900FBE85
:1007C0000F901F9018951F920F920FB60F920BB6B5
:1007D0000F9211240F931F932F933F934F935F9387
:1007E0006F937F938F939F93AF93BF93EF93FF93F9
:1007F0008091A2029091A3021816190654F4009158
:10080000C0021091C10280EA92E00E948303F801C5
:1008100080838091A2029091A302892B31F4E09110
:10082000BE02F091BF0288E98083FF91EF91BF91F2
:10083000AF919F918F917F916F915F914F913F9178
:100840002F911F910F910F900BBE0F900FBE0F9025
:100850001F901895DC01FC0182819381019793839D
:10086000828386819781E80FF91F40850196FD01FB
:10087000978386832D913C918217930714F01782FA
:100880001682842F0895FC0184819581892B19F4A7
:100890002FEF3FEF06C0CF0102960E942A04282FB7
:1008A00030E0C9010895CF93DF93EC01EE81FF8121
:1008B000E80FF91F8085DF91CF910895FC018481B5
:1008C0009581892B19F42FEF3FEF06C0CF010296D7
:1008D0000E945304282F30E0C9010895FC011382BF
:1008E000128282819381978386839583848308957E
:1008F00002960E946E040895FC0180E290E09183CC
:100900008083CF010E946E040895DC01FC01828186
:100910009381409714F080E00895FD0182819381D6
:1009200001969383828384819581E80FF91F608704
:100930000196FD01958384832D913C911197821737
:10094000930714F481E00895FD011582148281E07B
:100950000895CF93DF93EC018CA59DA54097E4F714
:10096000F894CE018A960E948504C85BDF4FE88127
:10097000F9818081806280837894DF91CF9108959E
:10098000FC011382128282819381978386839583EF
:1009900084830895FC0180E190E091838083CF01FE
:1009A0000E94C00408956F927F928F929F92AF929F
:1009B000BF92CF92DF92EF92FF920F931F936C0141
:1009C0005B014A013901FC018EE592E0819391932C
:1009D000CF010E947C04C6018A960E94CA0482E468
:1009E00090E0C80ED91EF601A192B1928192919227
:1009F0006192719201931193F182E0821F910F91A4
:100A0000FF90EF90DF90CF90BF90AF909F908F902E
:100A10007F906F900895EF92FF920F931F9386E758
:100A200092E060E970E049E250E02BE230E00AE257
:100A300010E0FCE2EF2EF12C0E94D30482EC92E055
:100A400068E970E049E950E02BE930E00AE910E09C
:100A5000ECE9EE2EF12C0E94D3041F910F91FF9030
:100A6000EF9008950F938EE093E06AE14BE12CE163
:100A700002E00E94110284E193E00E94B40086E14A
:100A800093E00E94D5008AE193E00E94D5008EE1B8
:100A900093E00E94D5000F9108950F931F9383E078
:100AA0000E94AF0F8C0184E00E94AF0F9C01200FC9
:100AB000311FC9011F910F9108954F925F926F925C
:100AC0007F928F929F92AF92BF92CF92DF92EF92DE
:100AD000FF920F931F93CF93DF934C013B01EA01E9
:100AE00069015801270181E00E94AF0F7C0182E07B
:100AF0000E94AF0F8C018EE093E00E94BF018EE058
:100B000093E00E94BB018EE093E060E071E00E9400
:100B1000F3138EE093E0B7010E94B7148EE093E0E8
:100B200068E040E00E94AC018EE093E064E071E098
:100B30000E94F3138EE093E0B8010E94B714C0172F
:100B4000D10744F4CE15DF058CF410926D0310929A
:100B50006C030CC00C171D074CF4CE15DF0534F4E4
:100B600081E090E090936D0380936C03EC16FD069A
:100B70004CF4C017D10734F48FEF9FEF90936D03BF
:100B800080936C030C171D070CF5EC16FD06F4F4AE
:100B900020916E0330916F0337FF0BC080911602D6
:100BA00090911702909581959F4F90936D0380933C
:100BB0006C031216130654F48091160290911702DA
:100BC0008A0D9B1D90936D0380936C0380916E033F
:100BD00090916F0340916C0350916D0384179507BA
:100BE000B1F0909371038093700350936F0340931F
:100BF0006E03809178039091790390937B038093A7
:100C00007A0381E090E09093790380937803849E47
:100C10009001859E300D949E300D11243093730306
:100C2000209372038091700390917103481B590BBC
:100C3000609178037091790380917A0390917B039E
:100C4000680F791F649EC001659E900D749E900D83
:100C500011240E940417CB017093750360937403F1
:100C6000820F931F9093770380937603452819F49E
:100C70000FEF1FEF02C001E010E08C0D9D1D089FDB
:100C8000A001099F500D189F500D112484E193E09D
:100C900060E070E00E948900809176039091770374
:100CA000C81AD90A0C9DA0010D9D500D1C9D500D18
:100CB000112484E193E061E070E00E94890080915A
:100CC0007803909179030196909379038093780348
:100CD000DF91CF911F910F91FF90EF90DF90CF9018
:100CE000BF90AF909F908F907F906F905F904F904C
:100CF000089581E30E94300F20E030E0882311F452
:100D000021E030E0C901089582E30E94300F20E025
:100D100030E0882311F421E030E0C9010895EF921A
:100D2000FF920F931F93CF93DF93EC018C010E5F23
:100D30001F4F81E0E82EF12C5DC086E00E94AF0FCE
:100D4000998388830E947906892BA9F062E370E079
:100D500080E090E00E94DA0E0E947906892B59F01B
:100D6000F80180819181892B19F01182108203C0D2
:100D7000F801F182E0828EE093E00E94BF018EE0F4
:100D800093E00E94BB018EE093E060E040E00E94AF
:100D9000AC018EE093E068E071E00E94F31368819B
:100DA00079818EE093E00E94B7148EE093E060E0DA
:100DB00041E00E94AC018EE093E064E171E00E94AA
:100DC000F3138A819B81892B29F08EE093E06FE1F8
:100DD00071E004C08EE093E061E271E00E94F313E1
:100DE0006AE070E080E090E00E94DA0E8EE093E02E
:100DF0000E94BF010E948406892B09F49ECF06C081
:100E000062E370E080E090E00E94DA0E0E948406C7
:100E1000892BB1F7DF91CF911F910F91FF90EF9048
:100E20000895AF92BF92CF92DF92EF92FF920F930D
:100E30001F93CF93DF93EC018C010E5F1F4F4AC0CD
:100E400086E00E94AF0F9983888387E00E94AF0FEE
:100E5000F801918380838EE093E00E94BB018EE0D5
:100E600093E060E040E00E94AC018EE093E063E23A
:100E700071E00E94F3138EE093E060E041E00E9495
:100E8000AC018EE093E06FE371E00E94F3136881A0
:100E900079818EE093E00E94B7148EE093E068E0E1
:100EA00041E00E94AC018EE093E063E471E00E94B7
:100EB000F313F801608171818EE093E00E94B71412
:100EC0006AE070E080E090E00E94DA0E8EE093E04D
:100ED0000E94BF010E948406892B09F4B1CF06C08D
:100EE00062E370E080E090E00E94DA0E0E948406E7
:100EF000892BB1F76AC083E00E94AF0FEC0184E058
:100F00000E94AF0F7C0186E00E94AF0FF801918331
:100F1000808387E00E94AF0FF60191838083F80100
:100F2000808191818D5B92401CF0F801B182A0829A
:100F30008EE093E060E040E00E94AC018EE093E040
:100F400060E071E00E94F3138EE093E0BE010E9426
:100F5000B7148EE093E064E071E00E94F3138EE03A
:100F600093E0B7010E94B7148EE093E060E041E0A7
:100F70000E94AC018EE093E067E471E00E94F313FD
:100F8000F801608171818EE093E00E94B7148EE0D9
:100F900093E068E041E00E94AC018EE093E06BE4F6
:100FA00071E00E94F313F601608171818EE093E09D
:100FB0000E94B7146AE070E080E090E00E94DA0ED0
:100FC0008EE093E00E94BF010CC08E010C5F1F4FAA
:100FD00026E0C22ED12CCC0EDD1E9CEBA92E92E079
:100FE000B92E0E948406892B09F485CF06C062E3DE
:100FF00070E080E090E00E94DA0E0E948406892B67
:10100000B1F7DF91CF911F910F91FF90EF90DF909B
:10101000CF90BF90AF9008951F93182F61E00E946A
:10102000490F812F0E94300F813019F020E030E00D
:1010300013C062E370E080E090E00E94DA0E812F3E
:1010400061E00E94490F812F0E94300F20E030E0C4
:10105000813011F421E030E0C9011F9108950F9310
:101060001F93CF93DF938C018EE093E00E94BF012A
:101070008EE093E00E94BB018EE093E060E040E0F0
:101080000E94AC018EE093E061E571E00E94F313F1
:101090008EE093E060E041E00E94AC018EE093E0DE
:1010A0006AE571E00E94F313CC27DD27C01BD10B4A
:1010B00083E090E00E940C08892B41F484E193E0E6
:1010C00062E070E0AE010E948900F2CF8EE093E012
:1010D0000E94BF0184E193E062E070E00E947E0024
:1010E0008EE093E00E94BB018EE093E060E040E080
:1010F0000E94AC018EE093E06FE571E00E94F31373
:101100008EE093E060E041E00E94AC018EE093E06D
:101110006CE671E00E94F31380E090E00E940C08FE
:10112000892B49F484E193E062E070E04CE251E005
:101130000E948900F1CF8EE093E00E94BF0184E11C
:1011400093E062E070E00E947E00DF91CF911F91FA
:101150000F9108956F927F928F929F92AF92BF925C
:10116000CF92DF92EF92FF920F931F93CF93DF9373
:101170006C014B015A01390183E00E94AF0F7C01E1
:1011800084E00E94AF0F8C018EE093E00E94BF01CB
:101190008EE093E00E94BB018EE093E060E071E09E
:1011A0000E94F3138EE093E0B7010E94B7148EE023
:1011B00093E068E040E00E94AC018EE093E064E0E0
:1011C00071E00E94F3138EE093E0B8010E94B7141F
:1011D0008EE093E060E041E00E94AC018EE093E09D
:1011E00064E771E00E94F31360915C0370915D030A
:1011F0008EE093E00E94B714C701801B910B90937F
:101200005D0380935C036AE070E080E090E00E9400
:10121000DA0E80915E0390915F03C0915C03D091E0
:101220005D038C179D07B1F0909361038093600379
:10123000D0935F03C0935E0380916803909169032C
:1012400090936B0380936A0381E090E0909369032D
:10125000809368030E0D1F1DB801882777FD8095C8
:10126000982F0E945A150E94A0167B018C01AC9EFB
:10127000B001AD9E700DBC9E700D1124882777FDC6
:101280008095982F0E945A15A80197010E94BF14BB
:101290000E9427159B017093630360936203809102
:1012A000600390916103C81BD90B60916803709132
:1012B000690380916A0390916B03680F791F8C9E7C
:1012C000C0018D9E900D9C9E900D11240E940417CC
:1012D0007093650360936403260F371F3093670391
:1012E000209366038EE093E068E041E00E94AC0149
:1012F0008EE093E069E771E00E94F313609166036A
:10130000709167038EE093E00E94B714672819F488
:10131000CFEFDFEF02C0C1E0D0E080916603909193
:1013200067038C0D9D1DC89FA001C99F500DD89FBC
:10133000500D112484E193E060E070E00E94890088
:101340008091660390916703C81AD90ACC9DA001C9
:10135000CD9D500DDC9D500D112484E193E061E0A2
:1013600070E00E9489008091680390916903019662
:101370009093690380936803DF91CF911F910F9140
:10138000FF90EF90DF90CF90BF90AF909F908F90A5
:101390007F906F900895AF92BF92CF92DF92EF92BD
:1013A000FF920F931F93CF93DF93EC0156E0C52E6E
:1013B000D12CC80ED91E41E0A42EB12C34E0E32E6E
:1013C000F12CE80EF91E8C010E5F1F4F4BC18EE011
:1013D00093E00E94BB018EE093E060E040E00E9459
:1013E000AC018EE093E06DE771E00E94F31386E0BC
:1013F0000E94AF0FAA2797FDA095BA2FBC01CD017F
:101400000E945A1520E030EC4FE754E40E94BF14CC
:1014100020E030E040E850E40E9439160E94951523
:101420000E94271570933303609332038EE093E09C
:101430000E94BB018EE093E060E041E00E94AC01BD
:101440008091320390913303009709F03FC08EE002
:1014500093E06BE871E00E94F313888199818130F9
:101460009105B9F48EE093E06FE040E00E94AC019A
:101470008EE093E06AE971E00E94F3130E9479061E
:10148000892BF9F00E947906892BE1F719821882DD
:1014900018C0892BB1F48EE093E06FE040E00E9429
:1014A000AC018EE093E06CE971E00E94F3130E94BE
:1014B0007906892B31F00E947906892BE1F7B982F0
:1014C000A8826CE271E080E090E0C6C081309105B6
:1014D000E9F58EE093E06EE971E00E94F313F80104
:1014E0008081918181309105B9F48EE093E06FE0C5
:1014F00040E00E94AC018EE093E06AE971E00E9456
:10150000F3130E947906892B09F460C00E947906C2
:10151000892BE1F7F8013EC0892B09F057C08EE016
:1015200093E06FE040E00E94AC018EE093E06CE954
:1015300071E00E94F3130E947906892B09F446C0DA
:101540000E947906892BE1F7F8013EC0029709F065
:1015500042C08EE093E06BEA71E00E94F313F70162
:101560008081918181309105C1F48EE093E06FE03C
:1015700040E00E94AC018EE093E06AE971E00E94D5
:10158000F3130E947906892B09F10E947906892BB1
:10159000E1F7F7011182108219C0892BB9F48EE0AE
:1015A00093E06FE040E00E94AC018EE093E06CE9D4
:1015B00071E00E94F3130E947906892B39F00E9492
:1015C0007906892BE1F7F701B182A08264E670E029
:1015D00080E090E041C08EE093E065EB71E00E9416
:1015E000F313F6018081918181309105C1F48EE081
:1015F00093E06FE040E00E94AC018EE093E06AE986
:1016000071E00E94F3130E947906892B09F10E9470
:101610007906892BE1F7F6011182108219C0892B16
:10162000B9F48EE093E06FE040E00E94AC018EE000
:1016300093E06CE971E00E94F3130E947906892B14
:1016400039F00E947906892BE1F7F601B182A08278
:101650006AE070E080E090E00E94DA0E8EE093E0B5
:101660000E94BF010E948406892B09F4B0CE06C0F7
:1016700062E370E080E090E00E94DA0E0E9484064F
:10168000892BB1F7DF91CF911F910F91FF90EF90D0
:10169000DF90CF90BF90AF900895CF92DF92EF92FE
:1016A000FF920F931F93CF93DF936C01EC0122966F
:1016B0004AC086E00E94AF0FF6019183808387E0E5
:1016C0000E94AF0F998388838EE093E00E94BB0154
:1016D0008EE093E060E040E00E94AC018EE093E099
:1016E00065EC71E00E94F3138EE093E060E041E06E
:1016F0000E94AC018EE093E06FE371E00E94F3136F
:10170000F601608171818EE093E00E94B7148EE053
:1017100093E068E041E00E94AC018EE093E063E476
:1017200071E00E94F313688179818EE093E00E945A
:10173000B7146AE070E080E090E00E94DA0E8EE07C
:1017400093E00E94BF010E948406892B09F4B1CF67
:1017500006C062E370E080E090E00E94DA0E0E9432
:101760008406892BB1F746C081E00E94AF0F8C013F
:1017700082E00E94AF0F7C0186E00E94AF0F998348
:1017800088838EE093E060E041E00E94AC018EE04F
:1017900093E061ED71E00E94F313688179818EE03E
:1017A00093E00E94B7148EE093E060E040E00E9476
:1017B000AC018EE093E060E071E00E94F3138EE0F4
:1017C00093E0B8010E94B7148EE093E06DED71E0F4
:1017D0000E94F3138EE093E0B7010E94B71464E611
:1017E00070E080E090E00E94DA0E8EE093E00E94CC
:1017F000BF0102C0E60124960E948406892B09F4E9
:10180000B3CF06C062E370E080E090E00E94DA0EA1
:101810000E948406892BB1F75AC086E00E94AF0F60
:101820009983888387E00E94AF0FAA2797FDA09530
:10183000BA2FBC01CD010E945A1520E030EC4FE7D1
:1018400054E40E94BF1420E030E040EA50E40E94DB
:1018500039160E9495150E942715F6017183608341
:10186000888199818D5B924014F0198308838EE002
:1018700093E060E040E00E94AC018EE093E062EE15
:1018800071E00E94F313688179818EE093E00E94F9
:10189000B7148EE093E060E041E00E94AC018EE07E
:1018A00093E06AEE71E00E94F313F60160817181AA
:1018B0008EE093E00E94B7146AE070E080E090E070
:1018C0000E94DA0E8EE093E00E94BF0108C0E6019C
:1018D000269688E090E0C80ED91E0CEB12E00E941C
:1018E0008406892B09F499CF06C062E370E080E09A
:1018F00090E00E94DA0E0E948406892BB1F7DF91F6
:10190000CF911F910F91FF90EF90DF90CF900895AE
:10191000EF92FF920F931F9380910C0290910D0212
:10192000019709F04AC180E593E00E94CB098091BC
:10193000500390915103019761F58EE393E00E946B
:101940004D0B80913E0390913F039093230380932E
:10195000220380914003909141039093250380934B
:101960002403809142039091430390932703809333
:10197000260380914403909145039093290380931B
:101980002803809146039091470390932B03809303
:101990002A0380915203909153030197A1F488E5A3
:1019A00093E00E948F068091580390915903909381
:1019B00035038093340380915A0390915B03909395
:1019C0003903809338038091540390915503019714
:1019D00009F0F3C088E493E00E9411078091480366
:1019E0009091490390932D0380932C0380914A0397
:1019F00090914B0390932F0380932E0380914C037F
:101A000090914D03909331038093300380914E0366
:101A100090914F039093110280931002CEC0E090FA
:101A20005403F090550381E0E816F104D1F583E00A
:101A30000E94AF0F8C0184E00E94AF0F080F191FA6
:101A40008091100290911102880F991F80179107C1
:101A50004CF410920F0210920E0210923B0310925F
:101A60003A031FC020913A0330913B038091120248
:101A7000909113028217930774F4F0920F02E09290
:101A80000E0280913C0390913D03019690933D039B
:101A900080933C0306C02F5F3F4F30933B0320935E
:101AA0003A0380915203909153030197D9F48091A6
:101AB000360390913703039731F480913803909166
:101AC0003903892B59F420913C0330913D038091D7
:101AD0001402909115022817390721F410920F0271
:101AE00010920E0280915003909151030197D1F40E
:101AF00060912403709125034091260350912703A0
:101B0000209128033091290300912A0310912B037F
:101B1000E0900E02F0900F02809122039091230337
:101B20000E945D058FB7F894969A8FBF80915203FB
:101B300090915303019701F586E00E94300F8130A8
:101B4000D9F484E193E060E070E00E947E0084E1DB
:101B500093E061E070E00E947E00809134039091F8
:101B600035030E942F088091360390913703019628
:101B700090933703809336038091540390915503DB
:101B80000197D9F40E944D0587399105B4F0109260
:101B900051031092500360912C0370912D034091DA
:101BA0002E0350912F0320910E0230910F0280914D
:101BB0003003909131030E94AA080E947906892B74
:101BC00009F42DCF12C084E193E060E070E00E9440
:101BD0007E0084E193E061E070E00E947E0062E3B9
:101BE00070E080E090E00E94DA0E0E947906892B76
:101BF00051F78EE093E00E94BB018EE093E060E03D
:101C000040E00E94AC018EE093E062EF71E00E9440
:101C1000F3138EE093E060E041E00E94AC018EE0BF
:101C200093E06FEF71E00E94F3130E948406892B0A
:101C300029F010920D0210920C0216C00E94790633
:101C4000892B39F081E090E090930D0280930C0293
:101C50000BC06AE070E080E090E00E94DA0E8EE057
:101C600093E00E94BF01C5CF0E948406892B21F416
:101C70000E947906892B39F062E370E080E090E001
:101C80000E94DA0EF1CF1F910F91FF90EF9008950F
:101C900086E792E040E855E260E070E00E942002B2
:101CA00080E060E00E94790F81E060E00E94790F9F
:101CB00080E060E00E94000F83E060E00E94000F7F
:101CC00086E060E00E94000F08951F920F920FB609
:101CD0000F9211242F933F938F939F93AF93BF93B2
:101CE0008091800390918103A0918203B09183033E
:101CF000309184030196A11DB11D232F2D5F2D3737
:101D000020F02D570196A11DB11D209384038093CF
:101D1000800390938103A0938203B0938303809107
:101D20007C0390917D03A0917E03B0917F03019687
:101D3000A11DB11D80937C0390937D03A0937E032E
:101D4000B0937F03BF91AF919F918F913F912F915E
:101D50000F900FBE0F901F9018956FB7F8942091B9
:101D60007C0330917D0340917E0350917F0382B7C5
:101D700090E0A0E0B0E006B600FE09C08F3F9105FC
:101D8000A105B10521F02F5F3F4F4F4F5F4F6FBF50
:101D9000542F432F322F2227280F391F4A1F5B1F32
:101DA00082E0220F331F441F551F8A95D1F7B901D6
:101DB000CA010895EF92FF920F931F93CF93DF9381
:101DC0007B018C010E94AD0EEB010EC00E94AD0E96
:101DD0006C1B7D0B685E7340C8F30894E108F10842
:101DE00001091109C851DC4FE114F1040105110585
:101DF00069F7DF91CF911F910F91FF90EF900895B8
:101E0000E82FE695E695E695A82FB0E0613099F4C5
:101E10002FB7F894F0E0EE0FFF1FEA5DFD4F019041
:101E2000F081E02D9081A770B070A859BD4F8C91C2
:101E3000982B908313C02FB7F894F0E0EE0FFF1F9C
:101E4000EA5DFD4F0190F081E02D9081A770B070A8
:101E5000A859BD4F8C918095892380832FBF089509
:101E6000A82FE82FE695E695E695F0E0EE0FFF1F28
:101E7000EC5CFD4F0190F081E02DE081B0E0A770B7
:101E8000B070A859BD4F8C91E82309F0E1E08E2F86
:101E90000895E82FE695E695E695A82FB0E0613025
:101EA00099F42FB7F894F0E0EE0FFF1FE85EFD4FB6
:101EB0000190F081E02D9081A770B070A859BD4FBE
:101EC0008C91982B908313C02FB7F894F0E0EE0F0D
:101ED000FF1FE85EFD4F0190F081E02D9081A7701B
:101EE000B070A859BD4F8C918095892380832FBFF6
:101EF0000895E82FF0E0613051F4EE0FFF1FEA5D26
:101F0000FD4F0190F081E02D8FEF80830895EE0F5B
:101F1000FF1FEA5DFD4F0190F081E02D10820895D2
:101F2000E82FF0E0EE0FFF1FEC5CFD4F0190F08119
:101F3000E02D80810895E82FF0E0EE0FFF1FE85EAE
:101F4000FD4F0190F081E02D6083089510926100B3
:101F50001092620080E487B987EE86B908951F93D6
:101F6000182F80914202813021F40E94A60F109216
:101F7000420280914302181721F4349A349BFECF19
:101F80000DC01093430287B11770807E812B87B9F3
:101F9000349A349BFECF349A349BFECF24B135B1B2
:101FA000C9011F91089593B7987F982B93BF089507
:101FB0009EB5987F982B9EBD089583E00E94D80F10
:101FC0001DBC1CBC87B7846087BF0895EAE8F0E0B9
:101FD0009081987F982B9083089583E00E94E60F6C
:101FE0001092890010928800EDE7F0E08081846013
:101FF00080830895893031F48FB582608FBD8FB5AD
:102000008E7F0AC08A3019F48FB5826002C08FB506
:102010008D7F8FBD8FB581608FBD1BBC1ABC19BC75
:1020200018BC109279001092780008958FB58068DE
:102030008FBD8FB58F7B8FBD08958FB580628FBDAB
:102040008FB58F7E8FBD08958FB588608FBD8FB59A
:102050008B7F8FBD08959BBD8ABD089599BD88BDB6
:10206000089590937900809378000895893049F419
:1020700080918B00826080938B0080918B008E7F9B
:102080000EC08A3021F480918B00826003C0809161
:102090008B008D7F80938B0080918B00816080937B
:1020A0008B0010928700109286001092850010928B
:1020B000840010928300109282000895EBE8F0E013
:1020C00080818068808380818F7B80830895EBE8A6
:1020D000F0E080818062808380818F7E808308959C
:1020E000EBE8F0E080818860808380818B7F808353
:1020F0000895853019F40E9416100895843019F45B
:102100000E941D100895833019F40E942410089530
:10211000823019F40E945E100895813019F40E94F3
:1021200067100895882311F40E9470100895909309
:1021300087008093860008959093850080938400A3
:10214000089590938300809382000895EF92FF9208
:102150001F93CF93DF93182F7B018D31B0F08F3118
:1021600011F413E014C08E3111F414E010C08D315D
:1021700009F49BC0853211F410E03DC0843211F4A3
:1021800011E039C0833219F48EC08330A0F1809100
:10219000850386FD0BC00E94DD0F78948AE00E94C3
:1021A000FA0F809185038064809385038091850375
:1021B000C12FD0E090E0012E02C0959587950A943A
:1021C000E2F780FD4CC087B3FE01E059FD4F9081DE
:1021D000892B87BB812F0E9479102091850381E094
:1021E00090E0012E02C0880F991F0A94E2F7282B75
:1021F0002093850334C08091850387FD0BC00E9426
:10220000ED0F78948AE00E943610809185038068F3
:102210008093850380918503C12FD0E090E0012E4B
:1022200002C0959587950A94E2F780FD24C082B19B
:10223000FE01E059FD4F9081892B82B9812F0E94C8
:1022400079102091850381E090E0012E02C0880F73
:10225000991F0A94E2F7282B209385030CC01530B0
:1022600021F4C7010E942B1022C0143021F4C701B1
:102270000E942E101CC0133021F4C7010E9431109F
:1022800016C0123021F4C7010E94971010C01130FF
:1022900021F4C7010E949C100AC0112341F4C70118
:1022A0000E94A11004C012E0A6CF15E070CFDF910C
:1022B000CF911F91FF90EF9008951F920F920FB64C
:1022C0000F920BB60F9211242F933F934F935F936E
:1022D0006F937F938F939F93AF93BF93EF93FF93EE
:1022E00080918C0390918D03892B29F0E0918C03D0
:1022F000F0918D030995FF91EF91BF91AF919F915F
:102300008F917F916F915F914F913F912F910F909E
:102310000BBE0F900FBE0F901F9018951F920F923B
:102320000FB60F920BB60F9211242F933F934F933A
:102330005F936F937F938F939F93AF93BF93EF932D
:10234000FF938091960390919703892B29F0E09158
:102350009603F09197030995FF91EF91BF91AF918B
:102360009F918F917F916F915F914F913F912F91AD
:102370000F900BBE0F900FBE0F901F9018951F92DD
:102380000F920FB60F920BB60F9211242F933F931B
:102390004F935F936F937F938F939F93AF93BF936D
:1023A000EF93FF9380919C0390919D03892B29F0DB
:1023B000E0919C03F0919D030995FF91EF91BF91EE
:1023C000AF919F918F917F916F915F914F913F91CD
:1023D0002F910F900BBE0F900FBE0F901F9018956E
:1023E0001F920F920FB60F920BB60F9211242F93DC
:1023F0003F934F935F936F937F938F939F93AF938D
:10240000BF93EF93FF938091880390918903892B69
:1024100029F0E0918803F09189030995FF91EF91EC
:10242000BF91AF919F918F917F916F915F914F91EC
:102430003F912F910F900BBE0F900FBE0F901F90EA
:1024400018951F920F920FB60F920BB60F92112490
:102450002F933F934F935F936F937F938F939F93AC
:10246000AF93BF93EF93FF9380918E0390918F036F
:10247000892B29F0E0918E03F0918F030995FF914C
:10248000EF91BF91AF919F918F917F916F915F91EC
:102490004F913F912F910F900BBE0F900FBE0F9059
:1024A0001F9018951F920F920FB60F920BB60F92B6
:1024B00011242F933F934F935F936F937F938F9349
:1024C0009F93AF93BF93EF93FF938091900390916D
:1024D0009103892B29F0E0919003F09191030995E4
:1024E000FF91EF91BF91AF919F918F917F916F91EC
:1024F0005F914F913F912F910F900BBE0F900FBEA8
:102500000F901F9018951F920F920FB60F920BB657
:102510000F9211242F933F934F935F936F937F9369
:102520008F939F93AF93BF93EF93FF938091920309
:1025300090919303892B29F0E0919203F0919303FA
:102540000995FF91EF91BF91AF919F918F917F91ED
:102550006F915F914F913F912F910F900BBE0F9014
:102560000FBE0F901F9018951F920F920FB60F92EB
:102570000BB60F9211242F933F934F935F936F935A
:102580007F938F939F93AF93BF93EF93FF9380912C
:10259000940390919503892B29F0E0919403F09195
:1025A00095030995FF91EF91BF91AF919F918F9105
:1025B0007F916F915F914F913F912F910F900BBE43
:1025C0000F900FBE0F901F9018951F920F920FB68D
:1025D0000F920BB60F9211242F933F934F935F935B
:1025E0006F937F938F939F93AF93BF93EF93FF93DB
:1025F0008091980390919903892B29F0E091980399
:10260000F09199030995FF91EF91BF91AF919F913F
:102610008F917F916F915F914F913F912F910F908B
:102620000BBE0F900FBE0F901F9018951F920F9228
:102630000FB60F920BB60F9211242F933F934F9327
:102640005F936F937F938F939F93AF93BF93EF931A
:10265000FF9380919E0390919F03892B29F0E09135
:102660009E03F0919F030995FF91EF91BF91AF9168
:102670009F918F917F916F915F914F913F912F919A
:102680000F900BBE0F900FBE0F901F9018951F92CA
:102690000F920FB60F920BB60F9211242F933F9308
:1026A0004F935F936F937F938F939F93AF93BF935A
:1026B000EF93FF938091A0039091A103892B29F0C0
:1026C000E091A003F091A1030995FF91EF91BF91D3
:1026D000AF919F918F917F916F915F914F913F91BA
:1026E0002F910F900BBE0F900FBE0F901F9018955B
:1026F0001F920F920FB60F920BB60F9211242F93C9
:102700003F934F935F936F937F938F939F93AF9379
:10271000BF93EF93FF938091A2039091A303892B22
:1027200029F0E091A203F091A3030995FF91EF91A5
:10273000BF91AF919F918F917F916F915F914F91D9
:102740003F912F910F900BBE0F900FBE0F901F90D7
:1027500018951F920F920FB60F920BB60F9211247D
:102760002F933F934F935F936F937F938F939F9399
:10277000AF93BF93EF93FF938091A4039091A50330
:10278000892B29F0E091A403F091A5030995FF910D
:10279000EF91BF91AF919F918F917F916F915F91D9
:1027A0004F913F912F910F900BBE0F900FBE0F9046
:1027B0001F90189583E061E00E94790F84E061E04A
:1027C0000E94790F78940E94480E0E94880CFDCFD9
:1027D000DC01ED91FC910190F081E02D09950895C7
:1027E0000E94E81308950F931F93CF93DF938C01FA
:1027F000EB0104C02196C8010E94F0136881662392
:10280000C9F7DF91CF911F910F9108952F923F92B9
:102810004F925F926F927F928F929F92AF92BF92F0
:10282000CF92DF92EF92FF920F931F93DF93CF939C
:10283000CDB7DEB7A0970FB6F894DEBF0FBECDBF01
:102840001C016A017B01411551056105710521F4E7
:1028500060E30E94F0134FC0882499245401422E53
:1028600055246624772401E010E00C0F1D1F080D8D
:10287000191DC701B601A30192010E941717F801A3
:1028800060830894811C911CA11CB11CC701B60176
:10289000A30192010E941717C901DA016C017D01A1
:1028A000C114D104E104F104F1F681E0E82EF12C29
:1028B000EC0EFD1EE80CF91C3E010894611C711C15
:1028C000D501C4010197A109B1096C01C818D90843
:1028D0000FC0F601EE0DFF1D60816A3010F4605DDF
:1028E00001C0695CC1010E94F0130894E108F1087D
:1028F0006E147F0471F7A0960FB6F894DEBF0FBE7A
:10290000CDBFCF91DF911F910F91FF90EF90DF909E
:10291000CF90BF90AF909F908F907F906F905F907F
:102920004F903F902F900895EF92FF920F931F9337
:10293000CF93DF93EC017A018B0177FF0BC06DE23F
:102940000E94F01310950095F094E094E11CF11CA6
:10295000011D111DCE01B801A7012AE00E94061435
:10296000DF91CF911F910F91FF90EF900895AB01F0
:10297000662757FD6095762F0E94941408950CD019
:1029800027C11FD140F016D130F021F45F3F19F07C
:10299000DFC0511168C10BC12CD198F39923C9F341
:1029A0005523B1F3951B550BBB27AA276217730755
:1029B000840738F09F5F5F4F220F331F441FAA1F09
:1029C000A9F333D00E2E3AF0E0E830D091505040C9
:1029D000E695001CCAF729D0FE2F27D0660F771F77
:1029E000881FBB1F261737074807AB07B0E809F059
:1029F000BB0B802DBF01FF2793585F4F2AF09E3FEE
:102A0000510568F0A5C02FC15F3FECF3983EDCF3A1
:102A1000869577956795B795F7959F5FC9F7880F66
:102A2000911D9695879597F90895E1E0660F771FB8
:102A3000881FBB1F621773078407BA0720F0621B49
:102A4000730B840BBA0BEE1F88F7E095089504D042
:102A50006894B11108C10895D4D088F09F5790F0C0
:102A6000B92F9927B751A0F0D1F0660F771F881FB3
:102A7000991F1AF0BA95C9F712C0B13081F0F2D09F
:102A8000B1E00895EFC0672F782F8827B85F39F03D
:102A9000B93FCCF3869577956795B395D9F73EF412
:102AA00090958095709561957F4F8F4F9F4F0895BA
:102AB000E89409C097FB3EF49095809570956195D8
:102AC0007F4F8F4F9F4F9923A9F0F92F96E9BB278E
:102AD0009395F695879577956795B795F111F8CF0A
:102AE000FAF4BB0F11F460FF1BC06F5F7F4F8F4F75
:102AF0009F4F16C0882311F096E911C0772321F06B
:102B00009EE8872F762F05C0662371F096E8862F02
:102B100070E060E02AF09A95660F771F881FDAF759
:102B2000880F9695879597F9089585D080F09F37FF
:102B300040F491110EF097C060E070E080E89FEBE8
:102B4000089526F41B16611D711D811D07C021C04B
:102B500097F99F6780E870E060E00895882371F43A
:102B6000772321F09850872B762F07C0662311F426
:102B700099270DC09051862B70E060E02AF09A955D
:102B8000660F771F881FDAF7880F9695879597F954
:102B900008959F3F31F0915020F487957795679580
:102BA000B795880F911D9695879597F908959FEF92
:102BB00080EC089500240A941616170618060906D4
:102BC000089500240A9412161306140605060895A3
:102BD000092E0394000C11F4882352F0BB0F40F42B
:102BE000BF2B11F460FF04C06F5F7F4F8F4F9F4F6B
:102BF000089557FD9058440F551F59F05F3F71F0ED
:102C00004795880F97FB991F61F09F3F79F0879553
:102C10000895121613061406551FF2CF4695F1DFDC
:102C200008C0161617061806991FF1CF869571056C
:102C3000610508940895E5DFA0F0BEE7B91788F4B0
:102C4000BB279F3860F41616B11D672F782F882791
:102C5000985FF7CF869577956795B11D93959639CF
:102C6000C8F30895E894BB2766277727CB0197F927
:102C700008950BD0ADCF9EDF28F0A3DF18F0952389
:102C800009F066CF94CF1124EECFB3DFA0F3959F68
:102C9000D1F3950F50E0551F629FF001729FBB2743
:102CA000F00DB11D639FAA27F00DB11DAA1F649FEF
:102CB0006627B00DA11D661F829F2227B00DA11DA2
:102CC000621F739FB00DA11D621F839FA00D611D28
:102CD000221F749F3327A00D611D231F849F600D49
:102CE000211D822F762F6A2F11249F5750408AF082
:102CF000E1F088234AF0EE0FFF1FBB1F661F771F0E
:102D0000881F91505040A9F79E3F510570F020CF89
:102D1000AACF5F3FECF3983EDCF3869577956795F5
:102D2000B795F795E7959F5FC1F7FE2B880F911D2B
:102D30009695879597F9089511F40EF438CF29CF19
:102D400060DFD0F39923D9F3CEF39F57550B87FF5C
:102D500035D00024A0E640EA90018058569597951A
:102D600028F4805C660F771F881F20F0261737072E
:102D7000480730F4621B730B840B202931294A2B3E
:102D8000A69517940794202531254A2758F7660FF2
:102D9000771F881F20F026173707480730F4620B8B
:102DA000730B840B200D311D411DA09581F7B901D6
:102DB000842F9158880F969587950895915050408B
:102DC000660F771F881FD2F70895629FD001739F07
:102DD000F001829FE00DF11D649FE00DF11D929FB7
:102DE000F00D839FF00D749FF00D659FF00D9927F6
:102DF000729FB00DE11DF91F639FB00DE11DF91F1A
:102E0000BD01CF011124089597FB092E07260AD092
:102E100077FD04D049D006D000201AF47095619552
:102E20007F4F0895F6F7909581959F4F0895A1E201
:102E30001A2EAA1BBB1BFD010DC0AA1FBB1FEE1F34
:102E4000FF1FA217B307E407F50720F0A21BB30B7F
:102E5000E40BF50B661F771F881F991F1A9469F7FB
:102E600060957095809590959B01AC01BD01CF0157
:102E7000089597FB092E05260ED057FD04D0D7DF05
:102E80000AD0001C38F450954095309521953F4F5D
:102E90004F4F5F4F0895F6F7909580957095619527
:102EA0007F4F8F4F9F4F0895AA1BBB1B51E107C057
:102EB000AA1FBB1FA617B70710F0A61BB70B881FCA
:102EC000991F5A95A9F780959095BC01CD01089559
:102ED000EE0FFF1F0590F491E02D0994F894FFCFB9
:102EE0004C3A2000523A200041524D205350454563
:102EF000443A2000436F756E74696E673A2000543F
:102F000000460054756E696E672050494420666F14
:102F10007220495220646574656374696F6E005055
:102F20003A2000443A2000533A20006D61783A205C
:102F3000005377696E67696E67004261636B005387
:102F400077696E67696E672041726D00466F7277B0
:102F50006172640045523A200050443A005748419B
:102F60005420544F20544553543F00546170652001
:102F7000466F6C6C6F77696E67002A0020004172A3
:102F80007469666163742041726D00495220536513
:102F90006E736F7200526576657273652044726954
:102FA00076696E6700544150452054554E494E474E
:102FB000005468726573686F6C643A200020523A5E
:102FC000200053504545443A200044454C54413A72
:102FD000200053544152543A205245545259005300
:102FE000544F503A20524554554E450001000100BF
:102FF0002003640002000500320035003B00380069
:10300000230062006500310034003A0037002200DE
:1030100061006400300033003900360021002000D8
:10302000630001FF180019002600270005000400B6
:103030000100000000000000650100000000A9047C
:10304000FC025E044304780401020408102040805E
:0630500020100880402062
:00000001FF
