:100000000C9448000C947C000C947C000C947C00B4
:100010000C947C000C947C000C947C000C947C0070
:100020000C947C000C94ED160C9496150C94BC1654
:100030000C9429160C945A160C9465150C94F8150A
:100040000C945F120C947C000C9454030C94E30306
:100050000C947C000C947C000C947C000C947C0030
:100060000C948B160C94B1170C941E170C944F170C
:100070000C9480170C94C7150C9425030C949C03C6
:100080000C947C000C947C000C947C000B058B057C
:1000900011241FBECFEFD0E1DEBFCDBF88E483BF08
:1000A00084E00E94DB1312BE87B7816087BF78941B
:1000B00012E0A0E0B1E0E0EFF6E300E00BBF02C029
:1000C00007900D92AC3BB107D9F713E0ACEBB2E06F
:1000D00001C01D92A63FB107E1F710E0C0E9D0E0F2
:1000E00004C02297FE010E94721BCC38D107C9F7C9
:1000F0000E94E2170C94761B0C940000FB01EE0F9B
:10010000FF1FEF56FD4F808160E070E00E94AE144B
:1001100008950F931F93CF93DF93EB018A01CC0FC8
:10012000DD1F57FD0CC0FE01E757FD4F808161E0E8
:100130000E945113CF56DD4F8881B8010EC0FE01D9
:10014000E757FD4F808160E00E945113CF56DD4F8D
:1001500066277727601B710B88810E94AE14DF91A0
:10016000CF911F910F9108951F93CF93DF93C0E01C
:10017000D0E0FE01E757FD4F1081812F61E00E9422
:100180000813812F61E00E945113FE01EF56FD4FCD
:10019000808160E070E00E94AE142296C830D105E4
:1001A00041F7DF91CF911F910895FC0110828AE001
:1001B00090E0938382830895CF93DF93EC018A814B
:1001C00060E00E9451138D8160E00E9481138D8157
:1001D00060E00E94A3138B8161E00E9451138C8127
:1001E00061E00E9451130000000010C08C8160E0AB
:1001F0000E94511300000000000000008C8161E0AB
:100200000E94511300000000000000008D810E9438
:10021000981387FDEBCF8C8160E00E945113DF9132
:10022000CF910895FF920F931F938C01F62E0E9499
:10023000DC00F801828161E00E945113F8018381A2
:1002400060E00E945113F801848161E00E94511323
:10025000F801858161E00E948113F80185816F2D8D
:100260000E94A3130000000000000000F801848138
:1002700060E00E945113F801858160E00E948113C3
:10028000F80185816FEF0E94A3131F910F91FF90DA
:100290000895EF92FF920F931F93CF93DF937C010A
:1002A000042F6115710551F0EB0110E005C0C70185
:1002B00069910E9412011F5F1017C8F3DF91CF915F
:1002C0001F910F91FF90EF900895DF93CF930F92BE
:1002D000CDB7DEB76983BE016F5F7F4F41E00E94FB
:1002E00049010F90CF91DF910895FF920F931F93D3
:1002F0008C01F62E0E94DC00F801828160E00E94F1
:100300005113F801838160E00E945113F801848148
:1003100061E00E945113F801858161E00E94811320
:10032000F80185816F2D0E94A313000000000000DA
:100330000000F801848160E00E945113F80185817A
:1003400060E00E948113F80185816FEF0E94A31382
:100350001F910F91FF900895423031F0433031F0FA
:10036000413029F4605C03C06C5E01C06C5A606867
:100370000E947501089562E00E947501089561E090
:100380000E94750108950F931F938C01FC018281D7
:1003900060E00E945113F801838160E00E945113D4
:1003A000F801848160E00E945113F801828161E0CC
:1003B0000E940813F801838161E00E940813F8018C
:1003C000848161E00E940813F801858160E00E9449
:1003D0008113F80185816FEF0E94A3131F910F9184
:1003E00008950F931F938C010E94C301C80168E315
:1003F0000E947501C80161E00E947501C80166E0B4
:100400000E947501C8016CE00E947501C80162E09C
:100410000E947501C80160E80E9475011F910F914B
:1004200008950F93FC018DE992E0918380836283AC
:10043000438324830583CF010E94F1010F91089526
:100440005F926F927F928F929F92AF92BF92CF9264
:10045000DF92EF92FF920F931F93CF93DF93EC0104
:100460003A014B01413482E458078FE0680780E08D
:1004700078070CF07FC060E874E88EE190E0A4019A
:1004800093010E94411B2150304040405040CA011E
:10049000B90122E030E040E050E00E94411B5901E8
:1004A0006A01A6019501209530954095509594E0FC
:1004B000220F331F441F551F9A95D1F760E074E255
:1004C00084EF90E00E94411BCA01B9012FEF30E098
:1004D00040E050E00E94ED1AA40193010E94411BEC
:1004E000C90181509F4F181619061CF4522E5A94B8
:1004F00003C055245394521A60E079E08DE390E0F4
:10050000A40193010E94411B2150304040405040C3
:10051000CA01B90122E030E040E050E00E94411BF6
:10052000209530954095509583E0220F331F441F4E
:10053000551F8A95D1F760E074E284EF90E00E9445
:10054000411BCA01B9012FEF30E040E050E00E94AA
:10055000ED1AA40193010E94411BC90181509F4FD4
:10056000181619061CF4822F815002C081E0821BEC
:100570008515E8F4CA5BDF4FE881F981C654D040A5
:1005800082E0808360E079E08DE390E0A401930154
:100590000E94411B2150304040405040CA01B901E7
:1005A00022E030E040E050E00E94411B08C0CA5BFE
:1005B000DF4FE881F981C654D04010829501CE5BAF
:1005C000DF4FE991F9913083E881F9812083249606
:1005D000E881F98188E98083DF91CF911F910F91A4
:1005E000FF90EF90DF90CF90BF90AF909F908F9053
:1005F0007F906F905F900895FC0124813581C9013F
:100600000895DC01FC0182819381809714F080E0E1
:100610000895FD0182819381019693838283848171
:100620009581E80FF91F60870196FD01958384830A
:100630002D913C9111978217930714F481E008954E
:10064000FD011582148281E008951F920F920FB66A
:100650000F920BB60F9211242F933F934F935F93FA
:100660006F937F938F939F93AF93BF93EF93FF937A
:10067000E0915203F091530360818AE093E00E947D
:100680000103FF91EF91BF91AF919F918F917F9166
:100690006F915F914F913F912F910F900BBE0F90F3
:1006A0000FBE0F901F9018951F920F920FB60F92CA
:1006B0000BB60F9211242F933F934F935F936F9339
:1006C0007F938F939F93AF93BF93EF93FF93E091AB
:1006D0000603F091070360818EEB92E00E94010314
:1006E000FF91EF91BF91AF919F918F917F916F910A
:1006F0005F914F913F912F910F900BBE0F900FBEC6
:100700000F901F901895DC01FC0182819381019765
:100710009383828386819781E80FF91F4085019634
:10072000FD01978386832D913C918217930714F0E6
:1007300017821682842F08951F920F920FB60F9280
:100740000BB60F9211240F931F932F933F934F9348
:100750005F936F937F938F939F93AF93BF93EF9329
:10076000FF9380913403909135031816190654F4C1
:10077000009152031091530382E393E00E9483039C
:10078000F80180838091340390913503892B31F4F3
:10079000E0915003F091510388E98083FF91EF913C
:1007A000BF91AF919F918F917F916F915F914F9189
:1007B0003F912F911F910F910F900BBE0F900FBE85
:1007C0000F901F9018951F920F920FB60F920BB6B5
:1007D0000F9211240F931F932F933F934F935F9387
:1007E0006F937F938F939F93AF93BF93EF93FF93F9
:1007F0008091E8029091E9021816190654F40091CC
:1008000006031091070386EE92E00E948303F8012D
:1008100080838091E8029091E902892B31F4E09184
:100820000403F091050388E98083FF91EF91BF9164
:10083000AF919F918F917F916F915F914F913F9178
:100840002F911F910F910F900BBE0F900FBE0F9025
:100850001F901895DC01FC0182819381019793839D
:10086000828386819781E80FF91F40850196FD01FB
:10087000978386832D913C918217930714F01782FA
:100880001682842F0895FC0184819581892B19F4A7
:100890002FEF3FEF06C0CF0102960E942A04282FB7
:1008A00030E0C9010895CF93DF93EC01EE81FF8121
:1008B000E80FF91F8085DF91CF910895FC018481B5
:1008C0009581892B19F42FEF3FEF06C0CF010296D7
:1008D0000E945304282F30E0C9010895FC011382BF
:1008E000128282819381978386839583848308957E
:1008F00002960E946E040895FC0180E290E09183CC
:100900008083CF010E946E040895DC01FC01828186
:100910009381409714F080E00895FD0182819381D6
:1009200001969383828384819581E80FF91F608704
:100930000196FD01958384832D913C911197821737
:10094000930714F481E00895FD011582148281E07B
:100950000895CF93DF93EC018CA59DA54097E4F714
:10096000F894CE018A960E948504C85BDF4FE88127
:10097000F9818081806280837894DF91CF9108959E
:10098000FC011382128282819381978386839583EF
:1009900084830895FC0180E190E091838083CF01FE
:1009A0000E94C00408956F927F928F929F92AF929F
:1009B000BF92CF92DF92EF92FF920F931F936C0141
:1009C0005B014A013901FC0183EA92E08193919332
:1009D000CF010E947C04C6018A960E94CA0482E468
:1009E00090E0C80ED91EF601A192B1928192919227
:1009F0006192719201931193F182E0821F910F91A4
:100A0000FF90EF90DF90CF90BF90AF909F908F902E
:100A10007F906F900895EF92FF920F931F938CEB4E
:100A200092E060E970E049E250E02BE230E00AE257
:100A300010E0FCE2EF2EF12C0E94D30488E093E05A
:100A400068E970E049E950E02BE930E00AE910E09C
:100A5000ECE9EE2EF12C0E94D3041F910F91FF9030
:100A6000EF90089548E750E050933A0240933902DE
:100A70008CE390E090933C0280933B0228EC30E0C2
:100A800030933E0220933D023093400220933F0278
:100A900010926903109268035093420240934102FE
:100AA000909344028093430282EC91E0909346023B
:100AB0008093450286E292E0909348028093470239
:100AC0008AEF90E090934A028093490280ED97E08C
:100AD00090934C0280934B0210926B0310926A0326
:100AE00010927903109278038CEB92E090934E026F
:100AF00080934D0284E090E09093500280934F02E7
:100B0000309352022093510284E195E09093540275
:100B10008093530208950F9384E593E06AE14BE1DB
:100B20002CE102E00E9411028AE593E00E94B400E9
:100B30008CE593E00E94D50080E693E00E94D5000A
:100B400084E693E00E94D5000F910895CF93DF9340
:100B500081E00E94B713EC0182E00E94B713AC0160
:100B600020913D0230913E022817390744F42C179A
:100B70003D078CF41092BB031092BA030CC082178D
:100B800093074CF42C173D0734F481E090E09093E8
:100B9000BB038093BA03C217D3074CF4241735075D
:100BA00034F48FEF9FEF9093BB038093BA03421707
:100BB00053072CF5C217D30714F520915702309133
:100BC000580237FF0BC08091590290915A029095BC
:100BD00081959F4F9093BB038093BA03121613061F
:100BE00074F48091680390916903209159023091C7
:100BF0005A02820F931F9093BB038093BA03809194
:100C00005702909158022091BA033091BB0382178A
:100C10009307B1F09093BD038093BC0330935802C7
:100C2000209357028091C4039091C5039093C7030A
:100C30008093C60381E090E09093C5038093C40342
:100C4000DF91CF9108950F931F9383E00E94B71314
:100C50008C0184E00E94B7139C01200F311FC90151
:100C60001F910F9108958F929F92AF92BF92CF9252
:100C7000DF92EF92FF920F931F93CF93DF935C016C
:100C80004B01EA017901680181E00E94B7138C01F0
:100C900082E00E94B7139C01C817D90744F4C0171B
:100CA000D1078CF41092BB031092BA030CC08C17BE
:100CB0009D074CF4C017D10734F481E090E0909385
:100CC000BB038093BA030C171D074CF4C217D3075C
:100CD00034F48FEF9FEF9093BB038093BA032C17EC
:100CE0003D070CF50C171D07F4F4209157023091C5
:100CF000580237FF0BC08091590290915A0290958B
:100D000081959F4F9093BB038093BA0312161306ED
:100D100054F48091590290915A028C0D9D1D90932C
:100D2000BB038093BA03809157029091580240917F
:100D3000BA035091BB0384179507B1F09093BD039C
:100D40008093BC0350935802409357028091C40390
:100D50009091C5039093C7038093C60381E090E010
:100D60009093C5038093C403A49E9001A59E300D6B
:100D7000B49E300D11243093BF032093BE038091A5
:100D8000BC039091BD03481B590B6091C403709143
:100D9000C5038091C6039091C703680F791F849E95
:100DA000C001859E900D949E900D11240E940C1BF5
:100DB000AB017093C1036093C003420F531F509364
:100DC000C3034093C2034E0D5F1D8AE593E060E0CC
:100DD00070E00E9489008091C2039091C303E81AD9
:100DE000F90A8AE593E061E070E0A7010E948900BA
:100DF0008091C4039091C50301969093C50380939D
:100E0000C403DF91CF911F910F91FF90EF90DF907E
:100E1000CF90BF90AF909F908F9008950F931F93A6
:100E2000CF93DF938C01EB0144275527481B590BC7
:100E30008AE593E060E070E00E9489008AE593E033
:100E400061E070E0A8010E9489000E9423068C17CF
:100E50009D07DCF3DF91CF911F910F910895AF9221
:100E6000BF92CF92DF92EF92FF920F931F93CF9397
:100E7000DF9381E00E94B7138C0182E00E94B713D8
:100E8000EC010E94A7126093C8037093C90380937A
:100E9000CA039093CB0384E593E00E94BB0184E5F1
:100EA00093E060E040E00E94AC0184E593E060E004
:100EB00071E00E94FB179CE0A92E9EEFB92E84EFF3
:100EC000C82E81E0D82EEE24EA94FE2C58C081E092
:100ED0000E94B7138C0182E00E94B713EC0180914D
:100EE0005B0290915C028A9DA0018B9D500D9A9DA2
:100EF000500D11248AE593E060E070E00E948900C3
:100F000080915B0290915C028C9DA0018D9D500DA3
:100F10009C9D500D11248AE593E061E070E00E94F1
:100F200089000E94A7122091C8033091C903409103
:100F3000CA035091CB03621B730B840B950B20EDFE
:100F400037E040E050E00E941F1B611571058105EC
:100F50009105A9F480915B0290915C02813091052A
:100F600029F4F0925C02E0925B0209C08F5F9F4F10
:100F700031F481E090E090935C0280935B02809179
:100F80003D0290913E02081719070CF4A0CFC81734
:100F9000D9070CF49CCF84E593E00E94BF01DF9158
:100FA000CF911F910F91FF90EF90DF90CF90BF9066
:100FB000AF90089581E30E94381320E030E0882349
:100FC00011F421E030E0C90108950E94DA07892B6D
:100FD00019F420E030E00EC062E370E080E090E0C1
:100FE0000E94E2120E94DA0720E030E0892B11F023
:100FF00021E030E0C901089582E30E94381320E027
:1010000030E0882311F421E030E0C90108950E9406
:10101000FC07892B19F420E030E00EC062E370E099
:1010200080E090E00E94E2120E94FC0720E030E0A5
:10103000892B11F021E030E0C90108951F93182F8A
:1010400061E00E945113812F0E943813813019F002
:1010500020E030E013C062E370E080E090E00E94A6
:10106000E212812F61E00E945113812F0E943813F8
:1010700020E030E0813011F421E030E0C9011F911F
:101080000895CF93DF93EC010E94A7126093B603FB
:101090007093B7038093B8039093B90380E090E016
:1010A0000E941E08892BD9F40E94A7122091B60332
:1010B0003091B7034091B8035091B903621B730B91
:1010C000840B950B60527E448040904040F48AE54A
:1010D00093E062E070E0AE010E948900DFCFDF9113
:1010E000CF9108950F931F93CF93DF938C010E94AC
:1010F000A7126093B6037093B7038093B8039093DD
:10110000B903CC27DD27C01BD10B83E090E00E9400
:101110001E08892BD9F40E94A7122091B6033091A2
:10112000B7034091B8035091B903621B730B840B52
:10113000950B60527E448040904040F48AE593E0F5
:1011400062E070E0AE010E948900DFCFDF91CF91B5
:101150001F910F910895CF92DF92EF92FF920F931C
:101160001F938C0134E5E32E33E0F32EC7010E9478
:10117000BF01C7010E94BB01C70160E040E00E94BF
:10118000AC01C70169E071E00E94FB17C70160E094
:1011900041E00E94AC01C70162E171E00E94FB17CF
:1011A000C8010E947208C7010E94BF012AE5C22E31
:1011B00023E0D22EC60162E070E00E947E00C701EB
:1011C0000E94BB01C70160E040E00E94AC01C70182
:1011D00067E171E00E94FB17C70160E041E00E94F7
:1011E000AC01C70164E271E00E94FB17C8010E94D4
:1011F0004108C7010E94BF01C60162E070E00E9481
:101200007E000E94A6051F910F91FF90EF90DF9046
:10121000CF900895CF93DF93EC0129C086E00E9420
:10122000B7139983888384E593E00E94BF0184E526
:1012300093E00E94BB0184E593E060E040E00E94FF
:10124000AC0184E593E06CE271E00E94FB176881D9
:10125000798184E593E00E94BF186AE070E080E045
:1012600090E00E94E21284E593E00E94BF010E9498
:10127000FC07892B99F206C062E370E080E090E001
:101280000E94E2120E94FC07892BB1F7DF91CF91F7
:1012900008958F929F92AF92BF92CF92DF92EF927A
:1012A000FF920F931F93CF93DF936C014B015A0171
:1012B00083E00E94B7137C0184E00E94B7138C0185
:1012C0006AE070E080E090E00E94E21284E593E042
:1012D0000E94BF0184E593E00E94BB0184E593E096
:1012E00068E371E00E94FB1784E593E0B7010E9478
:1012F000BF1884E593E068E040E00E94AC0184E51B
:1013000093E06CE371E00E94FB1784E593E0B80181
:101310000E94BF1884E593E060E041E00E94AC01C8
:1013200084E593E060E471E00E94FB176091A603FE
:101330007091A70384E593E00E94BF18E701C01BEA
:10134000D10BD093A703C093A6038091A8039091DB
:10135000A9038C179D07B1F09093AB038093AA0368
:10136000D093A903C093A8038091B2039091B303D3
:101370009093B5038093B40381E090E09093B3031E
:101380008093B2030E0D1F1DB801882777FD80954D
:10139000982F0E9462190E94A81A7B018C01CA9D95
:1013A000B001CB9D700DDA9D700D1124882777FD5B
:1013B0008095982F0E946219A80197010E94C71872
:1013C0000E942F199B017093AD036093AC03809131
:1013D000AA039091AB03C81BD90B6091B203709123
:1013E000B3038091B4039091B503680F791FC89D32
:1013F000C001C99D900DD89D900D11240E940C1B19
:101400007093AF036093AE03260F371F3093B10381
:101410002093B00384E593E068E041E00E94AC01D2
:1014200084E593E065E471E00E94FB176091B003EE
:101430007091B10384E593E00E94BF184091B0031E
:101440005091B1034C0D5D1D8AE593E060E070E0C2
:101450000E9489008091B0039091B103C81AD90A03
:101460008AE593E061E070E0A6010E948900809126
:10147000B2039091B30301969093B3038093B203A8
:10148000DF91CF911F910F91FF90EF90DF90CF9060
:10149000BF90AF909F908F900895AF92BF92CF92E0
:1014A000DF92EF92FF920F931F93CF93DF93EC01A4
:1014B00066E0C62ED12CC80ED91E51E0A52EB12C47
:1014C00044E0E42EF12CE80EF91E8C010E5F1F4F54
:1014D0004BC184E593E00E94BB0184E593E060E0AA
:1014E00040E00E94AC0184E593E069E471E00E9471
:1014F000FB1786E00E94B713AA2797FDA095BA2F85
:10150000BC01CD010E94621920E030EC4FE754E4A9
:101510000E94C71820E030E040E850E40E94411AE1
:101520000E949D190E942F19709377036093760390
:1015300084E593E00E94BB0184E593E060E041E034
:101540000E94AC018091760390917703009709F097
:101550003FC084E593E067E571E00E94FB17888156
:10156000998181309105B9F484E593E06FE040E022
:101570000E94AC0184E593E066E671E00E94FB17EF
:101580000E94DA07892BF9F00E94DA07892BE1F72C
:101590001982188218C0892BB1F484E593E06FE0BA
:1015A00040E00E94AC0184E593E068E671E00E94AF
:1015B000FB170E94DA07892B31F00E94DA07892B8A
:1015C000E1F7B982A8826CE271E080E090E0C6C0E9
:1015D00081309105E9F584E593E06AE671E00E94C7
:1015E000FB17F8018081918181309105B9F484E580
:1015F00093E06FE040E00E94AC0184E593E066E692
:1016000071E00E94FB170E94DA07892B09F460C081
:101610000E94DA07892BE1F7F8013EC0892B09F017
:1016200057C084E593E06FE040E00E94AC0184E5A0
:1016300093E068E671E00E94FB170E94DA07892BAD
:1016400009F446C00E94DA07892BE1F7F8013EC091
:10165000029709F042C084E593E067E771E00E94D9
:10166000FB17F7018081918181309105C1F484E5F8
:1016700093E06FE040E00E94AC0184E593E066E611
:1016800071E00E94FB170E94DA07892B09F10E9482
:10169000DA07892BE1F7F7011182108219C0892B33
:1016A000B9F484E593E06FE040E00E94AC0184E58A
:1016B00093E068E671E00E94FB170E94DA07892B2D
:1016C00039F00E94DA07892BE1F7F701B182A08295
:1016D00064E670E080E090E041C084E593E061E87A
:1016E00071E00E94FB17F6018081918181309105A4
:1016F000C1F484E593E06FE040E00E94AC0184E532
:1017000093E066E671E00E94FB170E94DA07892BDE
:1017100009F10E94DA07892BE1F7F60111821082A4
:1017200019C0892BB9F484E593E06FE040E00E9492
:10173000AC0184E593E068E671E00E94FB170E942B
:10174000DA07892B39F00E94DA07892BE1F7F601D5
:10175000B182A0826AE070E080E090E00E94E21234
:1017600084E593E00E94BF010E94FC07892B09F4E5
:10177000B0CE06C062E370E080E090E00E94E2122A
:101780000E94FC07892BB1F7DF91CF911F910F9138
:10179000FF90EF90DF90CF90BF90AF9008950F93A0
:1017A0001F93CF93DF93EC018C010E5F1F4F56C048
:1017B00086E00E94B7139983888387E00E94B7135D
:1017C000AA2797FDA095BA2FBC01CD010E946219EE
:1017D00020E030EC4FE754E40E94C71820E030E0EE
:1017E00040EA50E40E94411A0E949D190E942F195C
:1017F000F8017183608384E593E00E94BB0184E576
:1018000093E060E040E00E94AC0184E593E069E889
:1018100071E00E94FB176881798184E593E00E9462
:10182000BF1884E593E060E041E00E94AC0184E5EC
:1018300093E060E971E00E94FB17F801608171811B
:1018400084E593E00E94BF186AE070E080E090E0D9
:101850000E94E21284E593E00E94BF010E94FC070F
:10186000892B09F4A5CF06C062E370E080E090E028
:101870000E94E2120E94FC07892BB1F7DF91CF9101
:101880001F910F9108950F931F93CF93DF93EC0156
:101890008C010E5F1F4F56C086E00E94B7139983DC
:1018A000888387E00E94B713AA2797FDA095BA2FD7
:1018B000BC01CD010E94621920E030EC4FE754E4F6
:1018C0000E94C71820E030E04AEF54E40E94411A19
:1018D0000E949D190E942F19F8017183608384E58D
:1018E00093E00E94BB0184E593E060E040E00E9449
:1018F000AC0184E593E068E971E00E94FB17688120
:10190000798184E593E00E94BF1884E593E060E06C
:1019100041E00E94AC0184E593E062EA71E00E943C
:10192000FB17F8016081718184E593E00E94BF1884
:101930006EE170E080E090E00E94E21284E593E0C6
:101940000E94BF010E94FC07892B09F4A5CF06C0A5
:1019500062E370E080E090E00E94E2120E94FC07E7
:10196000892BB1F7DF91CF911F910F910895AF921D
:10197000BF92CF92DF92EF92FF920F931F93CF937C
:10198000DF938C01EC0122964AC086E00E94B713D7
:10199000F8019183808387E00E94B713998388833D
:1019A00084E593E00E94BB0184E593E060E040E0C1
:1019B0000E94AC0184E593E06EEA71E00E94FB179F
:1019C00084E593E060E041E00E94AC0184E593E0AF
:1019D0006AEC71E00E94FB17F8016081718184E577
:1019E00093E00E94BF1884E593E068E041E00E9424
:1019F000AC0184E593E06EEC71E00E94FB17688116
:101A0000798184E593E00E94BF186AE070E080E08D
:101A100090E00E94E21284E593E00E94BF010E94E0
:101A2000FC07892B09F4B1CF06C062E370E080E0C7
:101A300090E00E94E2120E94FC07892BB1F74BC094
:101A400083E00E94B7137C0184E00E94B7136C010D
:101A500086E00E94B713998388838D5B924014F0CF
:101A6000B982A88284E593E060E040E00E94AC0186
:101A700084E593E068E371E00E94FB1784E593E05E
:101A8000B7010E94BF1884E593E06CE371E00E9407
:101A9000FB1784E593E0B6010E94BF1884E593E04C
:101AA00060E041E00E94AC0184E593E062ED71E00A
:101AB0000E94FB176881798184E593E00E94BF183A
:101AC0006AE070E080E090E00E94E21284E593E03A
:101AD0000E94BF0106C0E8012496ECEBAE2EE2E0C6
:101AE000BE2E0E94FC07892B09F4AACF06C062E330
:101AF00070E080E090E00E94E2120E94FC07892BD7
:101B0000B1F757C086E00E94B713F7019183808335
:101B100087E00E94B713AA2797FDA095BA2FBC01B2
:101B2000CD010E94621920E030EC4FE754E40E949E
:101B3000C71820E030E04AEF54E40E94411A0E94A6
:101B40009D190E942F197983688384E593E00E9490
:101B5000BB0184E593E060E040E00E94AC0184E5D5
:101B600093E06AED71E00E94FB17F70160817181DB
:101B700084E593E00E94BF1884E593E060E041E0D3
:101B80000E94AC0184E593E062EE71E00E94FB17D5
:101B90006881798184E593E00E94BF186EE170E06E
:101BA00080E090E00E94E21284E593E00E94BF0191
:101BB00007C076E0E72EF12CE00EF11EE801289632
:101BC0000E94FC07892B09F49DCF06C062E370E0F8
:101BD00080E090E00E94E2120E94FC07892BB1F79E
:101BE000DF91CF911F910F91FF90EF90DF90CF90F9
:101BF000BF90AF900895CF92DF92EF92FF920F9334
:101C00001F93CF93DF936C01EC0122964AC086E0CC
:101C10000E94B713F6019183808387E00E94B71377
:101C20009983888384E593E00E94BB0184E593E077
:101C300060E040E00E94AC0184E593E068EE71E072
:101C40000E94FB1784E593E060E041E00E94AC0154
:101C500084E593E06AEC71E00E94FB17F601608175
:101C6000718184E593E00E94BF1884E593E068E009
:101C700041E00E94AC0184E593E06EEC71E00E94CB
:101C8000FB176881798184E593E00E94BF186AE0C0
:101C900070E080E090E00E94E21284E593E00E9410
:101CA000BF010E94FC07892B09F4B1CF06C062E393
:101CB00070E080E090E00E94E2120E94FC07892B15
:101CC000B1F746C081E00E94B7138C0182E00E9408
:101CD000B7137C0186E00E94B7139983888384E55B
:101CE00093E060E041E00E94AC0184E593E064EFA2
:101CF00071E00E94FB176881798184E593E00E947E
:101D0000BF1884E593E060E040E00E94AC0184E508
:101D100093E068E371E00E94FB1784E593E0B8016B
:101D20000E94BF1884E593E060E072E00E94FB1718
:101D300084E593E0B7010E94BF1864E670E080E09C
:101D400090E00E94E21284E593E00E94BF0102C08D
:101D5000E60124960E94FC07892B09F4B3CF06C044
:101D600062E370E080E090E00E94E2120E94FC07D3
:101D7000892BB1F75AC086E00E94B71399838883F4
:101D800087E00E94B713AA2797FDA095BA2FBC0140
:101D9000CD010E94621920E030EC4FE754E40E942C
:101DA000C71820E030E040EA50E40E94411A0E9447
:101DB0009D190E942F19F601718360838881998192
:101DC0008D5B924014F01983088384E593E060E012
:101DD00040E00E94AC0184E593E062ED71E00E9476
:101DE000FB176881798184E593E00E94BF1884E540
:101DF00093E060E041E00E94AC0184E593E065E09F
:101E000072E00E94FB17F6016081718184E593E026
:101E10000E94BF186AE070E080E090E00E94E21249
:101E200084E593E00E94BF0108C0E601269688E0A1
:101E300090E0C80ED91E0CEB12E00E94FC07892B23
:101E400009F499CF06C062E370E080E090E00E9460
:101E5000E2120E94FC07892BB1F7DF91CF911F910D
:101E60000F91FF90EF90DF90CF900895EF92FF9247
:101E70000F931F93CF93DF93809155029091560259
:101E8000019709F028C184E993E00E944D0A84E596
:101E900093E00E94BB0184E593E060E040E00E9493
:101EA000AC0184E593E06DE072E00E94FB1764E111
:101EB00070E080E090E00E94E21284E593E00E94EE
:101EC000BF010E94FC07892B49F081E090E09093CC
:101ED0007B0380937A030E94320508C00E94DA07D0
:101EE000892BA9F210927B0310927A030E94FC07BF
:101EF000892B29F40E94DA07892B09F488C262E34E
:101F000070E080E090E00E94E212F0CF80919403B4
:101F100090919503019761F580E893E00E94FB0D95
:101F2000809180039091810390933A0280933902CB
:101F3000809182039091830390933C0280933B02B3
:101F4000809184039091850390933E0280933D029B
:101F500080918603909187039093400280933F0283
:101F6000809188039091890390936903809368031B
:101F70008091960390919703019761F48CE993E027
:101F80000E940A0980919C0390919D0390934802BE
:101F9000809347028091980390919903019761F58E
:101FA0008AE893E00E94B70C80918A0390918B039A
:101FB000909342028093410280918C0390918D0313
:101FC000909344028093430280918E0390918F03FB
:101FD00090934602809345028091900390919103E3
:101FE00090934A02809349028091920390919303C7
:101FF00090934C0280934B0280919A0390919B03A3
:102000000197A1F48EE993E00E94CF0B80919E038B
:1020100090919F0390934E0280934D028091A00374
:102020009091A1039093500280934F0280919A0364
:1020300090919B03019709F04EC080919803909175
:102040009903019709F047C082EA93E00E94430C8C
:102050008091A2039091A303909352028093510226
:102060008091A4039091A50390935402809353020E
:1020700032C081E00E94B7138C0182E00E94B71346
:102080007C0184E593E00E94BF0184E593E00E9417
:10209000BB0184E593E068E371E00E94FB1784E5EF
:1020A00093E0B8010E94BF1884E593E060E041E04E
:1020B0000E94AC0184E593E06CE371E00E94FB17A1
:1020C00084E593E0B7010E94BF1864E170E080E00E
:1020D00090E00E94E2120E940708892B51F231C160
:1020E00080919403909195030197E1F460913B02F4
:1020F00070913C0240913D0250913E0220916A0352
:1021000030916B0380913F0290914002280F391F5C
:1021100000916803109169038091390290913A020D
:102120000E9433068FB7F894969A8FBF80919603DA
:10213000909197030197E1F586E00E943813813072
:10214000B9F58AE593E060E070E00E947E008AE5E0
:1021500093E061E070E00E947E00809147029091E0
:1021600048020E94AB088091780390917903019610
:102170009093790380937803019751F40E94A712FA
:102180006093720370937303809374039093750349
:102190008091780390917903029751F40E94A712DD
:1021A00060936E0370936F03809370039093710339
:1021B000209178033091790321303105F9F4809131
:1021C0006A0390916B0384369105C4F40E94A712B0
:1021D0002091720330917303409174035091750301
:1021E000621B730B840B950B685B7B4080409040B7
:1021F00030F1D0936B03C0936A0321C022303105C4
:10220000F1F480916A0390916B0318161906BCF4DF
:102210000E94A71220916E0330916F0340917003CA
:1022200050917103621B730B840B950B685B7B40B1
:102230008040904020F010926B0310926A0300914E
:102240009A0310919B0301301105C9F52091780381
:102250003091790380914F029091500228173907ED
:1022600071F5109297031092960380913F0290911E
:10227000400290937D0380937C03609151027091A2
:10228000520280914D0290914E020E940E07809161
:10229000490290914A0290937F0380937E0380913C
:1022A00051029091520290934A02809349021093F6
:1022B0006D0300936C0310929B0310929A0300919C
:1022C0006C0310916D030130110599F40E942306EF
:1022D00020915302309154022817390754F4109278
:1022E00099031092980310939503009394030E940E
:1022F0002F078091980390919903019721F50E94EF
:1023000023062091490230914A0282179307DCF09C
:1023100080917803909179030397ACF01092950324
:1023200010929403609141027091420240914302E5
:102330005091440280914502909146020E944909C1
:1023400002C0C4E6D0E00E94E507892B09F4C8CE9C
:1023500012C08AE593E060E070E00E947E008AE5AA
:1023600093E061E070E00E947E0062E370E080E054
:1023700090E00E94E2120E94DA07892B51F784E56F
:1023800093E00E94BB0184E593E060E040E00E949E
:10239000AC0184E593E06DE172E00E94FB1784E5F7
:1023A00093E060E041E00E94AC0184E593E06CE2E0
:1023B00072E00E94FB176AE070E080E090E00E940B
:1023C000E21284E593E00E94BF010E94FC07892B82
:1023D00029F010925602109255020AC00E94DA07A4
:1023E000892B69F281E090E0909356028093550228
:1023F0000E94FC07892B21F40E94DA07892B79F0CF
:1024000062E370E080E090E00E94E212F1CF809100
:102410007A0390917B03892B09F478CD5CCE80916F
:102420007C0390917D039093400280933F02109231
:1024300079031092780310926B0310926A03109242
:102440006D0310926C03109272031092730310923A
:1024500074031092750310926E0310926F03109222
:1024600070031092710380917E0390917F0390938B
:102470004A0280934902DF91CF911F910F91FF9003
:10248000EF9008958CEB92E040E855E260E070E058
:102490000E94200280E060E00E94811381E060E001
:1024A0000E94811380E060E00E94081383E060E0F6
:1024B0000E94081386E060E00E94081308951F92AE
:1024C0000F920FB60F9211242F933F938F939F93E8
:1024D000AF93BF938091D0039091D103A091D20389
:1024E000B091D3033091D4030196A11DB11D232FC8
:1024F0002D5F2D3720F02D570196A11DB11D209382
:10250000D4038093D0039093D103A093D203B093CC
:10251000D3038091CC039091CD03A091CE03B091D1
:10252000CF030196A11DB11D8093CC039093CD03E1
:10253000A093CE03B093CF03BF91AF919F918F91A2
:102540003F912F910F900FBE0F901F9018958FB74E
:10255000F8942091D0033091D1034091D20350914F
:10256000D3038FBFB901CA0108956FB7F8942091C2
:10257000CC033091CD034091CE035091CF0382B76D
:1025800090E0A0E0B0E006B600FE09C08F3F9105E4
:10259000A105B10521F02F5F3F4F4F4F5F4F6FBF38
:1025A000542F432F322F2227280F391F4A1F5B1F1A
:1025B00082E0220F331F441F551F8A95D1F7B901BE
:1025C000CA010895EF92FF920F931F93CF93DF9369
:1025D0007B018C010E94B512EB010EC00E94B51266
:1025E0006C1B7D0B685E7340C8F30894E108F1082A
:1025F00001091109C851DC4FE114F104010511056D
:1026000069F7DF91CF911F910F91FF90EF9008959F
:10261000E82FE695E695E695A82FB0E0613099F4AD
:102620002FB7F894F0E0EE0FFF1FE559FD4F019032
:10263000F081E02D9081A770B070A355BD4F8C91B3
:10264000982B908313C02FB7F894F0E0EE0FFF1F84
:10265000E559FD4F0190F081E02D9081A770B07099
:10266000A355BD4F8C918095892380832FBF0895FA
:10267000A82FE82FE695E695E695F0E0EE0FFF1F10
:10268000E758FD4F0190F081E02DE081B0E0A770A8
:10269000B070A355BD4F8C91E82309F0E1E08E2F77
:1026A0000895E82FE695E695E695A82FB0E061300D
:1026B00099F42FB7F894F0E0EE0FFF1FE35AFD4FA7
:1026C0000190F081E02D9081A770B070A355BD4FAF
:1026D0008C91982B908313C02FB7F894F0E0EE0FF5
:1026E000FF1FE35AFD4F0190F081E02D9081A7700C
:1026F000B070A355BD4F8C918095892380832FBFE7
:102700000895E82FF0E0613051F4EE0FFF1FE55916
:10271000FD4F0190F081E02D8FEF80830895EE0F43
:10272000FF1FE559FD4F0190F081E02D10820895C3
:10273000E82FF0E0EE0FFF1FE758FD4F0190F0810A
:10274000E02D80810895E82FF0E0EE0FFF1FE35A9F
:10275000FD4F0190F081E02D60830895109261009B
:102760001092620080E487B987EE86B908951F93BE
:10277000182F80918702813021F40E94AE131092AD
:10278000870280918802181721F4349A349BFECF77
:102790000DC01093880287B11770807E812B87B996
:1027A000349A349BFECF349A349BFECF24B135B19A
:1027B000C9011F91089593B7987F982B93BF0895EF
:1027C0009EB5987F982B9EBD089583E00E94E013EC
:1027D0001DBC1CBC87B7846087BF0895EAE8F0E0A1
:1027E0009081987F982B9083089583E00E94EE1348
:1027F0001092890010928800EDE7F0E080818460FB
:1028000080830895893031F48FB582608FBD8FB594
:102810008E7F0AC08A3019F48FB5826002C08FB5EE
:102820008D7F8FBD8FB581608FBD1BBC1ABC19BC5D
:1028300018BC109279001092780008958FB58068C6
:102840008FBD8FB58F7B8FBD08958FB580628FBD93
:102850008FB58F7E8FBD08958FB588608FBD8FB582
:102860008B7F8FBD08959BBD8ABD089599BD88BD9E
:10287000089590937900809378000895893049F401
:1028800080918B00826080938B0080918B008E7F83
:102890000EC08A3021F480918B00826003C0809149
:1028A0008B008D7F80938B0080918B008160809363
:1028B0008B00109287001092860010928500109273
:1028C000840010928300109282000895EBE8F0E0FB
:1028D00080818068808380818F7B80830895EBE88E
:1028E000F0E080818062808380818F7E8083089584
:1028F000EBE8F0E080818860808380818B7F80833B
:102900000895853019F40E941E140895843019F436
:102910000E9425140895833019F40E942C14089500
:10292000823019F40E9466140895813019F40E94CF
:102930006F140895882311F40E94781408959093D9
:10294000870080938600089590938500809384008B
:10295000089590938300809382000895EF92FF92F0
:102960001F93CF93DF93182F7B018D31B0F08F3100
:1029700011F413E014C08E3111F414E010C08D3145
:1029800009F49BC0853211F410E03DC0843211F48B
:1029900011E039C0833219F48EC08330A0F18091E8
:1029A000D50386FD0BC00E94E51378948AE00E944F
:1029B00002148091D50380648093D5038091D50360
:1029C000C12FD0E090E0012E02C0959587950A9422
:1029D000E2F780FD4CC087B3FE01EB54FD4F9081C0
:1029E000892B87BB812F0E9481142091D50381E020
:1029F00090E0012E02C0880F991F0A94E2F7282B5D
:102A00002093D50334C08091D50387FD0BC00E946D
:102A1000F51378948AE00E943E148091D503806873
:102A20008093D5038091D503C12FD0E090E0012E93
:102A300002C0959587950A94E2F780FD24C082B183
:102A4000FE01EB54FD4F9081892B82B9812F0E94AA
:102A500081142091D50381E090E0012E02C0880FFF
:102A6000991F0A94E2F7282B2093D5030CC0153048
:102A700021F4C7010E94331422C0143021F4C7018D
:102A80000E9436141CC0133021F4C7010E9439146F
:102A900016C0123021F4C7010E949F1410C01130DB
:102AA00021F4C7010E94A4140AC0112341F4C701F4
:102AB0000E94A91404C012E0A6CF15E070CFDF91E8
:102AC000CF911F91FF90EF9008951F920F920FB634
:102AD0000F920BB60F9211242F933F934F935F9356
:102AE0006F937F938F939F93AF93BF93EF93FF93D6
:102AF0008091DC039091DD03892B29F0E091DC03C8
:102B0000F091DD030995FF91EF91BF91AF919F91F6
:102B10008F917F916F915F914F913F912F910F9086
:102B20000BBE0F900FBE0F901F9018951F920F9223
:102B30000FB60F920BB60F9211242F933F934F9322
:102B40005F936F937F938F939F93AF93BF93EF9315
:102B5000FF938091E6039091E703892B29F0E091A0
:102B6000E603F091E7030995FF91EF91BF91AF91D3
:102B70009F918F917F916F915F914F913F912F9195
:102B80000F900BBE0F900FBE0F901F9018951F92C5
:102B90000F920FB60F920BB60F9211242F933F9303
:102BA0004F935F936F937F938F939F93AF93BF9355
:102BB000EF93FF938091EC039091ED03892B29F023
:102BC000E091EC03F091ED030995FF91EF91BF9136
:102BD000AF919F918F917F916F915F914F913F91B5
:102BE0002F910F900BBE0F900FBE0F901F90189556
:102BF0001F920F920FB60F920BB60F9211242F93C4
:102C00003F934F935F936F937F938F939F93AF9374
:102C1000BF93EF93FF938091D8039091D903892BB1
:102C200029F0E091D803F091D9030995FF91EF9134
:102C3000BF91AF919F918F917F916F915F914F91D4
:102C40003F912F910F900BBE0F900FBE0F901F90D2
:102C500018951F920F920FB60F920BB60F92112478
:102C60002F933F934F935F936F937F938F939F9394
:102C7000AF93BF93EF93FF938091DE039091DF03B7
:102C8000892B29F0E091DE03F091DF030995FF9194
:102C9000EF91BF91AF919F918F917F916F915F91D4
:102CA0004F913F912F910F900BBE0F900FBE0F9041
:102CB0001F9018951F920F920FB60F920BB60F929E
:102CC00011242F933F934F935F936F937F938F9331
:102CD0009F93AF93BF93EF93FF938091E003909105
:102CE000E103892B29F0E091E003F091E1030995DC
:102CF000FF91EF91BF91AF919F918F917F916F91D4
:102D00005F914F913F912F910F900BBE0F900FBE8F
:102D10000F901F9018951F920F920FB60F920BB63F
:102D20000F9211242F933F934F935F936F937F9351
:102D30008F939F93AF93BF93EF93FF938091E203A1
:102D40009091E303892B29F0E091E203F091E303F2
:102D50000995FF91EF91BF91AF919F918F917F91D5
:102D60006F915F914F913F912F910F900BBE0F90FC
:102D70000FBE0F901F9018951F920F920FB60F92D3
:102D80000BB60F9211242F933F934F935F936F9342
:102D90007F938F939F93AF93BF93EF93FF93809114
:102DA000E4039091E503892B29F0E091E403F0918D
:102DB000E5030995FF91EF91BF91AF919F918F919D
:102DC0007F916F915F914F913F912F910F900BBE2B
:102DD0000F900FBE0F901F9018951F920F920FB675
:102DE0000F920BB60F9211242F933F934F935F9343
:102DF0006F937F938F939F93AF93BF93EF93FF93C3
:102E00008091E8039091E903892B29F0E091E80390
:102E1000F091E9030995FF91EF91BF91AF919F91D7
:102E20008F917F916F915F914F913F912F910F9073
:102E30000BBE0F900FBE0F901F9018951F920F9210
:102E40000FB60F920BB60F9211242F933F934F930F
:102E50005F936F937F938F939F93AF93BF93EF9302
:102E6000FF938091EE039091EF03892B29F0E0917D
:102E7000EE03F091EF030995FF91EF91BF91AF91B0
:102E80009F918F917F916F915F914F913F912F9182
:102E90000F900BBE0F900FBE0F901F9018951F92B2
:102EA0000F920FB60F920BB60F9211242F933F93F0
:102EB0004F935F936F937F938F939F93AF93BF9342
:102EC000EF93FF938091F0039091F103892B29F008
:102ED000E091F003F091F1030995FF91EF91BF911B
:102EE000AF919F918F917F916F915F914F913F91A2
:102EF0002F910F900BBE0F900FBE0F901F90189543
:102F00001F920F920FB60F920BB60F9211242F93B0
:102F10003F934F935F936F937F938F939F93AF9361
:102F2000BF93EF93FF938091F2039091F303892B6A
:102F300029F0E091F203F091F3030995FF91EF91ED
:102F4000BF91AF919F918F917F916F915F914F91C1
:102F50003F912F910F900BBE0F900FBE0F901F90BF
:102F600018951F920F920FB60F920BB60F92112465
:102F70002F933F934F935F936F937F938F939F9381
:102F8000AF93BF93EF93FF938091F4039091F50378
:102F9000892B29F0E091F403F091F5030995FF9155
:102FA000EF91BF91AF919F918F917F916F915F91C1
:102FB0004F913F912F910F900BBE0F900FBE0F902E
:102FC0001F90189583E061E00E94811384E061E026
:102FD0000E94811378940E9442120E94360FFDCF06
:102FE000DC01ED91FC910190F081E02D09950895AF
:102FF0000E94F01708950F931F93CF93DF938C01D6
:10300000EB0104C02196C8010E94F817688166236D
:10301000C9F7DF91CF911F910F9108952F923F92A1
:103020004F925F926F927F928F929F92AF92BF92D8
:10303000CF92DF92EF92FF920F931F93DF93CF9384
:10304000CDB7DEB7A0970FB6F894DEBF0FBECDBFE9
:103050001C016A017B01411551056105710521F4CF
:1030600060E30E94F8174FC0882499245401422E2F
:1030700055246624772401E010E00C0F1D1F080D75
:10308000191DC701B601A30192010E941F1BF8017F
:1030900060830894811C911CA11CB11CC701B6015E
:1030A000A30192010E941F1BC901DA016C017D017D
:1030B000C114D104E104F104F1F681E0E82EF12C11
:1030C000EC0EFD1EE80CF91C3E010894611C711CFD
:1030D000D501C4010197A109B1096C01C818D9082B
:1030E0000FC0F601EE0DFF1D60816A3010F4605DC7
:1030F00001C0695CC1010E94F8170894E108F10859
:103100006E147F0471F7A0960FB6F894DEBF0FBE61
:10311000CDBFCF91DF911F910F91FF90EF90DF9086
:10312000CF90BF90AF909F908F907F906F905F9067
:103130004F903F902F900895EF92FF920F931F931F
:10314000CF93DF93EC017A018B0177FF0BC06DE227
:103150000E94F81710950095F094E094E11CF11C82
:10316000011D111DCE01B801A7012AE00E940E1811
:10317000DF91CF911F910F91FF90EF900895AB01D8
:10318000662757FD6095762F0E949C1808950CD0F5
:1031900027C11FD140F016D130F021F45F3F19F064
:1031A000DFC0511168C10BC12CD198F39923C9F329
:1031B0005523B1F3951B550BBB27AA27621773073D
:1031C000840738F09F5F5F4F220F331F441FAA1FF1
:1031D000A9F333D00E2E3AF0E0E830D091505040B1
:1031E000E695001CCAF729D0FE2F27D0660F771F5F
:1031F000881FBB1F261737074807AB07B0E809F041
:10320000BB0B802DBF01FF2793585F4F2AF09E3FD5
:10321000510568F0A5C02FC15F3FECF3983EDCF389
:10322000869577956795B795F7959F5FC9F7880F4E
:10323000911D9695879597F90895E1E0660F771FA0
:10324000881FBB1F621773078407BA0720F0621B31
:10325000730B840BBA0BEE1F88F7E095089504D02A
:103260006894B11108C10895D4D088F09F5790F0A8
:10327000B92F9927B751A0F0D1F0660F771F881F9B
:10328000991F1AF0BA95C9F712C0B13081F0F2D087
:10329000B1E00895EFC0672F782F8827B85F39F025
:1032A000B93FCCF3869577956795B395D9F73EF4FA
:1032B00090958095709561957F4F8F4F9F4F0895A2
:1032C000E89409C097FB3EF49095809570956195C0
:1032D0007F4F8F4F9F4F9923A9F0F92F96E9BB2776
:1032E0009395F695879577956795B795F111F8CFF2
:1032F000FAF4BB0F11F460FF1BC06F5F7F4F8F4F5D
:103300009F4F16C0882311F096E911C0772321F052
:103310009EE8872F762F05C0662371F096E8862FEA
:1033200070E060E02AF09A95660F771F881FDAF741
:10333000880F9695879597F9089585D080F09F37E7
:1033400040F491110EF097C060E070E080E89FEBD0
:10335000089526F41B16611D711D811D07C021C033
:1033600097F99F6780E870E060E00895882371F422
:10337000772321F09850872B762F07C0662311F40E
:1033800099270DC09051862B70E060E02AF09A9545
:10339000660F771F881FDAF7880F9695879597F93C
:1033A00008959F3F31F0915020F487957795679568
:1033B000B795880F911D9695879597F908959FEF7A
:1033C00080EC089500240A941616170618060906BC
:1033D000089500240A94121613061406050608958B
:1033E000092E0394000C11F4882352F0BB0F40F413
:1033F000BF2B11F460FF04C06F5F7F4F8F4F9F4F53
:10340000089557FD9058440F551F59F05F3F71F0D4
:103410004795880F97FB991F61F09F3F79F087953B
:103420000895121613061406551FF2CF4695F1DFC4
:1034300008C0161617061806991FF1CF8695710554
:10344000610508940895E5DFA0F0BEE7B91788F498
:10345000BB279F3860F41616B11D672F782F882779
:10346000985FF7CF869577956795B11D93959639B7
:10347000C8F30895E894BB2766277727CB0197F90F
:1034800008950BD0ADCF9EDF28F0A3DF18F0952371
:1034900009F066CF94CF1124EECFB3DFA0F3959F50
:1034A000D1F3950F50E0551F629FF001729FBB272B
:1034B000F00DB11D639FAA27F00DB11DAA1F649FD7
:1034C0006627B00DA11D661F829F2227B00DA11D8A
:1034D000621F739FB00DA11D621F839FA00D611D10
:1034E000221F749F3327A00D611D231F849F600D31
:1034F000211D822F762F6A2F11249F5750408AF06A
:10350000E1F088234AF0EE0FFF1FBB1F661F771FF5
:10351000881F91505040A9F79E3F510570F020CF71
:10352000AACF5F3FECF3983EDCF3869577956795DD
:10353000B795F795E7959F5FC1F7FE2B880F911D13
:103540009695879597F9089511F40EF438CF29CF01
:1035500060DFD0F39923D9F3CEF39F57550B87FF44
:1035600035D00024A0E640EA900180585695979502
:1035700028F4805C660F771F881F20F02617370716
:10358000480730F4621B730B840B202931294A2B26
:10359000A69517940794202531254A2758F7660FDA
:1035A000771F881F20F026173707480730F4620B73
:1035B000730B840B200D311D411DA09581F7B901BE
:1035C000842F9158880F9695879508959150504073
:1035D000660F771F881FD2F70895629FD001739FEF
:1035E000F001829FE00DF11D649FE00DF11D929F9F
:1035F000F00D839FF00D749FF00D659FF00D9927DE
:10360000729FB00DE11DF91F639FB00DE11DF91F01
:10361000BD01CF011124089597FB092E07260AD07A
:1036200077FD04D049D006D000201AF4709561953A
:103630007F4F0895F6F7909581959F4F0895A1E2E9
:103640001A2EAA1BBB1BFD010DC0AA1FBB1FEE1F1C
:10365000FF1FA217B307E407F50720F0A21BB30B67
:10366000E40BF50B661F771F881F991F1A9469F7E3
:1036700060957095809590959B01AC01BD01CF013F
:10368000089597FB092E05260ED057FD04D0D7DFED
:103690000AD0001C38F450954095309521953F4F45
:1036A0004F4F5F4F0895F6F790958095709561950F
:1036B0007F4F8F4F9F4F0895AA1BBB1B51E107C03F
:1036C000AA1FBB1FA617B70710F0A61BB70B881FB2
:1036D000991F5A95A9F780959095BC01CD01089541
:1036E000EE0FFF1F0590F491E02D0994F894FFCFA1
:1036F0005357454550494E47005377696E67696E89
:1037000067004261636B005377696E67696E67207B
:1037100041726D00466F72776172640041524D20B4
:1037200053504545443A20004C3A2000523A20007C
:1037300045523A200050443A005748415420544FD3
:1037400020544553543F005461706520466F6C6CA3
:103750006F77696E67002A002000417274696661A4
:1037600063742041726D0049522053656E736F720D
:1037700000474F20484F4D45005475726E3A200067
:10378000436F756E743A20004C454156494E473A96
:1037900020004F464620524F434B533A2000547569
:1037A0006E696E672050494420666F72204952202E
:1037B000646574656374696F6E00503A2000443A22
:1037C000200053504545443A2000424547494E3A6F
:1037D0002000454E443A2000544150452054554E57
:1037E000494E47005468726573686F6C643A2000F4
:1037F00020523A200044454C54413A20004445466A
:1038000041554C542056414C5545533F005354416B
:1038100052543A20474F20534F46540053544F5070
:103820003A20524554554E450078003C007800C877
:103830000078003C00900126028200D0079001042D
:1038400000C8001405010005000500010032003524
:10385000003B003800230062006500310034003A6C
:103860000037002200610064003000330039003668
:103870000021002000630001FF1800190026002726
:1038800000050004000100000000000000650100C8
:10389000000000A904FC025E044304780401020451
:0C38A0000810204080201008804020000C
:00000001FF
