:100000000C9449000C947D000C947D000C947D00B0
:100010000C947D000C947D000C947D000C947D006C
:100020000C947D000C94B91A0C9462190C94881AE3
:100030000C94F5190C94261A0C9431190C94C419CB
:100040000C942B160C947D000C9479020C940803EC
:100050000C947D000C947D000C947D000C947D002C
:100060000C94571A0C947D1B0C94EA1A0C941B1BCD
:100070000C944C1B0C9493190C944A020C94C102DE
:100080000C947D000C947D000C947D0030045A0586
:10009000530511241FBECFEFD0E1DEBFCDBF88E4F2
:1000A00083BF84E00E94A71712BE87B7816087BF15
:1000B000789413E0A0E0B1E0E2EBF2E400E00BBFE3
:1000C00002C007900D92A033B107D9F714E0A0E366
:1000D000B3E001C01D92AE3EB107E1F710E0C0E908
:1000E000D0E004C02297FE010E943620CC38D10710
:1000F000C9F70E94AE1B0C944C210C940000FB012C
:10010000EE0FFF1FE350FD4F808160E070E00E9422
:100110007A1808950F931F93CF93DF93EB018A0111
:10012000CC0FDD1F57FD0CC0FE01EB50FD4F808151
:1001300061E00E941D17C350DD4F8881B8010EC0D9
:10014000FE01EB50FD4F808160E00E941D17C350FF
:10015000DD4F66277727601B710B88810E947A1814
:10016000DF91CF911F910F9108951F93CF93DF934C
:10017000C0E0D0E0FE01EB50FD4F1081812F61E027
:100180000E94D416812F61E00E941D17FE01E350EA
:10019000FD4F808160E070E00E947A182296C8309E
:1001A000D10541F7DF91CF911F910895FC01108295
:1001B0008AE090E0938382830895CF93DF93EC01EC
:1001C0008A8160E00E941D178D8160E00E944D17BA
:1001D0008D8160E00E946F178B8161E00E941D1786
:1001E0008C8161E00E941D170000000010C08C810E
:1001F00060E00E941D1700000000000000008C81DC
:1002000061E00E941D1700000000000000008D81C9
:100210000E94641787FDEBCF8C8160E00E941D1760
:10022000DF91CF910895FF920F931F938C01F62ECB
:100230000E94DD00F801828161E00E941D17F80133
:10024000838160E00E941D17F801848161E00E94B3
:100250001D17F801858161E00E944D17F801858125
:100260006F2D0E946F170000000000000000F801D1
:10027000848160E00E941D17F801858160E00E9482
:100280004D17F80185816FEF0E946F171F910F9135
:10029000FF900895EF92FF920F931F93CF93DF93F8
:1002A0007C01042F6115710551F0EB0110E005C0D0
:1002B000C70169910E9413011F5F1017C8F3DF91F6
:1002C000CF911F910F91FF90EF900895DF93CF93FF
:1002D0000F92CDB7DEB76983BE016F5F7F4F41E0FC
:1002E0000E944A010F90CF91DF910895FF920F93E2
:1002F0001F938C01F62E0E94DD00F801828160E0E0
:100300000E941D17F801838160E00E941D17F8010B
:10031000848161E00E941D17F801858161E00E94DF
:100320004D17F80185816F2D0E946F1700000000A6
:1003300000000000F801848160E00E941D17F801B0
:10034000858160E00E944D17F80185816FEF0E9462
:100350006F171F910F91FF900895423031F0433095
:1003600031F0413029F4605C03C06C5E01C06C5A0E
:1003700060680E947601089562E00E947601089507
:1003800061E00E94760108950F931F938C01FC0198
:10039000828160E00E941D17F801838160E00E9465
:1003A0001D17F801848160E00E941D17F801828109
:1003B00061E00E94D416F801838161E00E94D416A6
:1003C000F801848161E00E94D416F801858160E023
:1003D0000E944D17F80185816FEF0E946F171F91E2
:1003E0000F9108950F931F938C010E94C401C801BF
:1003F00068E30E947601C80161E00E947601C801AD
:1004000066E00E947601C8016CE00E947601C80196
:1004100062E00E947601C80160E80E9476011F91A7
:100420000F9108950F93FC0189E093E091838083FD
:100430006283438324830583CF010E94F2010F91DD
:100440000895FC0124813581C9010895DC01FC0176
:1004500082819381809714F080E00895FD0182816C
:10046000938101969383828384819581E80FF91F9C
:1004700060870196FD01958384832D913C911197AE
:100480008217930714F481E00895FD011582148208
:1004900081E008951F920F920FB60F920BB60F9244
:1004A00011242F933F934F935F936F937F938F9379
:1004B0009F93AF93BF93EF93FF93E091C603F091A7
:1004C000C70360818EE793E00E942602FF91EF91BF
:1004D000BF91AF919F918F917F916F915F914F915C
:1004E0003F912F910F900BBE0F900FBE0F901F905A
:1004F00018951F920F920FB60F920BB60F92112400
:100500002F933F934F935F936F937F938F939F931B
:10051000AF93BF93EF93FF93E0917A03F0917B0346
:10052000608182E393E00E942602FF91EF91BF91E8
:10053000AF919F918F917F916F915F914F913F917B
:100540002F910F900BBE0F900FBE0F901F9018951C
:10055000DC01FC01828193810197938382838681F0
:100560009781E80FF91F40850196FD0197838683E7
:100570002D913C918217930714F017821682842FD5
:1005800008951F920F920FB60F920BB60F9211247F
:100590000F931F932F933F934F935F936F937F938B
:1005A0008F939F93AF93BF93EF93FF938091A80393
:1005B0009091A9031816190654F40091C6031091DE
:1005C000C70386EA93E00E94A802F8018083809125
:1005D000A8039091A903892B31F4E091C403F09111
:1005E000C50388E98083FF91EF91BF91AF919F91FF
:1005F0008F917F916F915F914F913F912F911F91BB
:100600000F910F900BBE0F900FBE0F901F9018957B
:100610001F920F920FB60F920BB60F9211240F93E9
:100620001F932F933F934F935F936F937F938F937A
:100630009F93AF93BF93EF93FF9380915C0390914F
:100640005D031816190654F400917A0310917B0388
:100650008AE593E00E94A802F801808380915C0300
:1006600090915D03892B31F4E0917803F091790347
:1006700088E98083FF91EF91BF91AF919F918F9116
:100680007F916F915F914F913F912F911F910F91AA
:100690000F900BBE0F900FBE0F901F901895DC01AE
:1006A000FC01828193810197938382838681978164
:1006B000E80FF91F40850196FD01978386832D91F0
:1006C0003C918217930714F017821682842F0895A5
:1006D000FC0184819581892B19F42FEF3FEF06C02F
:1006E000CF0102960E944F03282F30E0C9010895E0
:1006F000CF93DF93EC01EE81FF81E80FF91F808536
:10070000DF91CF910895FC0184819581892B19F4A3
:100710002FEF3FEF06C0CF0102960E947803282FEB
:1007200030E0C9010895FC01138212828281938115
:100730009783868395838483089502960E9493030A
:100740000895FC0180E290E091838083CF010E94B4
:1007500093030895DC01FC0182819381409714F09A
:1007600080E00895FD0182819381019693838283C5
:1007700084819581E80FF91F60870196FD019583BB
:1007800084832D913C9111978217930714F481E093
:100790000895FD011582148281E00895CF93DF93BF
:1007A000EC018CA59DA54097E4F7F894CE018A96BC
:1007B0000E94AA03C85BDF4FE881F98180818062D3
:1007C00080837894DF91CF910895FC011382128287
:1007D0008281938197838683958384830895FC0126
:1007E00080E190E091838083CF010E94E50308952A
:1007F0006F927F928F929F92AF92BF92CF92DF9231
:10080000EF92FF920F931F936C015B014A01390134
:10081000FC018FE093E081939193CF010E94A103AB
:10082000C6018A960E94EF0382E490E0C80ED91EAA
:10083000F601A192B192819291926192719201938B
:100840001193F182E0821F910F91FF90EF90DF9062
:10085000CF90BF90AF909F908F907F906F900895B2
:10086000EF92FF920F931F9380E393E060E970E0B3
:1008700049E250E02BE230E00AE210E0FCE2EF2E29
:10088000F12C0E94F8038CE793E068E970E049E9F5
:1008900050E02BE930E00AE910E0ECE9EE2EF12C13
:1008A0000E94F8031F910F91FF90EF90089548E781
:1008B00050E050933802409337022CE330E03093FD
:1008C0003A022093390281EE90E090933C028093AB
:1008D0003B0268EC70E070933E0260933D02109220
:1008E000DD031092DC035093400240933F023093AB
:1008F00042022093410282EC91E090934402809363
:10090000430286E292E090934602809345028AEF8A
:1009100090E0909348028093470280ED97E0909397
:100920004A02809349021092DF031092DE03109274
:10093000F3031092F20384E893E090934C028093C7
:100940004B0284E090E090934E0280934D027093AE
:10095000500260934F0284E195E09093520280939D
:10096000510208950F93CF93DF938130910509F0E1
:1009700083C06F5F7F4F09F092C088EC93E06AE11B
:100980004BE12CE102E00E9412028EEC93E00E9407
:10099000B50080ED93E00E94D60084ED93E00E94C4
:1009A000D60088ED93E00E94D6008CE094E060E0F1
:1009B00071E00E94141D84E194E063E071E00E9404
:1009C000141D8CE194E066E071E00E94141D84E245
:1009D00094E06DE071E00E94141D8CE294E063E10C
:1009E00071E00E94141D84E394E069E171E00E94CB
:1009F000141D8CE394E062E271E00E94141D84E413
:100A000094E067E271E00E94141D8CE494E06CE2D3
:100A100071E00E94141D84E594E064E371E00E949B
:100A2000141D8CE594E06CE371E00E94141D84E6D3
:100A300094E062E471E00E94141D8CE694E06CE4A2
:100A400071E00E94141D84E794E066E571E00E9465
:100A5000141D8CE794E06CE571E00E94141D84E89D
:100A600094E065E671E00E94141D8CE894E06BE66A
:100A700071E00E94141D13C0892B89F46F5F7F4FB2
:100A800071F4CCE8D4E0E881F9810190F081E02DA7
:100A9000CE010995289784E0C430D807A1F7DF91EB
:100AA000CF910F91089580E090E06FEF7FEF0E946B
:100AB000B204089581E090E06FEF7FEF0E94B204EE
:100AC0000895CF93DF9381E00E948317EC0182E0C9
:100AD0000E948317AC0120913B0230913C02281701
:100AE000390744F42C173D078CF41092AF04109290
:100AF000AE040CC0821793074CF42C173D0734F456
:100B000081E090E09093AF048093AE04C217D307C6
:100B10004CF42417350734F48FEF9FEF9093AF0414
:100B20008093AE04421753072CF5C217D30714F570
:100B30002091C3023091C40237FF0BC08091C502DF
:100B40009091C602909581959F4F9093AF048093AA
:100B5000AE041216130674F48091DC039091DD0349
:100B60002091C5023091C602820F931F9093AF046B
:100B70008093AE048091C3029091C4022091AE0490
:100B80003091AF0482179307B1F09093B104809332
:100B9000B0043093C4022093C3028091B8049091B2
:100BA000B9049093BB048093BA0481E090E09093E1
:100BB000B9048093B8048091B8049091B904019667
:100BC0009093B9048093B804DF91CF9108956F9208
:100BD0007F928F929F92AF92BF92CF92DF92EF92CD
:100BE000FF920F931F93CF93DF933B014C010F2E86
:100BF000F0E0AF2EF0E0BF2EF0E0CF2EF0E0DF2EE1
:100C0000F02DC0E0D0E01AC083E00E9483177C0181
:100C100084E00E948317E80EF91E0027F7FC009578
:100C2000102FC801B7010E943C1E9B01AC01C601F8
:100C3000B5010E94391D5B016C012196BE01882718
:100C400077FD8095982F0E943C1EA40193010E947D
:100C50009D1D87FDD9CFC601B501A40193010E9456
:100C6000A11DDF91CF911F910F91FF90EF90DF9029
:100C7000CF90BF90AF909F908F907F906F9008958E
:100C80000F931F9383E00E9483178C0184E00E94DE
:100C900083179C01200F311FC9011F910F910895E7
:100CA0008F929F92AF92BF92CF92DF92EF92FF927C
:100CB0000F931F93CF93DF935C014B01EA017901FE
:100CC000680181E00E9483178C0182E00E948317F3
:100CD0009C01C817D90744F4C017D1078CF41092AF
:100CE000AF041092AE040CC08C179D074CF4C017D3
:100CF000D10734F481E090E09093AF048093AE0488
:100D00000C171D074CF4C217D30734F48FEF9FEF75
:100D10009093AF048093AE042C173D070CF50C178D
:100D20001D07F4F42091C3023091C40237FF0BC0B9
:100D30008091C5029091C602909581959F4F9093A6
:100D4000AF048093AE041216130654F48091C502CA
:100D50009091C6028C0D9D1D9093AF048093AE04BC
:100D60008091C3029091C4024091AE045091AF04AF
:100D700084179507B1F09093B1048093B004509319
:100D8000C4024093C3028091B8049091B904909337
:100D9000BB048093BA0481E090E09093B9048093FF
:100DA000B804A49E9001A59E300DB49E300D112470
:100DB0003093B3042093B2048091B0049091B104B5
:100DC000481B590B6091B8047091B9048091BA0422
:100DD0009091BB04680F791F849EC001859E900D81
:100DE000949E900D11240E94EB1FAB017093B504EB
:100DF0006093B404420F531F5093B7044093B6045A
:100E00004E0D5F1D8EEC93E060E070E00E948A0062
:100E10008091B6049091B704E81AF90A8EEC93E039
:100E200061E070E0A7010E948A008091B80490916F
:100E3000B90401969093B9048093B804DF91CF91DF
:100E40001F910F91FF90EF90DF90CF90BF90AF90E8
:100E50009F908F900895AF92BF92CF92DF92EF92C2
:100E6000FF920F931F93CF93DF9381E00E9483172C
:100E70008C0182E00E948317EC010E94731660933C
:100E8000BC047093BD048093BE049093BF0488ECAF
:100E900093E00E94BC0188EC93E060E040E00E9497
:100EA000AD0188EC93E068E771E00E94C71B98E50C
:100EB000A92E92E0B92E88EAC82E8DEFD82EEE2406
:100EC000EA94FE2C58C081E00E9483178C0182E0D6
:100ED0000E948317EC018091C7029091C8028A9DFD
:100EE000A0018B9D500D9A9D500D11248EEC93E026
:100EF00060E070E00E948A008091C7029091C80271
:100F00008C9DA0018D9D500D9C9D500D11248EEC4B
:100F100093E061E070E00E948A000E9473162091C5
:100F2000BC043091BD044091BE045091BF04621BCB
:100F3000730B840B950B20ED37E040E050E00E94EE
:100F4000FE1F6115710581059105A9F48091C70205
:100F50009091C8028130910529F4F092C802E09284
:100F6000C70209C08F5F9F4F31F481E090E09093FA
:100F7000C8028093C70280913B0290913C020817FF
:100F8000190724F4C817D9070CF49DCF88EC93E017
:100F90000E94C001DF91CF911F910F91FF90EF90C0
:100FA000DF90CF90BF90AF900895EF92FF920F9394
:100FB0001F93CF93DF938C017B0144275527481B58
:100FC000590B8EEC93E060E070E00E948A008EEC9A
:100FD00093E061E070E0A8010E948A0064EF71E094
:100FE00080E090E00E94AE1681E00E948317EC0141
:100FF00082E00E948317CE15DF05B4F38E159F059E
:101000009CF3DF91CF911F910F91FF90EF90089586
:10101000AF92BF92CF92DF92EF92FF920F931F9306
:101020008C017B0144275527481B590B8EEC93E01C
:1010300060E070E00E948A008EEC93E061E070E076
:10104000A8010E948A000E9473166093A604709300
:10105000A7048093A8049093A9045701CC24B7FC5B
:10106000C094DC2C33C00E9473162091A6043091EA
:10107000A7044091A8045091A904621B730B840B30
:10108000950B615177428040904000F18EEC93E0E7
:1010900060E070E044EF51E00E948A008EEC93E043
:1010A00061E070E044EF51E00E948A0064EF71E07B
:1010B00080E090E00E94AE160E9473166093A60432
:1010C0007093A7048093A8049093A90460E070E053
:1010D00080E291E40E94E7057B018C01C601B50125
:1010E0000E943C1E9B01AC01C801B7010E949D1DDE
:1010F00087FDB9CF1F910F91FF90EF90DF90CF90B8
:10110000BF90AF9008950F931F9308EC13E0C801B0
:1011100061E871E00E94C71B68EE73E080E090E038
:101120000E94AE16C8010E94C0011092F3031092F3
:10113000F2031092DF031092DE031092E10310928B
:10114000E0031092EC031092ED031092EE03109264
:10115000EF031092E8031092E9031092EA03109251
:10116000EB031092F4031092F5031092F603109221
:10117000F7031092E3031092E2038091040490912C
:1011800005049093F9038093F803809106049091ED
:1011900007049093FB038093FA03809108049091D5
:1011A00009049093FD038093FC0380910A049091BD
:1011B0000B049093FF038093FE031F910F910895FA
:1011C00081E30E94041720E030E0882311F421E03D
:1011D00030E0C90108950E94E008892B19F420E04D
:1011E00030E00EC062E370E080E090E00E94AE1656
:1011F0000E94E00820E030E0892B11F021E030E08F
:10120000C901089582E30E94041720E030E088239A
:1012100011F421E030E0C90108950E940209892BF0
:1012200019F420E030E00EC062E370E080E090E06E
:101230000E94AE160E94020920E030E0892B11F0D6
:1012400021E030E0C90108951F93182F61E00E944A
:101250001D17812F0E940417813019F020E030E023
:1012600013C06AE070E080E090E00E94AE16812F2B
:1012700061E00E941D17812F0E94041720E030E0DA
:10128000813011F421E030E0C9011F9108950F93DE
:101290001F930EEC13E0C80162E070E048E552E0F5
:1012A0000E948A0064E670E080E090E00E94AE1642
:1012B000C80162E070E00E947F001F910F910895C5
:1012C0006F927F928F929F92AF92BF92CF92DF9256
:1012D000EF92FF920F931F93CF93DF936C013B012B
:1012E0004A015901E801CB01BA01A901980187011E
:1012F0000E9450060E9473166093AA047093AB0478
:101300008093AC049093AD04C301B401A5019E0188
:101310000E9450068EEC93E062E070E0A6010E940D
:101320008A00C301B401A5019E010E945006C301B9
:10133000B401A5019E0187010E94500680E090E063
:101340000E942409892BC9F4C301B401A5019E019F
:101350000E9450060E9473162091AA043091AB049B
:101360004091AC045091AD04621B730B840B950B40
:1013700060527E4480409040A0F28EEC93E062E0A8
:1013800070E00E947F00DF91CF911F910F91FF903D
:10139000EF90DF90CF90BF90AF909F908F907F9015
:1013A0006F9008956F927F928F929F92AF92BF92AB
:1013B000CF92DF92EF92FF920F931F93CF93DF9321
:1013C0006C013B014A015901E8010E9473166093C8
:1013D000AA047093AB048093AC049093AD04D094B2
:1013E000C194D108D3948EEC93E062E070E0A60142
:1013F0000E948A0068EC70E080E090E00E94AE16E7
:10140000C301B401A501980187010E945006C301E0
:10141000B401A5019E0187010E94500683E090E07F
:101420000E942409892BF1F4C301B401A5019E0196
:101430000E9450060E9473162091AA043091AB04BA
:101440004091AC045091AD04621B730B840B950B5F
:1014500060527E448040904028F4C301B401A5014D
:101460009E01D3CF8EEC93E062E070E00E947F009B
:10147000DF91CF911F910F91FF90EF90DF90CF9070
:10148000BF90AF909F908F907F906F9008952F9214
:101490003F924F925F926F927F928F929F92AF9204
:1014A000BF92CF92DF92EF92FF920F931F931C0196
:1014B0006B015A01490138012701CB01BA01A90189
:1014C000980187010E945006C101B601A50194014F
:1014D00083010E94D209C601B501A40193018201D2
:1014E0000E945006C101B601A501940183010E942A
:1014F0006009C601B501A401930182010E94500652
:101500001F910F91FF90EF90DF90CF90BF90AF9021
:101510009F908F907F906F905F904F903F902F9013
:1015200008950F931F938C010E9473166093AA0471
:101530007093AB048093AC049093AD048EEC93E075
:1015400062E070E0A8010E948A0080E090E00E94C2
:101550002409892B99F40E9473162091AA043091D2
:10156000AB044091AC045091AD04621B730B840B2F
:10157000950B60527E448040904038F38EEC93E0AF
:1015800062E070E00E947F001F910F9108950F9319
:101590001F938C010E9473166093AA047093AB048E
:1015A0008093AC049093AD04109501951F4F8EEC81
:1015B00093E062E070E0A8010E948A0083E090E07E
:1015C0000E942409892B99F40E9473162091AA0481
:1015D0003091AB044091AC045091AD04621B730B8D
:1015E000840B950B60527E448040904038F38EEC23
:1015F00093E062E070E00E947F001F910F910895D8
:10160000EF92FF920F931F93CF93DF930F2EF0E093
:10161000EF2EF0E0FF2EF0E00F2FF0E01F2FF02D67
:10162000C0E0D0E084E00E948317AA2797FDA09530
:10163000BA2FBC01CD010E943C1E9B01AC01C80128
:10164000B7010E94391D7B018C012196C530D1055F
:1016500049F720E030E040EA50E40E94A11D0E94DA
:10166000771E0E94091ECB01DF91CF911F910F9130
:10167000FF90EF900895EF92FF920F931F93CF93F7
:10168000DF930F2EF0E0EF2EF0E0FF2EF0E00F2FB3
:10169000F0E01F2FF02DC0E0D0E083E00E94831720
:1016A000AA2797FDA095BA2FBC01CD010E943C1E30
:1016B0009B01AC01C801B7010E94391D7B018C015F
:1016C0002196C530D10549F720E030E040EA50E4EA
:1016D0000E94A11D0E94771E0E94091ECB01DF916E
:1016E000CF911F910F91FF90EF9008952F923F920D
:1016F0004F925F926F927F928F929F92AF92BF9222
:10170000CF92DF92EF92FF920F931F93DF93CF93CD
:1017100000D000D0CDB7DEB72C017A8369831A01DF
:10172000590168010E943B0B8C010F5010400E9430
:10173000000B7C018A159B050CF08DC00A151B055A
:101740000CF055C080919804909199040091BF02CB
:101750001091C00297FF27C0662777276C197D0973
:10176000882777FD8095982F0E943C1E60939404F3
:10177000709395048093960490939704095E1340A8
:101780000CF41AC11092C0021092BF0288EC93E0D0
:101790000E94C00188EC93E00E94BC0188EC93E0B9
:1017A0006BE871E055C0B601882777FD8095982FCA
:1017B0000E943C1E60939404709395048093960459
:1017C00090939704095E13400CF4F6C01092C00287
:1017D0001092BF0288EC93E00E94C00188EC93E075
:1017E0000E94BC0188EC93E063E971E031C0A0166F
:1017F000B1060CF067C0B601882777FD8095982F59
:101800000E943C1E20E030E040E05FE30E943F1F6A
:101810006093940470939504809396049093970436
:101820008091BF029091C002895E93400CF4C4C0C5
:101830001092C0021092BF0288EC93E00E94C00197
:1018400088EC93E00E94BC0188EC93E06BE971E0C6
:101850000E94C71BB1C00A151B05A4F5A816B9063E
:101860008CF5662777276C197D09882777FD809589
:10187000982F0E943C1E20E030E040E05FE30E9491
:101880003F1F609394047093950480939604909303
:1018900097048091BF029091C002895E93400CF43E
:1018A0008BC01092C0021092BF0288EC93E00E949D
:1018B000C00188EC93E00E94BC0188EC93E065EAEB
:1018C00071E0C6CFC8018E199F099C838B839C0150
:1018D00097FF03C0309521953F4F8091C1029091B1
:1018E000C202281739072CF580E090E0A0E0B0E0B4
:1018F0008093940490939504A0939604B0939704D6
:101900008091BF029091C002895E93400CF454C054
:101910001092C0021092BF0288EC93E00E94C001B6
:1019200088EC93E00E94BC0188EC93E06FEA71E0E0
:101930008FCF60E070E08AE793E40E94A61F3B012E
:101940004C015801AE0CBF1C2B813C8112161306B2
:1019500034F4B601882777FD8095982F08C0662754
:1019600077276C197D09882777FD8095982F0E942D
:101970003C1E20E030E040E85EE30E943F1F7B0118
:101980008C01B501882777FD8095982F0E943C1E19
:101990000E94A61FA40193010E94A11D9B01AC01FE
:1019A000C801B7010E94A11D60939404709395042F
:1019B0008093960490939704C0909804D0909904D3
:1019C000E0909404F090950400919604109197048F
:1019D000B601882777FD8095982F0E943C1EA801AC
:1019E00097010E949D1D8823D1F0D0929B04C09244
:1019F0009A04C801B7010E94091E7093990460936C
:101A000098048091A2049091A3049093A5048093DC
:101A1000A40481E090E09093A3048093A204B10118
:101A2000882777FD8095982F0E943C1EA80197017A
:101A30000E943F1F0E94091E4B0170939D046093FA
:101A40009C046091A4047091A504882777FD80957B
:101A5000982F0E943C1E5B016C0160919A0470916A
:101A60009B04882777FD8095982F0E943C1E9B0140
:101A7000AC01C801B7010E94381D0E94091E4981AE
:101A80005A81FB014E9FB0014F9F700D5E9F700DFC
:101A90001124882777FD8095982F0E943C1E7B019A
:101AA0008C016091A2047091A304882777FD809532
:101AB000982F0E943C1E9B01AC01C601B5010E94FB
:101AC000391D9B01AC01C801B7010E94A11D0E94F4
:101AD000091ECB0170939F0460939E04880D991D8D
:101AE0009093A1048093A0042CEF33E024193509CE
:101AF000281739072CF43093A1042093A0040BC0BD
:101B000044275527421B530B8417950724F4509301
:101B1000A1044093A0040091A0041091A104A2018B
:101B2000400F511F8EEC93E060E070E00E948A004D
:101B3000401A510A8EEC93E061E070E0A2010E942D
:101B40008A008091A2049091A30401969093A3042B
:101B50008093A2040F900F900F900F90CF91DF9180
:101B60001F910F91FF90EF90DF90CF90BF90AF90BB
:101B70009F908F907F906F905F904F903F902F90AD
:101B800008952F923F924F925F926F927F928F9221
:101B90009F92AF92BF92CF92DF92EF92FF920F93FC
:101BA0001F93DF93CF9300D000D0CDB7DEB73C01B9
:101BB0007A8369835C834B83190128010E94731621
:101BC0006093AA047093AB048093AC049093AD042B
:101BD0008EEC93E062E070E0A3010E948A002DC0C9
:101BE00089819A816B817C81A101920187010E9488
:101BF000500680E090E00E942409892BD9F4898165
:101C00009A816B817C81A10192010E9450060E9401
:101C100073162091AA043091AB044091AC0450910A
:101C2000AD04621B730B840B950B60527E448040A5
:101C3000904018F001E010E048C089819A816B81E2
:101C40007C81A101920187010E9450060E94000B35
:101C50002D8D3E8D821793070CF4C2CFC601B501BE
:101C6000A401298D3A8D0B8D1C8D0E94760B80E08E
:101C700090E00E942409892B31F5C601B501A40129
:101C8000298D3A8D0B8D1C8D0E94760B0E94731648
:101C90002091AA043091AB044091AC045091AD0462
:101CA000621B730B840B950B60527E448040904006
:101CB00050F4C601B501A401298D3A8D0B8D1C8D00
:101CC0000E94760BCBCF00E010E08EEC93E062E058
:101CD00070E00E947F0020E030E0012B11F421E051
:101CE00030E0C9010F900F900F900F90CF91DF91CE
:101CF0001F910F91FF90EF90DF90CF90BF90AF902A
:101D00009F908F907F906F905F904F903F902F901B
:101D100008952F923F924F925F926F927F928F928F
:101D20009F92AF92BF92CF92DF92EF92FF920F936A
:101D30001F93DF93CF9300D000D0CDB7DEB73C0127
:101D40007A8369835C834B83190128010E9473168F
:101D50006093AA047093AB048093AC049093AD0499
:101D600070946194710873948EEC93E062E070E07B
:101D7000A3010E948A0068EC70E080E090E00E947D
:101D8000AE162DC089819A816B817C81A10192015F
:101D900087010E94500683E090E00E942409892B6D
:101DA000D9F489819A816B817C81A10192010E9481
:101DB00050060E9473162091AA043091AB04409102
:101DC000AC045091AD04621B730B840B950B6052F5
:101DD0007E448040904018F001E010E048C08981C6
:101DE0009A816B817C81A101920187010E9450063A
:101DF0000E94000B2D8D3E8D821793070CF4C2CFED
:101E0000C601B501A401298D3A8D0B8D1C8D0E9450
:101E1000760B83E090E00E942409892B31F5C601FE
:101E2000B501A401298D3A8D0B8D1C8D0E94760B76
:101E30000E9473162091AA043091AB044091AC0427
:101E40005091AD04621B730B840B950B60527E4462
:101E50008040904050F4C601B501A401298D3A8D0F
:101E60000B8D1C8D0E94760BCBCF00E010E08EEC2A
:101E700093E062E070E00E947F0020E030E0012B00
:101E800011F421E030E0C9010F900F900F900F90F6
:101E9000CF91DF911F910F91FF90EF90DF90CF9046
:101EA000BF90AF909F908F907F906F905F904F907A
:101EB0003F902F900895AF92BF92CF92DF92EF9212
:101EC000FF920F931F93CF93DF93EC0146E0C42E54
:101ED000D12CC80ED91E31E0A32EB12C24E0E22E65
:101EE000F12CE80EF91E8C010E5F1F4F4BC188ECE0
:101EF00093E00E94BC0188EC93E060E040E00E9427
:101F0000AD0188EC93E066EB71E00E94C71B86E0B0
:101F10000E948317AA2797FDA095BA2FBC01CD0177
:101F20000E943C1E20E030EC4FE754E40E94A11DCB
:101F300020E030E040E850E40E943F1F0E94771EFE
:101F40000E94091E7093F1036093F00388EC93E004
:101F50000E94BC0188EC93E060E041E00E94AD018A
:101F60008091F0039091F103009709F03FC088EC55
:101F700093E064EC71E00E94C71B888199818130F5
:101F80009105B9F488EC93E06FE040E00E94AD0168
:101F900088EC93E063ED71E00E94C71B0E94E008AB
:101FA000892BF9F00E94E008892BE1F71982188249
:101FB00018C0892BB1F488EC93E06FE040E00E94F8
:101FC000AD0188EC93E065ED71E00E94C71B0E94B3
:101FD000E008892B31F00E94E008892BE1F7B982F3
:101FE000A8826CE271E080E090E0C6C0813091058B
:101FF000E9F588EC93E067ED71E00E94C71BF801FA
:102000008081918181309105B9F488EC93E06FE093
:1020100040E00E94AD0188EC93E063ED71E00E9426
:10202000C71B0E94E008892B09F460C00E94E008E9
:10203000892BE1F7F8013EC0892B09F057C088ECE5
:1020400093E06FE040E00E94AD0188EC93E065ED25
:1020500071E00E94C71B0E94E008892B09F446C06A
:102060000E94E008892BE1F7F8013EC0029709F0D1
:1020700042C088EC93E064EE71E00E94C71BF70158
:102080008081918181309105C1F488EC93E06FE00B
:1020900040E00E94AD0188EC93E063ED71E00E94A6
:1020A000C71B0E94E008892B09F10E94E008892BD8
:1020B000E1F7F7011182108219C0892BB9F488EC7D
:1020C00093E06FE040E00E94AD0188EC93E065EDA5
:1020D00071E00E94C71B0E94E008892B39F00E9422
:1020E000E008892BE1F7F701B182A08264E670E095
:1020F00080E090E041C088EC93E06EEE71E00E94D9
:10210000C71BF6018081918181309105C1F488EC73
:1021100093E06FE040E00E94AD0188EC93E063ED56
:1021200071E00E94C71B0E94E008892B09F10E9400
:10213000E008892BE1F7F6011182108219C0892B82
:10214000B9F488EC93E06FE040E00E94AD0188ECC8
:1021500093E065ED71E00E94C71B0E94E008892BA7
:1021600039F00E94E008892BE1F7F601B182A082E4
:102170006AE070E080E090E00E94AE1688EC93E0A8
:102180000E94C0010E940209892B09F4B0CE06C04A
:1021900062E370E080E090E00E94AE160E940209C7
:1021A000892BB1F7DF91CF911F910F91FF90EF90A5
:1021B000DF90CF90BF90AF900895CF92DF92EF92D3
:1021C000FF920F931F93CF93DF93EC01BAC086E089
:1021D0000E948317AA2797FDA095BA2FBC01CD01B5
:1021E0000E943C1E20E030EC4FE754E40E94A11D09
:1021F00020E030E048E851E40E943F1F0E94771E33
:102200000E94091E8B0188EC93E00E94BC0188ECBF
:1022100093E060E040E00E94AD01680173E0CC0C07
:10222000DD1C7A95E1F78CE094E0C80ED91E88ECAD
:1022300093E0B6010E94931C88EC93E060E041E0DB
:102240000E94AD017801EE0CFF1CEC0EFD1EF701A3
:102250006081718188EC93E00E948B1C62E370E0E6
:1022600080E090E00E94AE1688EC93E00E94C001EE
:102270000E94E008892B09F464C006C062E370E0A4
:1022800080E090E00E94AE160E94E008892BB1F732
:1022900042C087E00E948317AA2797FDA095BA2F16
:1022A000BC01CD010E943C1E20E030EC4FE754E41D
:1022B0000E94A11DF80120813181428153810E9439
:1022C0003F1F0E94771E0E94091EF70171836083E1
:1022D00088EC93E060E040E00E94AD0188EC93E080
:1022E000B6010E94931C88EC93E060E041E00E94FC
:1022F000AD01F7016081718188EC93E00E948B1C35
:1023000062E370E080E090E00E94AE1688EC93E01B
:102310000E94C00106C0000F111F000F111F0558B9
:102320001D4F0E940209892B09F4B3CF06C062E356
:1023300070E080E090E00E94AE160E940209892BB6
:10234000B1F70E940209892B09F441CF06C062E36C
:1023500070E080E090E00E94AE160E940209892B96
:10236000B1F78881998190933802809337028A81EE
:102370009B8190933A02809339028C819D81909346
:102380003C0280933B028E819F8190933E0280931A
:102390003D02888599859093DD038093DC038A85CF
:1023A0009B8590934602809345028C859D859093F2
:1023B000400280933F028E859F85909342028093D6
:1023C00041028889998990934402809343028A89C3
:1023D0009B8990934802809347028C899D899093B2
:1023E0004A02809349028E899F8990934C02809380
:1023F0004B02888D998D90934E0280934D028A8D69
:102400009B8D9093500280934F028C8D9D8D909365
:102410005202809351028E8D9F8D9093540280932F
:10242000530288A199A19093560280935502DF919F
:10243000CF911F910F91FF90EF90DF90CF90089573
:102440006F927F928F929F92AF92BF92CF92DF92C4
:10245000EF92FF920F931F93CF93DF9380915702D8
:1024600090915802019709F06DC084E094E00E94B9
:102470005B0F80910404909105049093F90380937D
:10248000F80380910604909107049093FB038093D6
:10249000FA0380910804909109049093FD038093BE
:1024A000FC0380910A0490910B049093FF038093A6
:1024B000FE030E94570489E592E00E94DD1042C0AD
:1024C0000E943B0B9093E5038093E4030E94000B72
:1024D0009093E7038093E60388EC93E00E94BC01AD
:1024E00088EC93E060E040E00E94AD0188EC93E06E
:1024F00066EF71E00E94C71B6091E4037091E503F1
:1025000088EC93E00E948B1C88EC93E068E040E04C
:102510000E94AD0188EC93E06AEF71E00E94C71B56
:102520006091E6037091E70388EC93E00E948B1CB6
:1025300062E370E080E090E00E94AE1688EC93E0E9
:102540000E94C0010E940D09892B09F4B9CF06C071
:1025500062E370E080E090E00E94AE160E94020903
:10256000892BB1F759C081E00E9483179093010431
:102570008093000482E00E94831790930304809369
:10258000020488EC93E00E94C00188EC93E00E9472
:10259000BC0188EC93E066EF71E00E94C71B60917C
:1025A00000047091010488EC93E00E948B1C88EC7D
:1025B00093E068E040E00E94AD0188EC93E06AEFB0
:1025C00071E00E94C71B609102047091030488ECC3
:1025D00093E00E948B1C86E00E94831790933C023C
:1025E00080933B0288EC93E060E041E00E94AD0103
:1025F00088EC93E06EEF71E00E94C71B60913B0294
:1026000070913C0288EC93E00E948B1C62E370E0C6
:1026100080E090E00E94AE160E940D09892B09F41B
:10262000A2CF8091F8039091F903A0914502B09157
:1026300046020197C1F460913702709138024091CF
:10264000390250913A0220913B0230913C020091B4
:102650003D0210913E02E090DC03F090DD03CD01DD
:102660000E9460096BC2CD010E94910A67C28091ED
:10267000F8039091F9030197E1F4609139027091A8
:102680003A0240913B0250913C022091DE0330918E
:10269000DF0380913D0290913E02280F391F009187
:1026A000DC031091DD0380913702909138020E9483
:1026B00050068FB7F894969A8FBF8091FA03909145
:1026C000FB03019709F02EC186E00E9404178130B8
:1026D00009F028C14091DE035091DF0380913D0253
:1026E00090913E02481B590B8EEC93E060E070E045
:1026F0000E948A004091DE035091DF0380913D02E9
:1027000090913E02481B590B8EEC93E061E070E023
:102710000E948A000E9473166093F4037093F5037D
:102720008093F6039093F7030E9461050E9473164D
:102730002091F4033091F5034091F6035091F70393
:10274000621B730B840B950B675771408040904060
:1027500058F38EEC93E060E070E00E947F008EEC16
:1027600093E061E070E00E947F00E091F203F0915D
:10277000F303E330F10549F480914502909146025C
:102780000E94C70A0E944709A8C020913B023091CD
:102790003C02A0914502B0914602609137027091CF
:1027A00038024091390250913A0280913D02909155
:1027B0003E02E090DC03F090DD030091DE03109117
:1027C000DF03329709F084C000D000D000D0EDB70D
:1027D000FEB73196080F191FC0904302D0904402F3
:1027E000A0903F02B090400280904102909042023F
:1027F0008091530290915402CDB7DEB79A838983BA
:102800008091550290915602938382838091470272
:102810009091480295838483CD010E94890EADB7C3
:10282000BEB71196809145029091460260913702A1
:10283000709138024091390250913A0220913B0246
:1028400030913C020091DE031091DF03E0913D02E4
:10285000F0913E020E0F1F1FE090DC03F090DD03AD
:10286000C0904302D0904402A0903F02B09040023A
:102870008090410290904202E0915302F091540204
:10288000CDB7DEB7FA83E983E0915502F0915602A5
:10289000ED01FB83EA83E0914702F0914802FD835A
:1028A000EC830E94C10D2DB73EB72A5F3F4F0FB694
:1028B000F8943EBF0FBE2DBF8130910571F4109288
:1028C000F9031092F8039093E3038093E20305C0A9
:1028D000080F191FCD010E94470A8091F2039091C1
:1028E000F30301969093F3038093F203019751F45D
:1028F0000E9473166093EC037093ED038093EE03D4
:102900009093EF038091F2039091F303029751F4B7
:102910000E9473166093E8037093E9038093EA03BF
:102920009093EB032091F2033091F30321303105B2
:10293000F9F48091DE039091DF0384369105C4F4AD
:102940000E9473162091EC033091ED034091EE0349
:102950005091EF03621B730B840B950B605A7F4001
:102960008040904030F17092DF036092DE0321C01E
:1029700022303105F1F48091DE039091DF031816C7
:102980001906BCF40E9473162091E8033091E90304
:102990004091EA035091EB03621B730B840B950B80
:1029A000685B7B408040904020F01092DF031092E3
:1029B000DE030091FC031091FD030130110581F548
:1029C0000E943B0B209147023091480282179307E7
:1029D0003CF10E94000B209147023091480282177F
:1029E0009307F4F08091F2039091F3030397C4F0FE
:1029F0008091E2039091E303892B91F41092F90303
:102A00001092F80388EC93E00E94BC0188EC93E0FC
:102A100067E072E00E94C71B1093E3030093E20398
:102A20008091E2039091E3030197B1F460913F023A
:102A30007091400240914102509142022091530214
:102A40003091540200915502109156028091430238
:102A5000909144020E94760B8091FE039091FF03B7
:102A60000197A9F52091F2033091F30380914D0273
:102A700090914E022817390751F51092FB031092DE
:102A8000FA0380914B0290914C02243031053CF4C2
:102A900060913B0270913C020E94D50706C0609194
:102AA0004F02709150020E94080880914F0290914D
:102AB0005002909348028093470281E090E0909307
:102AC000E1038093E0031092FF031092FE03009154
:102AD000E0031091E1030130110599F50E944006D1
:102AE00020915102309152022817390754F5109263
:102AF000FD031092FC031093F9030093F8030E9466
:102B00002B076091390270913A0240913B0250913B
:102B10003C022091DE033091DF0380913D029091D1
:102B20003E02280F391F0091DC031091DD038091D4
:102B30003702909138020E94500603C0E4E66E2EE0
:102B4000712C0E94EB08892B09F491CD12C08EECF8
:102B500093E060E070E00E947F008EEC93E061E023
:102B600070E00E947F0062E370E080E090E00E94ED
:102B7000AE160E94E008892B51F788EC93E00E9482
:102B8000BC0188EC93E060E040E00E94AD0188EC7D
:102B900093E064E172E00E94C71B88EC93E060E080
:102BA00041E00E94AD0188EC93E063E272E00E9494
:102BB000C71B6AE070E080E090E00E94AE1688ECEF
:102BC00093E00E94C0010E940209892B29F0109213
:102BD0005802109257020AC00E94E008892B69F23D
:102BE00081E090E090935802809357020E9402097E
:102BF000892B21F40E94E008892B39F062E370E010
:102C000080E090E00E94AE16F1CF0E948308DF9131
:102C1000CF911F910F91FF90EF90DF90CF90BF90D9
:102C2000AF909F908F907F906F90089580E060E0CC
:102C30000E944D1781E060E00E944D1780E060E047
:102C40000E94D41683E060E00E94D41686E060E023
:102C50000E94D41608951F920F920FB60F9211245E
:102C60002F933F938F939F93AF93BF938091C4040F
:102C70009091C504A091C604B091C7043091C804D6
:102C80000196A11DB11D232F2D5F2D3720F02D574B
:102C90000196A11DB11D2093C8048093C404909394
:102CA000C504A093C604B093C7048091C00490915A
:102CB000C104A091C204B091C3040196A11DB11D2D
:102CC0008093C0049093C104A093C204B093C30442
:102CD000BF91AF919F918F913F912F910F900FBE18
:102CE0000F901F9018958FB7F8942091C4043091DD
:102CF000C5044091C6045091C7048FBFB901CA01F1
:102D000008956FB7F8942091C0043091C1044091A8
:102D1000C2045091C30482B790E0A0E0B0E006B6D0
:102D200000FE09C08F3F9105A105B10521F02F5F7D
:102D30003F4F4F4F5F4F6FBF542F432F322F2227EC
:102D4000280F391F4A1F5B1F82E0220F331F441FC9
:102D5000551F8A95D1F7B901CA010895EF92FF92E4
:102D60000F931F93CF93DF937B018C010E948116F9
:102D7000EB010EC00E9481166C1B7D0B685E7340D8
:102D8000C8F30894E108F10801091109C851DC4FA2
:102D9000E114F1040105110569F7DF91CF911F914D
:102DA0000F91FF90EF900895E82FE695E695E69550
:102DB000A82FB0E0613099F42FB7F894F0E0EE0F4F
:102DC000FF1FE952FD4F0190F081E02D9081A77027
:102DD000B070A75EBC4F8C91982B908313C02FB717
:102DE000F894F0E0EE0FFF1FE952FD4F0190F081E3
:102DF000E02D9081A770B070A75EBC4F8C9180953C
:102E0000892380832FBF0895A82FE82FE695E695A4
:102E1000E695F0E0EE0FFF1FEB51FD4F0190F081C2
:102E2000E02DE081B0E0A770B070A75EBC4F8C9140
:102E3000E82309F0E1E08E2F0895E82FE695E69566
:102E4000E695A82FB0E0613099F42FB7F894F0E040
:102E5000EE0FFF1FE753FD4F0190F081E02D9081B1
:102E6000A770B070A75EBC4F8C91982B908313C055
:102E70002FB7F894F0E0EE0FFF1FE753FD4F0190DE
:102E8000F081E02D9081A770B070A75EBC4F8C914F
:102E90008095892380832FBF0895E82FF0E061306B
:102EA00051F4EE0FFF1FE952FD4F0190F081E02D2C
:102EB0008FEF80830895EE0FFF1FE952FD4F0190C1
:102EC000F081E02D10820895E82FF0E0EE0FFF1F53
:102ED000EB51FD4F0190F081E02D80810895E82FA6
:102EE000F0E0EE0FFF1FE753FD4F0190F081E02D62
:102EF00060830895109261001092620080E487B9A7
:102F000087EE86B908951F93182F8091F3028130C0
:102F100021F40E947A171092F3028091F40218179C
:102F200021F4349A349BFECF0DC01093F40287B184
:102F30001770807E812B87B9349A349BFECF349AE8
:102F4000349BFECF24B135B1C9011F91089593B7C9
:102F5000987F982B93BF08959EB5987F982B9EBD20
:102F6000089583E00E94AC171DBC1CBC87B7846029
:102F700087BF0895EAE8F0E09081987F982B9083CE
:102F8000089583E00E94BA17109289001092880079
:102F9000EDE7F0E08081846080830895893031F42A
:102FA0008FB582608FBD8FB58E7F0AC08A3019F4CD
:102FB0008FB5826002C08FB58D7F8FBD8FB5816068
:102FC0008FBD1BBC1ABC19BC18BC109279001092A2
:102FD000780008958FB580688FBD8FB58F7B8FBDCA
:102FE00008958FB580628FBD8FB58F7E8FBD089598
:102FF0008FB588608FBD8FB58B7F8FBD08959BBDCA
:103000008ABD089599BD88BD0895909379008093F5
:1030100078000895893049F480918B008260809314
:103020008B0080918B008E7F0EC08A3021F48091BE
:103030008B00826003C080918B008D7F80938B001A
:1030400080918B00816080938B001092870010929A
:1030500086001092850010928400109283001092D6
:1030600082000895EBE8F0E08081806880838081B1
:103070008F7B80830895EBE8F0E08081806280831D
:1030800080818F7E80830895EBE8F0E08081886006
:10309000808380818B7F80830895853019F40E941E
:1030A000EA170895843019F40E94F11708958330C7
:1030B00019F40E94F8170895823019F40E9432180A
:1030C0000895813019F40E943B180895882311F463
:1030D0000E94441808959093870080938600089575
:1030E000909385008093840008959093830080934B
:1030F00082000895EF92FF921F93CF93DF93182FD2
:103100007B018D31B0F08F3111F413E014C08E319A
:1031100011F414E010C08D3109F49BC0853211F414
:1031200010E03DC0843211F411E039C0833219F44B
:103130008EC08330A0F18091C90486FD0BC00E942F
:10314000B11778948AE00E94CE178091C9048064F8
:103150008093C9048091C904C12FD0E090E0012E72
:1031600002C0959587950A94E2F780FD4CC087B31D
:10317000FE01EF5DFC4F9081892B87BB812F0E9460
:103180004D182091C90481E090E0012E02C0880F03
:10319000991F0A94E2F7282B2093C90434C0809128
:1031A000C90487FD0BC00E94C11778948AE00E9471
:1031B0000A188091C90480688093C9048091C90469
:1031C000C12FD0E090E0012E02C0959587950A941A
:1031D000E2F780FD24C082B1FE01EF5DFC4F9081DB
:1031E000892B82B9812F0E944D182091C90481E05A
:1031F00090E0012E02C0880F991F0A94E2F7282B55
:103200002093C9040CC0153021F4C7010E94FF1798
:1032100022C0143021F4C7010E9402181CC01330D0
:1032200021F4C7010E94051816C0123021F4C7010D
:103230000E946B1810C0113021F4C7010E94701851
:103240000AC0112341F4C7010E94751804C012E09E
:10325000A6CF15E070CFDF91CF911F91FF90EF9037
:1032600008951F920F920FB60F920BB60F92112472
:103270002F933F934F935F936F937F938F939F937E
:10328000AF93BF93EF93FF938091D0049091D104BB
:10329000892B29F0E091D004F091D1040995FF9198
:1032A000EF91BF91AF919F918F917F916F915F91BE
:1032B0004F913F912F910F900BBE0F900FBE0F902B
:1032C0001F9018951F920F920FB60F920BB60F9288
:1032D00011242F933F934F935F936F937F938F931B
:1032E0009F93AF93BF93EF93FF938091DA049091F4
:1032F000DB04892B29F0E091DA04F091DB040995D5
:10330000FF91EF91BF91AF919F918F917F916F91BD
:103310005F914F913F912F910F900BBE0F900FBE79
:103320000F901F9018951F920F920FB60F920BB629
:103330000F9211242F933F934F935F936F937F933B
:103340008F939F93AF93BF93EF93FF938091E0048C
:103350009091E104892B29F0E091E004F091E104DF
:103360000995FF91EF91BF91AF919F918F917F91BF
:103370006F915F914F913F912F910F900BBE0F90E6
:103380000FBE0F901F9018951F920F920FB60F92BD
:103390000BB60F9211242F933F934F935F936F932C
:1033A0007F938F939F93AF93BF93EF93FF938091FE
:1033B000CC049091CD04892B29F0E091CC04F091BC
:1033C000CD040995FF91EF91BF91AF919F918F919E
:1033D0007F916F915F914F913F912F910F900BBE15
:1033E0000F900FBE0F901F9018951F920F920FB65F
:1033F0000F920BB60F9211242F933F934F935F932D
:103400006F937F938F939F93AF93BF93EF93FF93AC
:103410008091D2049091D304892B29F0E091D204B9
:10342000F091D3040995FF91EF91BF91AF919F91D6
:103430008F917F916F915F914F913F912F910F905D
:103440000BBE0F900FBE0F901F9018951F920F92FA
:103450000FB60F920BB60F9211242F933F934F93F9
:103460005F936F937F938F939F93AF93BF93EF93EC
:10347000FF938091D4049091D504892B29F0E09199
:10348000D404F091D5040995FF91EF91BF91AF91CC
:103490009F918F917F916F915F914F913F912F916C
:1034A0000F900BBE0F900FBE0F901F9018951F929C
:1034B0000F920FB60F920BB60F9211242F933F93DA
:1034C0004F935F936F937F938F939F93AF93BF932C
:1034D000EF93FF938091D6049091D704892B29F024
:1034E000E091D604F091D7040995FF91EF91BF9137
:1034F000AF919F918F917F916F915F914F913F918C
:103500002F910F900BBE0F900FBE0F901F9018952C
:103510001F920F920FB60F920BB60F9211242F939A
:103520003F934F935F936F937F938F939F93AF934B
:10353000BF93EF93FF938091D8049091D904892B86
:1035400029F0E091D804F091D9040995FF91EF9109
:10355000BF91AF919F918F917F916F915F914F91AB
:103560003F912F910F900BBE0F900FBE0F901F90A9
:1035700018951F920F920FB60F920BB60F9211244F
:103580002F933F934F935F936F937F938F939F936B
:10359000AF93BF93EF93FF938091DC049091DD0490
:1035A000892B29F0E091DC04F091DD040995FF916D
:1035B000EF91BF91AF919F918F917F916F915F91AB
:1035C0004F913F912F910F900BBE0F900FBE0F9018
:1035D0001F9018951F920F920FB60F920BB60F9275
:1035E00011242F933F934F935F936F937F938F9308
:1035F0009F93AF93BF93EF93FF938091E2049091D9
:10360000E304892B29F0E091E204F091E3040995A9
:10361000FF91EF91BF91AF919F918F917F916F91AA
:103620005F914F913F912F910F900BBE0F900FBE66
:103630000F901F9018951F920F920FB60F920BB616
:103640000F9211242F933F934F935F936F937F9328
:103650008F939F93AF93BF93EF93FF938091E40475
:103660009091E504892B29F0E091E404F091E504C0
:103670000995FF91EF91BF91AF919F918F917F91AC
:103680006F915F914F913F912F910F900BBE0F90D3
:103690000FBE0F901F9018951F920F920FB60F92AA
:1036A0000BB60F9211242F933F934F935F936F9319
:1036B0007F938F939F93AF93BF93EF93FF938091EB
:1036C000E6049091E704892B29F0E091E604F0915B
:1036D000E7040995FF91EF91BF91AF919F918F9171
:1036E0007F916F915F914F913F912F910F900BBE02
:1036F0000F900FBE0F901F9018951F920F920FB64C
:103700000F920BB60F9211242F933F934F935F9319
:103710006F937F938F939F93AF93BF93EF93FF9399
:103720008091E8049091E904892B29F0E091E80464
:10373000F091E9040995FF91EF91BF91AF919F91AD
:103740008F917F916F915F914F913F912F910F904A
:103750000BBE0F900FBE0F901F90189583E061E095
:103760000E944D1784E061E00E944D1778940E94FA
:1037700016160E942012FDCFDC01ED91FC91019004
:10378000F081E02D099508950E94BC1B08950F93C8
:103790001F93CF93DF938C01EB0104C02196C801E6
:1037A0000E94C41B68816623C9F7DF91CF911F91E6
:1037B0000F9108952F923F924F925F926F927F9256
:1037C0008F929F92AF92BF92CF92DF92EF92FF9231
:1037D0000F931F93DF93CF93CDB7DEB7A0970FB6AC
:1037E000F894DEBF0FBECDBF1C016A017B014115FD
:1037F00051056105710521F460E30E94C41B4FC0AF
:10380000882499245401422E55246624772401E00B
:1038100010E00C0F1D1F080D191DC701B601A301F3
:1038200092010E94FE1FF80160830894811C911C84
:10383000A11CB11CC701B601A30192010E94FE1F89
:10384000C901DA016C017D01C114D104E104F10464
:10385000F1F681E0E82EF12CEC0EFD1EE80CF91CCF
:103860003E010894611C711CD501C4010197A10996
:10387000B1096C01C818D9080FC0F601EE0DFF1D83
:1038800060816A3010F4605D01C0695CC1010E9412
:10389000C41B0894E108F1086E147F0471F7A09628
:1038A0000FB6F894DEBF0FBECDBFCF91DF911F9151
:1038B0000F91FF90EF90DF90CF90BF90AF909F90CF
:1038C0008F907F906F905F904F903F902F900895D2
:1038D000EF92FF920F931F93CF93DF93EC017A0146
:1038E0008B0177FF0BC06DE20E94C41B1095009501
:1038F000F094E094E11CF11C011D111DCE01B801F2
:10390000A7012AE00E94DA1BDF91CF911F910F914E
:10391000FF90EF900895AB01662757FD6095762FD5
:103920000E94681C0895CF92DF92EF92FF920F934E
:103930001F93CF93DF936C017B01C0E0D0E00EC0FA
:10394000D601ED91FC9100811181C701BE010E9459
:10395000F51C682FC601F80109952196F7018681AB
:103960009781C817D90760F3DF91CF911F910F910D
:10397000FF90EF90DF90CF900895009711F00E9494
:10398000E6200895CF93DF93EC018BE293E09983D7
:1039900088838A819B81009711F00E94BD1C1D8243
:1039A0001C821F821E82DF91CF910895009711F033
:1039B0000E94E6200895CF93DF93EC018BE293E021
:1039C000998388838A819B81009711F00E94BD1C96
:1039D0001D821C821F821E82CE010E94D61CDF9196
:1039E000CF9108950E943A200895CF93DF93EC0180
:1039F000EA81FB81E60FF71F8081DF91CF91089567
:103A0000CF93DF93EC01CB017D836C8301960E9401
:103A1000F21C9B838A83009721F41D821C821F82E3
:103A20001E82DF91CF9108950F931F93CF93DF9361
:103A3000EC018B018BE293E099838883611571051A
:103A400011F400E312E0C8010E944321BC019F83EE
:103A50008E83CE010E94001D8A819B81009719F000
:103A6000B8010E943C21DF91CF911F910F910895E1
:103A70005058BB27AA270ED0B1C1A2D130F0A7D190
:103A800020F031F49F3F11F41EF497C10EF4E0953D
:103A9000E7FB64C1E92FB3D180F3BA17620773075C
:103AA0008407950718F071F49EF5E2C10EF4E095D5
:103AB0000B2EBA2FA02D0B01B90190010C01CA01E8
:103AC000A0011124FF27591B99F0593F50F4503E93
:103AD00068F11A16F040A22F232F342F4427585F85
:103AE000F3CF469537952795A795F0405395C9F79D
:103AF0007EF41F16BA0B620B730B840BBAF0915055
:103B0000A1F0FF0FBB1F661F771F881FC2F70EC0F3
:103B1000BA0F621F731F841F48F4879577956795C6
:103B2000B795F7959E3F08F0B3CF9395880F08F0AF
:103B30009927EE0F979587950895ECD008F481E0CA
:103B400008950CD04BC143D140F03AD130F021F46C
:103B50005F3F19F003C151118CC12FC150D198F3AF
:103B60009923C9F35523B1F3951B550BBB27AA27FE
:103B700062177307840738F09F5F5F4F220F331F70
:103B8000441FAA1FA9F333D00E2E3AF0E0E830D03C
:103B900091505040E695001CCAF729D0FE2F27D03F
:103BA000660F771F881FBB1F261737074807AB070D
:103BB000B0E809F0BB0B802DBF01FF2793585F4F82
:103BC0002AF09E3F510568F0C9C053C15F3FECF336
:103BD000983EDCF3869577956795B795F7959F5F47
:103BE000C9F7880F911D9695879597F90895E1E09B
:103BF000660F771F881FBB1F621773078407BA07FA
:103C000020F0621B730B840BBA0BEE1F88F7E09554
:103C1000089504D06894B1112CC10895F8D088F0AB
:103C20009F5790F0B92F9927B751A0F0D1F0660FA8
:103C3000771F881F991F1AF0BA95C9F712C0B130C3
:103C400081F016D1B1E0089513C1672F782F88272E
:103C5000B85F39F0B93FCCF3869577956795B39502
:103C6000D9F73EF490958095709561957F4F8F4F71
:103C70009F4F0895E89409C097FB3EF49095809576
:103C8000709561957F4F8F4F9F4F9923A9F0F92F22
:103C900096E9BB279395F695879577956795B795A0
:103CA000F111F8CFFAF4BB0F11F460FF1BC06F5F86
:103CB0007F4F8F4F9F4F16C0882311F096E911C098
:103CC000772321F09EE8872F762F05C0662371F0B9
:103CD00096E8862F70E060E02AF09A95660F771FCD
:103CE000881FDAF7880F9695879597F90895A9D0D8
:103CF00080F09F3740F491110EF0BBC060E070E09F
:103D000080E89FEB089526F41B16611D711D811D2F
:103D10002BC045C0990F0008550FAA0BE0E8FEEF35
:103D200016161706E807F907C0F012161306E4077F
:103D3000F50798F0621B730B840B950B39F40A2678
:103D400061F0232B242B252B21F408950A2609F456
:103D5000A140A6958FEF811D811D089597F99F675A
:103D600080E870E060E00895882371F4772321F003
:103D70009850872B762F07C0662311F499270DC022
:103D80009051862B70E060E02AF09A95660F771FBD
:103D9000881FDAF7880F9695879597F908959F3FC2
:103DA00031F0915020F4879577956795B795880FF6
:103DB000911D9695879597F908959FEF80EC08954A
:103DC00000240A94161617061806090608950024FA
:103DD0000A9412161306140605060895092E039474
:103DE000000C11F4882352F0BB0F40F4BF2B11F4E8
:103DF00060FF04C06F5F7F4F8F4F9F4F089557FD47
:103E00009058440F551F59F05F3F71F04795880F48
:103E100097FB991F61F09F3F79F0879508951216DF
:103E200013061406551FF2CF4695F1DF08C016168B
:103E300017061806991FF1CF86957105610508943C
:103E40000895E5DFA0F0BEE7B91788F4BB279F38D7
:103E500060F41616B11D672F782F8827985FF7CF6B
:103E6000869577956795B11D93959639C8F3089512
:103E7000E894BB2766277727CB0197F908950BD0E5
:103E8000ADCF9EDF28F0A3DF18F0952309F066CFB1
:103E900094CF1124EECFB3DFA0F3959FD1F3950F0C
:103EA00050E0551F629FF001729FBB27F00DB11DBE
:103EB000639FAA27F00DB11DAA1F649F6627B00D4E
:103EC000A11D661F829F2227B00DA11D621F739F37
:103ED000B00DA11D621F839FA00D611D221F749F45
:103EE0003327A00D611D231F849F600D211D822F8C
:103EF000762F6A2F11249F5750408AF0E1F08823D3
:103F00004AF0EE0FFF1FBB1F661F771F881F9150DF
:103F10005040A9F79E3F510570F020CFAACF5F3FD8
:103F2000ECF3983EDCF3869577956795B795F79512
:103F3000E7959F5FC1F7FE2B880F911D969587959A
:103F400097F9089511F40EF438CF29CF60DFD0F33C
:103F50009923D9F3CEF39F57550B87FF35D0002413
:103F6000A0E640EA900180585695979528F4805C29
:103F7000660F771F881F20F026173707480730F491
:103F8000621B730B840B202931294A2BA6951794A9
:103F90000794202531254A2758F7660F771F881F79
:103FA00020F026173707480730F4620B730B840B99
:103FB000200D311D411DA09581F7B901842F915825
:103FC000880F96958795089591505040660F771FFA
:103FD000881FD2F7089597FB092E07260AD077FD90
:103FE00004D02ED006D000201AF4709561957F4F32
:103FF0000895F6F7909581959F4F0895A1E21A2EA6
:10400000AA1BBB1BFD010DC0AA1FBB1FEE1FFF1F7C
:10401000A217B307E407F50720F0A21BB30BE40BCC
:10402000F50B661F771F881F991F1A9469F7609513
:104030007095809590959B01AC01BD01CF010895CD
:10404000AA1BBB1B51E107C0AA1FBB1FA617B707BE
:1040500010F0A61BB70B881F991F5A95A9F78095DA
:104060009095BC01CD010895EE0FFF1F0590F491CE
:10407000E02D0994CF93DF93BC018230910510F4B9
:1040800062E070E0A091EC04B091ED04ED01E0E09D
:10409000F0E040E050E021C08881998186179707C1
:1040A00069F48A819B81309719F09383828304C0DD
:1040B0009093ED048093EC04FE0133C068177907F8
:1040C00038F44115510519F08417950708F4AC012F
:1040D000FE018A819B819C01E9012097E9F6411547
:1040E0005105A1F1CA01861B970B049708F4BA0188
:1040F000E0E0F0E029C08D919C911197841795071D
:10410000F1F46417750779F4ED018A819B8130978A
:1041100019F09383828304C09093ED048093EC04A0
:10412000FD0132964FC0CA01861B970BFD01E80FB7
:10413000F91F6193719302978D939C9343C0FD0186
:10414000828193819C01D9011097A9F68091EA049C
:104150009091EB04892B41F48091330290913402C9
:104160009093EB048093EA0440913502509136021B
:104170004115510541F44DB75EB7809131029091E0
:104180003202481B590B2091EA043091EB042417AA
:104190003507B0F4CA01821B930B8617970780F08E
:1041A000AB014E5F5F4F8417950750F0420F531FCE
:1041B0005093EB044093EA04F9016193719302C0B8
:1041C000E0E0F0E0CF01DF91CF910895CF93DF934E
:1041D000009709F44EC0EC0122971B821A82A0912D
:1041E000EC04B091ED04109701F140E050E0AC1701
:1041F000BD0700F1BB83AA83FE0121913191E20F3B
:10420000F31FAE17BF0771F48D919C911197280F82
:10421000391F2E5F3F4F39832883FD0182819381AF
:104220009B838A834115510569F4D093ED04C093B3
:10423000EC041FC0FD0182819381AD01009711F054
:10424000DC01D5CFFA01D383C28321913191E20FF2
:10425000F31FCE17DF0769F488819981280F391F72
:104260002E5F3F4FFA01318320838A819B819383A4
:104270008283DF91CF910895FB01DC0101900D92C3
:104280000020E1F70895FC0101900020E9F78095F6
:1042900090958E0F9F1F089510E0C0E9D0E004C0F4
:1042A000FE010E9436202296C239D107C9F7F89440
:0242B000FFCF3E
:1042B2006B70006B6400746872657368007370657C
:1042C20065640064656C74610061726D537065654C
:1042D200640049526B700049526B6400495253703A
:1042E20065656400626567696E495200656E64497E
:1042F20052007475726E5370656564007475726EE7
:10430200436F756E74004C65617665006F66665228
:104312006F636B73006F66664952004952636F7236
:1043220072656374696F6E005357454550494E4735
:1043320000524553455454494E47006E6567206309
:104342006F7200706F7320636F7200706F732073EF
:104352006D616C6C006E656720736D616C6C0063DF
:10436200656E746572005748415420544F2054457D
:1043720053543F005461706520466F6C6C6F7769CF
:104382006E67002A002000417274696661637420BE
:1043920041726D0049522053656E736F7200474F30
:1043A20020484F4D45004C3A2000523A2000746894
:1043B200726573683A2000495220464F4C4C4F5761
:1043C200494E470053544152543A20474F20534FCD
:1043D20046540053544F503A20524554554E4500CE
:1043E200002000EE04000078003C007800C800784D
:1043F200003C00900126028200D00790010400C810
:1044020000140564006400010078003C002C01C81F
:10441200000000260278003C00C2017D00D007E8BF
:10442200030400640014056400640000C07F4400BB
:10443200C07F4400C07F44000061440000A04000EF
:10444200C07F4400C07F4400C07F4400C07F44005E
:1044520000FA4400C07F4400C07F440000A0400036
:10446200C07F4400C07F4400C07F4400C07F44013D
:10447200000F00050005000100320035003B003846
:1044820000230062006500310034003A0037002248
:104492000061006400300033003900360021002042
:1044A20000630001FF180019002600270005000420
:1044B200000100000000000000660100000000CEC4
:1044C200032102830368039D0301020408102040B4
:1044D2008020100880402000000000C21CDB1C006D
:00000001FF
