:100000000C9448000C947C000C947C000C947C00B4
:100010000C947C000C947C000C947C000C947C0070
:100020000C947C000C94E7110C9490100C94B61175
:100030000C9423110C9454110C945F100C94F21036
:100040000C94670D0C947C000C9454030C94E30303
:100050000C947C000C947C000C947C000C947C0030
:100060000C9485110C94AB120C9418120C94491238
:100070000C947A120C94C1100C9425030C949C03DC
:100080000C947C000C947C000C947C000B053205D5
:1000900011241FBECFEFD0E1DEBFCDBF88E483BF08
:1000A00084E00E94D50E12BE87B7816087BF789426
:1000B00012E0A0E0B1E0E4E1FDE200E00BBF02C02D
:1000C00007900D92A236B107D9F713E0A2E6B2E08D
:1000D00001C01D92A438B107E1F710E0C0E9D0E0FB
:1000E00004C02297FE010E948416CC38D107C9F7BC
:1000F0000E94DC120C9488160C940000FB01EE0F99
:10010000FF1FE95CFD4F808160E070E00E94A80F56
:1001100008950F931F93CF93DF93EB018A01CC0FC8
:10012000DD1F57FD0CC0FE01E15DFD4F808161E0E8
:100130000E944B0EC95CDD4F8881B8010EC0FE01E4
:10014000E15DFD4F808160E00E944B0EC95CDD4F98
:1001500066277727601B710B88810E94A80FDF91AB
:10016000CF911F910F9108951F93CF93DF93C0E01C
:10017000D0E0FE01E15DFD4F1081812F61E00E9422
:10018000020E812F61E00E944B0EFE01E95CFD4FE3
:10019000808160E070E00E94A80F2296C830D105EF
:1001A00041F7DF91CF911F910895FC0110828AE001
:1001B00090E0938382830895CF93DF93EC018A814B
:1001C00060E00E944B0E8D8160E00E947B0E8D816D
:1001D00060E00E949D0E8B8161E00E944B0E8C813D
:1001E00061E00E944B0E0000000010C08C8160E0B6
:1001F0000E944B0E00000000000000008C8161E0B6
:100200000E944B0E00000000000000008D810E9443
:10021000920E87FDEBCF8C8160E00E944B0EDF9148
:10022000CF910895FF920F931F938C01F62E0E9499
:10023000DC00F801828161E00E944B0EF8018381AD
:1002400060E00E944B0EF801848161E00E944B0E39
:10025000F801858161E00E947B0EF80185816F2D98
:100260000E949D0E0000000000000000F801848143
:1002700060E00E944B0EF801858160E00E947B0ED9
:10028000F80185816FEF0E949D0E1F910F91FF90E5
:100290000895EF92FF920F931F93CF93DF937C010A
:1002A000042F6115710551F0EB0110E005C0C70185
:1002B00069910E9412011F5F1017C8F3DF91CF915F
:1002C0001F910F91FF90EF900895DF93CF930F92BE
:1002D000CDB7DEB76983BE016F5F7F4F41E00E94FB
:1002E00049010F90CF91DF910895FF920F931F93D3
:1002F0008C01F62E0E94DC00F801828160E00E94F1
:100300004B0EF801838160E00E944B0EF80184815E
:1003100061E00E944B0EF801858161E00E947B0E36
:10032000F80185816F2D0E949D0E000000000000E5
:100330000000F801848160E00E944B0EF801858185
:1003400060E00E947B0EF80185816FEF0E949D0E98
:100350001F910F91FF900895423031F0433031F0FA
:10036000413029F4605C03C06C5E01C06C5A606867
:100370000E947501089562E00E947501089561E090
:100380000E94750108950F931F938C01FC018281D7
:1003900060E00E944B0EF801838160E00E944B0EEA
:1003A000F801848160E00E944B0EF801828161E0D7
:1003B0000E94020EF801838161E00E94020EF801A2
:1003C000848161E00E94020EF801858160E00E9454
:1003D0007B0EF80185816FEF0E949D0E1F910F919A
:1003E00008950F931F938C010E94C301C80168E315
:1003F0000E947501C80161E00E947501C80166E0B4
:100400000E947501C8016CE00E947501C80162E09C
:100410000E947501C80160E80E9475011F910F914B
:1004200008950F93FC0183E492E0918380836283BB
:10043000438324830583CF010E94F1010F91089526
:100440005F926F927F928F929F92AF92BF92CF9264
:10045000DF92EF92FF920F931F93CF93DF93EC0104
:100460003A014B01413482E458078FE0680780E08D
:1004700078070CF07FC060E874E88EE190E0A4019A
:1004800093010E9453162150304040405040CA0111
:10049000B90122E030E040E050E00E9453165901DB
:1004A0006A01A6019501209530954095509594E0FC
:1004B000220F331F441F551F9A95D1F760E074E255
:1004C00084EF90E00E945316CA01B9012FEF30E08B
:1004D00040E050E00E94FF15A40193010E945316D2
:1004E000C90181509F4F181619061CF4522E5A94B8
:1004F00003C055245394521A60E079E08DE390E0F4
:10050000A40193010E9453162150304040405040B6
:10051000CA01B90122E030E040E050E00E945316E9
:10052000209530954095509583E0220F331F441F4E
:10053000551F8A95D1F760E074E284EF90E00E9445
:100540005316CA01B9012FEF30E040E050E00E949D
:10055000FF15A40193010E945316C90181509F4FBA
:10056000181619061CF4822F815002C081E0821BEC
:100570008515E8F4CA5BDF4FE881F981C654D040A5
:1005800082E0808360E079E08DE390E0A401930154
:100590000E9453162150304040405040CA01B901DA
:1005A00022E030E040E050E00E94531608C0CA5BF1
:1005B000DF4FE881F981C654D04010829501CE5BAF
:1005C000DF4FE991F9913083E881F9812083249606
:1005D000E881F98188E98083DF91CF911F910F91A4
:1005E000FF90EF90DF90CF90BF90AF909F908F9053
:1005F0007F906F905F900895FC0124813581C9013F
:100600000895DC01FC0182819381809714F080E0E1
:100610000895FD0182819381019693838283848171
:100620009581E80FF91F60870196FD01958384830A
:100630002D913C9111978217930714F481E008954E
:10064000FD011582148281E008951F920F920FB66A
:100650000F920BB60F9211242F933F934F935F93FA
:100660006F937F938F939F93AF93BF93EF93FF937A
:10067000E091F802F091F902608180EB92E00E9433
:100680000103FF91EF91BF91AF919F918F917F9166
:100690006F915F914F913F912F910F900BBE0F90F3
:1006A0000FBE0F901F9018951F920F920FB60F92CA
:1006B0000BB60F9211242F933F934F935F936F9339
:1006C0007F938F939F93AF93BF93EF93FF93E091AB
:1006D000AC02F091AD02608184E692E00E940103D9
:1006E000FF91EF91BF91AF919F918F917F916F910A
:1006F0005F914F913F912F910F900BBE0F900FBEC6
:100700000F901F901895DC01FC0182819381019765
:100710009383828386819781E80FF91F4085019634
:10072000FD01978386832D913C918217930714F0E6
:1007300017821682842F08951F920F920FB60F9280
:100740000BB60F9211240F931F932F933F934F9348
:100750005F936F937F938F939F93AF93BF93EF9329
:10076000FF938091DA029091DB021816190654F477
:100770000091F8021091F90288ED92E00E94830343
:10078000F80180838091DA029091DB02892B31F4A9
:10079000E091F602F091F70288E98083FF91EF91F2
:1007A000BF91AF919F918F917F916F915F914F9189
:1007B0003F912F911F910F910F900BBE0F900FBE85
:1007C0000F901F9018951F920F920FB60F920BB6B5
:1007D0000F9211240F931F932F933F934F935F9387
:1007E0006F937F938F939F93AF93BF93EF93FF93F9
:1007F00080918E0290918F021816190654F4009180
:10080000AC021091AD028CE892E00E948303F801E3
:10081000808380918E0290918F02892B31F4E09138
:10082000AA02F091AB0288E98083FF91EF91BF911A
:10083000AF919F918F917F916F915F914F913F9178
:100840002F911F910F910F900BBE0F900FBE0F9025
:100850001F901895DC01FC0182819381019793839D
:10086000828386819781E80FF91F40850196FD01FB
:10087000978386832D913C918217930714F01782FA
:100880001682842F0895FC0184819581892B19F4A7
:100890002FEF3FEF06C0CF0102960E942A04282FB7
:1008A00030E0C9010895CF93DF93EC01EE81FF8121
:1008B000E80FF91F8085DF91CF910895FC018481B5
:1008C0009581892B19F42FEF3FEF06C0CF010296D7
:1008D0000E945304282F30E0C9010895FC011382BF
:1008E000128282819381978386839583848308957E
:1008F00002960E946E040895FC0180E290E09183CC
:100900008083CF010E946E040895DC01FC01828186
:100910009381409714F080E00895FD0182819381D6
:1009200001969383828384819581E80FF91F608704
:100930000196FD01958384832D913C911197821737
:10094000930714F481E00895FD011582148281E07B
:100950000895CF93DF93EC018CA59DA54097E4F714
:10096000F894CE018A960E948504C85BDF4FE88127
:10097000F9818081806280837894DF91CF9108959E
:10098000FC011382128282819381978386839583EF
:1009900084830895FC0180E190E091838083CF01FE
:1009A0000E94C00408956F927F928F929F92AF929F
:1009B000BF92CF92DF92EF92FF920F931F936C0141
:1009C0005B014A013901FC0189E492E08193919332
:1009D000CF010E947C04C6018A960E94CA0482E468
:1009E00090E0C80ED91EF601A192B1928192919227
:1009F0006192719201931193F182E0821F910F91A4
:100A0000FF90EF90DF90CF90BF90AF909F908F902E
:100A10007F906F900895EF92FF920F931F9382E65D
:100A200092E060E970E049E250E02BE230E00AE257
:100A300010E0FCE2EF2EF12C0E94D3048EEA92E04B
:100A400068E970E049E950E02BE930E00AE910E09C
:100A5000ECE9EE2EF12C0E94D3041F910F91FF9030
:100A6000EF9008950F938AEF92E06AE14BE12CE159
:100A700002E00E94110280E093E00E94B40082E054
:100A800093E00E94D50086E093E00E94D5008AE0C2
:100A900093E00E94D5000F9108950F931F9381E07A
:100AA0000E94B10E8C0182E00E94B10E9C01200FC9
:100AB000311FC9011F910F9108956F927F928F92FC
:100AC0009F92AF92BF92CF92DF92EF92FF920F93DD
:100AD0001F93CF93DF934C013B01EA016901580159
:100AE00083E00E94B10E7C0184E00E94B10E8C0173
:100AF0008AEF92E00E94BF018AEF92E00E94BB0160
:100B00008AEF92E060E071E00E94F5128AEF92E0D5
:100B1000B7010E94C6138AEF92E068E040E00E94AD
:100B2000AC018AEF92E064E071E00E94F5128AEF76
:100B300092E0B8010E94C613C017D10744F4CE1545
:100B4000DF058CF410924B0310924A030CC00C1773
:100B50001D074CF4CE15DF0534F481E090E090934E
:100B60004B0380934A03EC16FD064CF4C017D107E3
:100B700034F48FEF9FEF90934B0380934A030C174D
:100B80001D070CF5EC16FD06F4F420914C03309192
:100B90004D0337FF0BC080910102909102029095A6
:100BA00081959F4F90934B0380934A03121613062F
:100BB00054F480910102909102028A0D9B1D909342
:100BC0004B0380934A0380914C0390914D034091D5
:100BD0004A0350914B0384179507B1F090934F034C
:100BE00080934E0350934D0340934C0380915603E2
:100BF00090915703909359038093580381E090E0BC
:100C00009093570380935603849E9001859E300DE8
:100C1000949E300D11243093510320935003809102
:100C20004E0390914F03481B590B609156037091EE
:100C300057038091580390915903680F791F649E60
:100C4000C001659E900D749E900D11240E941E1689
:100C5000AB017093530360935203420F531F5093A1
:100C60005503409354034C0D5D1D80E093E060E01C
:100C700070E00E9489008091540390915503C81A36
:100C8000D90A80E093E061E070E0A6010E9489004B
:100C90008091560390915703019690935703809348
:100CA0005603DF91CF911F910F91FF90EF90DF904E
:100CB000CF90BF90AF909F908F907F906F9008954E
:100CC00081E30E94320E20E030E0882311F421E01D
:100CD00030E0C901089582E30E94320E20E030E046
:100CE000882311F421E030E0C9010895CF93DF9308
:100CF000C0E0D0E023C086E00E94B10EEC018AEF94
:100D000092E00E94BB018AEF92E060E040E00E9426
:100D1000AC018AEF92E068E071E00E94F5128AEF80
:100D200092E0BE010E94C6136AE070E080E090E0AD
:100D30000E94DC0D8AEF92E00E94BF010E946B06C8
:100D4000892BC9F206C062E370E080E090E00E9467
:100D5000DC0D0E946B06892BB1F7CE01DF91CF919C
:100D60000895CF92DF92EF92FF920F931F93CF934C
:100D7000DF93EC018C010E5F1F4F4AC086E00E949A
:100D8000B10E9983888387E00E94B10EF8019183A8
:100D900080838AEF92E00E94BB018AEF92E060E0DC
:100DA00040E00E94AC018AEF92E064E171E00E94B1
:100DB000F5128AEF92E060E041E00E94AC018AEF18
:100DC00092E060E371E00E94F512688179818AEF18
:100DD00092E00E94C6138AEF92E068E041E00E9430
:100DE000AC018AEF92E064E371E00E94F512F80131
:100DF000608171818AEF92E00E94C6136AE070E020
:100E000080E090E00E94DC0D8AEF92E00E94BF013A
:100E10000E946B06892B09F4B1CF06C062E370E033
:100E200080E090E00E94DC0D0E946B06892BB1F7F8
:100E30004BC083E00E94B10E8C0184E00E94B10E91
:100E40007C0186E00E94B10E998388838D5B92407D
:100E500014F0D982C8828AEF92E060E040E00E94FC
:100E6000AC018AEF92E060E071E00E94F5128AEF37
:100E700092E0B8010E94C6138AEF92E064E071E04C
:100E80000E94F5128AEF92E0B7010E94C6138AEF22
:100E900092E060E041E00E94AC018AEF92E068E3FA
:100EA00071E00E94F512688179818AEF92E00E94D8
:100EB000C6136AE070E080E090E00E94DC0D8AEFEB
:100EC00092E00E94BF0105C024968CEBC82E82E000
:100ED000D82E0E946B06892B09F4ABCFDF91CF91FE
:100EE0001F910F91FF90EF90DF90CF9008950F9397
:100EF0001F93CF93DF938C018AEF92E00E94BF0192
:100F00008AEF92E00E94BB018AEF92E060E040E04D
:100F10000E94AC018AEF92E060E471E00E94F51259
:100F20008AEF92E060E041E00E94AC018AEF92E03B
:100F300069E471E00E94F512CC27DD27C01BD10BBC
:100F40008FB7F894939A8FBF83E00E94320E81305E
:100F500079F462E370E080E090E00E94DC0D8FB7EE
:100F6000F894939A8FBF83E00E94320E813041F053
:100F700080E093E062E070E0AE010E948900E0CF83
:100F80008AEF92E00E94BF0180E093E062E070E0AF
:100F90000E947E008AEF92E00E94BB018AEF92E0FD
:100FA00060E040E00E94AC018AEF92E06EE471E004
:100FB0000E94F5128AEF92E060E041E00E94AC01ED
:100FC0008AEF92E06BE571E00E94F5128FB7F8941A
:100FD000909A8FBF80E00E94320E813079F462E3F4
:100FE00070E080E090E00E94DC0D8FB7F894909A5A
:100FF0008FBF80E00E94320E813041F080E093E0AC
:1010000062E070E0A8010E948900E0CF8AEF92E0E0
:101010000E94BF0180E093E062E070E00E947E00E9
:10102000DF91CF911F910F9108952F923F924F9290
:101030005F926F927F928F929F92AF92BF92CF9268
:10104000DF92EF92FF920F931F93CF93DF935C0198
:101050001B012A0181E00E94B10E4C0182E00E9436
:10106000B10E3C018AEF92E00E94BF018AEF92E04C
:101070000E94BB018AEF92E060E071E00E94F512ED
:101080008AEF92E0B4010E94C6138AEF92E068E012
:1010900040E00E94AC018AEF92E064E071E00E94BF
:1010A000F5128AEF92E0B3010E94C6138AEF92E034
:1010B00060E041E00E94AC018AEF92E063E671E0FB
:1010C0000E94F51260913A0370913B038AEF92E01F
:1010D0000E94C613C4018619970990933B0380931D
:1010E0003A036AE070E080E090E00E94DC0D8091BD
:1010F0003C0390913D03C0913A03D0913B038C1780
:101100009D07B1F090933F0380933E03D0933D033E
:10111000C0933C0380914603909147039093490309
:101120008093480381E090E09093470380934603C7
:101130006301C80CD91CB601882777FD8095982FCC
:101140000E9474140E94BA157B018C014C9EB00160
:101150004D9E700D5C9E700D1124882777FD809543
:10116000982F0E947414A80197010E94D9130E941D
:1011700041149B01709341036093400380913E03AF
:1011800090913F03C81BD90B6091460370914703B0
:101190008091480390914903680F791F2C9EC001EC
:1011A0002D9E900D3C9E900D11240E941E16709352
:1011B000430360934203260F371F30934503209368
:1011C00044038AEF92E068E041E00E94AC018AEFBC
:1011D00092E068E671E00E94F5126091440370911C
:1011E00045038AEF92E00E94C61340914403509158
:1011F00045034A0D5B1D80E093E060E070E00E94D3
:1012000089008091440390914503A81AB90A80E0AF
:1012100093E061E070E0A5010E948900809146039F
:1012200090914703019690934703809346038DE482
:10123000C81684E0D8060CF442C08AEF92E00E94FF
:10124000BF018AEF92E00E94BB018AEF92E060E06A
:1012500040E00E94AC018AEF92E060E071E00E9401
:10126000F5128AEF92E0B4010E94C6138AEF92E071
:1012700060E041E00E94AC018AEF92E064E071E03E
:101280000E94F5128AEF92E0B3010E94C6138AEF22
:1012900092E061E040E00E94AC018AEF92E06CE6EF
:1012A00071E00E94F51280E093E060E070E00E943F
:1012B0007E0080E093E061E070E00E947E00DF91BC
:1012C000CF911F910F91FF90EF90DF90CF90BF9043
:1012D000AF909F908F907F906F905F904F903F90D6
:1012E0002F900895AF92BF92CF92DF92EF92FF922C
:1012F0000F931F93CF93DF93EC0136E0C32ED12CD5
:10130000C80ED91E21E0A22EB12C94E0E92EF12CBA
:10131000EC0EFD1E8E010E5F1F4F4BC18AEF92E057
:101320000E94BB018AEF92E060E040E00E94AC01C5
:101330008AEF92E068E771E00E94F51286E00E9471
:10134000B10EAA2797FDA095BA2FBC01CD010E942E
:10135000741420E030EC4FE754E40E94D91320E0ED
:1013600030E040E850E40E9453150E94AF140E9400
:10137000411470931F0360931E038AEF92E00E9452
:10138000BB018AEF92E060E041E00E94AC018091F5
:101390001E0390911F03009709F03FC08AEF92E06F
:1013A00066E871E00E94F51288819981813091058B
:1013B000B9F48AEF92E06FE040E00E94AC018AEF5E
:1013C00092E065E971E00E94F5120E946006892BA7
:1013D000F9F00E946006892BE1F71982188218C083
:1013E000892BB1F48AEF92E06FE040E00E94AC01FB
:1013F0008AEF92E067E971E00E94F5120E946006B0
:10140000892B31F00E946006892BE1F7B982A8820E
:101410006CE271E080E090E0C6C081309105E9F5B2
:101420008AEF92E069E971E00E94F512F80180818B
:10143000918181309105B9F48AEF92E06FE040E04C
:101440000E94AC018AEF92E065E971E00E94F5121A
:101450000E946006892B09F460C00E946006892BF7
:10146000E1F7F8013EC0892B09F057C08AEF92E0FE
:101470006FE040E00E94AC018AEF92E067E971E022
:101480000E94F5120E946006892B09F446C00E9452
:101490006006892BE1F7F8013EC0029709F042C0CF
:1014A0008AEF92E066EA71E00E94F512F70180810E
:1014B000918181309105C1F48AEF92E06FE040E0C4
:1014C0000E94AC018AEF92E065E971E00E94F5129A
:1014D0000E946006892B09F10E946006892BE1F7C2
:1014E000F7011182108219C0892BB9F48AEF92E0BA
:1014F0006FE040E00E94AC018AEF92E067E971E0A2
:101500000E94F5120E946006892B39F00E94600645
:10151000892BE1F7F701B182A08264E670E080E0F8
:1015200090E041C08AEF92E060EB71E00E94F5121A
:10153000F6018081918181309105C1F48AEF92E0BA
:101540006FE040E00E94AC018AEF92E065E971E053
:101550000E94F5120E946006892B09F10E94600624
:10156000892BE1F7F6011182108219C0892BB9F499
:101570008AEF92E06FE040E00E94AC018AEF92E0D7
:1015800067E971E00E94F5120E946006892B39F02C
:101590000E946006892BE1F7F601B182A0826AE021
:1015A00070E080E090E00E94DC0D8AEF92E00E9403
:1015B000BF010E946B06892B09F4B0CE0E946B0616
:1015C000892BE1F7DF91CF911F910F91FF90EF9061
:1015D000DF90CF90BF90AF900895CF92DF92EF92BF
:1015E000FF920F931F93CF93DF936C01EC01229630
:1015F0004AC086E00E94B10EF6019183808387E0A5
:101600000E94B10E998388838AEF92E00E94BB0109
:101610008AEF92E060E040E00E94AC018AEF92E045
:1016200060EC71E00E94F5128AEF92E060E041E028
:101630000E94AC018AEF92E060E371E00E94F51233
:10164000F601608171818AEF92E00E94C6138AEFF1
:1016500092E068E041E00E94AC018AEF92E064E32E
:1016600071E00E94F512688179818AEF92E00E9410
:10167000C6136AE070E080E090E00E94DC0D8AEF23
:1016800092E00E94BF010E946B06892B09F4B1CF42
:1016900006C062E370E080E090E00E94DC0D0E94F2
:1016A0006B06892BB1F746C081E00E94B10E8C0118
:1016B00082E00E94B10E7C0186E00E94B10E998307
:1016C00088838AEF92E060E041E00E94AC018AEFFB
:1016D00092E06CEC71E00E94F512688179818AEFEA
:1016E00092E00E94C6138AEF92E060E040E00E9420
:1016F000AC018AEF92E060E071E00E94F5128AEF9F
:1017000092E0B8010E94C6138AEF92E068ED71E0A2
:101710000E94F5128AEF92E0B7010E94C61364E6B8
:1017200070E080E090E00E94DC0D8AEF92E00E9481
:10173000BF0102C0E60124960E946B06892B09F4C2
:10174000B3CF06C062E370E080E090E00E94DC0D61
:101750000E946B06892BB1F75AC086E00E94B10E39
:101760009983888387E00E94B10EAA2797FDA095F0
:10177000BA2FBC01CD010E94741420E030EC4FE779
:1017800054E40E94D91320E030E040EA50E40E9483
:1017900053150E94AF140E944114F60171836083B7
:1017A000888199818D5B924014F0198308838AEFB8
:1017B00092E060E040E00E94AC018AEF92E068E3D2
:1017C00071E00E94F512688179818AEF92E00E94AF
:1017D000C6138AEF92E060E041E00E94AC018AEF1C
:1017E00092E06DED71E00E94F512F6016081718169
:1017F0008AEF92E00E94C6136AE070E080E090E019
:101800000E94DC0D8AEF92E00E94BF0108C0E60151
:10181000269688E090E0C80ED91E0CEB12E00E94DC
:101820006B06892B09F499CFDF91CF911F910F910E
:10183000FF90EF90DF90CF9008950F931F938091CA
:10184000FF0190910002019709F0CCC082E393E080
:101850000E9472098091320390913303019761F5E0
:1018600082E293E00E94ED0A80912203909123038B
:1018700090930F0380930E0380912403909125038E
:101880009093110380931003809126039091270376
:10189000909313038093120380912803909129035E
:1018A000909315038093140380912A0390912B0346
:1018B000909317038093160380913403909135031E
:1018C000019731F40E9476069093210380932003C0
:1018D0008091360390913703019709F083C08CE221
:1018E00093E00E94B10680912C0390912D03909378
:1018F00019038093180380912E0390912F039093E6
:101900001B0380931A0380913003909131039093CD
:101910001D0380931C0366C08091320390913303B2
:10192000019731F5609110037091110340911203FA
:101930005091130320911403309115030091160365
:101940001091170380910E0390910F030E945D0583
:10195000609114037091150382E692E00E94CE1309
:10196000609134037091350382E692E00E94CE13B9
:101970008FB7F894969A8FBF809134039091350376
:101980000197B9F486E00E94320E813091F480E034
:1019900093E060E070E00E947E0080E093E061E010
:1019A00070E00E947E0080912003909121030E94AC
:1019B00077078091360390913703019799F40E943D
:1019C0004D058739910574F06091180370911903E2
:1019D00040911A0350911B0380911C0390911D03A9
:1019E0000E9415080E946006892B09F495CF0CC04F
:1019F00080E093E060E070E00E947E0080E093E091
:101A000061E070E00E947E000E946006892B81F7F1
:101A10008AEF92E00E94BB018AEF92E060E040E032
:101A20000E94AC018AEF92E065EE71E00E94F5122F
:101A30008AEF92E060E041E00E94AC018AEF92E020
:101A400062EF71E00E94F5120E946B06892B29F06B
:101A5000109200021092FF0116C00E946006892BAE
:101A600039F081E090E0909300028093FF010BC079
:101A70006AE070E080E090E00E94DC0D8AEF92E086
:101A80000E94BF01C5CF0E946B06892BE1F71F9111
:101A90000F91089582E692E040E855E260E070E040
:101AA0000E94200280E060E00E947B0E81E060E006
:101AB0000E947B0E80E060E00E94020E83E060E006
:101AC0000E94020E86E060E00E94020E08951F92BE
:101AD0000F920FB60F9211242F933F938F939F93E2
:101AE000AF93BF9380915E0390915F03A0916003D9
:101AF000B0916103309162030196A11DB11D232FA6
:101B00002D5F2D3720F02D570196A11DB11D20937B
:101B1000620380935E0390935F03A0936003B0938E
:101B2000610380915A0390915B03A0915C03B09193
:101B30005D030196A11DB11D80935A0390935B0331
:101B4000A0935C03B0935D03BF91AF919F918F9180
:101B50003F912F910F900FBE0F901F9018956FB768
:101B6000F89420915A0330915B0340915C035091AB
:101B70005D0382B790E0A0E0B0E006B600FE09C0C9
:101B80008F3F9105A105B10521F02F5F3F4F4F4FCA
:101B90005F4F6FBF542F432F322F2227280F391F3B
:101BA0004A1F5B1F82E0220F331F441F551F8A9577
:101BB000D1F7B901CA010895EF92FF920F931F93D5
:101BC000CF93DF937B018C010E94AF0DEB010EC020
:101BD0000E94AF0D6C1B7D0B685E7340C8F30894C8
:101BE000E108F10801091109C851DC4FE114F104C1
:101BF0000105110569F7DF91CF911F910F91FF90BA
:101C0000EF900895E82FE695E695E695A82FB0E0C9
:101C1000613099F42FB7F894F0E0EE0FFF1FEF5EFC
:101C2000FD4F0190F081E02D9081A770B070AD5A0A
:101C3000BD4F8C91982B908313C02FB7F894F0E090
:101C4000EE0FFF1FEF5EFD4F0190F081E02D9081C0
:101C5000A770B070AD5ABD4F8C9180958923808359
:101C60002FBF0895A82FE82FE695E695E695F0E0BA
:101C7000EE0FFF1FE15EFD4F0190F081E02DE0814E
:101C8000B0E0A770B070AD5ABD4F8C91E82309F059
:101C9000E1E08E2F0895E82FE695E695E695A82FCA
:101CA000B0E0613099F42FB7F894F0E0EE0FFF1F29
:101CB000ED5FFD4F0190F081E02D9081A770B07035
:101CC000AD5ABD4F8C91982B908313C02FB7F894C9
:101CD000F0E0EE0FFF1FED5FFD4F0190F081E02D72
:101CE0009081A770B070AD5ABD4F8C9180958923BB
:101CF00080832FBF0895E82FF0E0613051F4EE0F9C
:101D0000FF1FEF5EFD4F0190F081E02D8FEF80838C
:101D10000895EE0FFF1FEF5EFD4F0190F081E02D63
:101D200010820895E82FF0E0EE0FFF1FE15EFD4FF7
:101D30000190F081E02D80810895E82FF0E0EE0F12
:101D4000FF1FED5FFD4F0190F081E02D608308954E
:101D5000109261001092620080E487B987EE86B924
:101D600008951F93182F80912D02813021F40E9435
:101D7000A80E10922D0280912E02181721F4349A89
:101D8000349BFECF0DC010932E0287B11770807E5A
:101D9000812B87B9349A349BFECF349A349BFECF83
:101DA00024B135B1C9011F91089593B7987F982B3D
:101DB00093BF08959EB5987F982B9EBD089583E0AC
:101DC0000E94DA0E1DBC1CBC87B7846087BF0895D3
:101DD000EAE8F0E09081987F982B9083089583E063
:101DE0000E94E80E1092890010928800EDE7F0E062
:101DF0008081846080830895893031F48FB582605A
:101E00008FBD8FB58E7F0AC08A3019F48FB582607E
:101E100002C08FB58D7F8FBD8FB581608FBD1BBC1C
:101E20001ABC19BC18BC1092790010927800089561
:101E30008FB580688FBD8FB58F7B8FBD08958FB5AF
:101E400080628FBD8FB58F7E8FBD08958FB58860FE
:101E50008FBD8FB58B7F8FBD08959BBD8ABD0895C3
:101E600099BD88BD08959093790080937800089576
:101E7000893049F480918B00826080938B0080913F
:101E80008B008E7F0EC08A3021F480918B0082609F
:101E900003C080918B008D7F80938B0080918B009D
:101EA000816080938B0010928700109286001092C0
:101EB0008500109284001092830010928200089591
:101EC000EBE8F0E080818068808380818F7B808375
:101ED0000895EBE8F0E080818062808380818F7ECE
:101EE00080830895EBE8F0E08081886080838081C2
:101EF0008B7F80830895853019F40E94180F089510
:101F0000843019F40E941F0F0895833019F40E9441
:101F1000260F0895823019F40E94600F08958130D1
:101F200019F40E94690F0895882311F40E94720F1A
:101F3000089590938700809386000895909385007C
:101F40008093840008959093830080938200089585
:101F5000EF92FF921F93CF93DF93182F7B018D3168
:101F6000B0F08F3111F413E014C08E3111F414E08D
:101F700010C08D3109F49BC0853211F410E03DC0D2
:101F8000843211F411E039C0833219F48EC08330E9
:101F9000A0F18091630386FD0BC00E94DF0E789450
:101FA0008AE00E94FC0E8091630380648093630347
:101FB00080916303C12FD0E090E0012E02C095957F
:101FC00087950A94E2F780FD4CC087B3FE01E55A7D
:101FD000FD4F9081892B87BB812F0E947B0F209121
:101FE000630381E090E0012E02C0880F991F0A94DC
:101FF000E2F7282B2093630334C08091630387FDAD
:102000000BC00E94EF0E78948AE00E94380F8091F6
:10201000630380688093630380916303C12FD0E0E2
:1020200090E0012E02C0959587950A94E2F780FD15
:1020300024C082B1FE01E55AFD4F9081892B82B9FF
:10204000812F0E947B0F2091630381E090E0012E9D
:1020500002C0880F991F0A94E2F7282B209363038C
:102060000CC0153021F4C7010E942D0F22C014307E
:1020700021F4C7010E94300F1CC0133021F4C701A6
:102080000E94330F16C0123021F4C7010E94990F2D
:1020900010C0113021F4C7010E949E0F0AC0112305
:1020A00041F4C7010E94A30F04C012E0A6CF15E0BF
:1020B00070CFDF91CF911F91FF90EF9008951F9205
:1020C0000F920FB60F920BB60F9211242F933F93DE
:1020D0004F935F936F937F938F939F93AF93BF9330
:1020E000EF93FF9380916A0390916B03892B29F002
:1020F000E0916A03F0916B030995FF91EF91BF9115
:10210000AF919F918F917F916F915F914F913F918F
:102110002F910F900BBE0F900FBE0F901F90189530
:102120001F920F920FB60F920BB60F9211242F939E
:102130003F934F935F936F937F938F939F93AF934F
:10214000BF93EF93FF938091740390917503892B54
:1021500029F0E0917403F09175030995FF91EF91D7
:10216000BF91AF919F918F917F916F915F914F91AF
:102170003F912F910F900BBE0F900FBE0F901F90AD
:1021800018951F920F920FB60F920BB60F92112453
:102190002F933F934F935F936F937F938F939F936F
:1021A000AF93BF93EF93FF9380917A0390917B035A
:1021B000892B29F0E0917A03F0917B030995FF9137
:1021C000EF91BF91AF919F918F917F916F915F91AF
:1021D0004F913F912F910F900BBE0F900FBE0F901C
:1021E0001F9018951F920F920FB60F920BB60F9279
:1021F00011242F933F934F935F936F937F938F930C
:102200009F93AF93BF93EF93FF9380916603909159
:102210006703892B29F0E0916603F0916703099524
:10222000FF91EF91BF91AF919F918F917F916F91AE
:102230005F914F913F912F910F900BBE0F900FBE6A
:102240000F901F9018951F920F920FB60F920BB61A
:102250000F9211242F933F934F935F936F937F932C
:102260008F939F93AF93BF93EF93FF9380916C03F2
:1022700090916D03892B29F0E0916C03F0916D032F
:102280000995FF91EF91BF91AF919F918F917F91B0
:102290006F915F914F913F912F910F900BBE0F90D7
:1022A0000FBE0F901F9018951F920F920FB60F92AE
:1022B0000BB60F9211242F933F934F935F936F931D
:1022C0007F938F939F93AF93BF93EF93FF938091EF
:1022D0006E0390916F03892B29F0E0916E03F091CA
:1022E0006F030995FF91EF91BF91AF919F918F91EE
:1022F0007F916F915F914F913F912F910F900BBE06
:102300000F900FBE0F901F9018951F920F920FB64F
:102310000F920BB60F9211242F933F934F935F931D
:102320006F937F938F939F93AF93BF93EF93FF939D
:102330008091700390917103892B29F0E0917003D3
:10234000F09171030995FF91EF91BF91AF919F912A
:102350008F917F916F915F914F913F912F910F904E
:102360000BBE0F900FBE0F901F9018951F920F92EB
:102370000FB60F920BB60F9211242F933F934F93EA
:102380005F936F937F938F939F93AF93BF93EF93DD
:10239000FF938091720390917303892B29F0E09150
:1023A0007203F09173030995FF91EF91BF91AF9183
:1023B0009F918F917F916F915F914F913F912F915D
:1023C0000F900BBE0F900FBE0F901F9018951F928D
:1023D0000F920FB60F920BB60F9211242F933F93CB
:1023E0004F935F936F937F938F939F93AF93BF931D
:1023F000EF93FF938091760390917703892B29F0D7
:10240000E0917603F09177030995FF91EF91BF91E9
:10241000AF919F918F917F916F915F914F913F917C
:102420002F910F900BBE0F900FBE0F901F9018951D
:102430001F920F920FB60F920BB60F9211242F938B
:102440003F934F935F936F937F938F939F93AF933C
:10245000BF93EF93FF9380917C0390917D03892B31
:1024600029F0E0917C03F0917D030995FF91EF91B4
:10247000BF91AF919F918F917F916F915F914F919C
:102480003F912F910F900BBE0F900FBE0F901F909A
:1024900018951F920F920FB60F920BB60F92112440
:1024A0002F933F934F935F936F937F938F939F935C
:1024B000AF93BF93EF93FF9380917E0390917F033F
:1024C000892B29F0E0917E03F0917F030995FF911C
:1024D000EF91BF91AF919F918F917F916F915F919C
:1024E0004F913F912F910F900BBE0F900FBE0F9009
:1024F0001F9018951F920F920FB60F920BB60F9266
:1025000011242F933F934F935F936F937F938F93F8
:102510009F93AF93BF93EF93FF938091800390912C
:102520008103892B29F0E0918003F09181030995C3
:10253000FF91EF91BF91AF919F918F917F916F919B
:102540005F914F913F912F910F900BBE0F900FBE57
:102550000F901F9018951F920F920FB60F920BB607
:102560000F9211242F933F934F935F936F937F9319
:102570008F939F93AF93BF93EF93FF9380918203C9
:1025800090918303892B29F0E0918203F0918303DA
:102590000995FF91EF91BF91AF919F918F917F919D
:1025A0006F915F914F913F912F910F900BBE0F90C4
:1025B0000FBE0F901F90189583E061E00E947B0E84
:1025C00084E061E00E947B0E78940E944A0D0E9494
:1025D0001D0CFDCFDC01ED91FC910190F081E02D0F
:1025E000099508950E94EA1208950F931F93CF93BF
:1025F000DF938C01EB0104C02196C8010E94F21206
:1026000068816623C9F7DF91CF911F910F910895DB
:102610000F931F938C016DE00E94F212C8016AE0D3
:102620000E94F2121F910F9108952F923F924F92A4
:102630005F926F927F928F929F92AF92BF92CF9252
:10264000DF92EF92FF920F931F93DF93CF93CDB75B
:10265000DEB7A0970FB6F894DEBF0FBECDBF1C014A
:102660006A017B01411551056105710521F460E3A3
:102670000E94F2124FC0882499245401422E5524FE
:102680006624772401E010E00C0F1D1F080D191DB2
:10269000C701B601A30192010E943116F8016083BF
:1026A0000894811C911CA11CB11CC701B601A30197
:1026B00092010E943116C901DA016C017D01C11439
:1026C000D104E104F104F1F681E0E82EF12CEC0EE6
:1026D000FD1EE80CF91C3E010894611C711CD5011B
:1026E000C4010197A109B1096C01C818D9080FC02C
:1026F000F601EE0DFF1D60816A3010F4605D01C0CF
:10270000695CC1010E94F2120894E108F1086E149C
:102710007F0471F7A0960FB6F894DEBF0FBECDBF51
:10272000CF91DF911F910F91FF90EF90DF90CF90AD
:10273000BF90AF909F908F907F906F905F904F90E1
:102740003F902F900895EF92FF920F931F93CF9396
:10275000DF93EC017A018B0177FF0BC06DE20E94E1
:10276000F21210950095F094E094E11CF11C011D0B
:10277000111DCE01B801A7012AE00E941513DF91B7
:10278000CF911F910F91FF90EF900895AB016627B5
:1027900057FD6095762F0E94A31308950F931F9302
:1027A0008C010E94C613C8010E9408131F910F914B
:1027B00008950CD027C11FD140F016D130F021F47C
:1027C0005F3F19F0DFC0511168C10BC12CD198F3E4
:1027D0009923C9F35523B1F3951B550BBB27AA27A2
:1027E00062177307840738F09F5F5F4F220F331F14
:1027F000441FAA1FA9F333D00E2E3AF0E0E830D0E0
:1028000091505040E695001CCAF729D0FE2F27D0E2
:10281000660F771F881FBB1F261737074807AB07B0
:10282000B0E809F0BB0B802DBF01FF2793585F4F25
:102830002AF09E3F510568F0A5C02FC15F3FECF321
:10284000983EDCF3869577956795B795F7959F5FEA
:10285000C9F7880F911D9695879597F90895E1E03E
:10286000660F771F881FBB1F621773078407BA079D
:1028700020F0621B730B840BBA0BEE1F88F7E095F8
:10288000089504D06894B11108C10895D4D088F097
:102890009F5790F0B92F9927B751A0F0D1F0660F4C
:1028A000771F881F991F1AF0BA95C9F712C0B13067
:1028B00081F0F2D0B1E00895EFC0672F782F88271C
:1028C000B85F39F0B93FCCF3869577956795B395A6
:1028D000D9F73EF490958095709561957F4F8F4F15
:1028E0009F4F0895E89409C097FB3EF4909580951A
:1028F000709561957F4F8F4F9F4F9923A9F0F92FC6
:1029000096E9BB279395F695879577956795B79543
:10291000F111F8CFFAF4BB0F11F460FF1BC06F5F29
:102920007F4F8F4F9F4F16C0882311F096E911C03B
:10293000772321F09EE8872F762F05C0662371F05C
:1029400096E8862F70E060E02AF09A95660F771F70
:10295000881FDAF7880F9695879597F9089585D09F
:1029600080F09F3740F491110EF097C060E070E066
:1029700080E89FEB089526F41B16611D711D811DD3
:1029800007C021C097F99F6780E870E060E0089574
:10299000882371F4772321F09850872B762F07C076
:1029A000662311F499270DC09051862B70E060E0EA
:1029B0002AF09A95660F771F881FDAF7880F969589
:1029C000879597F908959F3F31F0915020F48795AE
:1029D00077956795B795880F911D9695879597F987
:1029E00008959FEF80EC089500240A9416161706A8
:1029F00018060906089500240A94121613061406F0
:102A000005060895092E0394000C11F4882352F052
:102A1000BB0F40F4BF2B11F460FF04C06F5F7F4F0A
:102A20008F4F9F4F089557FD9058440F551F59F0F1
:102A30005F3F71F04795880F97FB991F61F09F3FAB
:102A400079F087950895121613061406551FF2CFD4
:102A50004695F1DF08C0161617061806991FF1CF24
:102A600086957105610508940895E5DFA0F0BEE73D
:102A7000B91788F4BB279F3860F41616B11D672F6D
:102A8000782F8827985FF7CF869577956795B11D42
:102A900093959639C8F30895E894BB27662777275E
:102AA000CB0197F908950BD0ADCF9EDF28F0A3DFBF
:102AB00018F0952309F066CF94CF1124EECFB3DF41
:102AC000A0F3959FD1F3950F50E0551F629FF00141
:102AD000729FBB27F00DB11D639FAA27F00DB11D9A
:102AE000AA1F649F6627B00DA11D661F829F222723
:102AF000B00DA11D621F739FB00DA11D621F839FAA
:102B0000A00D611D221F749F3327A00D611D231F7F
:102B1000849F600D211D822F762F6A2F11249F57CD
:102B200050408AF0E1F088234AF0EE0FFF1FBB1FF0
:102B3000661F771F881F91505040A9F79E3F51058F
:102B400070F020CFAACF5F3FECF3983EDCF3869580
:102B500077956795B795F795E7959F5FC1F7FE2B3A
:102B6000880F911D9695879597F9089511F40EF4A5
:102B700038CF29CF60DFD0F39923D9F3CEF39F5715
:102B8000550B87FF35D00024A0E640EA900180581D
:102B90005695979528F4805C660F771F881F20F064
:102BA00026173707480730F4621B730B840B202964
:102BB00031294A2BA69517940794202531254A27B9
:102BC00058F7660F771F881F20F02617370748072A
:102BD00030F4620B730B840B200D311D411DA09549
:102BE00081F7B901842F9158880F9695879508959C
:102BF00091505040660F771F881FD2F70895629F4B
:102C0000D001739FF001829FE00DF11D649FE00DE4
:102C1000F11D929FF00D839FF00D749FF00D659F45
:102C2000F00D9927729FB00DE11DF91F639FB00D44
:102C3000E11DF91FBD01CF011124089597FB092E55
:102C400007260AD077FD04D049D006D000201AF418
:102C5000709561957F4F0895F6F7909581959F4FF8
:102C60000895A1E21A2EAA1BBB1BFD010DC0AA1FCD
:102C7000BB1FEE1FFF1FA217B307E407F50720F0E5
:102C8000A21BB30BE40BF50B661F771F881F991F60
:102C90001A9469F760957095809590959B01AC01A9
:102CA000BD01CF01089597FB092E05260ED057FDD3
:102CB00004D0D7DF0AD0001C38F4509540953095E9
:102CC00021953F4F4F4F5F4F0895F6F790958095B0
:102CD000709561957F4F8F4F9F4F0895AA1BBB1B27
:102CE00051E107C0AA1FBB1FA617B70710F0A61B0C
:102CF000B70B881F991F5A95A9F780959095BC012D
:102D0000CD010895EE0FFF1F0590F491E02D099479
:042D1000F894FFCF65
:102D14004C3A2000523A200041524D205350454530
:102D2400443A200054756E696E6720504944206609
:102D34006F7220495220646574656374696F6E0014
:102D4400503A2000443A200053504545443A20006C
:102D54005377696E67696E67004261636B005377EE
:102D6400696E67696E672041726D00466F727761A4
:102D740072640045523A200050443A00454E4420C3
:102D84004F462050415448005748415420544F2046
:102D9400544553543F005461706520466F6C6C6F0A
:102DA40077696E67002A0020004172746966616366
:102DB400742041726D0049522053656E736F720026
:102DC400526576657273652044726976696E670030
:102DD400544150452054554E494E4700546872653D
:102DE40073686F6C643A200020523A200044454CCA
:102DF40054413A200053544152543A2052455452BB
:102E0400590053544F503A20524554554E450001F1
:102E1400000500320035003B0038002300620065E5
:102E240000310034003A00370022006100640030B1
:102E34000033003900360021002000630001FF1830
:102E4400001900260027000500040001000000000E
:102E5400000000650100000000A904FC025E0443B8
:102E640004780401020408102040802010088040E7
:022E740020003C
:00000001FF
