:100000000C9448000C947D000C947D000C947D00B1
:100010000C947D000C947D000C947D000C947D006C
:100020000C947D000C94CA0C0C94730B0C94990CDA
:100030000C94060C0C94370C0C94420B0C94D50BBE
:100040000C9445080C947D000C94C3010C94090297
:100050000C947D000C947D000C947D000C947D002C
:100060000C94680C0C948E0D0C94FB0C0C942C0DC1
:100070000C945D0D0C94A40B0C9462020C94A802D9
:100080000C947D000C947D000C947D0050042C0693
:1000900011241FBECFEFD0E1DEBFCDBF88E483BF08
:1000A00083B7887F846083BF12BE87B7816087BFB4
:1000B000789411E0A0E0B1E0E0E2FEE100E00BBFE7
:1000C00002C007900D92A83CB107D9F712E0A8EC46
:1000D000B1E001C01D92AB3BB107E1F710E0C0E910
:1000E000D0E004C02297FE010E940A0FCC38D1074D
:1000F000C9F70E94BF0D0C940E0F0C940000CF9313
:10010000DF93EC018A8160E00E9454098D8160E0F8
:100110000E9484098D8160E00E94A6098B8161E0C4
:100120000E9454098C8161E00E9454090000000083
:1001300010C08C8160E00E945409000000000000A3
:1001400000008C8161E00E94540900000000000062
:1001500000008D810E949B0987FDEBCF8C8160E0C0
:100160000E945409DF91CF910895FF920F931F933E
:100170008C01F62E0E947F00F801828161E00E94CE
:100180005409F801838160E00E945409F8018481D8
:1001900061E00E945409F801858161E00E948409B0
:1001A000F80185816F2D0E94A60900000000000063
:1001B0000000F801848160E00E945409F801858103
:1001C00060E00E948409F80185816FEF0E94A60912
:1001D0001F910F91FF900895EF92FF920F931F933D
:1001E000CF93DF937C01042F6115710551F0EB0172
:1001F00010E005C0C70169910E94B5001F5F10178C
:10020000C8F3DF91CF911F910F91FF90EF90089568
:10021000DF93CF930F92CDB7DEB76983BE016F5FD7
:100220007F4F41E00E94EC000F90CF91DF91089545
:10023000FF920F931F938C01F62E0E947F00F8010E
:10024000828160E00E945409F801838160E00E948D
:100250005409F801848161E00E945409F801858104
:1002600061E00E948409F80185816F2D0E94A60932
:100270000000000000000000F801848160E00E949E
:100280005409F801858160E00E948409F8018581A4
:100290006FEF0E94A6091F910F91FF9008954230C1
:1002A00031F0433031F0413029F4605C03C06C5EC2
:1002B00001C06C5A60680E941801089562E00E94B3
:1002C0001801089561E00E94180108950F931F938B
:1002D0008C01FC01828160E00E945409F801838155
:1002E00060E00E945409F801848160E00E94540992
:1002F000F801828161E00E940B09F801838161E0CD
:100300000E940B09F801848161E00E940B09F80149
:10031000858160E00E948409F80185816FEF0E9469
:10032000A6091F910F9108950F931F938C010E94AE
:100330006601C80168E30E941801C80161E00E94DB
:100340001801C80166E00E941801C8016CE00E9413
:100350001801C80162E00E941801C80160E80E940B
:1003600018011F910F9108950F93FC018AE991E004
:10037000918380836283438324830583CF010E941A
:1003800094010F9108951F920F920FB60F920BB622
:100390000F9211242F933F938F939F93EF93FF938B
:1003A000E0911202F091130220818091CC01909192
:1003B000CD0180970CF58091CC019091CD010196F3
:1003C0009093CD018093CC018091CE019091CF018B
:1003D000FC01E853FE4F228701969093CF01809352
:1003E000CE012091CA013091CB018217930724F0EE
:1003F0001092CF011092CE01FF91EF919F918F91BA
:100400003F912F910F900BBE0F900FBE0F901F903A
:1004100018951F920F920FB60F920BB60F921124E0
:100420002F933F934F938F939F93AF93BF93EF93EC
:10043000FF938091F4019091F5011816190634F597
:10044000A0911202B09113028091F4019091F501F4
:1004500001979093F5018093F4018091F8019091B8
:10046000F901FC01E853FE4F42A901969093F9016E
:100470008093F8012091F2013091F30182179307E4
:1004800024F01092F9011092F8014C938091F4013C
:100490009091F501892B31F4E0911002F091110255
:1004A00088E98083FF91EF91BF91AF919F918F91E8
:1004B0004F913F912F910F900BBE0F900FBE0F9059
:1004C0001F9018951F920F920FB60F920BB60F92B6
:1004D00011242F933F938F939F93EF93FF93E0917A
:1004E0005E02F0915F0220818091180290911902C2
:1004F00080970CF5809118029091190201969093C3
:1005000019028093180280911A0290911B02FC013B
:10051000EC5EFD4F2287019690931B0280931A0296
:1005200020911602309117028217930724F010923F
:100530001B0210921A02FF91EF919F918F913F91B0
:100540002F910F900BBE0F900FBE0F901F9018951C
:100550001F920F920FB60F920BB60F9211242F938A
:100560003F934F938F939F93AF93BF93EF93FF93DB
:1005700080914002909141021816190634F5A0911D
:100580005E02B0915F02809140029091410201971A
:1005900090934102809340028091440290914502E1
:1005A000FC01EC5EFD4F42A90196909345028093B9
:1005B000440220913E0230913F028217930724F0BB
:1005C00010924502109244024C9380914002909107
:1005D0004102892B31F4E0915C02F0915D0288E9DF
:1005E0008083FF91EF91BF91AF919F918F914F9138
:1005F0003F912F910F900BBE0F900FBE0F901F9049
:1006000018955F926F927F928F929F92AF92BF9256
:10061000CF92DF92EF92FF920F931F93CF93DF93CE
:10062000EC013A014B01413482E458078FE068073E
:1006300080E078070CF07FC060E874E88EE190E01D
:10064000A40193010E94ED0E2150304040405040E3
:10065000CA01B90122E030E040E050E00E94ED0E16
:1006600059016A01A6019501209530954095509554
:1006700094E0220F331F441F551F9A95D1F760E075
:1006800074E284EF90E00E94ED0ECA01B9012FEFF1
:1006900030E040E050E00E94AC0EA40193010E94C3
:1006A000ED0EC90181509F4F181619061CF4522EE9
:1006B0005A9403C055245394521A60E079E08DE3B4
:1006C00090E0A40193010E94ED0E21503040404083
:1006D0005040CA01B90122E030E040E050E00E9401
:1006E000ED0E209530954095509583E0220F331FF5
:1006F000441F551F8A95D1F760E074E284EF90E0C3
:100700000E94ED0ECA01B9012FEF30E040E050E049
:100710000E94AC0EA40193010E94ED0EC90181500C
:100720009F4F181619061CF4822F815002C081E0D9
:10073000821B8515E8F4CA5BDF4FE881F981C65456
:10074000D04082E0808360E079E08DE390E0A40116
:1007500093010E94ED0E2150304040405040CA01AC
:10076000B90122E030E040E050E00E94ED0E08C008
:10077000CA5BDF4FE881F981C654D04010829501F1
:10078000CE5BDF4FE991F9913083E881F9812083D5
:100790002496E881F98188E98083DF91CF911F91C8
:1007A0000F91FF90EF90DF90CF90BF90AF909F9010
:1007B0008F907F906F905F900895FC012481358128
:1007C000C9010895DC01FC0184819581892B19F40C
:1007D0002FEF3FEF18C0FD0184819581019795832C
:1007E000848380859185E80FF91F42850196FD017C
:1007F00091878087228133818217930714F01186B5
:100800001086242F30E0C9010895CF93DF93DC01D7
:10081000EC018C819D81892B19F42FEF3FEF08C0EB
:10082000ED01E885F985EA0FFB1F8285282F30E06E
:10083000C901DF91CF910895FC0115821482848152
:10084000958191878087978386830895DC01FD01D8
:1008500084A595A54097DCF7F894FD0184A595A59E
:100860004097ACF484A595A5019695A784A786A585
:1008700097A5E80FF91F62AB0196FD0197A786A720
:1008800022A533A58217930714F017A616A6A85B16
:10089000BF4FED91FC9180818062808378940895B0
:1008A00060EA71E07093C9016093C80140E250E0D2
:1008B0005093CB014093CA011092CD011092CC010C
:1008C0008091CC019091CD019093D1018093D00182
:1008D0009093CF018093CE0120E130E03093F3017B
:1008E0002093F2011092F5011092F4018091F4012D
:1008F0009091F5019093F9018093F8019093F7019D
:100900008093F60180E990E090930B0280930A02B5
:1009100089E290E090930D0280930C028BE290E0CC
:1009200090930F0280930E028AE290E0909311025E
:10093000809310028CE290E0909313028093120255
:10094000709315026093140250931702409316029D
:1009500010921902109218028091180290911902B7
:1009600090931D0280931C0290931B0280931A02A5
:1009700030933F0220933E021092410210924002B7
:1009800080914002909141029093450280934402ED
:10099000909343028093420288E990E0909357023B
:1009A0008093560289E990E090935902809358020F
:1009B0008BE990E090935B0280935A028AE990E081
:1009C00090935D0280935C028CE990E090935F02CB
:1009D00080935E02089585E060E070E00E94740AF2
:1009E00084E060E070E00E94740A81E060E070E002
:1009F0000E94740A80E060E070E00E94740A08952A
:100A0000FB01EE0FFF1FEE54FE4F808160E070E0AF
:100A10000E94740A08950F931F93CF93DF93EB0105
:100A20008A01CC0FDD1F57FD0CC0FE01E655FE4FBD
:100A3000808161E00E945409CE54DE4F8881B80164
:100A40000EC0FE01E655FE4F808160E00E94540911
:100A5000CE54DE4F66277727601B710B88810E947A
:100A6000740ADF91CF911F910F9108951F93CF9337
:100A7000DF93C0E0D0E0FE01E655FE4F1081812FEC
:100A800061E00E940B09812F61E00E945409FE0180
:100A9000EE54FE4F808160E070E00E94740A22965E
:100AA000C830D10541F7DF91CF911F910895FC0126
:100AB00010828AE090E0938382830895E09161013F
:100AC000E7FD15C0FF27E7FDF095EE0FFF1FE05A89
:100AD000FD4F0190F081E02D818160E00E9454097A
:100AE00006C02F5F81919191892B69F00EC02091F2
:100AF00061012F5FE22FFF27E7FDF0952150EE0FF8
:100B0000FF1FE05AFD4F273064F320936101E0910D
:100B10006101FF27E7FDF095EE0FFF1FE05AFD4F43
:100B20000190F081E02D309761F48FEF80936101A7
:100B300024EF31E08091710290917202281B390BF1
:100B400012C0818161E00E945409E0916101FF2798
:100B5000E7FDF095EE0FFF1FE05AFD4F0190F08189
:100B6000E02D2281338183B5820F83BD8091710294
:100B700090917202820F931F909372028093710280
:100B8000845F914020F010927202109271020895D9
:100B90000E94170A87B78F7787BF85E00E94200AD7
:100BA00089E06EE575E00E94250A83B58C5083BD0F
:100BB00087B7806887BF10927202109271028FEF20
:100BC000809361010895CF93DF93EC0180917002CF
:100BD000893010F080E03DC06983862F61E00E947B
:100BE0000B09E881F0E0EE0FFF1FE05AFD4F808116
:100BF0009181C817D90761F140917002442341F4F3
:100C0000E0E6F2E01192119282E0E037F807D1F7C6
:100C1000E0E6F2E020E030E080819181892B61F410
:100C2000F901EE0FFF1FE05AFD4FD183C0832883E7
:100C30004F5F4093700206C02F5F3F4F32962830BF
:100C4000310551F780917002813011F40E94C8057E
:100C500081E0DF91CF9108950F9383E792E06AE1FD
:100C60004BE12CE102E00E94B40189E792E00E948E
:100C700036058BE792E00E9457058FE792E00E94CD
:100C8000570583E892E00E9457050F91089583E786
:100C900092E00E94620183E792E00E945E0183E796
:100CA00092E060E040E00E944F0183E792E060E064
:100CB00071E00E94CD0D83E792E060E041E00E9488
:100CC0004F0183E792E069E071E00E94CD0D0FC013
:100CD000609164017091650189E792E044ED5EEFF7
:100CE0000E940B058091660161E00E945409809189
:100CF00066010E943B09813059F783E792E00E9428
:100D00006201609164017091650189E792E00E943F
:100D1000000583E792E00E945E0183E792E060E0D5
:100D200040E00E944F0183E792E06EE071E00E9494
:100D3000CD0D83E792E060E041E00E944F0183E740
:100D400092E06BE171E00E94CD0D0FC060916401F3
:100D50007091650189E792E04CE251E00E940B0539
:100D60008091890261E00E945409809189020E9469
:100D70003B09813059F783E792E00E94620160915C
:100D800064017091650189E792E00E940005089571
:100D9000CF93DF9344C086E00E94B10990938C0208
:100DA00080938B0287E00E94B10990938E0280931A
:100DB0008D0283E792E00E945E0183E792E060E0AB
:100DC00040E00E944F0183E792E063E271E00E94FD
:100DD000CD0D60918B0270918C0283E792E00E94AE
:100DE000A40E83E792E060E041E00E944F0183E7B8
:100DF00092E067E271E00E94CD0D60918D027091EA
:100E00008E0283E792E00E94A40E6AE070E080E028
:100E100090E00E948D0883E792E00E94620182E3E5
:100E20000E943B09882309F0B6CF82E30E943B0968
:100E30008823D9F32DC086E00E94B10990939002D7
:100E400080938F028D5B924024F0D0939002C093E8
:100E50008F0283E792E060E040E00E944F0183E769
:100E600092E06BE271E00E94CD0D60918F02709173
:100E7000900283E792E00E94A40E6AE070E080E0B6
:100E800090E00E948D0883E792E00E94620102C018
:100E9000CCEBD2E082E30E943B09882361F6DF912C
:100EA000CF9108950F931F9382E30E943B098823FB
:100EB00009F455C081E30E943B09882309F44FC01F
:100EC00083E792E00E94620183E792E00E945E0164
:100ED00083E792E060E040E00E944F0183E792E008
:100EE00063E371E00E94CD0D83E792E060E041E0B2
:100EF0000E944F0183E792E06DE371E00E94CD0D07
:100F000068EE73E080E090E00E948D0883E792E055
:100F10000E94620183E792E00E945E0183E792E013
:100F200060E040E00E944F0183E792E065E471E0F9
:100F30000E94CD0D83E792E060E041E00E944F0106
:100F400083E792E060E571E00E94CD0D68EE73E00A
:100F500080E090E00E948D08A7CF0E94C80681E340
:100F60000E943B098823C9F347C08091680161E072
:100F70000E945409809168010E943B09813011F45C
:100F80000E94470686E00E94B1098C01000F111FE4
:100F90000F5F1340609187027091880289E792E0A9
:100FA000A8010E940B05609162017091630189E7BD
:100FB00092E0A8010E940B0583E792E00E94620183
:100FC00083E792E00E945E0183E792E060E040E008
:100FD0000E944F0183E792E067E571E00E94CD0D2A
:100FE00064E670E080E090E00E948D0881E30E945A
:100FF0003B09882309F0B9CF82E30E943B0988238B
:10100000A9F304C089E792E00E94EB0481E30E9407
:101010003B098823B9F31F910F91089580E060E0A8
:101020000E94840981E060E00E9484098BE792E0DD
:1010300063E270E00E94E3058FE792E06FE170E009
:101040000E94E30583E892E062E270E00E94E3051B
:1010500088EC91E040E855E260E070E00E94010316
:101060008091890260E00E940B098091660160E036
:101070000E940B098091680160E00E940B09809139
:10108000680161E00E94540908951F920F920FB603
:101090000F9211242F933F938F939F93AF93BF93FE
:1010A0008091950290919602A0919702B09198023A
:1010B000309199020196A11DB11D232F2D5F2D376F
:1010C00020F02D570196A11DB11D20939902809308
:1010D000950290939602A0939702B0939802809104
:1010E000910290919202A0919302B0919402019684
:1010F000A11DB11D8093910290939202A09393023F
:10110000B0939402BF91AF919F918F913F912F9196
:101110000F900FBE0F901F901895AF92BF92CF9275
:10112000DF92EF92FF920F931F935B016C019FB7C9
:10113000F894209191023091920240919302509143
:10114000940282B7E82EFF2400E010E006B600FE0D
:101150000AC08FEFE816F1040105110521F02F5F99
:101160003F4F4F4F5F4F9FBFB42FA32F922F882722
:101170008E0D9F1DA01FB11F12E0880F991FAA1F7F
:10118000BB1F1A95D1F7BC0138C09FB7F8942091C6
:10119000910230919202409193025091940282B751
:1011A000E82EFF2400E010E006B600FE0AC08FEF34
:1011B000E816F1040105110521F02F5F3F4F4F4F55
:1011C0005F4F9FBFB42FA32F922F88278E0D9F1D97
:1011D000A01FB11FE2E0880F991FAA1FBB1FEA954D
:1011E000D1F7861B970B885E934078F20894A1088C
:1011F000B108C108D10868517C4FA114B104C104E1
:10120000D10419F61F910F91FF90EF90DF90CF90CE
:10121000BF90AF900895E82FE695E695E695A82F44
:10122000B0E0613099F42FB7F894F0E0EE0FFF1FB3
:10123000E858FE4F0190F081E02D9081A770B070CA
:10124000A654BE4F8C91982B908313C02FB7F8945F
:10125000F0E0EE0FFF1FE858FE4F0190F081E02D07
:101260009081A770B070A654BE4F8C918095892351
:1012700080832FBF0895A82FE82FE695E695E69581
:10128000F0E0EE0FFF1FEA57FE4F0190F081E02DD6
:10129000E081B0E0A770B070A654BE4F8C91E823F7
:1012A00009F0E1E08E2F0895E82FE695E695E695A2
:1012B000A82FB0E0613099F42FB7F894F0E0EE0F6A
:1012C000FF1FE659FE4F0190F081E02D9081A7703D
:1012D000B070A654BE4F8C91982B908313C02FB73B
:1012E000F894F0E0EE0FFF1FE659FE4F0190F081F9
:1012F000E02D9081A770B070A654BE4F8C91809560
:10130000892380832FBF0895E82FF0E0613051F4E6
:10131000EE0FFF1FE858FE4F0190F081E02D8FEF98
:1013200080830895EE0FFF1FE858FE4F0190F08173
:10133000E02D10820895E82FF0E0EE0FFF1FEA572E
:10134000FE4F0190F081E02D80810895E82FF0E0BC
:10135000EE0FFF1FE659FE4F0190F081E02D6083F4
:101360000895982F80919401813051F4109261007A
:101370001092620080E487B987EE86B910929401DA
:1013800080919501981721F4349A349BFECF0DC0BB
:101390009093950187B19770807E892B87B9349A95
:1013A000349BFECF349A349BFECF24B135B1C901B2
:1013B0000895853031F48FB580688FBD8FB58F7BF0
:1013C0000FC0843031F48FB580628FBD8FB58F7EB2
:1013D00007C0833039F48FB588608FBD8FB58B7FA0
:1013E0008FBD0895823049F480918B00806880938E
:1013F0008B0080918B008F7B0AC0813059F48091E3
:101400008B00806280938B0080918B008F7E809315
:101410008B000895882351F480918B00886080931D
:101420008B0080918B008B7F80938B00089585B516
:10143000887F826085BD14BC87B7806487BF0895AC
:1014400095B5987F982B95BD0895803140F4E82F8D
:10145000F0E0EE0FFF1FE556FD4F718360830895A6
:10146000893031F48FB582608FBD8FB58E7F0AC011
:101470008A3019F48FB5826002C08FB58D7F8FBD21
:101480008FB581608FBD1BBC1ABC19BC18BC1092F3
:101490007900109278000895893049F480918B008A
:1014A000826080938B0080918B008E7F0EC08A308B
:1014B00021F480918B00826003C080918B008D7F2E
:1014C00080938B0080918B00816080938B001092C1
:1014D000870010928600109285001092840010926E
:1014E0008300109282000895FF920F931F93CF9371
:1014F000DF93182FF62E072F8D31B0F08F3111F4B6
:1015000013E014C08E3111F414E010C08D3109F4D1
:10151000B1C0853211F410E044C0843211F411E0FE
:1015200040C0833219F4A4C08330D8F180919A026C
:1015300086FD12C08EB5887F83608EBD1DBC1CBC2D
:1015400087B7846087BF78948AE00E94300A8091D0
:101550009A02806480939A0280919A02C12FD0E00F
:1015600090E0012E02C0959587950A94E2F780FDE0
:1015700059C087B3FE01EE53FE4F9081892B87BB84
:10158000812F0E94D90920919A0281E090E0012EDA
:1015900002C0880F991F0A94E2F7282B20939A0221
:1015A00041C080919A0287FD18C080918A00887F8F
:1015B000836080938A001092890010928800809145
:1015C0007D00846080937D0078948AE00E944C0ABC
:1015D00080919A02806880939A0280919A02C12F2A
:1015E000D0E090E0012E02C0959587950A94E2F72D
:1015F00080FD22C082B1FE01EE53FE4F9081892B07
:1016000082B9812F0E94D90920919A0281E090E04D
:10161000012E02C0880F991F0A94E2F7282B20930D
:101620009A020AC0153019F40BBDFABC25C014305B
:1016300019F409BDF8BC20C0133029F400937900D7
:10164000F092780019C0123029F400938700F092CC
:10165000860012C0113029F400938500F0928400B6
:101660000BC0112349F400938300F092820004C060
:1016700012E097CF15E05ACFDF91CF911F910F91D4
:10168000FF9008951F920F920FB60F920BB60F9214
:1016900011242F933F934F935F936F937F938F9377
:1016A0009F93AF93BF93EF93FF938091A10290918B
:1016B000A202892B29F0E091A102F091A2020995E2
:1016C000FF91EF91BF91AF919F918F917F916F911A
:1016D0005F914F913F912F910F900BBE0F900FBED6
:1016E0000F901F9018951F920F920FB60F920BB686
:1016F0000F9211242F933F934F935F936F937F9398
:101700008F939F93AF93BF93EF93FF938091AB021F
:101710009091AC02892B29F0E091AB02F091AC02E0
:101720000995FF91EF91BF91AF919F918F917F911B
:101730006F915F914F913F912F910F900BBE0F9042
:101740000FBE0F901F9018951F920F920FB60F9219
:101750000BB60F9211242F933F934F935F936F9388
:101760007F938F939F93AF93BF93EF93FF9380915A
:10177000B1029091B202892B29F0E091B102F0916F
:10178000B2020995FF91EF91BF91AF919F918F9117
:101790007F916F915F914F913F912F910F900BBE71
:1017A0000F900FBE0F901F9018951F920F920FB6BB
:1017B0000F920BB60F9211242F933F934F935F9389
:1017C0006F937F938F939F93AF93BF93EF93FF9309
:1017D00080919D0290919E02892B29F0E0919D02BB
:1017E000F0919E020995FF91EF91BF91AF919F916A
:1017F0008F917F916F915F914F913F912F910F90BA
:101800000BBE0F900FBE0F901F9018951F920F9256
:101810000FB60F920BB60F9211242F933F934F9355
:101820005F936F937F938F939F93AF93BF93EF9348
:10183000FF938091A3029091A402892B29F0E0915B
:10184000A302F091A4020995FF91EF91BF91AF918E
:101850009F918F917F916F915F914F913F912F91C8
:101860000F900BBE0F900FBE0F901F9018951F92F8
:101870000F920FB60F920BB60F9211242F933F9336
:101880004F935F936F937F938F939F93AF93BF9388
:10189000EF93FF938091A5029091A602892B29F0E6
:1018A000E091A502F091A6020995FF91EF91BF91F9
:1018B000AF919F918F917F916F915F914F913F91E8
:1018C0002F910F900BBE0F900FBE0F901F90189589
:1018D0001F920F920FB60F920BB60F9211242F93F7
:1018E0003F934F935F936F937F938F939F93AF93A8
:1018F000BF93EF93FF938091A7029091A802892B49
:1019000029F0E091A702F091A8020995FF91EF91CB
:10191000BF91AF919F918F917F916F915F914F9107
:101920003F912F910F900BBE0F900FBE0F901F9005
:1019300018951F920F920FB60F920BB60F921124AB
:101940002F933F934F935F936F937F938F939F93C7
:10195000AF93BF93EF93FF938091A9029091AA0256
:10196000892B29F0E091A902F091AA020995FF9133
:10197000EF91BF91AF919F918F917F916F915F9107
:101980004F913F912F910F900BBE0F900FBE0F9074
:101990001F9018951F920F920FB60F920BB60F92D1
:1019A00011242F933F934F935F936F937F938F9364
:1019B0009F93AF93BF93EF93FF938091AD0290916C
:1019C000AE02892B29F0E091AD02F091AE020995AB
:1019D000FF91EF91BF91AF919F918F917F916F9107
:1019E0005F914F913F912F910F900BBE0F900FBEC3
:1019F0000F901F9018951F920F920FB60F920BB673
:101A00000F9211242F933F934F935F936F937F9384
:101A10008F939F93AF93BF93EF93FF938091B30204
:101A20009091B402892B29F0E091B302F091B402B5
:101A30000995FF91EF91BF91AF919F918F917F9108
:101A40006F915F914F913F912F910F900BBE0F902F
:101A50000FBE0F901F9018951F920F920FB60F9206
:101A60000BB60F9211242F933F934F935F936F9375
:101A70007F938F939F93AF93BF93EF93FF93809147
:101A8000B5029091B602892B29F0E091B502F09150
:101A9000B6020995FF91EF91BF91AF919F918F9100
:101AA0007F916F915F914F913F912F910F900BBE5E
:101AB0000F900FBE0F901F9018951F920F920FB6A8
:101AC0000F920BB60F9211242F933F934F935F9376
:101AD0006F937F938F939F93AF93BF93EF93FF93F6
:101AE0008091B7029091B802892B29F0E091B7025A
:101AF000F091B8020995FF91EF91BF91AF919F913D
:101B00008F917F916F915F914F913F912F910F90A6
:101B10000BBE0F900FBE0F901F9018951F920F9243
:101B20000FB60F920BB60F9211242F933F934F9342
:101B30005F936F937F938F939F93AF93BF93EF9335
:101B4000FF938091B9029091BA02892B29F0E0911C
:101B5000B902F091BA020995FF91EF91BF91AF914F
:101B60009F918F917F916F915F914F913F912F91B5
:101B70000F900BBE0F900FBE0F901F90189583E033
:101B800061E00E94840984E061E00E948409789405
:101B90000E940E080E945207FDCF0F931F93CF9310
:101BA000DF938C01EB0109C02196D801ED91FC91E6
:101BB0000190F081E02DC801099568816623A1F7A5
:101BC000DF91CF911F910F9108952F923F924F92E5
:101BD0005F926F927F928F929F92AF92BF92CF92BD
:101BE000DF92EF92FF920F931F93DF93CF93CDB7C6
:101BF000DEB7A0970FB6F894DEBF0FBECDBF1C01B5
:101C00006A017B01411551056105710549F4DC014B
:101C1000ED91FC910190F081E02D60E3099554C0B5
:101C2000882499245401422E55246624772401E007
:101C300010E00C0F1D1F080D191DC701B601A301EF
:101C400092010E94CB0EF80160830894811C911CC4
:101C5000A11CB11CC701B601A30192010E94CB0EC9
:101C6000C901DA016C017D01C114D104E104F10460
:101C7000F1F681E0E82EF12CEC0EFD1EE80CF91CCB
:101C80003E010894611C711CD501C4010197A10992
:101C9000B1096C01C818D90814C0F601EE0DFF1D7A
:101CA00060816A3010F4605D01C0695CD101ED9122
:101CB000FC910190F081E02DC10109950894E108A3
:101CC000F1086E147F0449F7A0960FB6F894DEBFB2
:101CD0000FBECDBFCF91DF911F910F91FF90EF907D
:101CE000DF90CF90BF90AF909F908F907F906F903C
:101CF0005F904F903F902F900895EF92FF920F9337
:101D00001F93CF93DF93EC017A018B0177FF0FC014
:101D1000E881F9810190F081E02D6DE2099510953F
:101D20000095F094E094E11CF11C011D111DCE0101
:101D3000B801A7012AE00E94E50DDF91CF911F9124
:101D40000F91FF90EF900895AB01662757FD6095C6
:101D5000762F0E947D0E0895629FD001739FF0013F
:101D6000829FE00DF11D649FE00DF11D929FF00D2B
:101D7000839FF00D749FF00D659FF00D9927729F62
:101D8000B00DE11DF91F639FB00DE11DF91FBD01ED
:101D9000CF0111240895A1E21A2EAA1BBB1BFD013D
:101DA0000DC0AA1FBB1FEE1FFF1FA217B307E4073A
:101DB000F50720F0A21BB30BE40BF50B661F771F92
:101DC000881F991F1A9469F7609570958095909572
:101DD0009B01AC01BD01CF01089597FB092E05269B
:101DE0000ED057FD04D0D7DF0AD0001C38F4509530
:101DF0004095309521953F4F4F4F5F4F0895F6F72F
:101E000090958095709561957F4F8F4F9F4F089566
:101E1000EE0FFF1F0590F491E02D0994F894FFCF89
:101E20005377696E67696E67004261636B00537731
:101E3000696E67696E672041726D00466F727761E7
:101E4000726400503A2000443A2000535045454403
:101E50003A2000484F4C442053544F5000544F20D8
:101E600054554E4500484F4C442053544152540061
:101E7000544F2052554E004D61696E20436F64658A
:101E800000FF0100020001000200320035003B00AB
:101E90003800230062006500310034003A0037004A
:101EA0002200610064003000330039003600210058
:101EB0002000630001FF0000000008010000000096
:101EC0002604DD030504E2031C04180019002600A3
:101ED0002700050004000100000001020408102092
:081EE000408020100880402022
:00000001FF
